{
  "_format": "hh3-artifact-1",
  "contractName": "ArcadePromo",
  "sourceName": "contracts/ArcadePromo.sol",
  "abi": [
    {
      "inputs": [
        {
          "internalType": "address",
          "name": "admin",
          "type": "address"
        }
      ],
      "stateMutability": "nonpayable",
      "type": "constructor"
    },
    {
      "inputs": [],
      "name": "AlreadyClaimed",
      "type": "error"
    },
    {
      "inputs": [],
      "name": "BadParams",
      "type": "error"
    },
    {
      "inputs": [],
      "name": "NoPromoConfigured",
      "type": "error"
    },
    {
      "anonymous": false,
      "inputs": [
        {
          "indexed": false,
          "internalType": "address",
          "name": "account",
          "type": "address"
        }
      ],
      "name": "Paused",
      "type": "event"
    },
    {
      "anonymous": false,
      "inputs": [
        {
          "indexed": true,
          "internalType": "address",
          "name": "user",
          "type": "address"
        },
        {
          "indexed": true,
          "internalType": "bytes32",
          "name": "gameId",
          "type": "bytes32"
        },
        {
          "indexed": false,
          "internalType": "uint256",
          "name": "grantAC",
          "type": "uint256"
        },
        {
          "indexed": true,
          "internalType": "bytes32",
          "name": "ref",
          "type": "bytes32"
        }
      ],
      "name": "PromoClaimed",
      "type": "event"
    },
    {
      "anonymous": false,
      "inputs": [
        {
          "indexed": true,
          "internalType": "bytes32",
          "name": "gameId",
          "type": "bytes32"
        },
        {
          "indexed": false,
          "internalType": "uint256",
          "name": "grantAC",
          "type": "uint256"
        }
      ],
      "name": "PromoConfigured",
      "type": "event"
    },
    {
      "anonymous": false,
      "inputs": [
        {
          "indexed": true,
          "internalType": "bytes32",
          "name": "role",
          "type": "bytes32"
        },
        {
          "indexed": true,
          "internalType": "bytes32",
          "name": "previousAdminRole",
          "type": "bytes32"
        },
        {
          "indexed": true,
          "internalType": "bytes32",
          "name": "newAdminRole",
          "type": "bytes32"
        }
      ],
      "name": "RoleAdminChanged",
      "type": "event"
    },
    {
      "anonymous": false,
      "inputs": [
        {
          "indexed": true,
          "internalType": "bytes32",
          "name": "role",
          "type": "bytes32"
        },
        {
          "indexed": true,
          "internalType": "address",
          "name": "account",
          "type": "address"
        },
        {
          "indexed": true,
          "internalType": "address",
          "name": "sender",
          "type": "address"
        }
      ],
      "name": "RoleGranted",
      "type": "event"
    },
    {
      "anonymous": false,
      "inputs": [
        {
          "indexed": true,
          "internalType": "bytes32",
          "name": "role",
          "type": "bytes32"
        },
        {
          "indexed": true,
          "internalType": "address",
          "name": "account",
          "type": "address"
        },
        {
          "indexed": true,
          "internalType": "address",
          "name": "sender",
          "type": "address"
        }
      ],
      "name": "RoleRevoked",
      "type": "event"
    },
    {
      "anonymous": false,
      "inputs": [
        {
          "indexed": false,
          "internalType": "address",
          "name": "account",
          "type": "address"
        }
      ],
      "name": "Unpaused",
      "type": "event"
    },
    {
      "inputs": [],
      "name": "DEFAULT_ADMIN_ROLE",
      "outputs": [
        {
          "internalType": "bytes32",
          "name": "",
          "type": "bytes32"
        }
      ],
      "stateMutability": "view",
      "type": "function"
    },
    {
      "inputs": [],
      "name": "PARAM_ROLE",
      "outputs": [
        {
          "internalType": "bytes32",
          "name": "",
          "type": "bytes32"
        }
      ],
      "stateMutability": "view",
      "type": "function"
    },
    {
      "inputs": [],
      "name": "PAUSE_ROLE",
      "outputs": [
        {
          "internalType": "bytes32",
          "name": "",
          "type": "bytes32"
        }
      ],
      "stateMutability": "view",
      "type": "function"
    },
    {
      "inputs": [
        {
          "internalType": "bytes32",
          "name": "gameId",
          "type": "bytes32"
        },
        {
          "internalType": "bytes32",
          "name": "ref",
          "type": "bytes32"
        }
      ],
      "name": "claimPromo",
      "outputs": [
        {
          "internalType": "uint256",
          "name": "grantAC",
          "type": "uint256"
        }
      ],
      "stateMutability": "nonpayable",
      "type": "function"
    },
    {
      "inputs": [
        {
          "internalType": "address",
          "name": "",
          "type": "address"
        },
        {
          "internalType": "bytes32",
          "name": "",
          "type": "bytes32"
        }
      ],
      "name": "claimed",
      "outputs": [
        {
          "internalType": "bool",
          "name": "",
          "type": "bool"
        }
      ],
      "stateMutability": "view",
      "type": "function"
    },
    {
      "inputs": [
        {
          "internalType": "bytes32",
          "name": "role",
          "type": "bytes32"
        }
      ],
      "name": "getRoleAdmin",
      "outputs": [
        {
          "internalType": "bytes32",
          "name": "",
          "type": "bytes32"
        }
      ],
      "stateMutability": "view",
      "type": "function"
    },
    {
      "inputs": [
        {
          "internalType": "bytes32",
          "name": "role",
          "type": "bytes32"
        },
        {
          "internalType": "address",
          "name": "account",
          "type": "address"
        }
      ],
      "name": "grantRole",
      "outputs": [],
      "stateMutability": "nonpayable",
      "type": "function"
    },
    {
      "inputs": [
        {
          "internalType": "bytes32",
          "name": "role",
          "type": "bytes32"
        },
        {
          "internalType": "address",
          "name": "account",
          "type": "address"
        }
      ],
      "name": "hasRole",
      "outputs": [
        {
          "internalType": "bool",
          "name": "",
          "type": "bool"
        }
      ],
      "stateMutability": "view",
      "type": "function"
    },
    {
      "inputs": [],
      "name": "pause",
      "outputs": [],
      "stateMutability": "nonpayable",
      "type": "function"
    },
    {
      "inputs": [],
      "name": "paused",
      "outputs": [
        {
          "internalType": "bool",
          "name": "",
          "type": "bool"
        }
      ],
      "stateMutability": "view",
      "type": "function"
    },
    {
      "inputs": [
        {
          "internalType": "bytes32",
          "name": "",
          "type": "bytes32"
        }
      ],
      "name": "promoGrantAC",
      "outputs": [
        {
          "internalType": "uint256",
          "name": "",
          "type": "uint256"
        }
      ],
      "stateMutability": "view",
      "type": "function"
    },
    {
      "inputs": [
        {
          "internalType": "bytes32",
          "name": "role",
          "type": "bytes32"
        },
        {
          "internalType": "address",
          "name": "account",
          "type": "address"
        }
      ],
      "name": "renounceRole",
      "outputs": [],
      "stateMutability": "nonpayable",
      "type": "function"
    },
    {
      "inputs": [
        {
          "internalType": "bytes32",
          "name": "role",
          "type": "bytes32"
        },
        {
          "internalType": "address",
          "name": "account",
          "type": "address"
        }
      ],
      "name": "revokeRole",
      "outputs": [],
      "stateMutability": "nonpayable",
      "type": "function"
    },
    {
      "inputs": [
        {
          "internalType": "bytes32",
          "name": "gameId",
          "type": "bytes32"
        },
        {
          "internalType": "uint256",
          "name": "grantAC",
          "type": "uint256"
        }
      ],
      "name": "setPromo",
      "outputs": [],
      "stateMutability": "nonpayable",
      "type": "function"
    },
    {
      "inputs": [
        {
          "internalType": "bytes4",
          "name": "interfaceId",
          "type": "bytes4"
        }
      ],
      "name": "supportsInterface",
      "outputs": [
        {
          "internalType": "bool",
          "name": "",
          "type": "bool"
        }
      ],
      "stateMutability": "view",
      "type": "function"
    },
    {
      "inputs": [],
      "name": "unpause",
      "outputs": [],
      "stateMutability": "nonpayable",
      "type": "function"
    }
  ],
  "bytecode": "0x6080346101b857601f61100338819003918201601f1916830192916001600160401b038411838510176101bc57808392604095865283396020928391810103126101b857516001600160a01b0391828216918281036101b8579160ff19908160015416600155156101b0575b5f93848052848352858520931692838552825260ff85852054161561017d575b7f8a4778feaa2fc65ebc9ddd026461f05b6522e206b955ca87f94c0eebfa8bcb2c808552848352858520848652835260ff868620541615610149575b507f139c2898040ef16910dc9f44dc697df79363da767d8bc92f2e310312b816e46d91828552848152858520848652815260ff868620541615610113575b8551610e1290816101d18239f35b82855284815285852090848652526001858520918254161790555f80516020610fe3833981519152339380a45f80808080610105565b80855284835285852084865283528585206001838254161790558333915f80516020610fe38339815191528780a45f6100c7565b83805283825284842083855282528484206001828254161790553383855f80516020610fe38339815191528180a461008b565b33925061006b565b5f80fd5b634e487b7160e01b5f52604160045260245ffdfe6080604081815260049081361015610015575f80fd5b5f92833560e01c90816301ffc9a714610811575080630f2d940b146107c9578063248a9ca31461079f5780632f2ff15d146106f657806336568abe14610664578063389ed267146106295780633f4ba83a14610593578063437b8c3d146105585780635c975abb14610534578063670f04c21461047b578063809ea450146104535780638456cb59146103f957806391d14854146103b3578063a217fddf14610398578063a87d43cb146101105763d547741f146100d1575f80fd5b3461010c578060031936011261010c57610109913561010460016100f3610865565b938387528660205286200154610a78565b610bf4565b80f35b8280fd5b508290346103945780600319360112610394578235906024908135907f8a4778feaa2fc65ebc9ddd026461f05b6522e206b955ca87f94c0eebfa8bcb2c92838652602093868552828720338852855260ff8388205416156101ba57505083156101ab57907f7e22153f40f71e2cdca3b0d89809c6be256145fefe784c36b48c4a76c90398b1929184865260028352818187205551908152a280f35b5163019af63760e01b81528590fd5b9084928789936101c933610c8c565b8351916101d583610ba2565b6042835287830193606036863783511561038257603085538351906001918210156103705790607860218601536041915b818311610308575050506102c857836102996048896102ba9660449a999661028a6102619776020b1b1b2b9b9a1b7b73a3937b61d1030b1b1b7bab73a1604d1b9b5198858a9687019d8e528251928391603789019101610b81565b8401917001034b99036b4b9b9b4b733903937b6329607d1b603784015251809386840190610b81565b01036028810185520183610bd2565b5196879562461bcd60e51b8752860152519283809286015285850190610b81565b601f01601f19168101030190fd5b60648688878188519362461bcd60e51b85528401528201527f537472696e67733a20686578206c656e67746820696e73756666696369656e746044820152fd5b909192600f8116601081101561035e576f181899199a1a9b1b9c1cb0b131b232b360811b901a6103388588610c67565b53891c92801561034c575f19019190610206565b634e487b7160e01b825260118a528882fd5b634e487b7160e01b835260328b528983fd5b634e487b7160e01b8152603289528790fd5b634e487b7160e01b8152603288528690fd5b5080fd5b83823461039457816003193601126103945751908152602090f35b50903461010c578160031936011261010c578160209360ff926103d4610865565b903582528186528282206001600160a01b039091168252855220549151911615158152f35b83823461039457816003193601126103945760207f62e78cea01bee320cd4e420270b5ea74000d11b0c9f74754ebdbfc544b05a2589161043761087f565b61043f610d98565b600160ff198154161760015551338152a180f35b50903461010c57602036600319011261010c5760209282913581526002845220549051908152f35b503461010c578060031936011261010c578135610496610d98565b80845260209360028552828120549384156105265733825260038652838220838352865260ff84832054166105185750829033815260038652818120838252865220600160ff19825416179055815190838252602435917f9b0611d7487abb7e5f94f33b72dfdefbb931dc2cae6f8931c0f1cb1df3f0d547863392a451908152f35b8351630c8d9eab60e31b8152fd5b8351631505075560e11b8152fd5b83823461039457816003193601126103945760209060ff6001541690519015158152f35b838234610394578160031936011261039457602090517f8a4778feaa2fc65ebc9ddd026461f05b6522e206b955ca87f94c0eebfa8bcb2c8152f35b50903461010c578260031936011261010c576105ad61087f565b6001549060ff8216156105ef575060ff1916600155513381527f5db9ee0a495bf2e6ff9c91a7834c1ba4fdd244a5e8aa4e537bd38aeae4b073aa90602090a180f35b606490602084519162461bcd60e51b8352820152601460248201527314185d5cd8589b194e881b9bdd081c185d5cd95960621b6044820152fd5b838234610394578160031936011261039457602090517f139c2898040ef16910dc9f44dc697df79363da767d8bc92f2e310312b816e46d8152f35b5091903461039457826003193601126103945761067f610865565b90336001600160a01b0383160361069b57906101099135610bf4565b608490602085519162461bcd60e51b8352820152602f60248201527f416363657373436f6e74726f6c3a2063616e206f6e6c792072656e6f756e636560448201526e103937b632b9903337b91039b2b63360891b6064820152fd5b50903461010c578160031936011261010c573590610712610865565b908284528360205261072960018286200154610a78565b82845260208481528185206001600160a01b039093168086529290528084205460ff1615610755578380f35b828452836020528084208285526020528320600160ff1982541617905533917f2f8788117e7eff1d82e926ec794901d17c78024a50270940304540a733656f0d8480a45f80808380f35b50903461010c57602036600319011261010c57816020936001923581528085522001549051908152f35b50903461010c578160031936011261010c57356001600160a01b0381169081900361010c57818360ff9260209552600385528181206024358252855220541690519015158152f35b8490843461010c57602036600319011261010c573563ffffffff60e01b811680910361010c5760209250637965db0b60e01b8114908115610854575b5015158152f35b6301ffc9a760e01b1490508361084d565b602435906001600160a01b038216820361087b57565b5f80fd5b335f9081527f2a1c876995cd4a57e905c1e774dbbf9c042071dd6e15eba11379d9c34d645f276020908152604080832054909291907f139c2898040ef16910dc9f44dc697df79363da767d8bc92f2e310312b816e46d9060ff16156108e45750505050565b6108ed33610c8c565b908451906108fa82610ba2565b60428252838201946060368737825115610a645760308653825190600191821015610a645790607860218501536041915b8183116109f7575050506109b5578461099160486102ba9360449798519889916109828984019876020b1b1b2b9b9a1b7b73a3937b61d1030b1b1b7bab73a1604d1b8a52610261815180928d603789019101610b81565b01036028810189520187610bd2565b5194859362461bcd60e51b8552600485015251809281602486015285850190610b81565b60648386519062461bcd60e51b825280600483015260248201527f537472696e67733a20686578206c656e67746820696e73756666696369656e746044820152fd5b909192600f81166010811015610a50576f181899199a1a9b1b9c1cb0b131b232b360811b901a610a278587610c67565b5360041c928015610a3c575f1901919061092b565b634e487b7160e01b82526011600452602482fd5b634e487b7160e01b83526032600452602483fd5b634e487b7160e01b81526032600452602490fd5b5f8181526020818152604092838320338452825260ff848420541615610a9e5750505050565b610aa733610c8c565b90845190610ab482610ba2565b60428252838201946060368737825115610a645760308653825190600191821015610a645790607860218501536041915b818311610b3c575050506109b5578461099160486102ba9360449798519889916109828984019876020b1b1b2b9b9a1b7b73a3937b61d1030b1b1b7bab73a1604d1b8a52610261815180928d603789019101610b81565b909192600f81166010811015610a50576f181899199a1a9b1b9c1cb0b131b232b360811b901a610b6c8587610c67565b5360041c928015610a3c575f19019190610ae5565b5f5b838110610b925750505f910152565b8181015183820152602001610b83565b6080810190811067ffffffffffffffff821117610bbe57604052565b634e487b7160e01b5f52604160045260245ffd5b90601f8019910116810190811067ffffffffffffffff821117610bbe57604052565b905f9180835282602052604083209160018060a01b03169182845260205260ff604084205416610c2357505050565b80835282602052604083208284526020526040832060ff1981541690557ff6391f5c32d9c69d2a47ea670b442974b53935d1edc7fd64eb21e047a839171b339380a4565b908151811015610c78570160200190565b634e487b7160e01b5f52603260045260245ffd5b604051906060820182811067ffffffffffffffff821117610bbe57604052602a8252602082016040368237825115610c7857603090538151600190811015610c7857607860218401536029905b808211610d2d575050610ce95790565b606460405162461bcd60e51b815260206004820152602060248201527f537472696e67733a20686578206c656e67746820696e73756666696369656e746044820152fd5b9091600f81166010811015610d84576f181899199a1a9b1b9c1cb0b131b232b360811b901a610d5c8486610c67565b5360041c918015610d70575f190190610cd9565b60245f634e487b7160e01b81526011600452fd5b60245f634e487b7160e01b81526032600452fd5b60ff60015416610da457565b60405162461bcd60e51b815260206004820152601060248201526f14185d5cd8589b194e881c185d5cd95960821b6044820152606490fdfea2646970667358221220f05ae7bb99f57ae81b74f6d2da279c3049c49cdb3b34b3b275cba65199864a9364736f6c634300081400332f8788117e7eff1d82e926ec794901d17c78024a50270940304540a733656f0d",
  "linkReferences": {},
  "deployedLinkReferences": {},
  "immutableReferences": {},
  "inputSourceName": "project/contracts/ArcadePromo.sol",
  "buildInfoId": "solc-0_8_20-52a20af19a9f24cef443eedca0d9249a4937011f"
}