{"project/contracts/ArcadePromo.sol":{"ArcadePromo":{"abi":[{"inputs":[{"internalType":"address","name":"admin","type":"address"}],"stateMutability":"nonpayable","type":"constructor"},{"inputs":[],"name":"AlreadyClaimed","type":"error"},{"inputs":[],"name":"BadParams","type":"error"},{"inputs":[],"name":"NoPromoConfigured","type":"error"},{"anonymous":false,"inputs":[{"indexed":false,"internalType":"address","name":"account","type":"address"}],"name":"Paused","type":"event"},{"anonymous":false,"inputs":[{"indexed":true,"internalType":"address","name":"user","type":"address"},{"indexed":true,"internalType":"bytes32","name":"gameId","type":"bytes32"},{"indexed":false,"internalType":"uint256","name":"grantAC","type":"uint256"},{"indexed":true,"internalType":"bytes32","name":"ref","type":"bytes32"}],"name":"PromoClaimed","type":"event"},{"anonymous":false,"inputs":[{"indexed":true,"internalType":"bytes32","name":"gameId","type":"bytes32"},{"indexed":false,"internalType":"uint256","name":"grantAC","type":"uint256"}],"name":"PromoConfigured","type":"event"},{"anonymous":false,"inputs":[{"indexed":true,"internalType":"bytes32","name":"role","type":"bytes32"},{"indexed":true,"internalType":"bytes32","name":"previousAdminRole","type":"bytes32"},{"indexed":true,"internalType":"bytes32","name":"newAdminRole","type":"bytes32"}],"name":"RoleAdminChanged","type":"event"},{"anonymous":false,"inputs":[{"indexed":true,"internalType":"bytes32","name":"role","type":"bytes32"},{"indexed":true,"internalType":"address","name":"account","type":"address"},{"indexed":true,"internalType":"address","name":"sender","type":"address"}],"name":"RoleGranted","type":"event"},{"anonymous":false,"inputs":[{"indexed":true,"internalType":"bytes32","name":"role","type":"bytes32"},{"indexed":true,"internalType":"address","name":"account","type":"address"},{"indexed":true,"internalType":"address","name":"sender","type":"address"}],"name":"RoleRevoked","type":"event"},{"anonymous":false,"inputs":[{"indexed":false,"internalType":"address","name":"account","type":"address"}],"name":"Unpaused","type":"event"},{"inputs":[],"name":"DEFAULT_ADMIN_ROLE","outputs":[{"internalType":"bytes32","name":"","type":"bytes32"}],"stateMutability":"view","type":"function"},{"inputs":[],"name":"PARAM_ROLE","outputs":[{"internalType":"bytes32","name":"","type":"bytes32"}],"stateMutability":"view","type":"function"},{"inputs":[],"name":"PAUSE_ROLE","outputs":[{"internalType":"bytes32","name":"","type":"bytes32"}],"stateMutability":"view","type":"function"},{"inputs":[{"internalType":"bytes32","name":"gameId","type":"bytes32"},{"internalType":"bytes32","name":"ref","type":"bytes32"}],"name":"claimPromo","outputs":[{"internalType":"uint256","name":"grantAC","type":"uint256"}],"stateMutability":"nonpayable","type":"function"},{"inputs":[{"internalType":"address","name":"","type":"address"},{"internalType":"bytes32","name":"","type":"bytes32"}],"name":"claimed","outputs":[{"internalType":"bool","name":"","type":"bool"}],"stateMutability":"view","type":"function"},{"inputs":[{"internalType":"bytes32","name":"role","type":"bytes32"}],"name":"getRoleAdmin","outputs":[{"internalType":"bytes32","name":"","type":"bytes32"}],"stateMutability":"view","type":"function"},{"inputs":[{"internalType":"bytes32","name":"role","type":"bytes32"},{"internalType":"address","name":"account","type":"address"}],"name":"grantRole","outputs":[],"stateMutability":"nonpayable","type":"function"},{"inputs":[{"internalType":"bytes32","name":"role","type":"bytes32"},{"internalType":"address","name":"account","type":"address"}],"name":"hasRole","outputs":[{"internalType":"bool","name":"","type":"bool"}],"stateMutability":"view","type":"function"},{"inputs":[],"name":"pause","outputs":[],"stateMutability":"nonpayable","type":"function"},{"inputs":[],"name":"paused","outputs":[{"internalType":"bool","name":"","type":"bool"}],"stateMutability":"view","type":"function"},{"inputs":[{"internalType":"bytes32","name":"","type":"bytes32"}],"name":"promoGrantAC","outputs":[{"internalType":"uint256","name":"","type":"uint256"}],"stateMutability":"view","type":"function"},{"inputs":[{"internalType":"bytes32","name":"role","type":"bytes32"},{"internalType":"address","name":"account","type":"address"}],"name":"renounceRole","outputs":[],"stateMutability":"nonpayable","type":"function"},{"inputs":[{"internalType":"bytes32","name":"role","type":"bytes32"},{"internalType":"address","name":"account","type":"address"}],"name":"revokeRole","outputs":[],"stateMutability":"nonpayable","type":"function"},{"inputs":[{"internalType":"bytes32","name":"gameId","type":"bytes32"},{"internalType":"uint256","name":"grantAC","type":"uint256"}],"name":"setPromo","outputs":[],"stateMutability":"nonpayable","type":"function"},{"inputs":[{"internalType":"bytes4","name":"interfaceId","type":"bytes4"}],"name":"supportsInterface","outputs":[{"internalType":"bool","name":"","type":"bool"}],"stateMutability":"view","type":"function"},{"inputs":[],"name":"unpause","outputs":[],"stateMutability":"nonpayable","type":"function"}],"evm":{"bytecode":{"linkReferences":{},"object":"6080346101b857601f61100338819003918201601f1916830192916001600160401b038411838510176101bc57808392604095865283396020928391810103126101b857516001600160a01b0391828216918281036101b8579160ff19908160015416600155156101b0575b5f93848052848352858520931692838552825260ff85852054161561017d575b7f8a4778feaa2fc65ebc9ddd026461f05b6522e206b955ca87f94c0eebfa8bcb2c808552848352858520848652835260ff868620541615610149575b507f139c2898040ef16910dc9f44dc697df79363da767d8bc92f2e310312b816e46d91828552848152858520848652815260ff868620541615610113575b8551610e1290816101d18239f35b82855284815285852090848652526001858520918254161790555f80516020610fe3833981519152339380a45f80808080610105565b80855284835285852084865283528585206001838254161790558333915f80516020610fe38339815191528780a45f6100c7565b83805283825284842083855282528484206001828254161790553383855f80516020610fe38339815191528180a461008b565b33925061006b565b5f80fd5b634e487b7160e01b5f52604160045260245ffdfe6080604081815260049081361015610015575f80fd5b5f92833560e01c90816301ffc9a714610811575080630f2d940b146107c9578063248a9ca31461079f5780632f2ff15d146106f657806336568abe14610664578063389ed267146106295780633f4ba83a14610593578063437b8c3d146105585780635c975abb14610534578063670f04c21461047b578063809ea450146104535780638456cb59146103f957806391d14854146103b3578063a217fddf14610398578063a87d43cb146101105763d547741f146100d1575f80fd5b3461010c578060031936011261010c57610109913561010460016100f3610865565b938387528660205286200154610a78565b610bf4565b80f35b8280fd5b508290346103945780600319360112610394578235906024908135907f8a4778feaa2fc65ebc9ddd026461f05b6522e206b955ca87f94c0eebfa8bcb2c92838652602093868552828720338852855260ff8388205416156101ba57505083156101ab57907f7e22153f40f71e2cdca3b0d89809c6be256145fefe784c36b48c4a76c90398b1929184865260028352818187205551908152a280f35b5163019af63760e01b81528590fd5b9084928789936101c933610c8c565b8351916101d583610ba2565b6042835287830193606036863783511561038257603085538351906001918210156103705790607860218601536041915b818311610308575050506102c857836102996048896102ba9660449a999661028a6102619776020b1b1b2b9b9a1b7b73a3937b61d1030b1b1b7bab73a1604d1b9b5198858a9687019d8e528251928391603789019101610b81565b8401917001034b99036b4b9b9b4b733903937b6329607d1b603784015251809386840190610b81565b01036028810185520183610bd2565b5196879562461bcd60e51b8752860152519283809286015285850190610b81565b601f01601f19168101030190fd5b60648688878188519362461bcd60e51b85528401528201527f537472696e67733a20686578206c656e67746820696e73756666696369656e746044820152fd5b909192600f8116601081101561035e576f181899199a1a9b1b9c1cb0b131b232b360811b901a6103388588610c67565b53891c92801561034c575f19019190610206565b634e487b7160e01b825260118a528882fd5b634e487b7160e01b835260328b528983fd5b634e487b7160e01b8152603289528790fd5b634e487b7160e01b8152603288528690fd5b5080fd5b83823461039457816003193601126103945751908152602090f35b50903461010c578160031936011261010c578160209360ff926103d4610865565b903582528186528282206001600160a01b039091168252855220549151911615158152f35b83823461039457816003193601126103945760207f62e78cea01bee320cd4e420270b5ea74000d11b0c9f74754ebdbfc544b05a2589161043761087f565b61043f610d98565b600160ff198154161760015551338152a180f35b50903461010c57602036600319011261010c5760209282913581526002845220549051908152f35b503461010c578060031936011261010c578135610496610d98565b80845260209360028552828120549384156105265733825260038652838220838352865260ff84832054166105185750829033815260038652818120838252865220600160ff19825416179055815190838252602435917f9b0611d7487abb7e5f94f33b72dfdefbb931dc2cae6f8931c0f1cb1df3f0d547863392a451908152f35b8351630c8d9eab60e31b8152fd5b8351631505075560e11b8152fd5b83823461039457816003193601126103945760209060ff6001541690519015158152f35b838234610394578160031936011261039457602090517f8a4778feaa2fc65ebc9ddd026461f05b6522e206b955ca87f94c0eebfa8bcb2c8152f35b50903461010c578260031936011261010c576105ad61087f565b6001549060ff8216156105ef575060ff1916600155513381527f5db9ee0a495bf2e6ff9c91a7834c1ba4fdd244a5e8aa4e537bd38aeae4b073aa90602090a180f35b606490602084519162461bcd60e51b8352820152601460248201527314185d5cd8589b194e881b9bdd081c185d5cd95960621b6044820152fd5b838234610394578160031936011261039457602090517f139c2898040ef16910dc9f44dc697df79363da767d8bc92f2e310312b816e46d8152f35b5091903461039457826003193601126103945761067f610865565b90336001600160a01b0383160361069b57906101099135610bf4565b608490602085519162461bcd60e51b8352820152602f60248201527f416363657373436f6e74726f6c3a2063616e206f6e6c792072656e6f756e636560448201526e103937b632b9903337b91039b2b63360891b6064820152fd5b50903461010c578160031936011261010c573590610712610865565b908284528360205261072960018286200154610a78565b82845260208481528185206001600160a01b039093168086529290528084205460ff1615610755578380f35b828452836020528084208285526020528320600160ff1982541617905533917f2f8788117e7eff1d82e926ec794901d17c78024a50270940304540a733656f0d8480a45f80808380f35b50903461010c57602036600319011261010c57816020936001923581528085522001549051908152f35b50903461010c578160031936011261010c57356001600160a01b0381169081900361010c57818360ff9260209552600385528181206024358252855220541690519015158152f35b8490843461010c57602036600319011261010c573563ffffffff60e01b811680910361010c5760209250637965db0b60e01b8114908115610854575b5015158152f35b6301ffc9a760e01b1490508361084d565b602435906001600160a01b038216820361087b57565b5f80fd5b335f9081527f2a1c876995cd4a57e905c1e774dbbf9c042071dd6e15eba11379d9c34d645f276020908152604080832054909291907f139c2898040ef16910dc9f44dc697df79363da767d8bc92f2e310312b816e46d9060ff16156108e45750505050565b6108ed33610c8c565b908451906108fa82610ba2565b60428252838201946060368737825115610a645760308653825190600191821015610a645790607860218501536041915b8183116109f7575050506109b5578461099160486102ba9360449798519889916109828984019876020b1b1b2b9b9a1b7b73a3937b61d1030b1b1b7bab73a1604d1b8a52610261815180928d603789019101610b81565b01036028810189520187610bd2565b5194859362461bcd60e51b8552600485015251809281602486015285850190610b81565b60648386519062461bcd60e51b825280600483015260248201527f537472696e67733a20686578206c656e67746820696e73756666696369656e746044820152fd5b909192600f81166010811015610a50576f181899199a1a9b1b9c1cb0b131b232b360811b901a610a278587610c67565b5360041c928015610a3c575f1901919061092b565b634e487b7160e01b82526011600452602482fd5b634e487b7160e01b83526032600452602483fd5b634e487b7160e01b81526032600452602490fd5b5f8181526020818152604092838320338452825260ff848420541615610a9e5750505050565b610aa733610c8c565b90845190610ab482610ba2565b60428252838201946060368737825115610a645760308653825190600191821015610a645790607860218501536041915b818311610b3c575050506109b5578461099160486102ba9360449798519889916109828984019876020b1b1b2b9b9a1b7b73a3937b61d1030b1b1b7bab73a1604d1b8a52610261815180928d603789019101610b81565b909192600f81166010811015610a50576f181899199a1a9b1b9c1cb0b131b232b360811b901a610b6c8587610c67565b5360041c928015610a3c575f19019190610ae5565b5f5b838110610b925750505f910152565b8181015183820152602001610b83565b6080810190811067ffffffffffffffff821117610bbe57604052565b634e487b7160e01b5f52604160045260245ffd5b90601f8019910116810190811067ffffffffffffffff821117610bbe57604052565b905f9180835282602052604083209160018060a01b03169182845260205260ff604084205416610c2357505050565b80835282602052604083208284526020526040832060ff1981541690557ff6391f5c32d9c69d2a47ea670b442974b53935d1edc7fd64eb21e047a839171b339380a4565b908151811015610c78570160200190565b634e487b7160e01b5f52603260045260245ffd5b604051906060820182811067ffffffffffffffff821117610bbe57604052602a8252602082016040368237825115610c7857603090538151600190811015610c7857607860218401536029905b808211610d2d575050610ce95790565b606460405162461bcd60e51b815260206004820152602060248201527f537472696e67733a20686578206c656e67746820696e73756666696369656e746044820152fd5b9091600f81166010811015610d84576f181899199a1a9b1b9c1cb0b131b232b360811b901a610d5c8486610c67565b5360041c918015610d70575f190190610cd9565b60245f634e487b7160e01b81526011600452fd5b60245f634e487b7160e01b81526032600452fd5b60ff60015416610da457565b60405162461bcd60e51b815260206004820152601060248201526f14185d5cd8589b194e881c185d5cd95960821b6044820152606490fdfea2646970667358221220f05ae7bb99f57ae81b74f6d2da279c3049c49cdb3b34b3b275cba65199864a9364736f6c634300081400332f8788117e7eff1d82e926ec794901d17c78024a50270940304540a733656f0d","opcodes":"PUSH1 0x80 CALLVALUE PUSH2 0x1B8 JUMPI PUSH1 0x1F PUSH2 0x1003 CODESIZE DUP2 SWAP1 SUB SWAP2 DUP3 ADD PUSH1 0x1F NOT AND DUP4 ADD SWAP3 SWAP2 PUSH1 0x1 PUSH1 0x1 PUSH1 0x40 SHL SUB DUP5 GT DUP4 DUP6 LT OR PUSH2 0x1BC JUMPI DUP1 DUP4 SWAP3 PUSH1 0x40 SWAP6 DUP7 MSTORE DUP4 CODECOPY PUSH1 0x20 SWAP3 DUP4 SWAP2 DUP2 ADD SUB SLT PUSH2 0x1B8 JUMPI MLOAD PUSH1 0x1 PUSH1 0x1 PUSH1 0xA0 SHL SUB SWAP2 DUP3 DUP3 AND SWAP2 DUP3 DUP2 SUB PUSH2 0x1B8 JUMPI SWAP2 PUSH1 0xFF NOT SWAP1 DUP2 PUSH1 0x1 SLOAD AND PUSH1 0x1 SSTORE ISZERO PUSH2 0x1B0 JUMPI JUMPDEST PUSH0 SWAP4 DUP5 DUP1 MSTORE DUP5 DUP4 MSTORE DUP6 DUP6 KECCAK256 SWAP4 AND SWAP3 DUP4 DUP6 MSTORE DUP3 MSTORE PUSH1 0xFF DUP6 DUP6 KECCAK256 SLOAD AND ISZERO PUSH2 0x17D JUMPI JUMPDEST PUSH32 0x8A4778FEAA2FC65EBC9DDD026461F05B6522E206B955CA87F94C0EEBFA8BCB2C DUP1 DUP6 MSTORE DUP5 DUP4 MSTORE DUP6 DUP6 KECCAK256 DUP5 DUP7 MSTORE DUP4 MSTORE PUSH1 0xFF DUP7 DUP7 KECCAK256 SLOAD AND ISZERO PUSH2 0x149 JUMPI JUMPDEST POP PUSH32 0x139C2898040EF16910DC9F44DC697DF79363DA767D8BC92F2E310312B816E46D SWAP2 DUP3 DUP6 MSTORE DUP5 DUP2 MSTORE DUP6 DUP6 KECCAK256 DUP5 DUP7 MSTORE DUP2 MSTORE PUSH1 0xFF DUP7 DUP7 KECCAK256 SLOAD AND ISZERO PUSH2 0x113 JUMPI JUMPDEST DUP6 MLOAD PUSH2 0xE12 SWAP1 DUP2 PUSH2 0x1D1 DUP3 CODECOPY RETURN JUMPDEST DUP3 DUP6 MSTORE DUP5 DUP2 MSTORE DUP6 DUP6 KECCAK256 SWAP1 DUP5 DUP7 MSTORE MSTORE PUSH1 0x1 DUP6 DUP6 KECCAK256 SWAP2 DUP3 SLOAD AND OR SWAP1 SSTORE PUSH0 DUP1 MLOAD PUSH1 0x20 PUSH2 0xFE3 DUP4 CODECOPY DUP2 MLOAD SWAP2 MSTORE CALLER SWAP4 DUP1 LOG4 PUSH0 DUP1 DUP1 DUP1 DUP1 PUSH2 0x105 JUMP JUMPDEST DUP1 DUP6 MSTORE DUP5 DUP4 MSTORE DUP6 DUP6 KECCAK256 DUP5 DUP7 MSTORE DUP4 MSTORE DUP6 DUP6 KECCAK256 PUSH1 0x1 DUP4 DUP3 SLOAD AND OR SWAP1 SSTORE DUP4 CALLER SWAP2 PUSH0 DUP1 MLOAD PUSH1 0x20 PUSH2 0xFE3 DUP4 CODECOPY DUP2 MLOAD SWAP2 MSTORE DUP8 DUP1 LOG4 PUSH0 PUSH2 0xC7 JUMP JUMPDEST DUP4 DUP1 MSTORE DUP4 DUP3 MSTORE DUP5 DUP5 KECCAK256 DUP4 DUP6 MSTORE DUP3 MSTORE DUP5 DUP5 KECCAK256 PUSH1 0x1 DUP3 DUP3 SLOAD AND OR SWAP1 SSTORE CALLER DUP4 DUP6 PUSH0 DUP1 MLOAD PUSH1 0x20 PUSH2 0xFE3 DUP4 CODECOPY DUP2 MLOAD SWAP2 MSTORE DUP2 DUP1 LOG4 PUSH2 0x8B JUMP JUMPDEST CALLER SWAP3 POP PUSH2 0x6B JUMP JUMPDEST PUSH0 DUP1 REVERT JUMPDEST PUSH4 0x4E487B71 PUSH1 0xE0 SHL PUSH0 MSTORE PUSH1 0x41 PUSH1 0x4 MSTORE PUSH1 0x24 PUSH0 REVERT INVALID PUSH1 0x80 PUSH1 0x40 DUP2 DUP2 MSTORE PUSH1 0x4 SWAP1 DUP2 CALLDATASIZE LT ISZERO PUSH2 0x15 JUMPI PUSH0 DUP1 REVERT JUMPDEST PUSH0 SWAP3 DUP4 CALLDATALOAD PUSH1 0xE0 SHR SWAP1 DUP2 PUSH4 0x1FFC9A7 EQ PUSH2 0x811 JUMPI POP DUP1 PUSH4 0xF2D940B EQ PUSH2 0x7C9 JUMPI DUP1 PUSH4 0x248A9CA3 EQ PUSH2 0x79F JUMPI DUP1 PUSH4 0x2F2FF15D EQ PUSH2 0x6F6 JUMPI DUP1 PUSH4 0x36568ABE EQ PUSH2 0x664 JUMPI DUP1 PUSH4 0x389ED267 EQ PUSH2 0x629 JUMPI DUP1 PUSH4 0x3F4BA83A EQ PUSH2 0x593 JUMPI DUP1 PUSH4 0x437B8C3D EQ PUSH2 0x558 JUMPI DUP1 PUSH4 0x5C975ABB EQ PUSH2 0x534 JUMPI DUP1 PUSH4 0x670F04C2 EQ PUSH2 0x47B JUMPI DUP1 PUSH4 0x809EA450 EQ PUSH2 0x453 JUMPI DUP1 PUSH4 0x8456CB59 EQ PUSH2 0x3F9 JUMPI DUP1 PUSH4 0x91D14854 EQ PUSH2 0x3B3 JUMPI DUP1 PUSH4 0xA217FDDF EQ PUSH2 0x398 JUMPI DUP1 PUSH4 0xA87D43CB EQ PUSH2 0x110 JUMPI PUSH4 0xD547741F EQ PUSH2 0xD1 JUMPI PUSH0 DUP1 REVERT JUMPDEST CALLVALUE PUSH2 0x10C JUMPI DUP1 PUSH1 0x3 NOT CALLDATASIZE ADD SLT PUSH2 0x10C JUMPI PUSH2 0x109 SWAP2 CALLDATALOAD PUSH2 0x104 PUSH1 0x1 PUSH2 0xF3 PUSH2 0x865 JUMP JUMPDEST SWAP4 DUP4 DUP8 MSTORE DUP7 PUSH1 0x20 MSTORE DUP7 KECCAK256 ADD SLOAD PUSH2 0xA78 JUMP JUMPDEST PUSH2 0xBF4 JUMP JUMPDEST DUP1 RETURN JUMPDEST DUP3 DUP1 REVERT JUMPDEST POP DUP3 SWAP1 CALLVALUE PUSH2 0x394 JUMPI DUP1 PUSH1 0x3 NOT CALLDATASIZE ADD SLT PUSH2 0x394 JUMPI DUP3 CALLDATALOAD SWAP1 PUSH1 0x24 SWAP1 DUP2 CALLDATALOAD SWAP1 PUSH32 0x8A4778FEAA2FC65EBC9DDD026461F05B6522E206B955CA87F94C0EEBFA8BCB2C SWAP3 DUP4 DUP7 MSTORE PUSH1 0x20 SWAP4 DUP7 DUP6 MSTORE DUP3 DUP8 KECCAK256 CALLER DUP9 MSTORE DUP6 MSTORE PUSH1 0xFF DUP4 DUP9 KECCAK256 SLOAD AND ISZERO PUSH2 0x1BA JUMPI POP POP DUP4 ISZERO PUSH2 0x1AB JUMPI SWAP1 PUSH32 0x7E22153F40F71E2CDCA3B0D89809C6BE256145FEFE784C36B48C4A76C90398B1 SWAP3 SWAP2 DUP5 DUP7 MSTORE PUSH1 0x2 DUP4 MSTORE DUP2 DUP2 DUP8 KECCAK256 SSTORE MLOAD SWAP1 DUP2 MSTORE LOG2 DUP1 RETURN JUMPDEST MLOAD PUSH4 0x19AF637 PUSH1 0xE0 SHL DUP2 MSTORE DUP6 SWAP1 REVERT JUMPDEST SWAP1 DUP5 SWAP3 DUP8 DUP10 SWAP4 PUSH2 0x1C9 CALLER PUSH2 0xC8C JUMP JUMPDEST DUP4 MLOAD SWAP2 PUSH2 0x1D5 DUP4 PUSH2 0xBA2 JUMP JUMPDEST PUSH1 0x42 DUP4 MSTORE DUP8 DUP4 ADD SWAP4 PUSH1 0x60 CALLDATASIZE DUP7 CALLDATACOPY DUP4 MLOAD ISZERO PUSH2 0x382 JUMPI PUSH1 0x30 DUP6 MSTORE8 DUP4 MLOAD SWAP1 PUSH1 0x1 SWAP2 DUP3 LT ISZERO PUSH2 0x370 JUMPI SWAP1 PUSH1 0x78 PUSH1 0x21 DUP7 ADD MSTORE8 PUSH1 0x41 SWAP2 JUMPDEST DUP2 DUP4 GT PUSH2 0x308 JUMPI POP POP POP PUSH2 0x2C8 JUMPI DUP4 PUSH2 0x299 PUSH1 0x48 DUP10 PUSH2 0x2BA SWAP7 PUSH1 0x44 SWAP11 SWAP10 SWAP7 PUSH2 0x28A PUSH2 0x261 SWAP8 PUSH23 0x20B1B1B2B9B9A1B7B73A3937B61D1030B1B1B7BAB73A1 PUSH1 0x4D SHL SWAP12 MLOAD SWAP9 DUP6 DUP11 SWAP7 DUP8 ADD SWAP14 DUP15 MSTORE DUP3 MLOAD SWAP3 DUP4 SWAP2 PUSH1 0x37 DUP10 ADD SWAP2 ADD PUSH2 0xB81 JUMP JUMPDEST DUP5 ADD SWAP2 PUSH17 0x1034B99036B4B9B9B4B733903937B6329 PUSH1 0x7D SHL PUSH1 0x37 DUP5 ADD MSTORE MLOAD DUP1 SWAP4 DUP7 DUP5 ADD SWAP1 PUSH2 0xB81 JUMP JUMPDEST ADD SUB PUSH1 0x28 DUP2 ADD DUP6 MSTORE ADD DUP4 PUSH2 0xBD2 JUMP JUMPDEST MLOAD SWAP7 DUP8 SWAP6 PUSH3 0x461BCD PUSH1 0xE5 SHL DUP8 MSTORE DUP7 ADD MSTORE MLOAD SWAP3 DUP4 DUP1 SWAP3 DUP7 ADD MSTORE DUP6 DUP6 ADD SWAP1 PUSH2 0xB81 JUMP JUMPDEST PUSH1 0x1F ADD PUSH1 0x1F NOT AND DUP2 ADD SUB ADD SWAP1 REVERT JUMPDEST PUSH1 0x64 DUP7 DUP9 DUP8 DUP2 DUP9 MLOAD SWAP4 PUSH3 0x461BCD PUSH1 0xE5 SHL DUP6 MSTORE DUP5 ADD MSTORE DUP3 ADD MSTORE PUSH32 0x537472696E67733A20686578206C656E67746820696E73756666696369656E74 PUSH1 0x44 DUP3 ADD MSTORE REVERT JUMPDEST SWAP1 SWAP2 SWAP3 PUSH1 0xF DUP2 AND PUSH1 0x10 DUP2 LT ISZERO PUSH2 0x35E JUMPI PUSH16 0x181899199A1A9B1B9C1CB0B131B232B3 PUSH1 0x81 SHL SWAP1 BYTE PUSH2 0x338 DUP6 DUP9 PUSH2 0xC67 JUMP JUMPDEST MSTORE8 DUP10 SHR SWAP3 DUP1 ISZERO PUSH2 0x34C JUMPI PUSH0 NOT ADD SWAP2 SWAP1 PUSH2 0x206 JUMP JUMPDEST PUSH4 0x4E487B71 PUSH1 0xE0 SHL DUP3 MSTORE PUSH1 0x11 DUP11 MSTORE DUP9 DUP3 REVERT JUMPDEST PUSH4 0x4E487B71 PUSH1 0xE0 SHL DUP4 MSTORE PUSH1 0x32 DUP12 MSTORE DUP10 DUP4 REVERT JUMPDEST PUSH4 0x4E487B71 PUSH1 0xE0 SHL DUP2 MSTORE PUSH1 0x32 DUP10 MSTORE DUP8 SWAP1 REVERT JUMPDEST PUSH4 0x4E487B71 PUSH1 0xE0 SHL DUP2 MSTORE PUSH1 0x32 DUP9 MSTORE DUP7 SWAP1 REVERT JUMPDEST POP DUP1 REVERT JUMPDEST DUP4 DUP3 CALLVALUE PUSH2 0x394 JUMPI DUP2 PUSH1 0x3 NOT CALLDATASIZE ADD SLT PUSH2 0x394 JUMPI MLOAD SWAP1 DUP2 MSTORE PUSH1 0x20 SWAP1 RETURN JUMPDEST POP SWAP1 CALLVALUE PUSH2 0x10C JUMPI DUP2 PUSH1 0x3 NOT CALLDATASIZE ADD SLT PUSH2 0x10C JUMPI DUP2 PUSH1 0x20 SWAP4 PUSH1 0xFF SWAP3 PUSH2 0x3D4 PUSH2 0x865 JUMP JUMPDEST SWAP1 CALLDATALOAD DUP3 MSTORE DUP2 DUP7 MSTORE DUP3 DUP3 KECCAK256 PUSH1 0x1 PUSH1 0x1 PUSH1 0xA0 SHL SUB SWAP1 SWAP2 AND DUP3 MSTORE DUP6 MSTORE KECCAK256 SLOAD SWAP2 MLOAD SWAP2 AND ISZERO ISZERO DUP2 MSTORE RETURN JUMPDEST DUP4 DUP3 CALLVALUE PUSH2 0x394 JUMPI DUP2 PUSH1 0x3 NOT CALLDATASIZE ADD SLT PUSH2 0x394 JUMPI PUSH1 0x20 PUSH32 0x62E78CEA01BEE320CD4E420270B5EA74000D11B0C9F74754EBDBFC544B05A258 SWAP2 PUSH2 0x437 PUSH2 0x87F JUMP JUMPDEST PUSH2 0x43F PUSH2 0xD98 JUMP JUMPDEST PUSH1 0x1 PUSH1 0xFF NOT DUP2 SLOAD AND OR PUSH1 0x1 SSTORE MLOAD CALLER DUP2 MSTORE LOG1 DUP1 RETURN JUMPDEST POP SWAP1 CALLVALUE PUSH2 0x10C JUMPI PUSH1 0x20 CALLDATASIZE PUSH1 0x3 NOT ADD SLT PUSH2 0x10C JUMPI PUSH1 0x20 SWAP3 DUP3 SWAP2 CALLDATALOAD DUP2 MSTORE PUSH1 0x2 DUP5 MSTORE KECCAK256 SLOAD SWAP1 MLOAD SWAP1 DUP2 MSTORE RETURN JUMPDEST POP CALLVALUE PUSH2 0x10C JUMPI DUP1 PUSH1 0x3 NOT CALLDATASIZE ADD SLT PUSH2 0x10C JUMPI DUP2 CALLDATALOAD PUSH2 0x496 PUSH2 0xD98 JUMP JUMPDEST DUP1 DUP5 MSTORE PUSH1 0x20 SWAP4 PUSH1 0x2 DUP6 MSTORE DUP3 DUP2 KECCAK256 SLOAD SWAP4 DUP5 ISZERO PUSH2 0x526 JUMPI CALLER DUP3 MSTORE PUSH1 0x3 DUP7 MSTORE DUP4 DUP3 KECCAK256 DUP4 DUP4 MSTORE DUP7 MSTORE PUSH1 0xFF DUP5 DUP4 KECCAK256 SLOAD AND PUSH2 0x518 JUMPI POP DUP3 SWAP1 CALLER DUP2 MSTORE PUSH1 0x3 DUP7 MSTORE DUP2 DUP2 KECCAK256 DUP4 DUP3 MSTORE DUP7 MSTORE KECCAK256 PUSH1 0x1 PUSH1 0xFF NOT DUP3 SLOAD AND OR SWAP1 SSTORE DUP2 MLOAD SWAP1 DUP4 DUP3 MSTORE PUSH1 0x24 CALLDATALOAD SWAP2 PUSH32 0x9B0611D7487ABB7E5F94F33B72DFDEFBB931DC2CAE6F8931C0F1CB1DF3F0D547 DUP7 CALLER SWAP3 LOG4 MLOAD SWAP1 DUP2 MSTORE RETURN JUMPDEST DUP4 MLOAD PUSH4 0xC8D9EAB PUSH1 0xE3 SHL DUP2 MSTORE REVERT JUMPDEST DUP4 MLOAD PUSH4 0x15050755 PUSH1 0xE1 SHL DUP2 MSTORE REVERT JUMPDEST DUP4 DUP3 CALLVALUE PUSH2 0x394 JUMPI DUP2 PUSH1 0x3 NOT CALLDATASIZE ADD SLT PUSH2 0x394 JUMPI PUSH1 0x20 SWAP1 PUSH1 0xFF PUSH1 0x1 SLOAD AND SWAP1 MLOAD SWAP1 ISZERO ISZERO DUP2 MSTORE RETURN JUMPDEST DUP4 DUP3 CALLVALUE PUSH2 0x394 JUMPI DUP2 PUSH1 0x3 NOT CALLDATASIZE ADD SLT PUSH2 0x394 JUMPI PUSH1 0x20 SWAP1 MLOAD PUSH32 0x8A4778FEAA2FC65EBC9DDD026461F05B6522E206B955CA87F94C0EEBFA8BCB2C DUP2 MSTORE RETURN JUMPDEST POP SWAP1 CALLVALUE PUSH2 0x10C JUMPI DUP3 PUSH1 0x3 NOT CALLDATASIZE ADD SLT PUSH2 0x10C JUMPI PUSH2 0x5AD PUSH2 0x87F JUMP JUMPDEST PUSH1 0x1 SLOAD SWAP1 PUSH1 0xFF DUP3 AND ISZERO PUSH2 0x5EF JUMPI POP PUSH1 0xFF NOT AND PUSH1 0x1 SSTORE MLOAD CALLER DUP2 MSTORE PUSH32 0x5DB9EE0A495BF2E6FF9C91A7834C1BA4FDD244A5E8AA4E537BD38AEAE4B073AA SWAP1 PUSH1 0x20 SWAP1 LOG1 DUP1 RETURN JUMPDEST PUSH1 0x64 SWAP1 PUSH1 0x20 DUP5 MLOAD SWAP2 PUSH3 0x461BCD PUSH1 0xE5 SHL DUP4 MSTORE DUP3 ADD MSTORE PUSH1 0x14 PUSH1 0x24 DUP3 ADD MSTORE PUSH20 0x14185D5CD8589B194E881B9BDD081C185D5CD959 PUSH1 0x62 SHL PUSH1 0x44 DUP3 ADD MSTORE REVERT JUMPDEST DUP4 DUP3 CALLVALUE PUSH2 0x394 JUMPI DUP2 PUSH1 0x3 NOT CALLDATASIZE ADD SLT PUSH2 0x394 JUMPI PUSH1 0x20 SWAP1 MLOAD PUSH32 0x139C2898040EF16910DC9F44DC697DF79363DA767D8BC92F2E310312B816E46D DUP2 MSTORE RETURN JUMPDEST POP SWAP2 SWAP1 CALLVALUE PUSH2 0x394 JUMPI DUP3 PUSH1 0x3 NOT CALLDATASIZE ADD SLT PUSH2 0x394 JUMPI PUSH2 0x67F PUSH2 0x865 JUMP JUMPDEST SWAP1 CALLER PUSH1 0x1 PUSH1 0x1 PUSH1 0xA0 SHL SUB DUP4 AND SUB PUSH2 0x69B JUMPI SWAP1 PUSH2 0x109 SWAP2 CALLDATALOAD PUSH2 0xBF4 JUMP JUMPDEST PUSH1 0x84 SWAP1 PUSH1 0x20 DUP6 MLOAD SWAP2 PUSH3 0x461BCD PUSH1 0xE5 SHL DUP4 MSTORE DUP3 ADD MSTORE PUSH1 0x2F PUSH1 0x24 DUP3 ADD MSTORE PUSH32 0x416363657373436F6E74726F6C3A2063616E206F6E6C792072656E6F756E6365 PUSH1 0x44 DUP3 ADD MSTORE PUSH15 0x103937B632B9903337B91039B2B633 PUSH1 0x89 SHL PUSH1 0x64 DUP3 ADD MSTORE REVERT JUMPDEST POP SWAP1 CALLVALUE PUSH2 0x10C JUMPI DUP2 PUSH1 0x3 NOT CALLDATASIZE ADD SLT PUSH2 0x10C JUMPI CALLDATALOAD SWAP1 PUSH2 0x712 PUSH2 0x865 JUMP JUMPDEST SWAP1 DUP3 DUP5 MSTORE DUP4 PUSH1 0x20 MSTORE PUSH2 0x729 PUSH1 0x1 DUP3 DUP7 KECCAK256 ADD SLOAD PUSH2 0xA78 JUMP JUMPDEST DUP3 DUP5 MSTORE PUSH1 0x20 DUP5 DUP2 MSTORE DUP2 DUP6 KECCAK256 PUSH1 0x1 PUSH1 0x1 PUSH1 0xA0 SHL SUB SWAP1 SWAP4 AND DUP1 DUP7 MSTORE SWAP3 SWAP1 MSTORE DUP1 DUP5 KECCAK256 SLOAD PUSH1 0xFF AND ISZERO PUSH2 0x755 JUMPI DUP4 DUP1 RETURN JUMPDEST DUP3 DUP5 MSTORE DUP4 PUSH1 0x20 MSTORE DUP1 DUP5 KECCAK256 DUP3 DUP6 MSTORE PUSH1 0x20 MSTORE DUP4 KECCAK256 PUSH1 0x1 PUSH1 0xFF NOT DUP3 SLOAD AND OR SWAP1 SSTORE CALLER SWAP2 PUSH32 0x2F8788117E7EFF1D82E926EC794901D17C78024A50270940304540A733656F0D DUP5 DUP1 LOG4 PUSH0 DUP1 DUP1 DUP4 DUP1 RETURN JUMPDEST POP SWAP1 CALLVALUE PUSH2 0x10C JUMPI PUSH1 0x20 CALLDATASIZE PUSH1 0x3 NOT ADD SLT PUSH2 0x10C JUMPI DUP2 PUSH1 0x20 SWAP4 PUSH1 0x1 SWAP3 CALLDATALOAD DUP2 MSTORE DUP1 DUP6 MSTORE KECCAK256 ADD SLOAD SWAP1 MLOAD SWAP1 DUP2 MSTORE RETURN JUMPDEST POP SWAP1 CALLVALUE PUSH2 0x10C JUMPI DUP2 PUSH1 0x3 NOT CALLDATASIZE ADD SLT PUSH2 0x10C JUMPI CALLDATALOAD PUSH1 0x1 PUSH1 0x1 PUSH1 0xA0 SHL SUB DUP2 AND SWAP1 DUP2 SWAP1 SUB PUSH2 0x10C JUMPI DUP2 DUP4 PUSH1 0xFF SWAP3 PUSH1 0x20 SWAP6 MSTORE PUSH1 0x3 DUP6 MSTORE DUP2 DUP2 KECCAK256 PUSH1 0x24 CALLDATALOAD DUP3 MSTORE DUP6 MSTORE KECCAK256 SLOAD AND SWAP1 MLOAD SWAP1 ISZERO ISZERO DUP2 MSTORE RETURN JUMPDEST DUP5 SWAP1 DUP5 CALLVALUE PUSH2 0x10C JUMPI PUSH1 0x20 CALLDATASIZE PUSH1 0x3 NOT ADD SLT PUSH2 0x10C JUMPI CALLDATALOAD PUSH4 0xFFFFFFFF PUSH1 0xE0 SHL DUP2 AND DUP1 SWAP2 SUB PUSH2 0x10C JUMPI PUSH1 0x20 SWAP3 POP PUSH4 0x7965DB0B PUSH1 0xE0 SHL DUP2 EQ SWAP1 DUP2 ISZERO PUSH2 0x854 JUMPI JUMPDEST POP ISZERO ISZERO DUP2 MSTORE RETURN JUMPDEST PUSH4 0x1FFC9A7 PUSH1 0xE0 SHL EQ SWAP1 POP DUP4 PUSH2 0x84D JUMP JUMPDEST PUSH1 0x24 CALLDATALOAD SWAP1 PUSH1 0x1 PUSH1 0x1 PUSH1 0xA0 SHL SUB DUP3 AND DUP3 SUB PUSH2 0x87B JUMPI JUMP JUMPDEST PUSH0 DUP1 REVERT JUMPDEST CALLER PUSH0 SWAP1 DUP2 MSTORE PUSH32 0x2A1C876995CD4A57E905C1E774DBBF9C042071DD6E15EBA11379D9C34D645F27 PUSH1 0x20 SWAP1 DUP2 MSTORE PUSH1 0x40 DUP1 DUP4 KECCAK256 SLOAD SWAP1 SWAP3 SWAP2 SWAP1 PUSH32 0x139C2898040EF16910DC9F44DC697DF79363DA767D8BC92F2E310312B816E46D SWAP1 PUSH1 0xFF AND ISZERO PUSH2 0x8E4 JUMPI POP POP POP POP JUMP JUMPDEST PUSH2 0x8ED CALLER PUSH2 0xC8C JUMP JUMPDEST SWAP1 DUP5 MLOAD SWAP1 PUSH2 0x8FA DUP3 PUSH2 0xBA2 JUMP JUMPDEST PUSH1 0x42 DUP3 MSTORE DUP4 DUP3 ADD SWAP5 PUSH1 0x60 CALLDATASIZE DUP8 CALLDATACOPY DUP3 MLOAD ISZERO PUSH2 0xA64 JUMPI PUSH1 0x30 DUP7 MSTORE8 DUP3 MLOAD SWAP1 PUSH1 0x1 SWAP2 DUP3 LT ISZERO PUSH2 0xA64 JUMPI SWAP1 PUSH1 0x78 PUSH1 0x21 DUP6 ADD MSTORE8 PUSH1 0x41 SWAP2 JUMPDEST DUP2 DUP4 GT PUSH2 0x9F7 JUMPI POP POP POP PUSH2 0x9B5 JUMPI DUP5 PUSH2 0x991 PUSH1 0x48 PUSH2 0x2BA SWAP4 PUSH1 0x44 SWAP8 SWAP9 MLOAD SWAP9 DUP10 SWAP2 PUSH2 0x982 DUP10 DUP5 ADD SWAP9 PUSH23 0x20B1B1B2B9B9A1B7B73A3937B61D1030B1B1B7BAB73A1 PUSH1 0x4D SHL DUP11 MSTORE PUSH2 0x261 DUP2 MLOAD DUP1 SWAP3 DUP14 PUSH1 0x37 DUP10 ADD SWAP2 ADD PUSH2 0xB81 JUMP JUMPDEST ADD SUB PUSH1 0x28 DUP2 ADD DUP10 MSTORE ADD DUP8 PUSH2 0xBD2 JUMP JUMPDEST MLOAD SWAP5 DUP6 SWAP4 PUSH3 0x461BCD PUSH1 0xE5 SHL DUP6 MSTORE PUSH1 0x4 DUP6 ADD MSTORE MLOAD DUP1 SWAP3 DUP2 PUSH1 0x24 DUP7 ADD MSTORE DUP6 DUP6 ADD SWAP1 PUSH2 0xB81 JUMP JUMPDEST PUSH1 0x64 DUP4 DUP7 MLOAD SWAP1 PUSH3 0x461BCD PUSH1 0xE5 SHL DUP3 MSTORE DUP1 PUSH1 0x4 DUP4 ADD MSTORE PUSH1 0x24 DUP3 ADD MSTORE PUSH32 0x537472696E67733A20686578206C656E67746820696E73756666696369656E74 PUSH1 0x44 DUP3 ADD MSTORE REVERT JUMPDEST SWAP1 SWAP2 SWAP3 PUSH1 0xF DUP2 AND PUSH1 0x10 DUP2 LT ISZERO PUSH2 0xA50 JUMPI PUSH16 0x181899199A1A9B1B9C1CB0B131B232B3 PUSH1 0x81 SHL SWAP1 BYTE PUSH2 0xA27 DUP6 DUP8 PUSH2 0xC67 JUMP JUMPDEST MSTORE8 PUSH1 0x4 SHR SWAP3 DUP1 ISZERO PUSH2 0xA3C JUMPI PUSH0 NOT ADD SWAP2 SWAP1 PUSH2 0x92B JUMP JUMPDEST PUSH4 0x4E487B71 PUSH1 0xE0 SHL DUP3 MSTORE PUSH1 0x11 PUSH1 0x4 MSTORE PUSH1 0x24 DUP3 REVERT JUMPDEST PUSH4 0x4E487B71 PUSH1 0xE0 SHL DUP4 MSTORE PUSH1 0x32 PUSH1 0x4 MSTORE PUSH1 0x24 DUP4 REVERT JUMPDEST PUSH4 0x4E487B71 PUSH1 0xE0 SHL DUP2 MSTORE PUSH1 0x32 PUSH1 0x4 MSTORE PUSH1 0x24 SWAP1 REVERT JUMPDEST PUSH0 DUP2 DUP2 MSTORE PUSH1 0x20 DUP2 DUP2 MSTORE PUSH1 0x40 SWAP3 DUP4 DUP4 KECCAK256 CALLER DUP5 MSTORE DUP3 MSTORE PUSH1 0xFF DUP5 DUP5 KECCAK256 SLOAD AND ISZERO PUSH2 0xA9E JUMPI POP POP POP POP JUMP JUMPDEST PUSH2 0xAA7 CALLER PUSH2 0xC8C JUMP JUMPDEST SWAP1 DUP5 MLOAD SWAP1 PUSH2 0xAB4 DUP3 PUSH2 0xBA2 JUMP JUMPDEST PUSH1 0x42 DUP3 MSTORE DUP4 DUP3 ADD SWAP5 PUSH1 0x60 CALLDATASIZE DUP8 CALLDATACOPY DUP3 MLOAD ISZERO PUSH2 0xA64 JUMPI PUSH1 0x30 DUP7 MSTORE8 DUP3 MLOAD SWAP1 PUSH1 0x1 SWAP2 DUP3 LT ISZERO PUSH2 0xA64 JUMPI SWAP1 PUSH1 0x78 PUSH1 0x21 DUP6 ADD MSTORE8 PUSH1 0x41 SWAP2 JUMPDEST DUP2 DUP4 GT PUSH2 0xB3C JUMPI POP POP POP PUSH2 0x9B5 JUMPI DUP5 PUSH2 0x991 PUSH1 0x48 PUSH2 0x2BA SWAP4 PUSH1 0x44 SWAP8 SWAP9 MLOAD SWAP9 DUP10 SWAP2 PUSH2 0x982 DUP10 DUP5 ADD SWAP9 PUSH23 0x20B1B1B2B9B9A1B7B73A3937B61D1030B1B1B7BAB73A1 PUSH1 0x4D SHL DUP11 MSTORE PUSH2 0x261 DUP2 MLOAD DUP1 SWAP3 DUP14 PUSH1 0x37 DUP10 ADD SWAP2 ADD PUSH2 0xB81 JUMP JUMPDEST SWAP1 SWAP2 SWAP3 PUSH1 0xF DUP2 AND PUSH1 0x10 DUP2 LT ISZERO PUSH2 0xA50 JUMPI PUSH16 0x181899199A1A9B1B9C1CB0B131B232B3 PUSH1 0x81 SHL SWAP1 BYTE PUSH2 0xB6C DUP6 DUP8 PUSH2 0xC67 JUMP JUMPDEST MSTORE8 PUSH1 0x4 SHR SWAP3 DUP1 ISZERO PUSH2 0xA3C JUMPI PUSH0 NOT ADD SWAP2 SWAP1 PUSH2 0xAE5 JUMP JUMPDEST PUSH0 JUMPDEST DUP4 DUP2 LT PUSH2 0xB92 JUMPI POP POP PUSH0 SWAP2 ADD MSTORE JUMP JUMPDEST DUP2 DUP2 ADD MLOAD DUP4 DUP3 ADD MSTORE PUSH1 0x20 ADD PUSH2 0xB83 JUMP JUMPDEST PUSH1 0x80 DUP2 ADD SWAP1 DUP2 LT PUSH8 0xFFFFFFFFFFFFFFFF DUP3 GT OR PUSH2 0xBBE JUMPI PUSH1 0x40 MSTORE JUMP JUMPDEST PUSH4 0x4E487B71 PUSH1 0xE0 SHL PUSH0 MSTORE PUSH1 0x41 PUSH1 0x4 MSTORE PUSH1 0x24 PUSH0 REVERT JUMPDEST SWAP1 PUSH1 0x1F DUP1 NOT SWAP2 ADD AND DUP2 ADD SWAP1 DUP2 LT PUSH8 0xFFFFFFFFFFFFFFFF DUP3 GT OR PUSH2 0xBBE JUMPI PUSH1 0x40 MSTORE JUMP JUMPDEST SWAP1 PUSH0 SWAP2 DUP1 DUP4 MSTORE DUP3 PUSH1 0x20 MSTORE PUSH1 0x40 DUP4 KECCAK256 SWAP2 PUSH1 0x1 DUP1 PUSH1 0xA0 SHL SUB AND SWAP2 DUP3 DUP5 MSTORE PUSH1 0x20 MSTORE PUSH1 0xFF PUSH1 0x40 DUP5 KECCAK256 SLOAD AND PUSH2 0xC23 JUMPI POP POP POP JUMP JUMPDEST DUP1 DUP4 MSTORE DUP3 PUSH1 0x20 MSTORE PUSH1 0x40 DUP4 KECCAK256 DUP3 DUP5 MSTORE PUSH1 0x20 MSTORE PUSH1 0x40 DUP4 KECCAK256 PUSH1 0xFF NOT DUP2 SLOAD AND SWAP1 SSTORE PUSH32 0xF6391F5C32D9C69D2A47EA670B442974B53935D1EDC7FD64EB21E047A839171B CALLER SWAP4 DUP1 LOG4 JUMP JUMPDEST SWAP1 DUP2 MLOAD DUP2 LT ISZERO PUSH2 0xC78 JUMPI ADD PUSH1 0x20 ADD SWAP1 JUMP JUMPDEST PUSH4 0x4E487B71 PUSH1 0xE0 SHL PUSH0 MSTORE PUSH1 0x32 PUSH1 0x4 MSTORE PUSH1 0x24 PUSH0 REVERT JUMPDEST PUSH1 0x40 MLOAD SWAP1 PUSH1 0x60 DUP3 ADD DUP3 DUP2 LT PUSH8 0xFFFFFFFFFFFFFFFF DUP3 GT OR PUSH2 0xBBE JUMPI PUSH1 0x40 MSTORE PUSH1 0x2A DUP3 MSTORE PUSH1 0x20 DUP3 ADD PUSH1 0x40 CALLDATASIZE DUP3 CALLDATACOPY DUP3 MLOAD ISZERO PUSH2 0xC78 JUMPI PUSH1 0x30 SWAP1 MSTORE8 DUP2 MLOAD PUSH1 0x1 SWAP1 DUP2 LT ISZERO PUSH2 0xC78 JUMPI PUSH1 0x78 PUSH1 0x21 DUP5 ADD MSTORE8 PUSH1 0x29 SWAP1 JUMPDEST DUP1 DUP3 GT PUSH2 0xD2D JUMPI POP POP PUSH2 0xCE9 JUMPI SWAP1 JUMP JUMPDEST PUSH1 0x64 PUSH1 0x40 MLOAD PUSH3 0x461BCD PUSH1 0xE5 SHL DUP2 MSTORE PUSH1 0x20 PUSH1 0x4 DUP3 ADD MSTORE PUSH1 0x20 PUSH1 0x24 DUP3 ADD MSTORE PUSH32 0x537472696E67733A20686578206C656E67746820696E73756666696369656E74 PUSH1 0x44 DUP3 ADD MSTORE REVERT JUMPDEST SWAP1 SWAP2 PUSH1 0xF DUP2 AND PUSH1 0x10 DUP2 LT ISZERO PUSH2 0xD84 JUMPI PUSH16 0x181899199A1A9B1B9C1CB0B131B232B3 PUSH1 0x81 SHL SWAP1 BYTE PUSH2 0xD5C DUP5 DUP7 PUSH2 0xC67 JUMP JUMPDEST MSTORE8 PUSH1 0x4 SHR SWAP2 DUP1 ISZERO PUSH2 0xD70 JUMPI PUSH0 NOT ADD SWAP1 PUSH2 0xCD9 JUMP JUMPDEST PUSH1 0x24 PUSH0 PUSH4 0x4E487B71 PUSH1 0xE0 SHL DUP2 MSTORE PUSH1 0x11 PUSH1 0x4 MSTORE REVERT JUMPDEST PUSH1 0x24 PUSH0 PUSH4 0x4E487B71 PUSH1 0xE0 SHL DUP2 MSTORE PUSH1 0x32 PUSH1 0x4 MSTORE REVERT JUMPDEST PUSH1 0xFF PUSH1 0x1 SLOAD AND PUSH2 0xDA4 JUMPI JUMP JUMPDEST PUSH1 0x40 MLOAD PUSH3 0x461BCD PUSH1 0xE5 SHL DUP2 MSTORE PUSH1 0x20 PUSH1 0x4 DUP3 ADD MSTORE PUSH1 0x10 PUSH1 0x24 DUP3 ADD MSTORE PUSH16 0x14185D5CD8589B194E881C185D5CD959 PUSH1 0x82 SHL PUSH1 0x44 DUP3 ADD MSTORE PUSH1 0x64 SWAP1 REVERT INVALID LOG2 PUSH5 0x6970667358 0x22 SLT KECCAK256 CREATE GAS 0xE7 0xBB SWAP10 CREATE2 PUSH27 0xE81B74F6D2DA279C3049C49CDB3B34B3B275CBA65199864A936473 PUSH16 0x6C634300081400332F8788117E7EFF1D DUP3 0xE9 0x26 0xEC PUSH26 0x4901D17C78024A50270940304540A733656F0D00000000000000 "},"methodIdentifiers":{"DEFAULT_ADMIN_ROLE()":"a217fddf","PARAM_ROLE()":"437b8c3d","PAUSE_ROLE()":"389ed267","claimPromo(bytes32,bytes32)":"670f04c2","claimed(address,bytes32)":"0f2d940b","getRoleAdmin(bytes32)":"248a9ca3","grantRole(bytes32,address)":"2f2ff15d","hasRole(bytes32,address)":"91d14854","pause()":"8456cb59","paused()":"5c975abb","promoGrantAC(bytes32)":"809ea450","renounceRole(bytes32,address)":"36568abe","revokeRole(bytes32,address)":"d547741f","setPromo(bytes32,uint256)":"a87d43cb","supportsInterface(bytes4)":"01ffc9a7","unpause()":"3f4ba83a"}}}}}