{"project/contracts/ArcadeTreasuryVault.sol":{"ArcadeTreasuryVault":{"abi":[{"inputs":[{"internalType":"address","name":"initialOwner","type":"address"}],"stateMutability":"nonpayable","type":"constructor"},{"anonymous":false,"inputs":[{"indexed":true,"internalType":"address","name":"token","type":"address"},{"indexed":false,"internalType":"bool","name":"enabled","type":"bool"}],"name":"AutoConvertTokenSet","type":"event"},{"anonymous":false,"inputs":[{"indexed":true,"internalType":"address","name":"tokenIn","type":"address"},{"indexed":false,"internalType":"bytes","name":"path","type":"bytes"}],"name":"ExactOutPathSet","type":"event"},{"anonymous":false,"inputs":[{"indexed":true,"internalType":"address","name":"oldKeeper","type":"address"},{"indexed":true,"internalType":"address","name":"newKeeper","type":"address"}],"name":"KeeperSet","type":"event"},{"anonymous":false,"inputs":[{"indexed":true,"internalType":"address","name":"tokenIn","type":"address"},{"indexed":false,"internalType":"uint256","name":"maxAmountIn","type":"uint256"}],"name":"MaxSwapInSet","type":"event"},{"anonymous":false,"inputs":[{"indexed":true,"internalType":"address","name":"previousOwner","type":"address"},{"indexed":true,"internalType":"address","name":"newOwner","type":"address"}],"name":"OwnershipTransferred","type":"event"},{"anonymous":false,"inputs":[{"indexed":true,"internalType":"address","name":"vault","type":"address"},{"indexed":false,"internalType":"bool","name":"allowed","type":"bool"}],"name":"PayoutVaultSet","type":"event"},{"anonymous":false,"inputs":[{"indexed":true,"internalType":"address","name":"token","type":"address"},{"indexed":false,"internalType":"bool","name":"enabled","type":"bool"}],"name":"ReserveTokenSet","type":"event"},{"anonymous":false,"inputs":[{"indexed":true,"internalType":"address","name":"mUSD","type":"address"},{"indexed":true,"internalType":"address","name":"WETH","type":"address"},{"indexed":true,"internalType":"address","name":"router","type":"address"}],"name":"SwapConfigSet","type":"event"},{"anonymous":false,"inputs":[{"indexed":true,"internalType":"address","name":"token","type":"address"},{"indexed":false,"internalType":"uint256","name":"count","type":"uint256"},{"indexed":false,"internalType":"uint256","name":"totalAmount","type":"uint256"}],"name":"TreasuryBatchWithdrawERC20","type":"event"},{"anonymous":false,"inputs":[{"indexed":false,"internalType":"uint256","name":"count","type":"uint256"},{"indexed":false,"internalType":"uint256","name":"totalAmount","type":"uint256"}],"name":"TreasuryBatchWithdrawETH","type":"event"},{"anonymous":false,"inputs":[{"indexed":true,"internalType":"address","name":"payoutVault","type":"address"},{"indexed":false,"internalType":"uint256","name":"amount","type":"uint256"}],"name":"TreasuryFundedVault","type":"event"},{"anonymous":false,"inputs":[{"indexed":true,"internalType":"address","name":"tokenIn","type":"address"},{"indexed":true,"internalType":"address","name":"payoutVault","type":"address"},{"indexed":false,"internalType":"uint256","name":"amountInUsed","type":"uint256"},{"indexed":false,"internalType":"uint256","name":"amountOut","type":"uint256"},{"indexed":false,"internalType":"uint256","name":"deadline","type":"uint256"}],"name":"TreasurySwapToMUSD","type":"event"},{"anonymous":false,"inputs":[{"indexed":true,"internalType":"address","name":"token","type":"address"},{"indexed":true,"internalType":"address","name":"to","type":"address"},{"indexed":false,"internalType":"uint256","name":"amount","type":"uint256"}],"name":"TreasuryWithdrawERC20","type":"event"},{"anonymous":false,"inputs":[{"indexed":true,"internalType":"address","name":"to","type":"address"},{"indexed":false,"internalType":"uint256","name":"amount","type":"uint256"}],"name":"TreasuryWithdrawETH","type":"event"},{"inputs":[],"name":"WETH","outputs":[{"internalType":"address","name":"","type":"address"}],"stateMutability":"view","type":"function"},{"inputs":[{"internalType":"address","name":"","type":"address"}],"name":"autoConvertToken","outputs":[{"internalType":"bool","name":"","type":"bool"}],"stateMutability":"view","type":"function"},{"inputs":[{"internalType":"address","name":"token","type":"address"},{"internalType":"address[]","name":"to","type":"address[]"},{"internalType":"uint256[]","name":"amounts","type":"uint256[]"}],"name":"batchWithdrawERC20","outputs":[],"stateMutability":"nonpayable","type":"function"},{"inputs":[{"internalType":"address[]","name":"to","type":"address[]"},{"internalType":"uint256[]","name":"amounts","type":"uint256[]"}],"name":"batchWithdrawETH","outputs":[],"stateMutability":"nonpayable","type":"function"},{"inputs":[{"internalType":"address","name":"","type":"address"}],"name":"exactOutPathToMUSD","outputs":[{"internalType":"bytes","name":"","type":"bytes"}],"stateMutability":"view","type":"function"},{"inputs":[{"internalType":"address","name":"vault","type":"address"},{"internalType":"uint256","name":"amount","type":"uint256"}],"name":"fundVaultMUSD","outputs":[],"stateMutability":"nonpayable","type":"function"},{"inputs":[],"name":"keeper","outputs":[{"internalType":"address","name":"","type":"address"}],"stateMutability":"view","type":"function"},{"inputs":[],"name":"mUSD","outputs":[{"internalType":"address","name":"","type":"address"}],"stateMutability":"view","type":"function"},{"inputs":[{"internalType":"address","name":"","type":"address"}],"name":"maxSwapIn","outputs":[{"internalType":"uint256","name":"","type":"uint256"}],"stateMutability":"view","type":"function"},{"inputs":[],"name":"owner","outputs":[{"internalType":"address","name":"","type":"address"}],"stateMutability":"view","type":"function"},{"inputs":[{"internalType":"address","name":"","type":"address"}],"name":"payoutVault","outputs":[{"internalType":"bool","name":"","type":"bool"}],"stateMutability":"view","type":"function"},{"inputs":[],"name":"renounceOwnership","outputs":[],"stateMutability":"nonpayable","type":"function"},{"inputs":[{"internalType":"address","name":"","type":"address"}],"name":"reserveToken","outputs":[{"internalType":"bool","name":"","type":"bool"}],"stateMutability":"view","type":"function"},{"inputs":[{"internalType":"address","name":"token","type":"address"},{"internalType":"bool","name":"enabled","type":"bool"}],"name":"setAutoConvertToken","outputs":[],"stateMutability":"nonpayable","type":"function"},{"inputs":[{"internalType":"address","name":"tokenIn","type":"address"},{"internalType":"bytes","name":"path","type":"bytes"}],"name":"setExactOutPathToMUSD","outputs":[],"stateMutability":"nonpayable","type":"function"},{"inputs":[{"internalType":"address","name":"newKeeper","type":"address"}],"name":"setKeeper","outputs":[],"stateMutability":"nonpayable","type":"function"},{"inputs":[{"internalType":"address","name":"tokenIn","type":"address"},{"internalType":"uint256","name":"maxAmountIn","type":"uint256"}],"name":"setMaxSwapIn","outputs":[],"stateMutability":"nonpayable","type":"function"},{"inputs":[{"internalType":"address","name":"vault","type":"address"},{"internalType":"bool","name":"allowed","type":"bool"}],"name":"setPayoutVault","outputs":[],"stateMutability":"nonpayable","type":"function"},{"inputs":[{"internalType":"address","name":"token","type":"address"},{"internalType":"bool","name":"enabled","type":"bool"}],"name":"setReserveToken","outputs":[],"stateMutability":"nonpayable","type":"function"},{"inputs":[{"internalType":"address","name":"_mUSD","type":"address"},{"internalType":"address","name":"_WETH","type":"address"},{"internalType":"address","name":"_router","type":"address"}],"name":"setSwapConfig","outputs":[],"stateMutability":"nonpayable","type":"function"},{"inputs":[{"internalType":"address","name":"vault","type":"address"},{"internalType":"uint256","name":"amountOut","type":"uint256"},{"internalType":"uint256","name":"amountInMaximum","type":"uint256"},{"internalType":"uint256","name":"deadline","type":"uint256"}],"name":"swapETHForExactMUSDToVault","outputs":[{"internalType":"uint256","name":"amountInUsed","type":"uint256"}],"stateMutability":"nonpayable","type":"function"},{"inputs":[],"name":"swapRouter","outputs":[{"internalType":"address","name":"","type":"address"}],"stateMutability":"view","type":"function"},{"inputs":[{"internalType":"address","name":"tokenIn","type":"address"},{"internalType":"address","name":"vault","type":"address"},{"internalType":"uint256","name":"amountOut","type":"uint256"},{"internalType":"uint256","name":"amountInMaximum","type":"uint256"},{"internalType":"uint256","name":"deadline","type":"uint256"}],"name":"swapTokenForExactMUSDToVault","outputs":[{"internalType":"uint256","name":"amountInUsed","type":"uint256"}],"stateMutability":"nonpayable","type":"function"},{"inputs":[{"internalType":"address","name":"newOwner","type":"address"}],"name":"transferOwnership","outputs":[],"stateMutability":"nonpayable","type":"function"},{"inputs":[{"internalType":"address","name":"token","type":"address"},{"internalType":"address","name":"to","type":"address"},{"internalType":"uint256","name":"amount","type":"uint256"}],"name":"withdrawERC20","outputs":[],"stateMutability":"nonpayable","type":"function"},{"inputs":[{"internalType":"address payable","name":"to","type":"address"},{"internalType":"uint256","name":"amount","type":"uint256"}],"name":"withdrawETH","outputs":[],"stateMutability":"nonpayable","type":"function"},{"stateMutability":"payable","type":"receive"}],"evm":{"bytecode":{"linkReferences":{},"object":"608034620000b757601f620021f938819003918201601f19168301916001600160401b03831184841017620000bb57808492602094604052833981010312620000b757516001600160a01b038116808203620000b7576200006033620000cf565b600180551562000085576200007590620000cf565b6040516120e39081620001168239f35b60405162461bcd60e51b815260206004820152600a6024820152692d22a927afa7aba722a960b11b6044820152606490fd5b5f80fd5b634e487b7160e01b5f52604160045260245ffd5b5f80546001600160a01b039283166001600160a01b03198216811783559216907f8be0079c531659141344cd1fd0a4f28419497f9722a3daafe3b4186f6b6457e09080a356fe6080604052600436101561001a575b3615610018575f80fd5b005b5f803560e01c806307e34075146117c757806330e07b1e146116ca57806344004cc1146116325780634782f779146115ad5780634f670dfd14611574578063562600071461135c57806356821af1146113095780636b28e587146111c7578063715018a61461116d578063748747e614611102578063832aec83146110c35780638da5cb5b1461109c5780639dc5dbd614610f75578063aaa11f7414610e90578063aced166114610e67578063ad5c464814610e3e578063add202c714610dff578063af22e08914610d95578063b3801f85146109cc578063c31c9c07146109a3578063c8f4029414610905578063d73ecd3d14610898578063e590609714610859578063f09a1d0014610830578063f2fde38b146107685763fac83c7914610143575061000e565b346105f25760a03660031901126105f25761015c611838565b9061016561184e565b9160018060a01b036002541633148015610755575b61018390611abd565b61018b611b2c565b6001600160a01b03811615610724576001600160a01b0383168252600560205260408220546101bc9060ff16611af4565b6001600160a01b03811682526004602052604082205460ff16156106e7576006546001600160a01b0316801515806106d3575b6101f890611da1565b6001600160a01b03821683526009602052604083206102169061194e565b9061022382511515611de3565b6102306044351515611e19565b61023d6064351515611e4f565b6001600160a01b0383168452600a6020526040842054806106bf575b506040516370a0823160e01b81523060048201526020816024816001600160a01b0388165afa9081156106b4578591610682575b5060643511610645576040516370a0823160e01b81526001600160a01b038616600482015290602090829060249082905afa90811561063a578491610608575b506008546102e8906001600160a01b03908116908516611f67565b6008546001600160a01b031690606435801590610586575b156105225760405163095ea7b360e01b60208201526001600160a01b03929092166024830152606480356044808501919091528352859261035491610345908261192c565b6001600160a01b038616611bbe565b60405192610361846118fc565b835260018060a01b038616602084015260206103b8608435948560408201526044356060820152606435608082015260018060a01b036008541690604051988980948193631e51809360e31b835260048301611ec1565b03925af19485156105175782956104e3575b506008546103e5906001600160a01b03908116908616611f67565b6006546040516370a0823160e01b81526001600160a01b038881166004830152909160209183916024918391165afa9283156104d7579261049e575b506020956104617f50aec5f8e9108005593fc7734a6ef9ba18ec3f79a131db3a6b3c0f486c5987a89361045a61048f9460443590611f0b565b1115611f2c565b604080518781526044356020820152908101949094526001600160a01b039081169416929081906060820190565b0390a360018055604051908152f35b91506020823d6020116104cf575b816104b96020938361192c565b810103126104cb579051906020610421565b5f80fd5b3d91506104ac565b604051903d90823e3d90fd5b9094506020813d60201161050f575b816104ff6020938361192c565b810103126104cb5751935f6103ca565b3d91506104f2565b6040513d84823e3d90fd5b60405162461bcd60e51b815260206004820152603660248201527f5361666545524332303a20617070726f76652066726f6d206e6f6e2d7a65726f60448201527520746f206e6f6e2d7a65726f20616c6c6f77616e636560501b6064820152608490fd5b50604051636eb1769f60e11b8152306004820152602481018390526020816044816001600160a01b0389165afa9081156105fd575f916105c8575b5015610300565b906020823d6020116105f5575b816105e26020938361192c565b810103126105f25750515f6105c1565b80fd5b3d91506105d5565b6040513d5f823e3d90fd5b90506020813d602011610632575b816106236020938361192c565b810103126104cb57515f6102cd565b3d9150610616565b6040513d86823e3d90fd5b60405162461bcd60e51b815260206004820152601560248201527424a729aaa32324a1a4a2a72a2fa4a72faa27a5a2a760591b6044820152606490fd5b90506020813d6020116106ac575b8161069d6020938361192c565b810103126104cb57515f61028d565b3d9150610690565b6040513d87823e3d90fd5b6106cd906064351115611e88565b5f610259565b506008546001600160a01b031615156101ef565b60405162461bcd60e51b81526020600482015260156024820152742a27a5a2a72fa0aaaa27a1a7a72b22a92a2fa7a32360591b6044820152606490fd5b60405162461bcd60e51b81526020600482015260096024820152682120a22faa27a5a2a760b91b6044820152606490fd5b5081546001600160a01b0316331461017a565b50346105f25760203660031901126105f257610782611838565b61078a611a2d565b6001600160a01b039081169081156107dc575f54826bffffffffffffffffffffffff60a01b8216175f55167f8be0079c531659141344cd1fd0a4f28419497f9722a3daafe3b4186f6b6457e05f80a380f35b60405162461bcd60e51b815260206004820152602660248201527f4f776e61626c653a206e6577206f776e657220697320746865207a65726f206160448201526564647265737360d01b6064820152608490fd5b50346105f257806003193601126105f2576006546040516001600160a01b039091168152602090f35b50346105f25760203660031901126105f25760209060ff906040906001600160a01b03610884611838565b168152600384522054166040519015158152f35b50346105f25760207ff7af9337a0dbd2b9d785b80350c64ff01641f8075e57e1a68f815439f9b516206108ca36611864565b92906108d4611a2d565b6001600160a01b03168085526004825260408520805460ff191660ff86151516179055925b6040519015158152a280f35b50346105f25761091436611864565b9061091d611a2d565b6001600160a01b03169081156109715760207f38355ced7d4dd1fb4c59b4f619bcc2f995cb5e9bbb4e0de11f2a8943db29c34d91838552600582526108f981604087209060ff801983541691151516179055565b60405162461bcd60e51b815260206004820152600a60248201526916915493d7d59055531560b21b6044820152606490fd5b50346105f257806003193601126105f2576008546040516001600160a01b039091168152602090f35b50346105f25760803660031901126105f2576109e6611838565b6024918235906044359260643560018060a01b038092816002541633148015610d89575b610a1390611abd565b610a1b611b2c565b169384845260209660058852610a3760ff604087205416611af4565b8480526004885260ff60408620541615610d5057836006541680151580610d43575b80610d36575b610a6890611da1565b85805260098952610a7b6040872061194e565b94610a8886511515611de3565b610a93841515611e19565b610a9e891515611e4f565b868052600a8a52604087205480610d24575b50884710610ced57604051958a8785816370a0823160e01b968782528d60048301525afa968715610c6d57908b918998610cba575b50604051610b3191610af6826118fc565b81528a838201528760408201528660608201528b60808201528360085416906040519c8d80948193631e51809360e31b835260048301611ec1565b03925af1988915610caf578799610c7c575b508060085416803b15610c7857878091600460405180948193630910874560e11b83525af18015610c6d57908b939291610c39575b5060065416926040518094819382528a60048301525afa9081156106b4578591610bec575b50610bcd9061045a837f50aec5f8e9108005593fc7734a6ef9ba18ec3f79a131db3a6b3c0f486c5987a896611f0b565b604080518781526020810192909252810191909152806060810161048f565b90508781813d8311610c32575b610c03818361192c565b810103126104cb57517f50aec5f8e9108005593fc7734a6ef9ba18ec3f79a131db3a6b3c0f486c5987a8610b9d565b503d610bf9565b909791925067ffffffffffffffff8111610c5a57604052958991905f610b78565b634e487b7160e01b825260416004528382fd5b6040513d8a823e3d90fd5b8780fd5b9098508981813d8311610ca8575b610c94818361192c565b81010312610ca45751975f610b43565b8680fd5b503d610c8a565b6040513d89823e3d90fd5b8281939299503d8311610ce6575b610cd2818361192c565b81010312610c785751958a90610b31610ae5565b503d610cc8565b60405162461bcd60e51b8152600481018b90526010818501526f0929ca6aa8c8c9286928a9ca8be8aa8960831b6044820152606490fd5b610d30908a1115611e88565b5f610ab0565b5060085485161515610a5f565b5084600754161515610a59565b8760136064926040519262461bcd60e51b845260048401528201527222aa242fa0aaaa27a1a7a72b22a92a2fa7a32360691b6044820152fd5b50845482163314610a0a565b50346105f25760403660031901126105f257610daf611838565b7fdf5696ad87492e032d2d2e9fe474dd46a6c7c6d5a84735528827f36cdb269c76602060243592610dde611a2d565b6001600160a01b0316808552600a825260408086208590555193845292a280f35b50346105f25760203660031901126105f25760209060ff906040906001600160a01b03610e2a611838565b168152600584522054166040519015158152f35b50346105f257806003193601126105f2576007546040516001600160a01b039091168152602090f35b50346105f257806003193601126105f2576002546040516001600160a01b039091168152602090f35b50346105f25760403660031901126105f257610eaa611838565b6002546001600160a01b03919060243590831633148015610f69575b610ecf90611abd565b610ed7611b2c565b828216928385526005602052610ef360ff604087205416611af4565b60065416908115610f3a57610f2c817fcc7b0060c8426c409d1c88739a88efc3ba8dbace9308b6e120a6a38f59d55f4594602094611b82565b604051908152a26001805580f35b60405162461bcd60e51b81526020600482015260076024820152661393d7d35554d160ca1b6044820152606490fd5b50835483163314610ec6565b50346105f25760603660031901126105f257610f8f611838565b67ffffffffffffffff9060243582811161109857610fb1903690600401611893565b91909260443590811161109457610fcc903690600401611893565b939091610fd7611a2d565b610fdf611b2c565b6001600160a01b0390811694610ff6861515611a84565b61100181861461202c565b8693875b8681106110455788887f9fdd03418a17203cda46d82805f0bcf9b72fddba9e069f4dadd27d83f0f5ed0860408a8a82519182526020820152a26001805580f35b8061108a61105f61105a61108f948b8a612075565b612099565b9761106d878a161515611fb8565b61108361107b848888612075565b358092611f0b565b988b611b82565b612067565b611005565b8480fd5b8380fd5b50346105f257806003193601126105f257546040516001600160a01b039091168152602090f35b50346105f25760203660031901126105f25760209060ff906040906001600160a01b036110ee611838565b168152600484522054166040519015158152f35b50346105f25760203660031901126105f25761111c611838565b611124611a2d565b600280546001600160a01b039283166001600160a01b0319821681179092559091167f50697e88bd427923002f5d3844f352091c05c0c9c3b69e43830863d2224631738380a380f35b50346105f257806003193601126105f257611186611a2d565b80546001600160a01b03198116825581906001600160a01b03167f8be0079c531659141344cd1fd0a4f28419497f9722a3daafe3b4186f6b6457e08280a380f35b50346105f25760603660031901126105f2576111e1611838565b6111e961184e565b6001600160a01b03604435818116939084900361109457819061120a611a2d565b169182156112d857169081156112a757821561127457826bffffffffffffffffffffffff60a01b828160065416176006558381600754161760075560085416176008557f8bb9e0231454a91ee956962915e84237dab1cb5513222f17d97db558c0331b4f8480a480f35b60405162461bcd60e51b815260206004820152600b60248201526a2d22a927afa927aaaa22a960a91b6044820152606490fd5b60405162461bcd60e51b81526020600482015260096024820152680b48aa49ebeae8aa8960bb1b6044820152606490fd5b60405162461bcd60e51b815260206004820152600960248201526816915493d7d35554d160ba1b6044820152606490fd5b50346105f25760203660031901126105f25761135890611344906040906001600160a01b03611336611838565b16815260096020522061194e565b6040519182916020835260208301906119ef565b0390f35b50346105f25760403660031901126105f257611376611838565b90602480359267ffffffffffffffff9081851161109857366023860112156110985784600401359182116110985736838387010111611098576113b7611a2d565b81156115435760018060a01b03169182845260209460098652604085206113de81546118c4565b601f8111611500575b5085601f8511600114611472578387989386938460409781957fe2043423f5314fa65aafdd7d1e68110e8a254a226ce97a4728709ce876f8f5c89b9c92611465575b50508460011b905f198660031b1c19161790555b855196858896875286015201848401378181018301879052601f01601f19168101030190a280f35b840101359050835f611429565b81875287872090601f198616885b8181106114e75750938693849360409793857fe2043423f5314fa65aafdd7d1e68110e8a254a226ce97a4728709ce876f8f5c89b9c9d98106114cc575b5050600184811b01905561143d565b83018401355f19600387901b60f8161c191690555f806114bd565b91928a6001819289878a01013581550194019201611480565b818752878720601f860160051c810191898710611539575b601f0160051c01905b81811061152e57506113e7565b878155600101611521565b9091508190611518565b60405162461bcd60e51b815260206004820152600a818501526908a9aa0a8b2bea082a8960b31b6044820152606490fd5b50346105f25760203660031901126105f2576020906040906001600160a01b0361159c611838565b168152600a83522054604051908152f35b50346105f25760403660031901126105f2576004356001600160a01b0381169081900361162e577f426cb9ea55283c30b2df3cbeecb22f7440c0e007818208eacc6ffaacf40843746020602435611602611a2d565b61160a611b2c565b611615841515611fb8565b610f2c8580808085895af1611628611cc5565b50611fee565b5080fd5b50346105f25760603660031901126105f25761164c611838565b61165461184e565b907fdb688c8f967229adf78f6827a73dde522bc64c8b4c0b8e0b3d94d6ec60b058686020604435611683611a2d565b61168b611b2c565b6001600160a01b03938416936116bc9082906116a8871515611a84565b8716966116b6881515611fb8565b86611b82565b604051908152a36001805580f35b50346105f25760403660031901126105f25767ffffffffffffffff6004358181116117c3576116fd903690600401611893565b9160243590811161109857611716903690600401611893565b9190611720611a2d565b611728611b2c565b61173383851461202c565b8492855b86868210611776577f475ffb8f33863524a9fc758f8ba206eab9280d2a47eb65f76d8f98df1f611b286040888882519182526020820152a16001805580f35b6117be919061108a908080806001600160a01b0361179861105a888f8e612075565b169a6117a58c1515611fb8565b6117b361107b888b8d612075565b9b5af1611628611cc5565b611737565b8280fd5b50346105f25760207f4e27cfe5fb917c22da47840b79f78cd0ddf1f849400f3b5a0d5187935f9d83b86117f936611864565b9290611803611a2d565b6001600160a01b031692611818841515611a84565b838552600382526108f981604087209060ff801983541691151516179055565b600435906001600160a01b03821682036104cb57565b602435906001600160a01b03821682036104cb57565b60409060031901126104cb576004356001600160a01b03811681036104cb579060243580151581036104cb5790565b9181601f840112156104cb5782359167ffffffffffffffff83116104cb576020808501948460051b0101116104cb57565b90600182811c921680156118f2575b60208310146118de57565b634e487b7160e01b5f52602260045260245ffd5b91607f16916118d3565b60a0810190811067ffffffffffffffff82111761191857604052565b634e487b7160e01b5f52604160045260245ffd5b90601f8019910116810190811067ffffffffffffffff82111761191857604052565b9060405191825f825492611961846118c4565b9081845260019485811690815f146119cc575060011461198c575b505061198a9250038361192c565b565b909391505f52602090815f20935f915b8183106119b457505061198a93508201015f8061197c565b8554888401850152948501948794509183019161199c565b91505061198a94506020925060ff191682840152151560051b8201015f8061197c565b91908251928382525f5b848110611a19575050825f602080949584010152601f8019910116010190565b6020818301810151848301820152016119f9565b5f546001600160a01b03163303611a4057565b606460405162461bcd60e51b815260206004820152602060248201527f4f776e61626c653a2063616c6c6572206973206e6f7420746865206f776e65726044820152fd5b15611a8b57565b60405162461bcd60e51b815260206004820152600a6024820152692d22a927afaa27a5a2a760b11b6044820152606490fd5b15611ac457565b60405162461bcd60e51b815260206004820152600860248201526709c9ea8be82aaa8960c31b6044820152606490fd5b15611afb57565b60405162461bcd60e51b815260206004820152600960248201526810905117d59055531560ba1b6044820152606490fd5b600260015414611b3d576002600155565b60405162461bcd60e51b815260206004820152601f60248201527f5265656e7472616e637947756172643a207265656e7472616e742063616c6c006044820152606490fd5b60405163a9059cbb60e01b60208201526001600160a01b0392909216602483015260448083019390935291815261198a91611bbe60648361192c565b60018060a01b031690604051604081019080821067ffffffffffffffff83111761191857611c2f916040526020938482527f5361666545524332303a206c6f772d6c6576656c2063616c6c206661696c6564858301525f808587829751910182855af1611c29611cc5565b91611d04565b805191821591848315611ca1575b505050905015611c4a5750565b6084906040519062461bcd60e51b82526004820152602a60248201527f5361666545524332303a204552433230206f7065726174696f6e20646964206e6044820152691bdd081cdd58d8d9595960b21b6064820152fd5b91938180945001031261162e578201519081151582036105f25750805f8084611c3d565b3d15611cff573d9067ffffffffffffffff82116119185760405191611cf4601f8201601f19166020018461192c565b82523d5f602084013e565b606090565b91929015611d665750815115611d18575090565b3b15611d215790565b60405162461bcd60e51b815260206004820152601d60248201527f416464726573733a2063616c6c20746f206e6f6e2d636f6e74726163740000006044820152606490fd5b825190915015611d795750805190602001fd5b60405162461bcd60e51b815260206004820152908190611d9d9060248301906119ef565b0390fd5b15611da857565b60405162461bcd60e51b815260206004820152601360248201527214d5d05417d393d517d0d3d3919251d5549151606a1b6044820152606490fd5b15611dea57565b60405162461bcd60e51b815260206004820152600760248201526609c9ebea082a8960cb1b6044820152606490fd5b15611e2057565b60405162461bcd60e51b815260206004820152600760248201526610905117d3d55560ca1b6044820152606490fd5b15611e5657565b60405162461bcd60e51b815260206004820152600a6024820152692120a22fa6a0ac2fa4a760b11b6044820152606490fd5b15611e8f57565b60405162461bcd60e51b815260206004820152600a60248201526904d41585f494e5f4341560b41b6044820152606490fd5b6020815260a06080611ede845183602086015260c08501906119ef565b93600180841b03602082015116604085015260408101516060850152606081015182850152015191015290565b91908201809211611f1857565b634e487b7160e01b5f52601160045260245ffd5b15611f3357565b60405162461bcd60e51b815260206004820152600c60248201526b10905117d35554d117d3d55560a21b6044820152606490fd5b60405163095ea7b360e01b60208201526001600160a01b0390921660248301525f604480840191909152825260808201919067ffffffffffffffff8311828410176119185761198a92604052611bbe565b15611fbf57565b60405162461bcd60e51b81526020600482015260076024820152665a45524f5f544f60c81b6044820152606490fd5b15611ff557565b60405162461bcd60e51b815260206004820152600f60248201526e11551217d4d1539117d19052531151608a1b6044820152606490fd5b1561203357565b60405162461bcd60e51b815260206004820152600c60248201526b0988a9cbe9a92a69a82a886960a31b6044820152606490fd5b5f198114611f185760010190565b91908110156120855760051b0190565b634e487b7160e01b5f52603260045260245ffd5b356001600160a01b03811681036104cb579056fea2646970667358221220f665865936578e61c16510580a65234c8860dc9914c5f8d38db44f71939dff9764736f6c63430008140033","opcodes":"PUSH1 0x80 CALLVALUE PUSH3 0xB7 JUMPI PUSH1 0x1F PUSH3 0x21F9 CODESIZE DUP2 SWAP1 SUB SWAP2 DUP3 ADD PUSH1 0x1F NOT AND DUP4 ADD SWAP2 PUSH1 0x1 PUSH1 0x1 PUSH1 0x40 SHL SUB DUP4 GT DUP5 DUP5 LT OR PUSH3 0xBB JUMPI DUP1 DUP5 SWAP3 PUSH1 0x20 SWAP5 PUSH1 0x40 MSTORE DUP4 CODECOPY DUP2 ADD SUB SLT PUSH3 0xB7 JUMPI MLOAD PUSH1 0x1 PUSH1 0x1 PUSH1 0xA0 SHL SUB DUP2 AND DUP1 DUP3 SUB PUSH3 0xB7 JUMPI PUSH3 0x60 CALLER PUSH3 0xCF JUMP JUMPDEST PUSH1 0x1 DUP1 SSTORE ISZERO PUSH3 0x85 JUMPI PUSH3 0x75 SWAP1 PUSH3 0xCF JUMP JUMPDEST PUSH1 0x40 MLOAD PUSH2 0x20E3 SWAP1 DUP2 PUSH3 0x116 DUP3 CODECOPY RETURN JUMPDEST PUSH1 0x40 MLOAD PUSH3 0x461BCD PUSH1 0xE5 SHL DUP2 MSTORE PUSH1 0x20 PUSH1 0x4 DUP3 ADD MSTORE PUSH1 0xA PUSH1 0x24 DUP3 ADD MSTORE PUSH10 0x2D22A927AFA7ABA722A9 PUSH1 0xB1 SHL PUSH1 0x44 DUP3 ADD MSTORE PUSH1 0x64 SWAP1 REVERT JUMPDEST PUSH0 DUP1 REVERT JUMPDEST PUSH4 0x4E487B71 PUSH1 0xE0 SHL PUSH0 MSTORE PUSH1 0x41 PUSH1 0x4 MSTORE PUSH1 0x24 PUSH0 REVERT JUMPDEST PUSH0 DUP1 SLOAD PUSH1 0x1 PUSH1 0x1 PUSH1 0xA0 SHL SUB SWAP3 DUP4 AND PUSH1 0x1 PUSH1 0x1 PUSH1 0xA0 SHL SUB NOT DUP3 AND DUP2 OR DUP4 SSTORE SWAP3 AND SWAP1 PUSH32 0x8BE0079C531659141344CD1FD0A4F28419497F9722A3DAAFE3B4186F6B6457E0 SWAP1 DUP1 LOG3 JUMP INVALID PUSH1 0x80 PUSH1 0x40 MSTORE PUSH1 0x4 CALLDATASIZE LT ISZERO PUSH2 0x1A JUMPI JUMPDEST CALLDATASIZE ISZERO PUSH2 0x18 JUMPI PUSH0 DUP1 REVERT JUMPDEST STOP JUMPDEST PUSH0 DUP1 CALLDATALOAD PUSH1 0xE0 SHR DUP1 PUSH4 0x7E34075 EQ PUSH2 0x17C7 JUMPI DUP1 PUSH4 0x30E07B1E EQ PUSH2 0x16CA JUMPI DUP1 PUSH4 0x44004CC1 EQ PUSH2 0x1632 JUMPI DUP1 PUSH4 0x4782F779 EQ PUSH2 0x15AD JUMPI DUP1 PUSH4 0x4F670DFD EQ PUSH2 0x1574 JUMPI DUP1 PUSH4 0x56260007 EQ PUSH2 0x135C JUMPI DUP1 PUSH4 0x56821AF1 EQ PUSH2 0x1309 JUMPI DUP1 PUSH4 0x6B28E587 EQ PUSH2 0x11C7 JUMPI DUP1 PUSH4 0x715018A6 EQ PUSH2 0x116D JUMPI DUP1 PUSH4 0x748747E6 EQ PUSH2 0x1102 JUMPI DUP1 PUSH4 0x832AEC83 EQ PUSH2 0x10C3 JUMPI DUP1 PUSH4 0x8DA5CB5B EQ PUSH2 0x109C JUMPI DUP1 PUSH4 0x9DC5DBD6 EQ PUSH2 0xF75 JUMPI DUP1 PUSH4 0xAAA11F74 EQ PUSH2 0xE90 JUMPI DUP1 PUSH4 0xACED1661 EQ PUSH2 0xE67 JUMPI DUP1 PUSH4 0xAD5C4648 EQ PUSH2 0xE3E JUMPI DUP1 PUSH4 0xADD202C7 EQ PUSH2 0xDFF JUMPI DUP1 PUSH4 0xAF22E089 EQ PUSH2 0xD95 JUMPI DUP1 PUSH4 0xB3801F85 EQ PUSH2 0x9CC JUMPI DUP1 PUSH4 0xC31C9C07 EQ PUSH2 0x9A3 JUMPI DUP1 PUSH4 0xC8F40294 EQ PUSH2 0x905 JUMPI DUP1 PUSH4 0xD73ECD3D EQ PUSH2 0x898 JUMPI DUP1 PUSH4 0xE5906097 EQ PUSH2 0x859 JUMPI DUP1 PUSH4 0xF09A1D00 EQ PUSH2 0x830 JUMPI DUP1 PUSH4 0xF2FDE38B EQ PUSH2 0x768 JUMPI PUSH4 0xFAC83C79 EQ PUSH2 0x143 JUMPI POP PUSH2 0xE JUMP JUMPDEST CALLVALUE PUSH2 0x5F2 JUMPI PUSH1 0xA0 CALLDATASIZE PUSH1 0x3 NOT ADD SLT PUSH2 0x5F2 JUMPI PUSH2 0x15C PUSH2 0x1838 JUMP JUMPDEST SWAP1 PUSH2 0x165 PUSH2 0x184E JUMP JUMPDEST SWAP2 PUSH1 0x1 DUP1 PUSH1 0xA0 SHL SUB PUSH1 0x2 SLOAD AND CALLER EQ DUP1 ISZERO PUSH2 0x755 JUMPI JUMPDEST PUSH2 0x183 SWAP1 PUSH2 0x1ABD JUMP JUMPDEST PUSH2 0x18B PUSH2 0x1B2C JUMP JUMPDEST PUSH1 0x1 PUSH1 0x1 PUSH1 0xA0 SHL SUB DUP2 AND ISZERO PUSH2 0x724 JUMPI PUSH1 0x1 PUSH1 0x1 PUSH1 0xA0 SHL SUB DUP4 AND DUP3 MSTORE PUSH1 0x5 PUSH1 0x20 MSTORE PUSH1 0x40 DUP3 KECCAK256 SLOAD PUSH2 0x1BC SWAP1 PUSH1 0xFF AND PUSH2 0x1AF4 JUMP JUMPDEST PUSH1 0x1 PUSH1 0x1 PUSH1 0xA0 SHL SUB DUP2 AND DUP3 MSTORE PUSH1 0x4 PUSH1 0x20 MSTORE PUSH1 0x40 DUP3 KECCAK256 SLOAD PUSH1 0xFF AND ISZERO PUSH2 0x6E7 JUMPI PUSH1 0x6 SLOAD PUSH1 0x1 PUSH1 0x1 PUSH1 0xA0 SHL SUB AND DUP1 ISZERO ISZERO DUP1 PUSH2 0x6D3 JUMPI JUMPDEST PUSH2 0x1F8 SWAP1 PUSH2 0x1DA1 JUMP JUMPDEST PUSH1 0x1 PUSH1 0x1 PUSH1 0xA0 SHL SUB DUP3 AND DUP4 MSTORE PUSH1 0x9 PUSH1 0x20 MSTORE PUSH1 0x40 DUP4 KECCAK256 PUSH2 0x216 SWAP1 PUSH2 0x194E JUMP JUMPDEST SWAP1 PUSH2 0x223 DUP3 MLOAD ISZERO ISZERO PUSH2 0x1DE3 JUMP JUMPDEST PUSH2 0x230 PUSH1 0x44 CALLDATALOAD ISZERO ISZERO PUSH2 0x1E19 JUMP JUMPDEST PUSH2 0x23D PUSH1 0x64 CALLDATALOAD ISZERO ISZERO PUSH2 0x1E4F JUMP JUMPDEST PUSH1 0x1 PUSH1 0x1 PUSH1 0xA0 SHL SUB DUP4 AND DUP5 MSTORE PUSH1 0xA PUSH1 0x20 MSTORE PUSH1 0x40 DUP5 KECCAK256 SLOAD DUP1 PUSH2 0x6BF JUMPI JUMPDEST POP PUSH1 0x40 MLOAD PUSH4 0x70A08231 PUSH1 0xE0 SHL DUP2 MSTORE ADDRESS PUSH1 0x4 DUP3 ADD MSTORE PUSH1 0x20 DUP2 PUSH1 0x24 DUP2 PUSH1 0x1 PUSH1 0x1 PUSH1 0xA0 SHL SUB DUP9 AND GAS STATICCALL SWAP1 DUP2 ISZERO PUSH2 0x6B4 JUMPI DUP6 SWAP2 PUSH2 0x682 JUMPI JUMPDEST POP PUSH1 0x64 CALLDATALOAD GT PUSH2 0x645 JUMPI PUSH1 0x40 MLOAD PUSH4 0x70A08231 PUSH1 0xE0 SHL DUP2 MSTORE PUSH1 0x1 PUSH1 0x1 PUSH1 0xA0 SHL SUB DUP7 AND PUSH1 0x4 DUP3 ADD MSTORE SWAP1 PUSH1 0x20 SWAP1 DUP3 SWAP1 PUSH1 0x24 SWAP1 DUP3 SWAP1 GAS STATICCALL SWAP1 DUP2 ISZERO PUSH2 0x63A JUMPI DUP5 SWAP2 PUSH2 0x608 JUMPI JUMPDEST POP PUSH1 0x8 SLOAD PUSH2 0x2E8 SWAP1 PUSH1 0x1 PUSH1 0x1 PUSH1 0xA0 SHL SUB SWAP1 DUP2 AND SWAP1 DUP6 AND PUSH2 0x1F67 JUMP JUMPDEST PUSH1 0x8 SLOAD PUSH1 0x1 PUSH1 0x1 PUSH1 0xA0 SHL SUB AND SWAP1 PUSH1 0x64 CALLDATALOAD DUP1 ISZERO SWAP1 PUSH2 0x586 JUMPI JUMPDEST ISZERO PUSH2 0x522 JUMPI PUSH1 0x40 MLOAD PUSH4 0x95EA7B3 PUSH1 0xE0 SHL PUSH1 0x20 DUP3 ADD MSTORE PUSH1 0x1 PUSH1 0x1 PUSH1 0xA0 SHL SUB SWAP3 SWAP1 SWAP3 AND PUSH1 0x24 DUP4 ADD MSTORE PUSH1 0x64 DUP1 CALLDATALOAD PUSH1 0x44 DUP1 DUP6 ADD SWAP2 SWAP1 SWAP2 MSTORE DUP4 MSTORE DUP6 SWAP3 PUSH2 0x354 SWAP2 PUSH2 0x345 SWAP1 DUP3 PUSH2 0x192C JUMP JUMPDEST PUSH1 0x1 PUSH1 0x1 PUSH1 0xA0 SHL SUB DUP7 AND PUSH2 0x1BBE JUMP JUMPDEST PUSH1 0x40 MLOAD SWAP3 PUSH2 0x361 DUP5 PUSH2 0x18FC JUMP JUMPDEST DUP4 MSTORE PUSH1 0x1 DUP1 PUSH1 0xA0 SHL SUB DUP7 AND PUSH1 0x20 DUP5 ADD MSTORE PUSH1 0x20 PUSH2 0x3B8 PUSH1 0x84 CALLDATALOAD SWAP5 DUP6 PUSH1 0x40 DUP3 ADD MSTORE PUSH1 0x44 CALLDATALOAD PUSH1 0x60 DUP3 ADD MSTORE PUSH1 0x64 CALLDATALOAD PUSH1 0x80 DUP3 ADD MSTORE PUSH1 0x1 DUP1 PUSH1 0xA0 SHL SUB PUSH1 0x8 SLOAD AND SWAP1 PUSH1 0x40 MLOAD SWAP9 DUP10 DUP1 SWAP5 DUP2 SWAP4 PUSH4 0x1E518093 PUSH1 0xE3 SHL DUP4 MSTORE PUSH1 0x4 DUP4 ADD PUSH2 0x1EC1 JUMP JUMPDEST SUB SWAP3 GAS CALL SWAP5 DUP6 ISZERO PUSH2 0x517 JUMPI DUP3 SWAP6 PUSH2 0x4E3 JUMPI JUMPDEST POP PUSH1 0x8 SLOAD PUSH2 0x3E5 SWAP1 PUSH1 0x1 PUSH1 0x1 PUSH1 0xA0 SHL SUB SWAP1 DUP2 AND SWAP1 DUP7 AND PUSH2 0x1F67 JUMP JUMPDEST PUSH1 0x6 SLOAD PUSH1 0x40 MLOAD PUSH4 0x70A08231 PUSH1 0xE0 SHL DUP2 MSTORE PUSH1 0x1 PUSH1 0x1 PUSH1 0xA0 SHL SUB DUP9 DUP2 AND PUSH1 0x4 DUP4 ADD MSTORE SWAP1 SWAP2 PUSH1 0x20 SWAP2 DUP4 SWAP2 PUSH1 0x24 SWAP2 DUP4 SWAP2 AND GAS STATICCALL SWAP3 DUP4 ISZERO PUSH2 0x4D7 JUMPI SWAP3 PUSH2 0x49E JUMPI JUMPDEST POP PUSH1 0x20 SWAP6 PUSH2 0x461 PUSH32 0x50AEC5F8E9108005593FC7734A6EF9BA18EC3F79A131DB3A6B3C0F486C5987A8 SWAP4 PUSH2 0x45A PUSH2 0x48F SWAP5 PUSH1 0x44 CALLDATALOAD SWAP1 PUSH2 0x1F0B JUMP JUMPDEST GT ISZERO PUSH2 0x1F2C JUMP JUMPDEST PUSH1 0x40 DUP1 MLOAD DUP8 DUP2 MSTORE PUSH1 0x44 CALLDATALOAD PUSH1 0x20 DUP3 ADD MSTORE SWAP1 DUP2 ADD SWAP5 SWAP1 SWAP5 MSTORE PUSH1 0x1 PUSH1 0x1 PUSH1 0xA0 SHL SUB SWAP1 DUP2 AND SWAP5 AND SWAP3 SWAP1 DUP2 SWAP1 PUSH1 0x60 DUP3 ADD SWAP1 JUMP JUMPDEST SUB SWAP1 LOG3 PUSH1 0x1 DUP1 SSTORE PUSH1 0x40 MLOAD SWAP1 DUP2 MSTORE RETURN JUMPDEST SWAP2 POP PUSH1 0x20 DUP3 RETURNDATASIZE PUSH1 0x20 GT PUSH2 0x4CF JUMPI JUMPDEST DUP2 PUSH2 0x4B9 PUSH1 0x20 SWAP4 DUP4 PUSH2 0x192C JUMP JUMPDEST DUP2 ADD SUB SLT PUSH2 0x4CB JUMPI SWAP1 MLOAD SWAP1 PUSH1 0x20 PUSH2 0x421 JUMP JUMPDEST PUSH0 DUP1 REVERT JUMPDEST RETURNDATASIZE SWAP2 POP PUSH2 0x4AC JUMP JUMPDEST PUSH1 0x40 MLOAD SWAP1 RETURNDATASIZE SWAP1 DUP3 RETURNDATACOPY RETURNDATASIZE SWAP1 REVERT JUMPDEST SWAP1 SWAP5 POP PUSH1 0x20 DUP2 RETURNDATASIZE PUSH1 0x20 GT PUSH2 0x50F JUMPI JUMPDEST DUP2 PUSH2 0x4FF PUSH1 0x20 SWAP4 DUP4 PUSH2 0x192C JUMP JUMPDEST DUP2 ADD SUB SLT PUSH2 0x4CB JUMPI MLOAD SWAP4 PUSH0 PUSH2 0x3CA JUMP JUMPDEST RETURNDATASIZE SWAP2 POP PUSH2 0x4F2 JUMP JUMPDEST PUSH1 0x40 MLOAD RETURNDATASIZE DUP5 DUP3 RETURNDATACOPY RETURNDATASIZE SWAP1 REVERT JUMPDEST PUSH1 0x40 MLOAD PUSH3 0x461BCD PUSH1 0xE5 SHL DUP2 MSTORE PUSH1 0x20 PUSH1 0x4 DUP3 ADD MSTORE PUSH1 0x36 PUSH1 0x24 DUP3 ADD MSTORE PUSH32 0x5361666545524332303A20617070726F76652066726F6D206E6F6E2D7A65726F PUSH1 0x44 DUP3 ADD MSTORE PUSH22 0x20746F206E6F6E2D7A65726F20616C6C6F77616E6365 PUSH1 0x50 SHL PUSH1 0x64 DUP3 ADD MSTORE PUSH1 0x84 SWAP1 REVERT JUMPDEST POP PUSH1 0x40 MLOAD PUSH4 0x6EB1769F PUSH1 0xE1 SHL DUP2 MSTORE ADDRESS PUSH1 0x4 DUP3 ADD MSTORE PUSH1 0x24 DUP2 ADD DUP4 SWAP1 MSTORE PUSH1 0x20 DUP2 PUSH1 0x44 DUP2 PUSH1 0x1 PUSH1 0x1 PUSH1 0xA0 SHL SUB DUP10 AND GAS STATICCALL SWAP1 DUP2 ISZERO PUSH2 0x5FD JUMPI PUSH0 SWAP2 PUSH2 0x5C8 JUMPI JUMPDEST POP ISZERO PUSH2 0x300 JUMP JUMPDEST SWAP1 PUSH1 0x20 DUP3 RETURNDATASIZE PUSH1 0x20 GT PUSH2 0x5F5 JUMPI JUMPDEST DUP2 PUSH2 0x5E2 PUSH1 0x20 SWAP4 DUP4 PUSH2 0x192C JUMP JUMPDEST DUP2 ADD SUB SLT PUSH2 0x5F2 JUMPI POP MLOAD PUSH0 PUSH2 0x5C1 JUMP JUMPDEST DUP1 REVERT JUMPDEST RETURNDATASIZE SWAP2 POP PUSH2 0x5D5 JUMP JUMPDEST PUSH1 0x40 MLOAD RETURNDATASIZE PUSH0 DUP3 RETURNDATACOPY RETURNDATASIZE SWAP1 REVERT JUMPDEST SWAP1 POP PUSH1 0x20 DUP2 RETURNDATASIZE PUSH1 0x20 GT PUSH2 0x632 JUMPI JUMPDEST DUP2 PUSH2 0x623 PUSH1 0x20 SWAP4 DUP4 PUSH2 0x192C JUMP JUMPDEST DUP2 ADD SUB SLT PUSH2 0x4CB JUMPI MLOAD PUSH0 PUSH2 0x2CD JUMP JUMPDEST RETURNDATASIZE SWAP2 POP PUSH2 0x616 JUMP JUMPDEST PUSH1 0x40 MLOAD RETURNDATASIZE DUP7 DUP3 RETURNDATACOPY RETURNDATASIZE SWAP1 REVERT JUMPDEST PUSH1 0x40 MLOAD PUSH3 0x461BCD PUSH1 0xE5 SHL DUP2 MSTORE PUSH1 0x20 PUSH1 0x4 DUP3 ADD MSTORE PUSH1 0x15 PUSH1 0x24 DUP3 ADD MSTORE PUSH21 0x24A729AAA32324A1A4A2A72A2FA4A72FAA27A5A2A7 PUSH1 0x59 SHL PUSH1 0x44 DUP3 ADD MSTORE PUSH1 0x64 SWAP1 REVERT JUMPDEST SWAP1 POP PUSH1 0x20 DUP2 RETURNDATASIZE PUSH1 0x20 GT PUSH2 0x6AC JUMPI JUMPDEST DUP2 PUSH2 0x69D PUSH1 0x20 SWAP4 DUP4 PUSH2 0x192C JUMP JUMPDEST DUP2 ADD SUB SLT PUSH2 0x4CB JUMPI MLOAD PUSH0 PUSH2 0x28D JUMP JUMPDEST RETURNDATASIZE SWAP2 POP PUSH2 0x690 JUMP JUMPDEST PUSH1 0x40 MLOAD RETURNDATASIZE DUP8 DUP3 RETURNDATACOPY RETURNDATASIZE SWAP1 REVERT JUMPDEST PUSH2 0x6CD SWAP1 PUSH1 0x64 CALLDATALOAD GT ISZERO PUSH2 0x1E88 JUMP JUMPDEST PUSH0 PUSH2 0x259 JUMP JUMPDEST POP PUSH1 0x8 SLOAD PUSH1 0x1 PUSH1 0x1 PUSH1 0xA0 SHL SUB AND ISZERO ISZERO PUSH2 0x1EF JUMP JUMPDEST PUSH1 0x40 MLOAD PUSH3 0x461BCD PUSH1 0xE5 SHL DUP2 MSTORE PUSH1 0x20 PUSH1 0x4 DUP3 ADD MSTORE PUSH1 0x15 PUSH1 0x24 DUP3 ADD MSTORE PUSH21 0x2A27A5A2A72FA0AAAA27A1A7A72B22A92A2FA7A323 PUSH1 0x59 SHL PUSH1 0x44 DUP3 ADD MSTORE PUSH1 0x64 SWAP1 REVERT JUMPDEST PUSH1 0x40 MLOAD PUSH3 0x461BCD PUSH1 0xE5 SHL DUP2 MSTORE PUSH1 0x20 PUSH1 0x4 DUP3 ADD MSTORE PUSH1 0x9 PUSH1 0x24 DUP3 ADD MSTORE PUSH9 0x2120A22FAA27A5A2A7 PUSH1 0xB9 SHL PUSH1 0x44 DUP3 ADD MSTORE PUSH1 0x64 SWAP1 REVERT JUMPDEST POP DUP2 SLOAD PUSH1 0x1 PUSH1 0x1 PUSH1 0xA0 SHL SUB AND CALLER EQ PUSH2 0x17A JUMP JUMPDEST POP CALLVALUE PUSH2 0x5F2 JUMPI PUSH1 0x20 CALLDATASIZE PUSH1 0x3 NOT ADD SLT PUSH2 0x5F2 JUMPI PUSH2 0x782 PUSH2 0x1838 JUMP JUMPDEST PUSH2 0x78A PUSH2 0x1A2D JUMP JUMPDEST PUSH1 0x1 PUSH1 0x1 PUSH1 0xA0 SHL SUB SWAP1 DUP2 AND SWAP1 DUP2 ISZERO PUSH2 0x7DC JUMPI PUSH0 SLOAD DUP3 PUSH12 0xFFFFFFFFFFFFFFFFFFFFFFFF PUSH1 0xA0 SHL DUP3 AND OR PUSH0 SSTORE AND PUSH32 0x8BE0079C531659141344CD1FD0A4F28419497F9722A3DAAFE3B4186F6B6457E0 PUSH0 DUP1 LOG3 DUP1 RETURN JUMPDEST PUSH1 0x40 MLOAD PUSH3 0x461BCD PUSH1 0xE5 SHL DUP2 MSTORE PUSH1 0x20 PUSH1 0x4 DUP3 ADD MSTORE PUSH1 0x26 PUSH1 0x24 DUP3 ADD MSTORE PUSH32 0x4F776E61626C653A206E6577206F776E657220697320746865207A65726F2061 PUSH1 0x44 DUP3 ADD MSTORE PUSH6 0x646472657373 PUSH1 0xD0 SHL PUSH1 0x64 DUP3 ADD MSTORE PUSH1 0x84 SWAP1 REVERT JUMPDEST POP CALLVALUE PUSH2 0x5F2 JUMPI DUP1 PUSH1 0x3 NOT CALLDATASIZE ADD SLT PUSH2 0x5F2 JUMPI PUSH1 0x6 SLOAD PUSH1 0x40 MLOAD PUSH1 0x1 PUSH1 0x1 PUSH1 0xA0 SHL SUB SWAP1 SWAP2 AND DUP2 MSTORE PUSH1 0x20 SWAP1 RETURN JUMPDEST POP CALLVALUE PUSH2 0x5F2 JUMPI PUSH1 0x20 CALLDATASIZE PUSH1 0x3 NOT ADD SLT PUSH2 0x5F2 JUMPI PUSH1 0x20 SWAP1 PUSH1 0xFF SWAP1 PUSH1 0x40 SWAP1 PUSH1 0x1 PUSH1 0x1 PUSH1 0xA0 SHL SUB PUSH2 0x884 PUSH2 0x1838 JUMP JUMPDEST AND DUP2 MSTORE PUSH1 0x3 DUP5 MSTORE KECCAK256 SLOAD AND PUSH1 0x40 MLOAD SWAP1 ISZERO ISZERO DUP2 MSTORE RETURN JUMPDEST POP CALLVALUE PUSH2 0x5F2 JUMPI PUSH1 0x20 PUSH32 0xF7AF9337A0DBD2B9D785B80350C64FF01641F8075E57E1A68F815439F9B51620 PUSH2 0x8CA CALLDATASIZE PUSH2 0x1864 JUMP JUMPDEST SWAP3 SWAP1 PUSH2 0x8D4 PUSH2 0x1A2D JUMP JUMPDEST PUSH1 0x1 PUSH1 0x1 PUSH1 0xA0 SHL SUB AND DUP1 DUP6 MSTORE PUSH1 0x4 DUP3 MSTORE PUSH1 0x40 DUP6 KECCAK256 DUP1 SLOAD PUSH1 0xFF NOT AND PUSH1 0xFF DUP7 ISZERO ISZERO AND OR SWAP1 SSTORE SWAP3 JUMPDEST PUSH1 0x40 MLOAD SWAP1 ISZERO ISZERO DUP2 MSTORE LOG2 DUP1 RETURN JUMPDEST POP CALLVALUE PUSH2 0x5F2 JUMPI PUSH2 0x914 CALLDATASIZE PUSH2 0x1864 JUMP JUMPDEST SWAP1 PUSH2 0x91D PUSH2 0x1A2D JUMP JUMPDEST PUSH1 0x1 PUSH1 0x1 PUSH1 0xA0 SHL SUB AND SWAP1 DUP2 ISZERO PUSH2 0x971 JUMPI PUSH1 0x20 PUSH32 0x38355CED7D4DD1FB4C59B4F619BCC2F995CB5E9BBB4E0DE11F2A8943DB29C34D SWAP2 DUP4 DUP6 MSTORE PUSH1 0x5 DUP3 MSTORE PUSH2 0x8F9 DUP2 PUSH1 0x40 DUP8 KECCAK256 SWAP1 PUSH1 0xFF DUP1 NOT DUP4 SLOAD AND SWAP2 ISZERO ISZERO AND OR SWAP1 SSTORE JUMP JUMPDEST PUSH1 0x40 MLOAD PUSH3 0x461BCD PUSH1 0xE5 SHL DUP2 MSTORE PUSH1 0x20 PUSH1 0x4 DUP3 ADD MSTORE PUSH1 0xA PUSH1 0x24 DUP3 ADD MSTORE PUSH10 0x16915493D7D590555315 PUSH1 0xB2 SHL PUSH1 0x44 DUP3 ADD MSTORE PUSH1 0x64 SWAP1 REVERT JUMPDEST POP CALLVALUE PUSH2 0x5F2 JUMPI DUP1 PUSH1 0x3 NOT CALLDATASIZE ADD SLT PUSH2 0x5F2 JUMPI PUSH1 0x8 SLOAD PUSH1 0x40 MLOAD PUSH1 0x1 PUSH1 0x1 PUSH1 0xA0 SHL SUB SWAP1 SWAP2 AND DUP2 MSTORE PUSH1 0x20 SWAP1 RETURN JUMPDEST POP CALLVALUE PUSH2 0x5F2 JUMPI PUSH1 0x80 CALLDATASIZE PUSH1 0x3 NOT ADD SLT PUSH2 0x5F2 JUMPI PUSH2 0x9E6 PUSH2 0x1838 JUMP JUMPDEST PUSH1 0x24 SWAP2 DUP3 CALLDATALOAD SWAP1 PUSH1 0x44 CALLDATALOAD SWAP3 PUSH1 0x64 CALLDATALOAD PUSH1 0x1 DUP1 PUSH1 0xA0 SHL SUB DUP1 SWAP3 DUP2 PUSH1 0x2 SLOAD AND CALLER EQ DUP1 ISZERO PUSH2 0xD89 JUMPI JUMPDEST PUSH2 0xA13 SWAP1 PUSH2 0x1ABD JUMP JUMPDEST PUSH2 0xA1B PUSH2 0x1B2C JUMP JUMPDEST AND SWAP4 DUP5 DUP5 MSTORE PUSH1 0x20 SWAP7 PUSH1 0x5 DUP9 MSTORE PUSH2 0xA37 PUSH1 0xFF PUSH1 0x40 DUP8 KECCAK256 SLOAD AND PUSH2 0x1AF4 JUMP JUMPDEST DUP5 DUP1 MSTORE PUSH1 0x4 DUP9 MSTORE PUSH1 0xFF PUSH1 0x40 DUP7 KECCAK256 SLOAD AND ISZERO PUSH2 0xD50 JUMPI DUP4 PUSH1 0x6 SLOAD AND DUP1 ISZERO ISZERO DUP1 PUSH2 0xD43 JUMPI JUMPDEST DUP1 PUSH2 0xD36 JUMPI JUMPDEST PUSH2 0xA68 SWAP1 PUSH2 0x1DA1 JUMP JUMPDEST DUP6 DUP1 MSTORE PUSH1 0x9 DUP10 MSTORE PUSH2 0xA7B PUSH1 0x40 DUP8 KECCAK256 PUSH2 0x194E JUMP JUMPDEST SWAP5 PUSH2 0xA88 DUP7 MLOAD ISZERO ISZERO PUSH2 0x1DE3 JUMP JUMPDEST PUSH2 0xA93 DUP5 ISZERO ISZERO PUSH2 0x1E19 JUMP JUMPDEST PUSH2 0xA9E DUP10 ISZERO ISZERO PUSH2 0x1E4F JUMP JUMPDEST DUP7 DUP1 MSTORE PUSH1 0xA DUP11 MSTORE PUSH1 0x40 DUP8 KECCAK256 SLOAD DUP1 PUSH2 0xD24 JUMPI JUMPDEST POP DUP9 SELFBALANCE LT PUSH2 0xCED JUMPI PUSH1 0x40 MLOAD SWAP6 DUP11 DUP8 DUP6 DUP2 PUSH4 0x70A08231 PUSH1 0xE0 SHL SWAP7 DUP8 DUP3 MSTORE DUP14 PUSH1 0x4 DUP4 ADD MSTORE GAS STATICCALL SWAP7 DUP8 ISZERO PUSH2 0xC6D JUMPI SWAP1 DUP12 SWAP2 DUP10 SWAP9 PUSH2 0xCBA JUMPI JUMPDEST POP PUSH1 0x40 MLOAD PUSH2 0xB31 SWAP2 PUSH2 0xAF6 DUP3 PUSH2 0x18FC JUMP JUMPDEST DUP2 MSTORE DUP11 DUP4 DUP3 ADD MSTORE DUP8 PUSH1 0x40 DUP3 ADD MSTORE DUP7 PUSH1 0x60 DUP3 ADD MSTORE DUP12 PUSH1 0x80 DUP3 ADD MSTORE DUP4 PUSH1 0x8 SLOAD AND SWAP1 PUSH1 0x40 MLOAD SWAP13 DUP14 DUP1 SWAP5 DUP2 SWAP4 PUSH4 0x1E518093 PUSH1 0xE3 SHL DUP4 MSTORE PUSH1 0x4 DUP4 ADD PUSH2 0x1EC1 JUMP JUMPDEST SUB SWAP3 GAS CALL SWAP9 DUP10 ISZERO PUSH2 0xCAF JUMPI DUP8 SWAP10 PUSH2 0xC7C JUMPI JUMPDEST POP DUP1 PUSH1 0x8 SLOAD AND DUP1 EXTCODESIZE ISZERO PUSH2 0xC78 JUMPI DUP8 DUP1 SWAP2 PUSH1 0x4 PUSH1 0x40 MLOAD DUP1 SWAP5 DUP2 SWAP4 PUSH4 0x9108745 PUSH1 0xE1 SHL DUP4 MSTORE GAS CALL DUP1 ISZERO PUSH2 0xC6D JUMPI SWAP1 DUP12 SWAP4 SWAP3 SWAP2 PUSH2 0xC39 JUMPI JUMPDEST POP PUSH1 0x6 SLOAD AND SWAP3 PUSH1 0x40 MLOAD DUP1 SWAP5 DUP2 SWAP4 DUP3 MSTORE DUP11 PUSH1 0x4 DUP4 ADD MSTORE GAS STATICCALL SWAP1 DUP2 ISZERO PUSH2 0x6B4 JUMPI DUP6 SWAP2 PUSH2 0xBEC JUMPI JUMPDEST POP PUSH2 0xBCD SWAP1 PUSH2 0x45A DUP4 PUSH32 0x50AEC5F8E9108005593FC7734A6EF9BA18EC3F79A131DB3A6B3C0F486C5987A8 SWAP7 PUSH2 0x1F0B JUMP JUMPDEST PUSH1 0x40 DUP1 MLOAD DUP8 DUP2 MSTORE PUSH1 0x20 DUP2 ADD SWAP3 SWAP1 SWAP3 MSTORE DUP2 ADD SWAP2 SWAP1 SWAP2 MSTORE DUP1 PUSH1 0x60 DUP2 ADD PUSH2 0x48F JUMP JUMPDEST SWAP1 POP DUP8 DUP2 DUP2 RETURNDATASIZE DUP4 GT PUSH2 0xC32 JUMPI JUMPDEST PUSH2 0xC03 DUP2 DUP4 PUSH2 0x192C JUMP JUMPDEST DUP2 ADD SUB SLT PUSH2 0x4CB JUMPI MLOAD PUSH32 0x50AEC5F8E9108005593FC7734A6EF9BA18EC3F79A131DB3A6B3C0F486C5987A8 PUSH2 0xB9D JUMP JUMPDEST POP RETURNDATASIZE PUSH2 0xBF9 JUMP JUMPDEST SWAP1 SWAP8 SWAP2 SWAP3 POP PUSH8 0xFFFFFFFFFFFFFFFF DUP2 GT PUSH2 0xC5A JUMPI PUSH1 0x40 MSTORE SWAP6 DUP10 SWAP2 SWAP1 PUSH0 PUSH2 0xB78 JUMP JUMPDEST PUSH4 0x4E487B71 PUSH1 0xE0 SHL DUP3 MSTORE PUSH1 0x41 PUSH1 0x4 MSTORE DUP4 DUP3 REVERT JUMPDEST PUSH1 0x40 MLOAD RETURNDATASIZE DUP11 DUP3 RETURNDATACOPY RETURNDATASIZE SWAP1 REVERT JUMPDEST DUP8 DUP1 REVERT JUMPDEST SWAP1 SWAP9 POP DUP10 DUP2 DUP2 RETURNDATASIZE DUP4 GT PUSH2 0xCA8 JUMPI JUMPDEST PUSH2 0xC94 DUP2 DUP4 PUSH2 0x192C JUMP JUMPDEST DUP2 ADD SUB SLT PUSH2 0xCA4 JUMPI MLOAD SWAP8 PUSH0 PUSH2 0xB43 JUMP JUMPDEST DUP7 DUP1 REVERT JUMPDEST POP RETURNDATASIZE PUSH2 0xC8A JUMP JUMPDEST PUSH1 0x40 MLOAD RETURNDATASIZE DUP10 DUP3 RETURNDATACOPY RETURNDATASIZE SWAP1 REVERT JUMPDEST DUP3 DUP2 SWAP4 SWAP3 SWAP10 POP RETURNDATASIZE DUP4 GT PUSH2 0xCE6 JUMPI JUMPDEST PUSH2 0xCD2 DUP2 DUP4 PUSH2 0x192C JUMP JUMPDEST DUP2 ADD SUB SLT PUSH2 0xC78 JUMPI MLOAD SWAP6 DUP11 SWAP1 PUSH2 0xB31 PUSH2 0xAE5 JUMP JUMPDEST POP RETURNDATASIZE PUSH2 0xCC8 JUMP JUMPDEST PUSH1 0x40 MLOAD PUSH3 0x461BCD PUSH1 0xE5 SHL DUP2 MSTORE PUSH1 0x4 DUP2 ADD DUP12 SWAP1 MSTORE PUSH1 0x10 DUP2 DUP6 ADD MSTORE PUSH16 0x929CA6AA8C8C9286928A9CA8BE8AA89 PUSH1 0x83 SHL PUSH1 0x44 DUP3 ADD MSTORE PUSH1 0x64 SWAP1 REVERT JUMPDEST PUSH2 0xD30 SWAP1 DUP11 GT ISZERO PUSH2 0x1E88 JUMP JUMPDEST PUSH0 PUSH2 0xAB0 JUMP JUMPDEST POP PUSH1 0x8 SLOAD DUP6 AND ISZERO ISZERO PUSH2 0xA5F JUMP JUMPDEST POP DUP5 PUSH1 0x7 SLOAD AND ISZERO ISZERO PUSH2 0xA59 JUMP JUMPDEST DUP8 PUSH1 0x13 PUSH1 0x64 SWAP3 PUSH1 0x40 MLOAD SWAP3 PUSH3 0x461BCD PUSH1 0xE5 SHL DUP5 MSTORE PUSH1 0x4 DUP5 ADD MSTORE DUP3 ADD MSTORE PUSH19 0x22AA242FA0AAAA27A1A7A72B22A92A2FA7A323 PUSH1 0x69 SHL PUSH1 0x44 DUP3 ADD MSTORE REVERT JUMPDEST POP DUP5 SLOAD DUP3 AND CALLER EQ PUSH2 0xA0A JUMP JUMPDEST POP CALLVALUE PUSH2 0x5F2 JUMPI PUSH1 0x40 CALLDATASIZE PUSH1 0x3 NOT ADD SLT PUSH2 0x5F2 JUMPI PUSH2 0xDAF PUSH2 0x1838 JUMP JUMPDEST PUSH32 0xDF5696AD87492E032D2D2E9FE474DD46A6C7C6D5A84735528827F36CDB269C76 PUSH1 0x20 PUSH1 0x24 CALLDATALOAD SWAP3 PUSH2 0xDDE PUSH2 0x1A2D JUMP JUMPDEST PUSH1 0x1 PUSH1 0x1 PUSH1 0xA0 SHL SUB AND DUP1 DUP6 MSTORE PUSH1 0xA DUP3 MSTORE PUSH1 0x40 DUP1 DUP7 KECCAK256 DUP6 SWAP1 SSTORE MLOAD SWAP4 DUP5 MSTORE SWAP3 LOG2 DUP1 RETURN JUMPDEST POP CALLVALUE PUSH2 0x5F2 JUMPI PUSH1 0x20 CALLDATASIZE PUSH1 0x3 NOT ADD SLT PUSH2 0x5F2 JUMPI PUSH1 0x20 SWAP1 PUSH1 0xFF SWAP1 PUSH1 0x40 SWAP1 PUSH1 0x1 PUSH1 0x1 PUSH1 0xA0 SHL SUB PUSH2 0xE2A PUSH2 0x1838 JUMP JUMPDEST AND DUP2 MSTORE PUSH1 0x5 DUP5 MSTORE KECCAK256 SLOAD AND PUSH1 0x40 MLOAD SWAP1 ISZERO ISZERO DUP2 MSTORE RETURN JUMPDEST POP CALLVALUE PUSH2 0x5F2 JUMPI DUP1 PUSH1 0x3 NOT CALLDATASIZE ADD SLT PUSH2 0x5F2 JUMPI PUSH1 0x7 SLOAD PUSH1 0x40 MLOAD PUSH1 0x1 PUSH1 0x1 PUSH1 0xA0 SHL SUB SWAP1 SWAP2 AND DUP2 MSTORE PUSH1 0x20 SWAP1 RETURN JUMPDEST POP CALLVALUE PUSH2 0x5F2 JUMPI DUP1 PUSH1 0x3 NOT CALLDATASIZE ADD SLT PUSH2 0x5F2 JUMPI PUSH1 0x2 SLOAD PUSH1 0x40 MLOAD PUSH1 0x1 PUSH1 0x1 PUSH1 0xA0 SHL SUB SWAP1 SWAP2 AND DUP2 MSTORE PUSH1 0x20 SWAP1 RETURN JUMPDEST POP CALLVALUE PUSH2 0x5F2 JUMPI PUSH1 0x40 CALLDATASIZE PUSH1 0x3 NOT ADD SLT PUSH2 0x5F2 JUMPI PUSH2 0xEAA PUSH2 0x1838 JUMP JUMPDEST PUSH1 0x2 SLOAD PUSH1 0x1 PUSH1 0x1 PUSH1 0xA0 SHL SUB SWAP2 SWAP1 PUSH1 0x24 CALLDATALOAD SWAP1 DUP4 AND CALLER EQ DUP1 ISZERO PUSH2 0xF69 JUMPI JUMPDEST PUSH2 0xECF SWAP1 PUSH2 0x1ABD JUMP JUMPDEST PUSH2 0xED7 PUSH2 0x1B2C JUMP JUMPDEST DUP3 DUP3 AND SWAP3 DUP4 DUP6 MSTORE PUSH1 0x5 PUSH1 0x20 MSTORE PUSH2 0xEF3 PUSH1 0xFF PUSH1 0x40 DUP8 KECCAK256 SLOAD AND PUSH2 0x1AF4 JUMP JUMPDEST PUSH1 0x6 SLOAD AND SWAP1 DUP2 ISZERO PUSH2 0xF3A JUMPI PUSH2 0xF2C DUP2 PUSH32 0xCC7B0060C8426C409D1C88739A88EFC3BA8DBACE9308B6E120A6A38F59D55F45 SWAP5 PUSH1 0x20 SWAP5 PUSH2 0x1B82 JUMP JUMPDEST PUSH1 0x40 MLOAD SWAP1 DUP2 MSTORE LOG2 PUSH1 0x1 DUP1 SSTORE DUP1 RETURN JUMPDEST PUSH1 0x40 MLOAD PUSH3 0x461BCD PUSH1 0xE5 SHL DUP2 MSTORE PUSH1 0x20 PUSH1 0x4 DUP3 ADD MSTORE PUSH1 0x7 PUSH1 0x24 DUP3 ADD MSTORE PUSH7 0x1393D7D35554D1 PUSH1 0xCA SHL PUSH1 0x44 DUP3 ADD MSTORE PUSH1 0x64 SWAP1 REVERT JUMPDEST POP DUP4 SLOAD DUP4 AND CALLER EQ PUSH2 0xEC6 JUMP JUMPDEST POP CALLVALUE PUSH2 0x5F2 JUMPI PUSH1 0x60 CALLDATASIZE PUSH1 0x3 NOT ADD SLT PUSH2 0x5F2 JUMPI PUSH2 0xF8F PUSH2 0x1838 JUMP JUMPDEST PUSH8 0xFFFFFFFFFFFFFFFF SWAP1 PUSH1 0x24 CALLDATALOAD DUP3 DUP2 GT PUSH2 0x1098 JUMPI PUSH2 0xFB1 SWAP1 CALLDATASIZE SWAP1 PUSH1 0x4 ADD PUSH2 0x1893 JUMP JUMPDEST SWAP2 SWAP1 SWAP3 PUSH1 0x44 CALLDATALOAD SWAP1 DUP2 GT PUSH2 0x1094 JUMPI PUSH2 0xFCC SWAP1 CALLDATASIZE SWAP1 PUSH1 0x4 ADD PUSH2 0x1893 JUMP JUMPDEST SWAP4 SWAP1 SWAP2 PUSH2 0xFD7 PUSH2 0x1A2D JUMP JUMPDEST PUSH2 0xFDF PUSH2 0x1B2C JUMP JUMPDEST PUSH1 0x1 PUSH1 0x1 PUSH1 0xA0 SHL SUB SWAP1 DUP2 AND SWAP5 PUSH2 0xFF6 DUP7 ISZERO ISZERO PUSH2 0x1A84 JUMP JUMPDEST PUSH2 0x1001 DUP2 DUP7 EQ PUSH2 0x202C JUMP JUMPDEST DUP7 SWAP4 DUP8 JUMPDEST DUP7 DUP2 LT PUSH2 0x1045 JUMPI DUP9 DUP9 PUSH32 0x9FDD03418A17203CDA46D82805F0BCF9B72FDDBA9E069F4DADD27D83F0F5ED08 PUSH1 0x40 DUP11 DUP11 DUP3 MLOAD SWAP2 DUP3 MSTORE PUSH1 0x20 DUP3 ADD MSTORE LOG2 PUSH1 0x1 DUP1 SSTORE DUP1 RETURN JUMPDEST DUP1 PUSH2 0x108A PUSH2 0x105F PUSH2 0x105A PUSH2 0x108F SWAP5 DUP12 DUP11 PUSH2 0x2075 JUMP JUMPDEST PUSH2 0x2099 JUMP JUMPDEST SWAP8 PUSH2 0x106D DUP8 DUP11 AND ISZERO ISZERO PUSH2 0x1FB8 JUMP JUMPDEST PUSH2 0x1083 PUSH2 0x107B DUP5 DUP9 DUP9 PUSH2 0x2075 JUMP JUMPDEST CALLDATALOAD DUP1 SWAP3 PUSH2 0x1F0B JUMP JUMPDEST SWAP9 DUP12 PUSH2 0x1B82 JUMP JUMPDEST PUSH2 0x2067 JUMP JUMPDEST PUSH2 0x1005 JUMP JUMPDEST DUP5 DUP1 REVERT JUMPDEST DUP4 DUP1 REVERT JUMPDEST POP CALLVALUE PUSH2 0x5F2 JUMPI DUP1 PUSH1 0x3 NOT CALLDATASIZE ADD SLT PUSH2 0x5F2 JUMPI SLOAD PUSH1 0x40 MLOAD PUSH1 0x1 PUSH1 0x1 PUSH1 0xA0 SHL SUB SWAP1 SWAP2 AND DUP2 MSTORE PUSH1 0x20 SWAP1 RETURN JUMPDEST POP CALLVALUE PUSH2 0x5F2 JUMPI PUSH1 0x20 CALLDATASIZE PUSH1 0x3 NOT ADD SLT PUSH2 0x5F2 JUMPI PUSH1 0x20 SWAP1 PUSH1 0xFF SWAP1 PUSH1 0x40 SWAP1 PUSH1 0x1 PUSH1 0x1 PUSH1 0xA0 SHL SUB PUSH2 0x10EE PUSH2 0x1838 JUMP JUMPDEST AND DUP2 MSTORE PUSH1 0x4 DUP5 MSTORE KECCAK256 SLOAD AND PUSH1 0x40 MLOAD SWAP1 ISZERO ISZERO DUP2 MSTORE RETURN JUMPDEST POP CALLVALUE PUSH2 0x5F2 JUMPI PUSH1 0x20 CALLDATASIZE PUSH1 0x3 NOT ADD SLT PUSH2 0x5F2 JUMPI PUSH2 0x111C PUSH2 0x1838 JUMP JUMPDEST PUSH2 0x1124 PUSH2 0x1A2D JUMP JUMPDEST PUSH1 0x2 DUP1 SLOAD PUSH1 0x1 PUSH1 0x1 PUSH1 0xA0 SHL SUB SWAP3 DUP4 AND PUSH1 0x1 PUSH1 0x1 PUSH1 0xA0 SHL SUB NOT DUP3 AND DUP2 OR SWAP1 SWAP3 SSTORE SWAP1 SWAP2 AND PUSH32 0x50697E88BD427923002F5D3844F352091C05C0C9C3B69E43830863D222463173 DUP4 DUP1 LOG3 DUP1 RETURN JUMPDEST POP CALLVALUE PUSH2 0x5F2 JUMPI DUP1 PUSH1 0x3 NOT CALLDATASIZE ADD SLT PUSH2 0x5F2 JUMPI PUSH2 0x1186 PUSH2 0x1A2D JUMP JUMPDEST DUP1 SLOAD PUSH1 0x1 PUSH1 0x1 PUSH1 0xA0 SHL SUB NOT DUP2 AND DUP3 SSTORE DUP2 SWAP1 PUSH1 0x1 PUSH1 0x1 PUSH1 0xA0 SHL SUB AND PUSH32 0x8BE0079C531659141344CD1FD0A4F28419497F9722A3DAAFE3B4186F6B6457E0 DUP3 DUP1 LOG3 DUP1 RETURN JUMPDEST POP CALLVALUE PUSH2 0x5F2 JUMPI PUSH1 0x60 CALLDATASIZE PUSH1 0x3 NOT ADD SLT PUSH2 0x5F2 JUMPI PUSH2 0x11E1 PUSH2 0x1838 JUMP JUMPDEST PUSH2 0x11E9 PUSH2 0x184E JUMP JUMPDEST PUSH1 0x1 PUSH1 0x1 PUSH1 0xA0 SHL SUB PUSH1 0x44 CALLDATALOAD DUP2 DUP2 AND SWAP4 SWAP1 DUP5 SWAP1 SUB PUSH2 0x1094 JUMPI DUP2 SWAP1 PUSH2 0x120A PUSH2 0x1A2D JUMP JUMPDEST AND SWAP2 DUP3 ISZERO PUSH2 0x12D8 JUMPI AND SWAP1 DUP2 ISZERO PUSH2 0x12A7 JUMPI DUP3 ISZERO PUSH2 0x1274 JUMPI DUP3 PUSH12 0xFFFFFFFFFFFFFFFFFFFFFFFF PUSH1 0xA0 SHL DUP3 DUP2 PUSH1 0x6 SLOAD AND OR PUSH1 0x6 SSTORE DUP4 DUP2 PUSH1 0x7 SLOAD AND OR PUSH1 0x7 SSTORE PUSH1 0x8 SLOAD AND OR PUSH1 0x8 SSTORE PUSH32 0x8BB9E0231454A91EE956962915E84237DAB1CB5513222F17D97DB558C0331B4F DUP5 DUP1 LOG4 DUP1 RETURN JUMPDEST PUSH1 0x40 MLOAD PUSH3 0x461BCD PUSH1 0xE5 SHL DUP2 MSTORE PUSH1 0x20 PUSH1 0x4 DUP3 ADD MSTORE PUSH1 0xB PUSH1 0x24 DUP3 ADD MSTORE PUSH11 0x2D22A927AFA927AAAA22A9 PUSH1 0xA9 SHL PUSH1 0x44 DUP3 ADD MSTORE PUSH1 0x64 SWAP1 REVERT JUMPDEST PUSH1 0x40 MLOAD PUSH3 0x461BCD PUSH1 0xE5 SHL DUP2 MSTORE PUSH1 0x20 PUSH1 0x4 DUP3 ADD MSTORE PUSH1 0x9 PUSH1 0x24 DUP3 ADD MSTORE PUSH9 0xB48AA49EBEAE8AA89 PUSH1 0xBB SHL PUSH1 0x44 DUP3 ADD MSTORE PUSH1 0x64 SWAP1 REVERT JUMPDEST PUSH1 0x40 MLOAD PUSH3 0x461BCD PUSH1 0xE5 SHL DUP2 MSTORE PUSH1 0x20 PUSH1 0x4 DUP3 ADD MSTORE PUSH1 0x9 PUSH1 0x24 DUP3 ADD MSTORE PUSH9 0x16915493D7D35554D1 PUSH1 0xBA SHL PUSH1 0x44 DUP3 ADD MSTORE PUSH1 0x64 SWAP1 REVERT JUMPDEST POP CALLVALUE PUSH2 0x5F2 JUMPI PUSH1 0x20 CALLDATASIZE PUSH1 0x3 NOT ADD SLT PUSH2 0x5F2 JUMPI PUSH2 0x1358 SWAP1 PUSH2 0x1344 SWAP1 PUSH1 0x40 SWAP1 PUSH1 0x1 PUSH1 0x1 PUSH1 0xA0 SHL SUB PUSH2 0x1336 PUSH2 0x1838 JUMP JUMPDEST AND DUP2 MSTORE PUSH1 0x9 PUSH1 0x20 MSTORE KECCAK256 PUSH2 0x194E JUMP JUMPDEST PUSH1 0x40 MLOAD SWAP2 DUP3 SWAP2 PUSH1 0x20 DUP4 MSTORE PUSH1 0x20 DUP4 ADD SWAP1 PUSH2 0x19EF JUMP JUMPDEST SUB SWAP1 RETURN JUMPDEST POP CALLVALUE PUSH2 0x5F2 JUMPI PUSH1 0x40 CALLDATASIZE PUSH1 0x3 NOT ADD SLT PUSH2 0x5F2 JUMPI PUSH2 0x1376 PUSH2 0x1838 JUMP JUMPDEST SWAP1 PUSH1 0x24 DUP1 CALLDATALOAD SWAP3 PUSH8 0xFFFFFFFFFFFFFFFF SWAP1 DUP2 DUP6 GT PUSH2 0x1098 JUMPI CALLDATASIZE PUSH1 0x23 DUP7 ADD SLT ISZERO PUSH2 0x1098 JUMPI DUP5 PUSH1 0x4 ADD CALLDATALOAD SWAP2 DUP3 GT PUSH2 0x1098 JUMPI CALLDATASIZE DUP4 DUP4 DUP8 ADD ADD GT PUSH2 0x1098 JUMPI PUSH2 0x13B7 PUSH2 0x1A2D JUMP JUMPDEST DUP2 ISZERO PUSH2 0x1543 JUMPI PUSH1 0x1 DUP1 PUSH1 0xA0 SHL SUB AND SWAP2 DUP3 DUP5 MSTORE PUSH1 0x20 SWAP5 PUSH1 0x9 DUP7 MSTORE PUSH1 0x40 DUP6 KECCAK256 PUSH2 0x13DE DUP2 SLOAD PUSH2 0x18C4 JUMP JUMPDEST PUSH1 0x1F DUP2 GT PUSH2 0x1500 JUMPI JUMPDEST POP DUP6 PUSH1 0x1F DUP6 GT PUSH1 0x1 EQ PUSH2 0x1472 JUMPI DUP4 DUP8 SWAP9 SWAP4 DUP7 SWAP4 DUP5 PUSH1 0x40 SWAP8 DUP2 SWAP6 PUSH32 0xE2043423F5314FA65AAFDD7D1E68110E8A254A226CE97A4728709CE876F8F5C8 SWAP12 SWAP13 SWAP3 PUSH2 0x1465 JUMPI JUMPDEST POP POP DUP5 PUSH1 0x1 SHL SWAP1 PUSH0 NOT DUP7 PUSH1 0x3 SHL SHR NOT AND OR SWAP1 SSTORE JUMPDEST DUP6 MLOAD SWAP7 DUP6 DUP9 SWAP7 DUP8 MSTORE DUP7 ADD MSTORE ADD DUP5 DUP5 ADD CALLDATACOPY DUP2 DUP2 ADD DUP4 ADD DUP8 SWAP1 MSTORE PUSH1 0x1F ADD PUSH1 0x1F NOT AND DUP2 ADD SUB ADD SWAP1 LOG2 DUP1 RETURN JUMPDEST DUP5 ADD ADD CALLDATALOAD SWAP1 POP DUP4 PUSH0 PUSH2 0x1429 JUMP JUMPDEST DUP2 DUP8 MSTORE DUP8 DUP8 KECCAK256 SWAP1 PUSH1 0x1F NOT DUP7 AND DUP9 JUMPDEST DUP2 DUP2 LT PUSH2 0x14E7 JUMPI POP SWAP4 DUP7 SWAP4 DUP5 SWAP4 PUSH1 0x40 SWAP8 SWAP4 DUP6 PUSH32 0xE2043423F5314FA65AAFDD7D1E68110E8A254A226CE97A4728709CE876F8F5C8 SWAP12 SWAP13 SWAP14 SWAP9 LT PUSH2 0x14CC JUMPI JUMPDEST POP POP PUSH1 0x1 DUP5 DUP2 SHL ADD SWAP1 SSTORE PUSH2 0x143D JUMP JUMPDEST DUP4 ADD DUP5 ADD CALLDATALOAD PUSH0 NOT PUSH1 0x3 DUP8 SWAP1 SHL PUSH1 0xF8 AND SHR NOT AND SWAP1 SSTORE PUSH0 DUP1 PUSH2 0x14BD JUMP JUMPDEST SWAP2 SWAP3 DUP11 PUSH1 0x1 DUP2 SWAP3 DUP10 DUP8 DUP11 ADD ADD CALLDATALOAD DUP2 SSTORE ADD SWAP5 ADD SWAP3 ADD PUSH2 0x1480 JUMP JUMPDEST DUP2 DUP8 MSTORE DUP8 DUP8 KECCAK256 PUSH1 0x1F DUP7 ADD PUSH1 0x5 SHR DUP2 ADD SWAP2 DUP10 DUP8 LT PUSH2 0x1539 JUMPI JUMPDEST PUSH1 0x1F ADD PUSH1 0x5 SHR ADD SWAP1 JUMPDEST DUP2 DUP2 LT PUSH2 0x152E JUMPI POP PUSH2 0x13E7 JUMP JUMPDEST DUP8 DUP2 SSTORE PUSH1 0x1 ADD PUSH2 0x1521 JUMP JUMPDEST SWAP1 SWAP2 POP DUP2 SWAP1 PUSH2 0x1518 JUMP JUMPDEST PUSH1 0x40 MLOAD PUSH3 0x461BCD PUSH1 0xE5 SHL DUP2 MSTORE PUSH1 0x20 PUSH1 0x4 DUP3 ADD MSTORE PUSH1 0xA DUP2 DUP6 ADD MSTORE PUSH10 0x8A9AA0A8B2BEA082A89 PUSH1 0xB3 SHL PUSH1 0x44 DUP3 ADD MSTORE PUSH1 0x64 SWAP1 REVERT JUMPDEST POP CALLVALUE PUSH2 0x5F2 JUMPI PUSH1 0x20 CALLDATASIZE PUSH1 0x3 NOT ADD SLT PUSH2 0x5F2 JUMPI PUSH1 0x20 SWAP1 PUSH1 0x40 SWAP1 PUSH1 0x1 PUSH1 0x1 PUSH1 0xA0 SHL SUB PUSH2 0x159C PUSH2 0x1838 JUMP JUMPDEST AND DUP2 MSTORE PUSH1 0xA DUP4 MSTORE KECCAK256 SLOAD PUSH1 0x40 MLOAD SWAP1 DUP2 MSTORE RETURN JUMPDEST POP CALLVALUE PUSH2 0x5F2 JUMPI PUSH1 0x40 CALLDATASIZE PUSH1 0x3 NOT ADD SLT PUSH2 0x5F2 JUMPI PUSH1 0x4 CALLDATALOAD PUSH1 0x1 PUSH1 0x1 PUSH1 0xA0 SHL SUB DUP2 AND SWAP1 DUP2 SWAP1 SUB PUSH2 0x162E JUMPI PUSH32 0x426CB9EA55283C30B2DF3CBEECB22F7440C0E007818208EACC6FFAACF4084374 PUSH1 0x20 PUSH1 0x24 CALLDATALOAD PUSH2 0x1602 PUSH2 0x1A2D JUMP JUMPDEST PUSH2 0x160A PUSH2 0x1B2C JUMP JUMPDEST PUSH2 0x1615 DUP5 ISZERO ISZERO PUSH2 0x1FB8 JUMP JUMPDEST PUSH2 0xF2C DUP6 DUP1 DUP1 DUP1 DUP6 DUP10 GAS CALL PUSH2 0x1628 PUSH2 0x1CC5 JUMP JUMPDEST POP PUSH2 0x1FEE JUMP JUMPDEST POP DUP1 REVERT JUMPDEST POP CALLVALUE PUSH2 0x5F2 JUMPI PUSH1 0x60 CALLDATASIZE PUSH1 0x3 NOT ADD SLT PUSH2 0x5F2 JUMPI PUSH2 0x164C PUSH2 0x1838 JUMP JUMPDEST PUSH2 0x1654 PUSH2 0x184E JUMP JUMPDEST SWAP1 PUSH32 0xDB688C8F967229ADF78F6827A73DDE522BC64C8B4C0B8E0B3D94D6EC60B05868 PUSH1 0x20 PUSH1 0x44 CALLDATALOAD PUSH2 0x1683 PUSH2 0x1A2D JUMP JUMPDEST PUSH2 0x168B PUSH2 0x1B2C JUMP JUMPDEST PUSH1 0x1 PUSH1 0x1 PUSH1 0xA0 SHL SUB SWAP4 DUP5 AND SWAP4 PUSH2 0x16BC SWAP1 DUP3 SWAP1 PUSH2 0x16A8 DUP8 ISZERO ISZERO PUSH2 0x1A84 JUMP JUMPDEST DUP8 AND SWAP7 PUSH2 0x16B6 DUP9 ISZERO ISZERO PUSH2 0x1FB8 JUMP JUMPDEST DUP7 PUSH2 0x1B82 JUMP JUMPDEST PUSH1 0x40 MLOAD SWAP1 DUP2 MSTORE LOG3 PUSH1 0x1 DUP1 SSTORE DUP1 RETURN JUMPDEST POP CALLVALUE PUSH2 0x5F2 JUMPI PUSH1 0x40 CALLDATASIZE PUSH1 0x3 NOT ADD SLT PUSH2 0x5F2 JUMPI PUSH8 0xFFFFFFFFFFFFFFFF PUSH1 0x4 CALLDATALOAD DUP2 DUP2 GT PUSH2 0x17C3 JUMPI PUSH2 0x16FD SWAP1 CALLDATASIZE SWAP1 PUSH1 0x4 ADD PUSH2 0x1893 JUMP JUMPDEST SWAP2 PUSH1 0x24 CALLDATALOAD SWAP1 DUP2 GT PUSH2 0x1098 JUMPI PUSH2 0x1716 SWAP1 CALLDATASIZE SWAP1 PUSH1 0x4 ADD PUSH2 0x1893 JUMP JUMPDEST SWAP2 SWAP1 PUSH2 0x1720 PUSH2 0x1A2D JUMP JUMPDEST PUSH2 0x1728 PUSH2 0x1B2C JUMP JUMPDEST PUSH2 0x1733 DUP4 DUP6 EQ PUSH2 0x202C JUMP JUMPDEST DUP5 SWAP3 DUP6 JUMPDEST DUP7 DUP7 DUP3 LT PUSH2 0x1776 JUMPI PUSH32 0x475FFB8F33863524A9FC758F8BA206EAB9280D2A47EB65F76D8F98DF1F611B28 PUSH1 0x40 DUP9 DUP9 DUP3 MLOAD SWAP2 DUP3 MSTORE PUSH1 0x20 DUP3 ADD MSTORE LOG1 PUSH1 0x1 DUP1 SSTORE DUP1 RETURN JUMPDEST PUSH2 0x17BE SWAP2 SWAP1 PUSH2 0x108A SWAP1 DUP1 DUP1 DUP1 PUSH1 0x1 PUSH1 0x1 PUSH1 0xA0 SHL SUB PUSH2 0x1798 PUSH2 0x105A DUP9 DUP16 DUP15 PUSH2 0x2075 JUMP JUMPDEST AND SWAP11 PUSH2 0x17A5 DUP13 ISZERO ISZERO PUSH2 0x1FB8 JUMP JUMPDEST PUSH2 0x17B3 PUSH2 0x107B DUP9 DUP12 DUP14 PUSH2 0x2075 JUMP JUMPDEST SWAP12 GAS CALL PUSH2 0x1628 PUSH2 0x1CC5 JUMP JUMPDEST PUSH2 0x1737 JUMP JUMPDEST DUP3 DUP1 REVERT JUMPDEST POP CALLVALUE PUSH2 0x5F2 JUMPI PUSH1 0x20 PUSH32 0x4E27CFE5FB917C22DA47840B79F78CD0DDF1F849400F3B5A0D5187935F9D83B8 PUSH2 0x17F9 CALLDATASIZE PUSH2 0x1864 JUMP JUMPDEST SWAP3 SWAP1 PUSH2 0x1803 PUSH2 0x1A2D JUMP JUMPDEST PUSH1 0x1 PUSH1 0x1 PUSH1 0xA0 SHL SUB AND SWAP3 PUSH2 0x1818 DUP5 ISZERO ISZERO PUSH2 0x1A84 JUMP JUMPDEST DUP4 DUP6 MSTORE PUSH1 0x3 DUP3 MSTORE PUSH2 0x8F9 DUP2 PUSH1 0x40 DUP8 KECCAK256 SWAP1 PUSH1 0xFF DUP1 NOT DUP4 SLOAD AND SWAP2 ISZERO ISZERO AND OR SWAP1 SSTORE JUMP JUMPDEST PUSH1 0x4 CALLDATALOAD SWAP1 PUSH1 0x1 PUSH1 0x1 PUSH1 0xA0 SHL SUB DUP3 AND DUP3 SUB PUSH2 0x4CB JUMPI JUMP JUMPDEST PUSH1 0x24 CALLDATALOAD SWAP1 PUSH1 0x1 PUSH1 0x1 PUSH1 0xA0 SHL SUB DUP3 AND DUP3 SUB PUSH2 0x4CB JUMPI JUMP JUMPDEST PUSH1 0x40 SWAP1 PUSH1 0x3 NOT ADD SLT PUSH2 0x4CB JUMPI PUSH1 0x4 CALLDATALOAD PUSH1 0x1 PUSH1 0x1 PUSH1 0xA0 SHL SUB DUP2 AND DUP2 SUB PUSH2 0x4CB JUMPI SWAP1 PUSH1 0x24 CALLDATALOAD DUP1 ISZERO ISZERO DUP2 SUB PUSH2 0x4CB JUMPI SWAP1 JUMP JUMPDEST SWAP2 DUP2 PUSH1 0x1F DUP5 ADD SLT ISZERO PUSH2 0x4CB JUMPI DUP3 CALLDATALOAD SWAP2 PUSH8 0xFFFFFFFFFFFFFFFF DUP4 GT PUSH2 0x4CB JUMPI PUSH1 0x20 DUP1 DUP6 ADD SWAP5 DUP5 PUSH1 0x5 SHL ADD ADD GT PUSH2 0x4CB JUMPI JUMP JUMPDEST SWAP1 PUSH1 0x1 DUP3 DUP2 SHR SWAP3 AND DUP1 ISZERO PUSH2 0x18F2 JUMPI JUMPDEST PUSH1 0x20 DUP4 LT EQ PUSH2 0x18DE JUMPI JUMP JUMPDEST PUSH4 0x4E487B71 PUSH1 0xE0 SHL PUSH0 MSTORE PUSH1 0x22 PUSH1 0x4 MSTORE PUSH1 0x24 PUSH0 REVERT JUMPDEST SWAP2 PUSH1 0x7F AND SWAP2 PUSH2 0x18D3 JUMP JUMPDEST PUSH1 0xA0 DUP2 ADD SWAP1 DUP2 LT PUSH8 0xFFFFFFFFFFFFFFFF DUP3 GT OR PUSH2 0x1918 JUMPI PUSH1 0x40 MSTORE JUMP JUMPDEST PUSH4 0x4E487B71 PUSH1 0xE0 SHL PUSH0 MSTORE PUSH1 0x41 PUSH1 0x4 MSTORE PUSH1 0x24 PUSH0 REVERT JUMPDEST SWAP1 PUSH1 0x1F DUP1 NOT SWAP2 ADD AND DUP2 ADD SWAP1 DUP2 LT PUSH8 0xFFFFFFFFFFFFFFFF DUP3 GT OR PUSH2 0x1918 JUMPI PUSH1 0x40 MSTORE JUMP JUMPDEST SWAP1 PUSH1 0x40 MLOAD SWAP2 DUP3 PUSH0 DUP3 SLOAD SWAP3 PUSH2 0x1961 DUP5 PUSH2 0x18C4 JUMP JUMPDEST SWAP1 DUP2 DUP5 MSTORE PUSH1 0x1 SWAP5 DUP6 DUP2 AND SWAP1 DUP2 PUSH0 EQ PUSH2 0x19CC JUMPI POP PUSH1 0x1 EQ PUSH2 0x198C JUMPI JUMPDEST POP POP PUSH2 0x198A SWAP3 POP SUB DUP4 PUSH2 0x192C JUMP JUMPDEST JUMP JUMPDEST SWAP1 SWAP4 SWAP2 POP PUSH0 MSTORE PUSH1 0x20 SWAP1 DUP2 PUSH0 KECCAK256 SWAP4 PUSH0 SWAP2 JUMPDEST DUP2 DUP4 LT PUSH2 0x19B4 JUMPI POP POP PUSH2 0x198A SWAP4 POP DUP3 ADD ADD PUSH0 DUP1 PUSH2 0x197C JUMP JUMPDEST DUP6 SLOAD DUP9 DUP5 ADD DUP6 ADD MSTORE SWAP5 DUP6 ADD SWAP5 DUP8 SWAP5 POP SWAP2 DUP4 ADD SWAP2 PUSH2 0x199C JUMP JUMPDEST SWAP2 POP POP PUSH2 0x198A SWAP5 POP PUSH1 0x20 SWAP3 POP PUSH1 0xFF NOT AND DUP3 DUP5 ADD MSTORE ISZERO ISZERO PUSH1 0x5 SHL DUP3 ADD ADD PUSH0 DUP1 PUSH2 0x197C JUMP JUMPDEST SWAP2 SWAP1 DUP3 MLOAD SWAP3 DUP4 DUP3 MSTORE PUSH0 JUMPDEST DUP5 DUP2 LT PUSH2 0x1A19 JUMPI POP POP DUP3 PUSH0 PUSH1 0x20 DUP1 SWAP5 SWAP6 DUP5 ADD ADD MSTORE PUSH1 0x1F DUP1 NOT SWAP2 ADD AND ADD ADD SWAP1 JUMP JUMPDEST PUSH1 0x20 DUP2 DUP4 ADD DUP2 ADD MLOAD DUP5 DUP4 ADD DUP3 ADD MSTORE ADD PUSH2 0x19F9 JUMP JUMPDEST PUSH0 SLOAD PUSH1 0x1 PUSH1 0x1 PUSH1 0xA0 SHL SUB AND CALLER SUB PUSH2 0x1A40 JUMPI JUMP JUMPDEST PUSH1 0x64 PUSH1 0x40 MLOAD PUSH3 0x461BCD PUSH1 0xE5 SHL DUP2 MSTORE PUSH1 0x20 PUSH1 0x4 DUP3 ADD MSTORE PUSH1 0x20 PUSH1 0x24 DUP3 ADD MSTORE PUSH32 0x4F776E61626C653A2063616C6C6572206973206E6F7420746865206F776E6572 PUSH1 0x44 DUP3 ADD MSTORE REVERT JUMPDEST ISZERO PUSH2 0x1A8B JUMPI JUMP JUMPDEST PUSH1 0x40 MLOAD PUSH3 0x461BCD PUSH1 0xE5 SHL DUP2 MSTORE PUSH1 0x20 PUSH1 0x4 DUP3 ADD MSTORE PUSH1 0xA PUSH1 0x24 DUP3 ADD MSTORE PUSH10 0x2D22A927AFAA27A5A2A7 PUSH1 0xB1 SHL PUSH1 0x44 DUP3 ADD MSTORE PUSH1 0x64 SWAP1 REVERT JUMPDEST ISZERO PUSH2 0x1AC4 JUMPI JUMP JUMPDEST PUSH1 0x40 MLOAD PUSH3 0x461BCD PUSH1 0xE5 SHL DUP2 MSTORE PUSH1 0x20 PUSH1 0x4 DUP3 ADD MSTORE PUSH1 0x8 PUSH1 0x24 DUP3 ADD MSTORE PUSH8 0x9C9EA8BE82AAA89 PUSH1 0xC3 SHL PUSH1 0x44 DUP3 ADD MSTORE PUSH1 0x64 SWAP1 REVERT JUMPDEST ISZERO PUSH2 0x1AFB JUMPI JUMP JUMPDEST PUSH1 0x40 MLOAD PUSH3 0x461BCD PUSH1 0xE5 SHL DUP2 MSTORE PUSH1 0x20 PUSH1 0x4 DUP3 ADD MSTORE PUSH1 0x9 PUSH1 0x24 DUP3 ADD MSTORE PUSH9 0x10905117D590555315 PUSH1 0xBA SHL PUSH1 0x44 DUP3 ADD MSTORE PUSH1 0x64 SWAP1 REVERT JUMPDEST PUSH1 0x2 PUSH1 0x1 SLOAD EQ PUSH2 0x1B3D JUMPI PUSH1 0x2 PUSH1 0x1 SSTORE JUMP JUMPDEST PUSH1 0x40 MLOAD PUSH3 0x461BCD PUSH1 0xE5 SHL DUP2 MSTORE PUSH1 0x20 PUSH1 0x4 DUP3 ADD MSTORE PUSH1 0x1F PUSH1 0x24 DUP3 ADD MSTORE PUSH32 0x5265656E7472616E637947756172643A207265656E7472616E742063616C6C00 PUSH1 0x44 DUP3 ADD MSTORE PUSH1 0x64 SWAP1 REVERT JUMPDEST PUSH1 0x40 MLOAD PUSH4 0xA9059CBB PUSH1 0xE0 SHL PUSH1 0x20 DUP3 ADD MSTORE PUSH1 0x1 PUSH1 0x1 PUSH1 0xA0 SHL SUB SWAP3 SWAP1 SWAP3 AND PUSH1 0x24 DUP4 ADD MSTORE PUSH1 0x44 DUP1 DUP4 ADD SWAP4 SWAP1 SWAP4 MSTORE SWAP2 DUP2 MSTORE PUSH2 0x198A SWAP2 PUSH2 0x1BBE PUSH1 0x64 DUP4 PUSH2 0x192C JUMP JUMPDEST PUSH1 0x1 DUP1 PUSH1 0xA0 SHL SUB AND SWAP1 PUSH1 0x40 MLOAD PUSH1 0x40 DUP2 ADD SWAP1 DUP1 DUP3 LT PUSH8 0xFFFFFFFFFFFFFFFF DUP4 GT OR PUSH2 0x1918 JUMPI PUSH2 0x1C2F SWAP2 PUSH1 0x40 MSTORE PUSH1 0x20 SWAP4 DUP5 DUP3 MSTORE PUSH32 0x5361666545524332303A206C6F772D6C6576656C2063616C6C206661696C6564 DUP6 DUP4 ADD MSTORE PUSH0 DUP1 DUP6 DUP8 DUP3 SWAP8 MLOAD SWAP2 ADD DUP3 DUP6 GAS CALL PUSH2 0x1C29 PUSH2 0x1CC5 JUMP JUMPDEST SWAP2 PUSH2 0x1D04 JUMP JUMPDEST DUP1 MLOAD SWAP2 DUP3 ISZERO SWAP2 DUP5 DUP4 ISZERO PUSH2 0x1CA1 JUMPI JUMPDEST POP POP POP SWAP1 POP ISZERO PUSH2 0x1C4A JUMPI POP JUMP JUMPDEST PUSH1 0x84 SWAP1 PUSH1 0x40 MLOAD SWAP1 PUSH3 0x461BCD PUSH1 0xE5 SHL DUP3 MSTORE PUSH1 0x4 DUP3 ADD MSTORE PUSH1 0x2A PUSH1 0x24 DUP3 ADD MSTORE PUSH32 0x5361666545524332303A204552433230206F7065726174696F6E20646964206E PUSH1 0x44 DUP3 ADD MSTORE PUSH10 0x1BDD081CDD58D8D95959 PUSH1 0xB2 SHL PUSH1 0x64 DUP3 ADD MSTORE REVERT JUMPDEST SWAP2 SWAP4 DUP2 DUP1 SWAP5 POP ADD SUB SLT PUSH2 0x162E JUMPI DUP3 ADD MLOAD SWAP1 DUP2 ISZERO ISZERO DUP3 SUB PUSH2 0x5F2 JUMPI POP DUP1 PUSH0 DUP1 DUP5 PUSH2 0x1C3D JUMP JUMPDEST RETURNDATASIZE ISZERO PUSH2 0x1CFF JUMPI RETURNDATASIZE SWAP1 PUSH8 0xFFFFFFFFFFFFFFFF DUP3 GT PUSH2 0x1918 JUMPI PUSH1 0x40 MLOAD SWAP2 PUSH2 0x1CF4 PUSH1 0x1F DUP3 ADD PUSH1 0x1F NOT AND PUSH1 0x20 ADD DUP5 PUSH2 0x192C JUMP JUMPDEST DUP3 MSTORE RETURNDATASIZE PUSH0 PUSH1 0x20 DUP5 ADD RETURNDATACOPY JUMP JUMPDEST PUSH1 0x60 SWAP1 JUMP JUMPDEST SWAP2 SWAP3 SWAP1 ISZERO PUSH2 0x1D66 JUMPI POP DUP2 MLOAD ISZERO PUSH2 0x1D18 JUMPI POP SWAP1 JUMP JUMPDEST EXTCODESIZE ISZERO PUSH2 0x1D21 JUMPI SWAP1 JUMP JUMPDEST PUSH1 0x40 MLOAD PUSH3 0x461BCD PUSH1 0xE5 SHL DUP2 MSTORE PUSH1 0x20 PUSH1 0x4 DUP3 ADD MSTORE PUSH1 0x1D PUSH1 0x24 DUP3 ADD MSTORE PUSH32 0x416464726573733A2063616C6C20746F206E6F6E2D636F6E7472616374000000 PUSH1 0x44 DUP3 ADD MSTORE PUSH1 0x64 SWAP1 REVERT JUMPDEST DUP3 MLOAD SWAP1 SWAP2 POP ISZERO PUSH2 0x1D79 JUMPI POP DUP1 MLOAD SWAP1 PUSH1 0x20 ADD REVERT JUMPDEST PUSH1 0x40 MLOAD PUSH3 0x461BCD PUSH1 0xE5 SHL DUP2 MSTORE PUSH1 0x20 PUSH1 0x4 DUP3 ADD MSTORE SWAP1 DUP2 SWAP1 PUSH2 0x1D9D SWAP1 PUSH1 0x24 DUP4 ADD SWAP1 PUSH2 0x19EF JUMP JUMPDEST SUB SWAP1 REVERT JUMPDEST ISZERO PUSH2 0x1DA8 JUMPI JUMP JUMPDEST PUSH1 0x40 MLOAD PUSH3 0x461BCD PUSH1 0xE5 SHL DUP2 MSTORE PUSH1 0x20 PUSH1 0x4 DUP3 ADD MSTORE PUSH1 0x13 PUSH1 0x24 DUP3 ADD MSTORE PUSH19 0x14D5D05417D393D517D0D3D3919251D5549151 PUSH1 0x6A SHL PUSH1 0x44 DUP3 ADD MSTORE PUSH1 0x64 SWAP1 REVERT JUMPDEST ISZERO PUSH2 0x1DEA JUMPI JUMP JUMPDEST PUSH1 0x40 MLOAD PUSH3 0x461BCD PUSH1 0xE5 SHL DUP2 MSTORE PUSH1 0x20 PUSH1 0x4 DUP3 ADD MSTORE PUSH1 0x7 PUSH1 0x24 DUP3 ADD MSTORE PUSH7 0x9C9EBEA082A89 PUSH1 0xCB SHL PUSH1 0x44 DUP3 ADD MSTORE PUSH1 0x64 SWAP1 REVERT JUMPDEST ISZERO PUSH2 0x1E20 JUMPI JUMP JUMPDEST PUSH1 0x40 MLOAD PUSH3 0x461BCD PUSH1 0xE5 SHL DUP2 MSTORE PUSH1 0x20 PUSH1 0x4 DUP3 ADD MSTORE PUSH1 0x7 PUSH1 0x24 DUP3 ADD MSTORE PUSH7 0x10905117D3D555 PUSH1 0xCA SHL PUSH1 0x44 DUP3 ADD MSTORE PUSH1 0x64 SWAP1 REVERT JUMPDEST ISZERO PUSH2 0x1E56 JUMPI JUMP JUMPDEST PUSH1 0x40 MLOAD PUSH3 0x461BCD PUSH1 0xE5 SHL DUP2 MSTORE PUSH1 0x20 PUSH1 0x4 DUP3 ADD MSTORE PUSH1 0xA PUSH1 0x24 DUP3 ADD MSTORE PUSH10 0x2120A22FA6A0AC2FA4A7 PUSH1 0xB1 SHL PUSH1 0x44 DUP3 ADD MSTORE PUSH1 0x64 SWAP1 REVERT JUMPDEST ISZERO PUSH2 0x1E8F JUMPI JUMP JUMPDEST PUSH1 0x40 MLOAD PUSH3 0x461BCD PUSH1 0xE5 SHL DUP2 MSTORE PUSH1 0x20 PUSH1 0x4 DUP3 ADD MSTORE PUSH1 0xA PUSH1 0x24 DUP3 ADD MSTORE PUSH10 0x4D41585F494E5F43415 PUSH1 0xB4 SHL PUSH1 0x44 DUP3 ADD MSTORE PUSH1 0x64 SWAP1 REVERT JUMPDEST PUSH1 0x20 DUP2 MSTORE PUSH1 0xA0 PUSH1 0x80 PUSH2 0x1EDE DUP5 MLOAD DUP4 PUSH1 0x20 DUP7 ADD MSTORE PUSH1 0xC0 DUP6 ADD SWAP1 PUSH2 0x19EF JUMP JUMPDEST SWAP4 PUSH1 0x1 DUP1 DUP5 SHL SUB PUSH1 0x20 DUP3 ADD MLOAD AND PUSH1 0x40 DUP6 ADD MSTORE PUSH1 0x40 DUP2 ADD MLOAD PUSH1 0x60 DUP6 ADD MSTORE PUSH1 0x60 DUP2 ADD MLOAD DUP3 DUP6 ADD MSTORE ADD MLOAD SWAP2 ADD MSTORE SWAP1 JUMP JUMPDEST SWAP2 SWAP1 DUP3 ADD DUP1 SWAP3 GT PUSH2 0x1F18 JUMPI JUMP JUMPDEST PUSH4 0x4E487B71 PUSH1 0xE0 SHL PUSH0 MSTORE PUSH1 0x11 PUSH1 0x4 MSTORE PUSH1 0x24 PUSH0 REVERT JUMPDEST ISZERO PUSH2 0x1F33 JUMPI JUMP JUMPDEST PUSH1 0x40 MLOAD PUSH3 0x461BCD PUSH1 0xE5 SHL DUP2 MSTORE PUSH1 0x20 PUSH1 0x4 DUP3 ADD MSTORE PUSH1 0xC PUSH1 0x24 DUP3 ADD MSTORE PUSH12 0x10905117D35554D117D3D555 PUSH1 0xA2 SHL PUSH1 0x44 DUP3 ADD MSTORE PUSH1 0x64 SWAP1 REVERT JUMPDEST PUSH1 0x40 MLOAD PUSH4 0x95EA7B3 PUSH1 0xE0 SHL PUSH1 0x20 DUP3 ADD MSTORE PUSH1 0x1 PUSH1 0x1 PUSH1 0xA0 SHL SUB SWAP1 SWAP3 AND PUSH1 0x24 DUP4 ADD MSTORE PUSH0 PUSH1 0x44 DUP1 DUP5 ADD SWAP2 SWAP1 SWAP2 MSTORE DUP3 MSTORE PUSH1 0x80 DUP3 ADD SWAP2 SWAP1 PUSH8 0xFFFFFFFFFFFFFFFF DUP4 GT DUP3 DUP5 LT OR PUSH2 0x1918 JUMPI PUSH2 0x198A SWAP3 PUSH1 0x40 MSTORE PUSH2 0x1BBE JUMP JUMPDEST ISZERO PUSH2 0x1FBF JUMPI JUMP JUMPDEST PUSH1 0x40 MLOAD PUSH3 0x461BCD PUSH1 0xE5 SHL DUP2 MSTORE PUSH1 0x20 PUSH1 0x4 DUP3 ADD MSTORE PUSH1 0x7 PUSH1 0x24 DUP3 ADD MSTORE PUSH7 0x5A45524F5F544F PUSH1 0xC8 SHL PUSH1 0x44 DUP3 ADD MSTORE PUSH1 0x64 SWAP1 REVERT JUMPDEST ISZERO PUSH2 0x1FF5 JUMPI JUMP JUMPDEST PUSH1 0x40 MLOAD PUSH3 0x461BCD PUSH1 0xE5 SHL DUP2 MSTORE PUSH1 0x20 PUSH1 0x4 DUP3 ADD MSTORE PUSH1 0xF PUSH1 0x24 DUP3 ADD MSTORE PUSH15 0x11551217D4D1539117D19052531151 PUSH1 0x8A SHL PUSH1 0x44 DUP3 ADD MSTORE PUSH1 0x64 SWAP1 REVERT JUMPDEST ISZERO PUSH2 0x2033 JUMPI JUMP JUMPDEST PUSH1 0x40 MLOAD PUSH3 0x461BCD PUSH1 0xE5 SHL DUP2 MSTORE PUSH1 0x20 PUSH1 0x4 DUP3 ADD MSTORE PUSH1 0xC PUSH1 0x24 DUP3 ADD MSTORE PUSH12 0x988A9CBE9A92A69A82A8869 PUSH1 0xA3 SHL PUSH1 0x44 DUP3 ADD MSTORE PUSH1 0x64 SWAP1 REVERT JUMPDEST PUSH0 NOT DUP2 EQ PUSH2 0x1F18 JUMPI PUSH1 0x1 ADD SWAP1 JUMP JUMPDEST SWAP2 SWAP1 DUP2 LT ISZERO PUSH2 0x2085 JUMPI PUSH1 0x5 SHL ADD SWAP1 JUMP JUMPDEST PUSH4 0x4E487B71 PUSH1 0xE0 SHL PUSH0 MSTORE PUSH1 0x32 PUSH1 0x4 MSTORE PUSH1 0x24 PUSH0 REVERT JUMPDEST CALLDATALOAD PUSH1 0x1 PUSH1 0x1 PUSH1 0xA0 SHL SUB DUP2 AND DUP2 SUB PUSH2 0x4CB JUMPI SWAP1 JUMP INVALID LOG2 PUSH5 0x6970667358 0x22 SLT KECCAK256 0xF6 PUSH6 0x865936578E61 0xC1 PUSH6 0x10580A65234C DUP9 PUSH1 0xDC SWAP10 EQ 0xC5 0xF8 0xD3 DUP14 0xB4 0x4F PUSH18 0x939DFF9764736F6C63430008140033000000 "},"methodIdentifiers":{"WETH()":"ad5c4648","autoConvertToken(address)":"832aec83","batchWithdrawERC20(address,address[],uint256[])":"9dc5dbd6","batchWithdrawETH(address[],uint256[])":"30e07b1e","exactOutPathToMUSD(address)":"56821af1","fundVaultMUSD(address,uint256)":"aaa11f74","keeper()":"aced1661","mUSD()":"f09a1d00","maxSwapIn(address)":"4f670dfd","owner()":"8da5cb5b","payoutVault(address)":"add202c7","renounceOwnership()":"715018a6","reserveToken(address)":"e5906097","setAutoConvertToken(address,bool)":"d73ecd3d","setExactOutPathToMUSD(address,bytes)":"56260007","setKeeper(address)":"748747e6","setMaxSwapIn(address,uint256)":"af22e089","setPayoutVault(address,bool)":"c8f40294","setReserveToken(address,bool)":"07e34075","setSwapConfig(address,address,address)":"6b28e587","swapETHForExactMUSDToVault(address,uint256,uint256,uint256)":"b3801f85","swapRouter()":"c31c9c07","swapTokenForExactMUSDToVault(address,address,uint256,uint256,uint256)":"fac83c79","transferOwnership(address)":"f2fde38b","withdrawERC20(address,address,uint256)":"44004cc1","withdrawETH(address,uint256)":"4782f779"}}}}}