{"project/contracts/ArcadeEpochVault.sol":{"ArcadeEpochVault":{"abi":[{"inputs":[{"internalType":"address","name":"admin","type":"address"},{"internalType":"address","name":"rewardToken_","type":"address"},{"internalType":"address","name":"oracleSigner_","type":"address"}],"stateMutability":"nonpayable","type":"constructor"},{"inputs":[],"name":"AlreadyClaimed","type":"error"},{"inputs":[],"name":"BadParams","type":"error"},{"inputs":[],"name":"BadSignature","type":"error"},{"inputs":[],"name":"EpochAlreadyPublished","type":"error"},{"inputs":[],"name":"EpochNotPublished","type":"error"},{"inputs":[],"name":"InvalidProof","type":"error"},{"inputs":[],"name":"InvalidShortString","type":"error"},{"inputs":[{"internalType":"string","name":"str","type":"string"}],"name":"StringTooLong","type":"error"},{"anonymous":false,"inputs":[{"indexed":true,"internalType":"uint32","name":"ymd","type":"uint32"},{"indexed":true,"internalType":"uint256","name":"index","type":"uint256"},{"indexed":true,"internalType":"address","name":"account","type":"address"},{"indexed":false,"internalType":"uint256","name":"amount","type":"uint256"}],"name":"Claimed","type":"event"},{"anonymous":false,"inputs":[],"name":"EIP712DomainChanged","type":"event"},{"anonymous":false,"inputs":[{"indexed":true,"internalType":"uint32","name":"ymd","type":"uint32"},{"indexed":true,"internalType":"bytes32","name":"root","type":"bytes32"},{"indexed":false,"internalType":"uint256","name":"totalAmount","type":"uint256"},{"indexed":true,"internalType":"address","name":"publisher","type":"address"}],"name":"EpochPublished","type":"event"},{"anonymous":false,"inputs":[{"indexed":true,"internalType":"address","name":"oldSigner","type":"address"},{"indexed":true,"internalType":"address","name":"newSigner","type":"address"}],"name":"OracleSignerUpdated","type":"event"},{"anonymous":false,"inputs":[{"indexed":false,"internalType":"address","name":"account","type":"address"}],"name":"Paused","type":"event"},{"anonymous":false,"inputs":[{"indexed":true,"internalType":"bytes32","name":"role","type":"bytes32"},{"indexed":true,"internalType":"bytes32","name":"previousAdminRole","type":"bytes32"},{"indexed":true,"internalType":"bytes32","name":"newAdminRole","type":"bytes32"}],"name":"RoleAdminChanged","type":"event"},{"anonymous":false,"inputs":[{"indexed":true,"internalType":"bytes32","name":"role","type":"bytes32"},{"indexed":true,"internalType":"address","name":"account","type":"address"},{"indexed":true,"internalType":"address","name":"sender","type":"address"}],"name":"RoleGranted","type":"event"},{"anonymous":false,"inputs":[{"indexed":true,"internalType":"bytes32","name":"role","type":"bytes32"},{"indexed":true,"internalType":"address","name":"account","type":"address"},{"indexed":true,"internalType":"address","name":"sender","type":"address"}],"name":"RoleRevoked","type":"event"},{"anonymous":false,"inputs":[{"indexed":false,"internalType":"address","name":"account","type":"address"}],"name":"Unpaused","type":"event"},{"inputs":[],"name":"DEFAULT_ADMIN_ROLE","outputs":[{"internalType":"bytes32","name":"","type":"bytes32"}],"stateMutability":"view","type":"function"},{"inputs":[],"name":"PARAM_ROLE","outputs":[{"internalType":"bytes32","name":"","type":"bytes32"}],"stateMutability":"view","type":"function"},{"inputs":[],"name":"PAUSE_ROLE","outputs":[{"internalType":"bytes32","name":"","type":"bytes32"}],"stateMutability":"view","type":"function"},{"inputs":[],"name":"SWEEP_ROLE","outputs":[{"internalType":"bytes32","name":"","type":"bytes32"}],"stateMutability":"view","type":"function"},{"inputs":[{"internalType":"uint32","name":"ymd","type":"uint32"},{"internalType":"uint256","name":"index","type":"uint256"},{"internalType":"address","name":"account","type":"address"},{"internalType":"uint256","name":"amount","type":"uint256"},{"internalType":"bytes32[]","name":"merkleProof","type":"bytes32[]"}],"name":"claim","outputs":[],"stateMutability":"nonpayable","type":"function"},{"inputs":[{"internalType":"uint32","name":"ymd","type":"uint32"},{"internalType":"uint256[]","name":"indices","type":"uint256[]"},{"internalType":"address[]","name":"accounts","type":"address[]"},{"internalType":"uint256[]","name":"amounts","type":"uint256[]"},{"internalType":"bytes32[][]","name":"merkleProofs","type":"bytes32[][]"}],"name":"claimMany","outputs":[],"stateMutability":"nonpayable","type":"function"},{"inputs":[],"name":"eip712Domain","outputs":[{"internalType":"bytes1","name":"fields","type":"bytes1"},{"internalType":"string","name":"name","type":"string"},{"internalType":"string","name":"version","type":"string"},{"internalType":"uint256","name":"chainId","type":"uint256"},{"internalType":"address","name":"verifyingContract","type":"address"},{"internalType":"bytes32","name":"salt","type":"bytes32"},{"internalType":"uint256[]","name":"extensions","type":"uint256[]"}],"stateMutability":"view","type":"function"},{"inputs":[{"internalType":"uint32","name":"","type":"uint32"}],"name":"epochs","outputs":[{"internalType":"bytes32","name":"root","type":"bytes32"},{"internalType":"uint256","name":"totalAmount","type":"uint256"},{"internalType":"uint256","name":"totalClaimed","type":"uint256"},{"internalType":"uint64","name":"publishedAt","type":"uint64"}],"stateMutability":"view","type":"function"},{"inputs":[{"internalType":"bytes32","name":"role","type":"bytes32"}],"name":"getRoleAdmin","outputs":[{"internalType":"bytes32","name":"","type":"bytes32"}],"stateMutability":"view","type":"function"},{"inputs":[{"internalType":"bytes32","name":"role","type":"bytes32"},{"internalType":"address","name":"account","type":"address"}],"name":"grantRole","outputs":[],"stateMutability":"nonpayable","type":"function"},{"inputs":[{"internalType":"bytes32","name":"role","type":"bytes32"},{"internalType":"address","name":"account","type":"address"}],"name":"hasRole","outputs":[{"internalType":"bool","name":"","type":"bool"}],"stateMutability":"view","type":"function"},{"inputs":[{"internalType":"uint32","name":"ymd","type":"uint32"},{"internalType":"uint256","name":"index","type":"uint256"}],"name":"isClaimed","outputs":[{"internalType":"bool","name":"","type":"bool"}],"stateMutability":"view","type":"function"},{"inputs":[],"name":"oracleSigner","outputs":[{"internalType":"address","name":"","type":"address"}],"stateMutability":"view","type":"function"},{"inputs":[],"name":"pause","outputs":[],"stateMutability":"nonpayable","type":"function"},{"inputs":[],"name":"paused","outputs":[{"internalType":"bool","name":"","type":"bool"}],"stateMutability":"view","type":"function"},{"inputs":[{"internalType":"uint32","name":"ymd","type":"uint32"},{"internalType":"bytes32","name":"root","type":"bytes32"},{"internalType":"uint256","name":"totalAmount","type":"uint256"},{"internalType":"bytes","name":"oracleSig","type":"bytes"}],"name":"publishEpoch","outputs":[],"stateMutability":"nonpayable","type":"function"},{"inputs":[{"internalType":"bytes32","name":"role","type":"bytes32"},{"internalType":"address","name":"account","type":"address"}],"name":"renounceRole","outputs":[],"stateMutability":"nonpayable","type":"function"},{"inputs":[{"internalType":"bytes32","name":"role","type":"bytes32"},{"internalType":"address","name":"account","type":"address"}],"name":"revokeRole","outputs":[],"stateMutability":"nonpayable","type":"function"},{"inputs":[],"name":"rewardToken","outputs":[{"internalType":"contract IERC20","name":"","type":"address"}],"stateMutability":"view","type":"function"},{"inputs":[{"internalType":"address","name":"newSigner","type":"address"}],"name":"setOracleSigner","outputs":[],"stateMutability":"nonpayable","type":"function"},{"inputs":[{"internalType":"bytes4","name":"interfaceId","type":"bytes4"}],"name":"supportsInterface","outputs":[{"internalType":"bool","name":"","type":"bool"}],"stateMutability":"view","type":"function"},{"inputs":[{"internalType":"address","name":"token","type":"address"},{"internalType":"address","name":"to","type":"address"},{"internalType":"uint256","name":"amount","type":"uint256"}],"name":"sweepERC20","outputs":[],"stateMutability":"nonpayable","type":"function"},{"inputs":[],"name":"unpause","outputs":[],"stateMutability":"nonpayable","type":"function"}],"evm":{"bytecode":{"linkReferences":{},"object":"61018034620003fd57601f620028b438819003918201601f1916830192916001600160401b039182851184861017620003e9578160609285926040978852833981010312620003fd5762000053826200041d565b6020936200007081620000688787016200041d565b95016200041d565b938294825193620000818562000401565b60188552878501967f47727565736f6d6541726361646545706f63685661756c74000000000000000088528451988998620000bc8a62000401565b600193848b52828b01603160f81b815260ff199283875416875586600255620000f6620000e98c62000432565b9d6101209e8f52620005fe565b9a6101409b8c525190209c8d60e0525190209b8c6101009d8e524660a052895190858201927f8b73c3c69bb8fe3d512ecc4cf759cc79239f7b179b0ffacaa9a75d522b39400f84528b83015260608201524660808201523060a082015260a0815260c081019b818d10908d1117620003e9578b8a525190206080523060c0526001600160a01b03968791821615620003e0575b169889158015620003d5575b620003c657505f9384805284835286888620941693848652835260ff88862054161562000392575b7f8a4778feaa2fc65ebc9ddd026461f05b6522e206b955ca87f94c0eebfa8bcb2c808652858452888620858752845260ff8987205416156200035d575b507f139c2898040ef16910dc9f44dc697df79363da767d8bc92f2e310312b816e46d808652858452888620858752845260ff89872054161562000328575b507f7a3eff9269e854ade0d22416748b19ef0f72ea2aa2c412736b530699d09a1aa292838652858152888620858752815260ff898720541615620002f1575b5050505050506101609485521660018060a01b0319600554161760055551926120d79485620007bd863960805185611caf015260a05185611d7a015260c05185611c79015260e05185611cfe01525184611d24015251836105370152518261056001525181818161012e01528181610365015261091c0152f35b8386528581528886209085875252878520918254161790555f8051602062002894833981519152339380a45f808080808062000277565b808652858452888620858752845288862082848254161790558433915f80516020620028948339815191528880a45f62000238565b808652858452888620858752845288862082848254161790558433915f80516020620028948339815191528880a45f620001fa565b848052848352878520848652835287852081838254161790553384865f80516020620028948339815191528180a4620001bd565b63019af63760e01b8152600490fd5b508686161562000195565b33945062000189565b634e487b7160e01b5f52604160045260245ffd5b5f80fd5b604081019081106001600160401b03821117620003e957604052565b51906001600160a01b0382168203620003fd57565b80516020919082811015620004ce575090601f8251116200046f57808251920151908083106200046157501790565b825f19910360031b1b161790565b90604051809263305a27a960e01b82528060048301528251908160248401525f935b828510620004b4575050604492505f838284010152601f80199101168101030190fd5b848101820151868601604401529381019385935062000491565b6001600160401b038111620003e9576003928354926001938481811c91168015620005f3575b83821014620005df57601f8111620005a9575b5081601f84116001146200054457509282939183925f9462000538575b50501b915f1990841b1c191617905560ff90565b015192505f8062000524565b919083601f198116875f52845f20945f905b888383106200058e575050501062000576575b505050811b01905560ff90565b01515f1983861b60f8161c191690555f808062000569565b85870151885590960195948501948793509081019062000556565b855f5284601f845f20920160051c820191601f860160051c015b828110620005d357505062000507565b5f8155018590620005c3565b634e487b7160e01b5f52602260045260245ffd5b90607f1690620004f4565b805160209190828110156200068c575090601f8251116200062d57808251920151908083106200046157501790565b90604051809263305a27a960e01b82528060048301528251908160248401525f935b82851062000672575050604492505f838284010152601f80199101168101030190fd5b84810182015186860160440152938101938593506200064f565b6001600160401b038111620003e9576004928354926001938481811c91168015620007b1575b838210146200079e57601f811162000768575b5081601f84116001146200070357509282939183925f94620006f7575b50501b915f199060031b1c191617905560ff90565b015192505f80620006e2565b919083601f198116875f52845f20945f905b888383106200074d57505050106200073457505050811b01905560ff90565b01515f1960f88460031b161c191690555f808062000569565b85870151885590960195948501948793509081019062000715565b855f5284601f845f20920160051c820191601f860160051c015b82811062000792575050620006c5565b5f815501859062000782565b602286634e487b7160e01b5f525260245ffd5b90607f1690620006b256fe6080806040526004361015610012575f80fd5b5f3560e01c90816301ffc9a714611254575080631709a61b1461122c5780631be16d6814611027578063248a9ca314610ffb57806328bff9db14610e7c5780632f2ff15d14610dd757806336568abe14610d45578063389ed26714610d0b5780633f4ba83a14610c78578063437b8c3d14610c3e578063503690d1146109d45780635c975abb146109b2578063812a66bf146106935780638456cb591461063b57806384b0196e146105225780638a0d3a6d146104e857806391d14854146104a05780639adf5bfb14610447578063a217fddf1461042d578063a4a60394146103cd578063cd53b5ed1461019f578063d547741f146101615763f7c618c114610119575f80fd5b3461015d575f36600319011261015d576040517f00000000000000000000000000000000000000000000000000000000000000006001600160a01b03168152602090f35b5f80fd5b3461015d57604036600319011261015d5761019d6004356101806112d0565b90805f525f602052610198600160405f200154611548565b6116a7565b005b3461015d5760a036600319011261015d576101b86112a7565b6044356001600160a01b03811691602435919083820361015d576001600160401b039160643560843584811161015d576101f69036906004016112e6565b906101ff611a58565b610207611df6565b63ffffffff851695865f52600660205260405f20926040519161022983611650565b845490818452600186015460208501526003600287015496604086019788520154166060840152156103bb57610287898863ffffffff165f52600760205260405f208160081c5f52602052600160ff60405f205492161b8091161490565b6103a9576102e36102e8938a6040516102d6816102c88b8d602084019687916054939183526001600160601b03199060601b16602083015260348201520190565b03601f198101835282611686565b5190209351923691611da0565b61202e565b156103975763ffffffff9093165f908152600760209081526040808320600889901c845282529091208054600160ff89161b1790557fd1b5b8c9d100bfc3b16695d68f4e525efde91df5a3391fde51101547d6726e4a939092610389918391906103549083905161171a565b875f5260068652600260405f2001557f0000000000000000000000000000000000000000000000000000000000000000611e4a565b604051908152a46001600255005b6040516309bde33960e01b8152600490fd5b604051630c8d9eab60e31b8152600490fd5b604051639294a90760e01b8152600490fd5b3461015d57602036600319011261015d5763ffffffff6103eb6112a7565b165f526006602052608060405f208054906001810154906001600160401b03600360028301549201541691604051938452602084015260408301526060820152f35b3461015d575f36600319011261015d5760206040515f8152f35b3461015d57604036600319011261015d5760206104966104656112a7565b6024359063ffffffff165f52600760205260405f208160081c5f52602052600160ff60405f205492161b8091161490565b6040519015158152f35b3461015d57604036600319011261015d576104b96112d0565b6004355f525f60205260405f209060018060a01b03165f52602052602060ff60405f2054166040519015158152f35b3461015d575f36600319011261015d5760206040517f7a3eff9269e854ade0d22416748b19ef0f72ea2aa2c412736b530699d09a1aa28152f35b3461015d575f36600319011261015d5761055b7f000000000000000000000000000000000000000000000000000000000000000061185e565b6105847f0000000000000000000000000000000000000000000000000000000000000000611985565b6040516020808201928284106001600160401b038511176106275791816105dc85946105ce97966040525f8452604051978897600f60f81b895260e0858a015260e0890190611337565b908782036040890152611337565b914660608701523060808701525f60a087015285830360c087015251918281520192915f5b82811061061057505050500390f35b835185528695509381019392810192600101610601565b634e487b7160e01b5f52604160045260245ffd5b3461015d575f36600319011261015d5761065361135c565b61065b611a58565b600160ff19815416176001557f62e78cea01bee320cd4e420270b5ea74000d11b0c9f74754ebdbfc544b05a2586020604051338152a1005b3461015d5760a036600319011261015d576106ac6112a7565b6024356001600160401b03811161015d576106cb9036906004016112e6565b90916044356001600160401b03811161015d576106ec9036906004016112e6565b93906064356001600160401b03811161015d5761070d9036906004016112e6565b6084969196356001600160401b03811161015d5761072f9036906004016112e6565b9091610739611a58565b610741611df6565b87156109a0578388036109a0578088036109a0578188036109a05763ffffffff87165f52600660205260405f20936040519461077c86611650565b6001600160401b036003825492838952600181015460208a0152600281015460408a01520154166060870152156103bb576040850151985f5b8181106107dc578a63ffffffff8b165f526006602052600260405f20015560016002555f80f35b6107e781838b612091565b359a6107f482858b612091565b359b6001600160a01b038d168d0361015d578b916108478f610818868a8693612091565b359463ffffffff165f52600760205260405f208160081c5f52602052600160ff60405f205492161b8091161490565b6103a9578d604051610881816102c88760208301958887916054939183526001600160601b03199060601b16602083015260348201520190565b5190208885101561098c5760059085821b8b0135601e198c36030181121561015d578b018035906001600160401b03821161015d576020829101931b3603831361015d576102e36108d6938e51923691611da0565b156103975763ffffffff8d165f908152600760209081526040808320600886901c845290915290208054600160ff85161b179055826109149161171a565b9c61094083827f0000000000000000000000000000000000000000000000000000000000000000611e4a565b6040519283526001600160a01b03169163ffffffff8d16907fd1b5b8c9d100bfc3b16695d68f4e525efde91df5a3391fde51101547d6726e4a90602090a461098790612083565b6107b5565b634e487b7160e01b5f52603260045260245ffd5b60405163019af63760e01b8152600490fd5b3461015d575f36600319011261015d57602060ff600154166040519015158152f35b3461015d57606036600319011261015d576109ed6112ba565b6109f56112d0565b335f9081527fc769b88eb89d6ba53f3ec0f7d1aed0c24ef3ba3fa415737e66da36e4751b54906020908152604090912054909291907f7a3eff9269e854ade0d22416748b19ef0f72ea2aa2c412736b530699d09a1aa29060ff1615610ab15750610a5d611df6565b6001600160a01b0381811615610a8357610a7c93506044359216611e4a565b6001600255005b60405162461bcd60e51b81526004810185905260066024820152656261645f746f60d01b6044820152606490fd5b83610abb33611753565b91604051610ac881611650565b6042815282810191606036843781511561098c5760308353815160019081101561098c57607860218401536041905b808211610be7575050610ba457610b7093610b7f9260489260405196879376020b1b1b2b9b9a1b7b73a3937b61d1030b1b1b7bab73a1604d1b88860152610b47815180928a603789019101611316565b8401917001034b99036b4b9b9b4b733903937b6329607d1b603784015251809386840190611316565b01036028810185520183611686565b610ba060405192839262461bcd60e51b845260048401526024830190611337565b0390fd5b6064836040519062461bcd60e51b825280600483015260248201527f537472696e67733a20686578206c656e67746820696e73756666696369656e746044820152fd5b9091600f8116601081101561098c576f181899199a1a9b1b9c1cb0b131b232b360811b901a610c168486611742565b5360041c918015610c2a575f190190610af7565b634e487b7160e01b5f52601160045260245ffd5b3461015d575f36600319011261015d5760206040517f8a4778feaa2fc65ebc9ddd026461f05b6522e206b955ca87f94c0eebfa8bcb2c8152f35b3461015d575f36600319011261015d57610c9061135c565b60015460ff811615610ccf5760ff19166001557f5db9ee0a495bf2e6ff9c91a7834c1ba4fdd244a5e8aa4e537bd38aeae4b073aa6020604051338152a1005b60405162461bcd60e51b815260206004820152601460248201527314185d5cd8589b194e881b9bdd081c185d5cd95960621b6044820152606490fd5b3461015d575f36600319011261015d5760206040517f139c2898040ef16910dc9f44dc697df79363da767d8bc92f2e310312b816e46d8152f35b3461015d57604036600319011261015d57610d5e6112d0565b336001600160a01b03821603610d7a5761019d906004356116a7565b60405162461bcd60e51b815260206004820152602f60248201527f416363657373436f6e74726f6c3a2063616e206f6e6c792072656e6f756e636560448201526e103937b632b9903337b91039b2b63360891b6064820152608490fd5b3461015d57604036600319011261015d57600435610df36112d0565b815f525f602052610e0a600160405f200154611548565b815f525f60205260405f209060018060a01b031690815f5260205260ff60405f20541615610e3457005b815f525f60205260405f20815f5260205260405f20600160ff1982541617905533917f2f8788117e7eff1d82e926ec794901d17c78024a50270940304540a733656f0d5f80a4005b3461015d5760208060031936011261015d57610e966112ba565b907f8a4778feaa2fc65ebc9ddd026461f05b6522e206b955ca87f94c0eebfa8bcb2c90815f525f815260405f20335f52815260ff60405f20541615610f23576001600160a01b038084169081156109a057600554826001600160601b0360a01b821617600555167f53484eb5c3028cc71fda017d41e647dea2740218d0f723d84cf7e98476459a8e5f80a3005b610f2c33611753565b91604051610f3981611650565b6042815282810191606036843781511561098c5760308353815160019081101561098c57607860218401536041905b808211610fb8575050610ba457610b7093610b7f9260489260405196879376020b1b1b2b9b9a1b7b73a3937b61d1030b1b1b7bab73a1604d1b88860152610b47815180928a603789019101611316565b9091600f8116601081101561098c576f181899199a1a9b1b9c1cb0b131b232b360811b901a610fe78486611742565b5360041c918015610c2a575f190190610f68565b3461015d57602036600319011261015d576004355f525f6020526020600160405f200154604051908152f35b3461015d57608036600319011261015d576110406112a7565b60243560443591606435906001600160401b039081831161015d573660238401121561015d5782600401359082821161015d57366024838601011161015d5763ffffffff9061108d611a58565b169283158015611224575b6109a057835f526020916006835260405f20546112125760405191838301917fba320b6e1cc6e4404727cad34304d72872c420ecbc50554923cb062724f18c3983528660408501528760608501528860808501526080845260a084019284841087851117610627578560425f926111679761115f9760405251902061111b611c76565b906040519161190160f01b835260028301526022820152209280602461114082611727565b9661114e6040519889611686565b828852018387013784010152611bb4565b919091611a9c565b6005546001600160a01b03908116911603611200576040517f3e739407bb6240cc61cfcbe24fd5f49e9ca93bbeaeb031a2528d315650cbd96c926111aa82611650565b858252600383830192888452604081015f815260608201948442168652885f526006875260405f2092518355516001830155516002820155019151166001600160401b03198254161790556040519485523394a4005b604051635cd5d23360e01b8152600490fd5b604051632dd26d2d60e11b8152600490fd5b508415611098565b3461015d575f36600319011261015d576005546040516001600160a01b039091168152602090f35b3461015d57602036600319011261015d576004359063ffffffff60e01b821680920361015d57602091637965db0b60e01b8114908115611296575b5015158152f35b6301ffc9a760e01b1490508361128f565b6004359063ffffffff8216820361015d57565b600435906001600160a01b038216820361015d57565b602435906001600160a01b038216820361015d57565b9181601f8401121561015d578235916001600160401b03831161015d576020808501948460051b01011161015d57565b5f5b8381106113275750505f910152565b8181015183820152602001611318565b9060209161135081518092818552858086019101611316565b601f01601f1916010190565b335f9081527f2a1c876995cd4a57e905c1e774dbbf9c042071dd6e15eba11379d9c34d645f27602090815260408083205490927f139c2898040ef16910dc9f44dc697df79363da767d8bc92f2e310312b816e46d9160ff16156113bf5750505050565b6113c833611753565b918451906113d582611650565b6042825284820192606036853782511561153457603084538251906001918210156115345790607860218501536041915b8183116114c757505050611485576048610ba09386936114699361145a985198899376020b1b1b2b9b9a1b7b73a3937b61d1030b1b1b7bab73a1604d1b8a860152610b47815180928c603789019101611316565b01036028810187520185611686565b5192839262461bcd60e51b845260048401526024830190611337565b60648486519062461bcd60e51b825280600483015260248201527f537472696e67733a20686578206c656e67746820696e73756666696369656e746044820152fd5b909192600f81166010811015611520576f181899199a1a9b1b9c1cb0b131b232b360811b901a6114f78587611742565b5360041c92801561150c575f19019190611406565b634e487b7160e01b82526011600452602482fd5b634e487b7160e01b83526032600452602483fd5b634e487b7160e01b81526032600452602490fd5b5f90808252602090828252604092838120338252835260ff8482205416156115705750505050565b61157933611753565b9184519061158682611650565b6042825284820192606036853782511561153457603084538251906001918210156115345790607860218501536041915b81831161160b57505050611485576048610ba09386936114699361145a985198899376020b1b1b2b9b9a1b7b73a3937b61d1030b1b1b7bab73a1604d1b8a860152610b47815180928c603789019101611316565b909192600f81166010811015611520576f181899199a1a9b1b9c1cb0b131b232b360811b901a61163b8587611742565b5360041c92801561150c575f190191906115b7565b608081019081106001600160401b0382111761062757604052565b604081019081106001600160401b0382111761062757604052565b90601f801991011681019081106001600160401b0382111761062757604052565b905f9180835282602052604083209160018060a01b03169182845260205260ff6040842054166116d657505050565b80835282602052604083208284526020526040832060ff1981541690557ff6391f5c32d9c69d2a47ea670b442974b53935d1edc7fd64eb21e047a839171b339380a4565b91908201809211610c2a57565b6001600160401b03811161062757601f01601f191660200190565b90815181101561098c570160200190565b60405190606082018281106001600160401b0382111761062757604052602a825260208201604036823782511561098c5760309053815160019081101561098c57607860218401536029905b8082116117f35750506117af5790565b606460405162461bcd60e51b815260206004820152602060248201527f537472696e67733a20686578206c656e67746820696e73756666696369656e746044820152fd5b9091600f8116601081101561184a576f181899199a1a9b1b9c1cb0b131b232b360811b901a6118228486611742565b5360041c918015611836575f19019061179f565b60245f634e487b7160e01b81526011600452fd5b60245f634e487b7160e01b81526032600452fd5b60ff811461189c5760ff811690601f821161188a57604051916118808361166b565b8252602082015290565b604051632cd44ac360e21b8152600490fd5b506040515f60035490600182811c9080841693841561197b575b6020948584108114611967578387528694939291811561194757506001146118ea575b50506118e792500382611686565b90565b9093915060035f527fc2575a0e9e593c00f959f8c92f12db2869c3395a3b0502d05e2516446f71f85b935f915b81831061192f5750506118e793508201015f806118d9565b85548784018501529485019486945091830191611917565b9150506118e794925060ff191682840152151560051b8201015f806118d9565b634e487b7160e01b85526022600452602485fd5b91607f16916118b6565b60ff81146119a75760ff811690601f821161188a57604051916118808361166b565b506040515f60045490600182811c90808416938415611a4e575b6020948584108114611967578387528694939291811561194757506001146119f15750506118e792500382611686565b9093915060045f527f8a35acfbc15ff81a39ae7d344fd709f28e8600b4aa8c65c6b64bfe7fe36bd19b935f915b818310611a365750506118e793508201015f806118d9565b85548784018501529485019486945091830191611a1e565b91607f16916119c1565b60ff60015416611a6457565b60405162461bcd60e51b815260206004820152601060248201526f14185d5cd8589b194e881c185d5cd95960821b6044820152606490fd5b6005811015611ba05780611aad5750565b60018103611afa5760405162461bcd60e51b815260206004820152601860248201527f45434453413a20696e76616c6964207369676e617475726500000000000000006044820152606490fd5b60028103611b475760405162461bcd60e51b815260206004820152601f60248201527f45434453413a20696e76616c6964207369676e6174757265206c656e677468006044820152606490fd5b600314611b5057565b60405162461bcd60e51b815260206004820152602260248201527f45434453413a20696e76616c6964207369676e6174757265202773272076616c604482015261756560f01b6064820152608490fd5b634e487b7160e01b5f52602160045260245ffd5b9060418151145f14611be057611bdc91602082015190606060408401519301515f1a90611be9565b9091565b50505f90600290565b9291907f7fffffffffffffffffffffffffffffff5d576e7357a4501ddfe92f46681b20a08311611c6b5791608094939160ff6020946040519485521684840152604083015260608201525f93849182805260015afa15611c5e5781516001600160a01b03811615611c58579190565b50600190565b50604051903d90823e3d90fd5b505050505f90600390565b307f00000000000000000000000000000000000000000000000000000000000000006001600160a01b03161480611d77575b15611cd1577f000000000000000000000000000000000000000000000000000000000000000090565b60405160208101907f8b73c3c69bb8fe3d512ecc4cf759cc79239f7b179b0ffacaa9a75d522b39400f82527f000000000000000000000000000000000000000000000000000000000000000060408201527f000000000000000000000000000000000000000000000000000000000000000060608201524660808201523060a082015260a0815260c081018181106001600160401b038211176106275760405251902090565b507f00000000000000000000000000000000000000000000000000000000000000004614611ca8565b9092916001600160401b038411610627578360051b6040519260208094611dc982850182611686565b809781520191810192831161015d57905b828210611de75750505050565b81358152908301908301611dda565b6002805414611e055760028055565b60405162461bcd60e51b815260206004820152601f60248201527f5265656e7472616e637947756172643a207265656e7472616e742063616c6c006044820152606490fd5b60405163a9059cbb60e01b60208083019182526001600160a01b03948516602484015260448084019690965294825292611ef492611e8783611650565b1660405191611e958361166b565b8583527f5361666545524332303a206c6f772d6c6576656c2063616c6c206661696c6564868401525f80958192519082855af13d15611f91573d91611ed983611727565b92611ee76040519485611686565b83523d868885013e611f95565b805191821591848315611f66575b505050905015611f0f5750565b6084906040519062461bcd60e51b82526004820152602a60248201527f5361666545524332303a204552433230206f7065726174696f6e20646964206e6044820152691bdd081cdd58d8d9595960b21b6064820152fd5b919381809450010312611f8d57820151908115158203611f8a5750805f8084611f02565b80fd5b5080fd5b6060915b91929015611ff75750815115611fa9575090565b3b15611fb25790565b60405162461bcd60e51b815260206004820152601d60248201527f416464726573733a2063616c6c20746f206e6f6e2d636f6e74726163740000006044820152606490fd5b82519091501561200a5750805190602001fd5b60405162461bcd60e51b815260206004820152908190610ba0906024830190611337565b9091905f915b815183101561207c576020808460051b84010151915f8382105f1461206b57505f525261206560405f205b92612083565b91612034565b90604092612065948352522061205f565b9150501490565b5f198114610c2a5760010190565b919081101561098c5760051b019056fea26469706673582212202bfb9dbf75fe681d84d632c62d6a33c3ef5057626728bef457dd2bf8b3496cbd64736f6c634300081400332f8788117e7eff1d82e926ec794901d17c78024a50270940304540a733656f0d","opcodes":"PUSH2 0x180 CALLVALUE PUSH3 0x3FD JUMPI PUSH1 0x1F PUSH3 0x28B4 CODESIZE DUP2 SWAP1 SUB SWAP2 DUP3 ADD PUSH1 0x1F NOT AND DUP4 ADD SWAP3 SWAP2 PUSH1 0x1 PUSH1 0x1 PUSH1 0x40 SHL SUB SWAP2 DUP3 DUP6 GT DUP5 DUP7 LT OR PUSH3 0x3E9 JUMPI DUP2 PUSH1 0x60 SWAP3 DUP6 SWAP3 PUSH1 0x40 SWAP8 DUP9 MSTORE DUP4 CODECOPY DUP2 ADD SUB SLT PUSH3 0x3FD JUMPI PUSH3 0x53 DUP3 PUSH3 0x41D JUMP JUMPDEST PUSH1 0x20 SWAP4 PUSH3 0x70 DUP2 PUSH3 0x68 DUP8 DUP8 ADD PUSH3 0x41D JUMP JUMPDEST SWAP6 ADD PUSH3 0x41D JUMP JUMPDEST SWAP4 DUP3 SWAP5 DUP3 MLOAD SWAP4 PUSH3 0x81 DUP6 PUSH3 0x401 JUMP JUMPDEST PUSH1 0x18 DUP6 MSTORE DUP8 DUP6 ADD SWAP7 PUSH32 0x47727565736F6D6541726361646545706F63685661756C740000000000000000 DUP9 MSTORE DUP5 MLOAD SWAP9 DUP10 SWAP9 PUSH3 0xBC DUP11 PUSH3 0x401 JUMP JUMPDEST PUSH1 0x1 SWAP4 DUP5 DUP12 MSTORE DUP3 DUP12 ADD PUSH1 0x31 PUSH1 0xF8 SHL DUP2 MSTORE PUSH1 0xFF NOT SWAP3 DUP4 DUP8 SLOAD AND DUP8 SSTORE DUP7 PUSH1 0x2 SSTORE PUSH3 0xF6 PUSH3 0xE9 DUP13 PUSH3 0x432 JUMP JUMPDEST SWAP14 PUSH2 0x120 SWAP15 DUP16 MSTORE PUSH3 0x5FE JUMP JUMPDEST SWAP11 PUSH2 0x140 SWAP12 DUP13 MSTORE MLOAD SWAP1 KECCAK256 SWAP13 DUP14 PUSH1 0xE0 MSTORE MLOAD SWAP1 KECCAK256 SWAP12 DUP13 PUSH2 0x100 SWAP14 DUP15 MSTORE CHAINID PUSH1 0xA0 MSTORE DUP10 MLOAD SWAP1 DUP6 DUP3 ADD SWAP3 PUSH32 0x8B73C3C69BB8FE3D512ECC4CF759CC79239F7B179B0FFACAA9A75D522B39400F DUP5 MSTORE DUP12 DUP4 ADD MSTORE PUSH1 0x60 DUP3 ADD MSTORE CHAINID PUSH1 0x80 DUP3 ADD MSTORE ADDRESS PUSH1 0xA0 DUP3 ADD MSTORE PUSH1 0xA0 DUP2 MSTORE PUSH1 0xC0 DUP2 ADD SWAP12 DUP2 DUP14 LT SWAP1 DUP14 GT OR PUSH3 0x3E9 JUMPI DUP12 DUP11 MSTORE MLOAD SWAP1 KECCAK256 PUSH1 0x80 MSTORE ADDRESS PUSH1 0xC0 MSTORE PUSH1 0x1 PUSH1 0x1 PUSH1 0xA0 SHL SUB SWAP7 DUP8 SWAP2 DUP3 AND ISZERO PUSH3 0x3E0 JUMPI JUMPDEST AND SWAP9 DUP10 ISZERO DUP1 ISZERO PUSH3 0x3D5 JUMPI JUMPDEST PUSH3 0x3C6 JUMPI POP PUSH0 SWAP4 DUP5 DUP1 MSTORE DUP5 DUP4 MSTORE DUP7 DUP9 DUP7 KECCAK256 SWAP5 AND SWAP4 DUP5 DUP7 MSTORE DUP4 MSTORE PUSH1 0xFF DUP9 DUP7 KECCAK256 SLOAD AND ISZERO PUSH3 0x392 JUMPI JUMPDEST PUSH32 0x8A4778FEAA2FC65EBC9DDD026461F05B6522E206B955CA87F94C0EEBFA8BCB2C DUP1 DUP7 MSTORE DUP6 DUP5 MSTORE DUP9 DUP7 KECCAK256 DUP6 DUP8 MSTORE DUP5 MSTORE PUSH1 0xFF DUP10 DUP8 KECCAK256 SLOAD AND ISZERO PUSH3 0x35D JUMPI JUMPDEST POP PUSH32 0x139C2898040EF16910DC9F44DC697DF79363DA767D8BC92F2E310312B816E46D DUP1 DUP7 MSTORE DUP6 DUP5 MSTORE DUP9 DUP7 KECCAK256 DUP6 DUP8 MSTORE DUP5 MSTORE PUSH1 0xFF DUP10 DUP8 KECCAK256 SLOAD AND ISZERO PUSH3 0x328 JUMPI JUMPDEST POP PUSH32 0x7A3EFF9269E854ADE0D22416748B19EF0F72EA2AA2C412736B530699D09A1AA2 SWAP3 DUP4 DUP7 MSTORE DUP6 DUP2 MSTORE DUP9 DUP7 KECCAK256 DUP6 DUP8 MSTORE DUP2 MSTORE PUSH1 0xFF DUP10 DUP8 KECCAK256 SLOAD AND ISZERO PUSH3 0x2F1 JUMPI JUMPDEST POP POP POP POP POP POP PUSH2 0x160 SWAP5 DUP6 MSTORE AND PUSH1 0x1 DUP1 PUSH1 0xA0 SHL SUB NOT PUSH1 0x5 SLOAD AND OR PUSH1 0x5 SSTORE MLOAD SWAP3 PUSH2 0x20D7 SWAP5 DUP6 PUSH3 0x7BD DUP7 CODECOPY PUSH1 0x80 MLOAD DUP6 PUSH2 0x1CAF ADD MSTORE PUSH1 0xA0 MLOAD DUP6 PUSH2 0x1D7A ADD MSTORE PUSH1 0xC0 MLOAD DUP6 PUSH2 0x1C79 ADD MSTORE PUSH1 0xE0 MLOAD DUP6 PUSH2 0x1CFE ADD MSTORE MLOAD DUP5 PUSH2 0x1D24 ADD MSTORE MLOAD DUP4 PUSH2 0x537 ADD MSTORE MLOAD DUP3 PUSH2 0x560 ADD MSTORE MLOAD DUP2 DUP2 DUP2 PUSH2 0x12E ADD MSTORE DUP2 DUP2 PUSH2 0x365 ADD MSTORE PUSH2 0x91C ADD MSTORE RETURN JUMPDEST DUP4 DUP7 MSTORE DUP6 DUP2 MSTORE DUP9 DUP7 KECCAK256 SWAP1 DUP6 DUP8 MSTORE MSTORE DUP8 DUP6 KECCAK256 SWAP2 DUP3 SLOAD AND OR SWAP1 SSTORE PUSH0 DUP1 MLOAD PUSH1 0x20 PUSH3 0x2894 DUP4 CODECOPY DUP2 MLOAD SWAP2 MSTORE CALLER SWAP4 DUP1 LOG4 PUSH0 DUP1 DUP1 DUP1 DUP1 DUP1 PUSH3 0x277 JUMP JUMPDEST DUP1 DUP7 MSTORE DUP6 DUP5 MSTORE DUP9 DUP7 KECCAK256 DUP6 DUP8 MSTORE DUP5 MSTORE DUP9 DUP7 KECCAK256 DUP3 DUP5 DUP3 SLOAD AND OR SWAP1 SSTORE DUP5 CALLER SWAP2 PUSH0 DUP1 MLOAD PUSH1 0x20 PUSH3 0x2894 DUP4 CODECOPY DUP2 MLOAD SWAP2 MSTORE DUP9 DUP1 LOG4 PUSH0 PUSH3 0x238 JUMP JUMPDEST DUP1 DUP7 MSTORE DUP6 DUP5 MSTORE DUP9 DUP7 KECCAK256 DUP6 DUP8 MSTORE DUP5 MSTORE DUP9 DUP7 KECCAK256 DUP3 DUP5 DUP3 SLOAD AND OR SWAP1 SSTORE DUP5 CALLER SWAP2 PUSH0 DUP1 MLOAD PUSH1 0x20 PUSH3 0x2894 DUP4 CODECOPY DUP2 MLOAD SWAP2 MSTORE DUP9 DUP1 LOG4 PUSH0 PUSH3 0x1FA JUMP JUMPDEST DUP5 DUP1 MSTORE DUP5 DUP4 MSTORE DUP8 DUP6 KECCAK256 DUP5 DUP7 MSTORE DUP4 MSTORE DUP8 DUP6 KECCAK256 DUP2 DUP4 DUP3 SLOAD AND OR SWAP1 SSTORE CALLER DUP5 DUP7 PUSH0 DUP1 MLOAD PUSH1 0x20 PUSH3 0x2894 DUP4 CODECOPY DUP2 MLOAD SWAP2 MSTORE DUP2 DUP1 LOG4 PUSH3 0x1BD JUMP JUMPDEST PUSH4 0x19AF637 PUSH1 0xE0 SHL DUP2 MSTORE PUSH1 0x4 SWAP1 REVERT JUMPDEST POP DUP7 DUP7 AND ISZERO PUSH3 0x195 JUMP JUMPDEST CALLER SWAP5 POP PUSH3 0x189 JUMP JUMPDEST PUSH4 0x4E487B71 PUSH1 0xE0 SHL PUSH0 MSTORE PUSH1 0x41 PUSH1 0x4 MSTORE PUSH1 0x24 PUSH0 REVERT JUMPDEST PUSH0 DUP1 REVERT JUMPDEST PUSH1 0x40 DUP2 ADD SWAP1 DUP2 LT PUSH1 0x1 PUSH1 0x1 PUSH1 0x40 SHL SUB DUP3 GT OR PUSH3 0x3E9 JUMPI PUSH1 0x40 MSTORE JUMP JUMPDEST MLOAD SWAP1 PUSH1 0x1 PUSH1 0x1 PUSH1 0xA0 SHL SUB DUP3 AND DUP3 SUB PUSH3 0x3FD JUMPI JUMP JUMPDEST DUP1 MLOAD PUSH1 0x20 SWAP2 SWAP1 DUP3 DUP2 LT ISZERO PUSH3 0x4CE JUMPI POP SWAP1 PUSH1 0x1F DUP3 MLOAD GT PUSH3 0x46F JUMPI DUP1 DUP3 MLOAD SWAP3 ADD MLOAD SWAP1 DUP1 DUP4 LT PUSH3 0x461 JUMPI POP OR SWAP1 JUMP JUMPDEST DUP3 PUSH0 NOT SWAP2 SUB PUSH1 0x3 SHL SHL AND OR SWAP1 JUMP JUMPDEST SWAP1 PUSH1 0x40 MLOAD DUP1 SWAP3 PUSH4 0x305A27A9 PUSH1 0xE0 SHL DUP3 MSTORE DUP1 PUSH1 0x4 DUP4 ADD MSTORE DUP3 MLOAD SWAP1 DUP2 PUSH1 0x24 DUP5 ADD MSTORE PUSH0 SWAP4 JUMPDEST DUP3 DUP6 LT PUSH3 0x4B4 JUMPI POP POP PUSH1 0x44 SWAP3 POP PUSH0 DUP4 DUP3 DUP5 ADD ADD MSTORE PUSH1 0x1F DUP1 NOT SWAP2 ADD AND DUP2 ADD SUB ADD SWAP1 REVERT JUMPDEST DUP5 DUP2 ADD DUP3 ADD MLOAD DUP7 DUP7 ADD PUSH1 0x44 ADD MSTORE SWAP4 DUP2 ADD SWAP4 DUP6 SWAP4 POP PUSH3 0x491 JUMP JUMPDEST PUSH1 0x1 PUSH1 0x1 PUSH1 0x40 SHL SUB DUP2 GT PUSH3 0x3E9 JUMPI PUSH1 0x3 SWAP3 DUP4 SLOAD SWAP3 PUSH1 0x1 SWAP4 DUP5 DUP2 DUP2 SHR SWAP2 AND DUP1 ISZERO PUSH3 0x5F3 JUMPI JUMPDEST DUP4 DUP3 LT EQ PUSH3 0x5DF JUMPI PUSH1 0x1F DUP2 GT PUSH3 0x5A9 JUMPI JUMPDEST POP DUP2 PUSH1 0x1F DUP5 GT PUSH1 0x1 EQ PUSH3 0x544 JUMPI POP SWAP3 DUP3 SWAP4 SWAP2 DUP4 SWAP3 PUSH0 SWAP5 PUSH3 0x538 JUMPI JUMPDEST POP POP SHL SWAP2 PUSH0 NOT SWAP1 DUP5 SHL SHR NOT AND OR SWAP1 SSTORE PUSH1 0xFF SWAP1 JUMP JUMPDEST ADD MLOAD SWAP3 POP PUSH0 DUP1 PUSH3 0x524 JUMP JUMPDEST SWAP2 SWAP1 DUP4 PUSH1 0x1F NOT DUP2 AND DUP8 PUSH0 MSTORE DUP5 PUSH0 KECCAK256 SWAP5 PUSH0 SWAP1 JUMPDEST DUP9 DUP4 DUP4 LT PUSH3 0x58E JUMPI POP POP POP LT PUSH3 0x576 JUMPI JUMPDEST POP POP POP DUP2 SHL ADD SWAP1 SSTORE PUSH1 0xFF SWAP1 JUMP JUMPDEST ADD MLOAD PUSH0 NOT DUP4 DUP7 SHL PUSH1 0xF8 AND SHR NOT AND SWAP1 SSTORE PUSH0 DUP1 DUP1 PUSH3 0x569 JUMP JUMPDEST DUP6 DUP8 ADD MLOAD DUP9 SSTORE SWAP1 SWAP7 ADD SWAP6 SWAP5 DUP6 ADD SWAP5 DUP8 SWAP4 POP SWAP1 DUP2 ADD SWAP1 PUSH3 0x556 JUMP JUMPDEST DUP6 PUSH0 MSTORE DUP5 PUSH1 0x1F DUP5 PUSH0 KECCAK256 SWAP3 ADD PUSH1 0x5 SHR DUP3 ADD SWAP2 PUSH1 0x1F DUP7 ADD PUSH1 0x5 SHR ADD JUMPDEST DUP3 DUP2 LT PUSH3 0x5D3 JUMPI POP POP PUSH3 0x507 JUMP JUMPDEST PUSH0 DUP2 SSTORE ADD DUP6 SWAP1 PUSH3 0x5C3 JUMP JUMPDEST PUSH4 0x4E487B71 PUSH1 0xE0 SHL PUSH0 MSTORE PUSH1 0x22 PUSH1 0x4 MSTORE PUSH1 0x24 PUSH0 REVERT JUMPDEST SWAP1 PUSH1 0x7F AND SWAP1 PUSH3 0x4F4 JUMP JUMPDEST DUP1 MLOAD PUSH1 0x20 SWAP2 SWAP1 DUP3 DUP2 LT ISZERO PUSH3 0x68C JUMPI POP SWAP1 PUSH1 0x1F DUP3 MLOAD GT PUSH3 0x62D JUMPI DUP1 DUP3 MLOAD SWAP3 ADD MLOAD SWAP1 DUP1 DUP4 LT PUSH3 0x461 JUMPI POP OR SWAP1 JUMP JUMPDEST SWAP1 PUSH1 0x40 MLOAD DUP1 SWAP3 PUSH4 0x305A27A9 PUSH1 0xE0 SHL DUP3 MSTORE DUP1 PUSH1 0x4 DUP4 ADD MSTORE DUP3 MLOAD SWAP1 DUP2 PUSH1 0x24 DUP5 ADD MSTORE PUSH0 SWAP4 JUMPDEST DUP3 DUP6 LT PUSH3 0x672 JUMPI POP POP PUSH1 0x44 SWAP3 POP PUSH0 DUP4 DUP3 DUP5 ADD ADD MSTORE PUSH1 0x1F DUP1 NOT SWAP2 ADD AND DUP2 ADD SUB ADD SWAP1 REVERT JUMPDEST DUP5 DUP2 ADD DUP3 ADD MLOAD DUP7 DUP7 ADD PUSH1 0x44 ADD MSTORE SWAP4 DUP2 ADD SWAP4 DUP6 SWAP4 POP PUSH3 0x64F JUMP JUMPDEST PUSH1 0x1 PUSH1 0x1 PUSH1 0x40 SHL SUB DUP2 GT PUSH3 0x3E9 JUMPI PUSH1 0x4 SWAP3 DUP4 SLOAD SWAP3 PUSH1 0x1 SWAP4 DUP5 DUP2 DUP2 SHR SWAP2 AND DUP1 ISZERO PUSH3 0x7B1 JUMPI JUMPDEST DUP4 DUP3 LT EQ PUSH3 0x79E JUMPI PUSH1 0x1F DUP2 GT PUSH3 0x768 JUMPI JUMPDEST POP DUP2 PUSH1 0x1F DUP5 GT PUSH1 0x1 EQ PUSH3 0x703 JUMPI POP SWAP3 DUP3 SWAP4 SWAP2 DUP4 SWAP3 PUSH0 SWAP5 PUSH3 0x6F7 JUMPI JUMPDEST POP POP SHL SWAP2 PUSH0 NOT SWAP1 PUSH1 0x3 SHL SHR NOT AND OR SWAP1 SSTORE PUSH1 0xFF SWAP1 JUMP JUMPDEST ADD MLOAD SWAP3 POP PUSH0 DUP1 PUSH3 0x6E2 JUMP JUMPDEST SWAP2 SWAP1 DUP4 PUSH1 0x1F NOT DUP2 AND DUP8 PUSH0 MSTORE DUP5 PUSH0 KECCAK256 SWAP5 PUSH0 SWAP1 JUMPDEST DUP9 DUP4 DUP4 LT PUSH3 0x74D JUMPI POP POP POP LT PUSH3 0x734 JUMPI POP POP POP DUP2 SHL ADD SWAP1 SSTORE PUSH1 0xFF SWAP1 JUMP JUMPDEST ADD MLOAD PUSH0 NOT PUSH1 0xF8 DUP5 PUSH1 0x3 SHL AND SHR NOT AND SWAP1 SSTORE PUSH0 DUP1 DUP1 PUSH3 0x569 JUMP JUMPDEST DUP6 DUP8 ADD MLOAD DUP9 SSTORE SWAP1 SWAP7 ADD SWAP6 SWAP5 DUP6 ADD SWAP5 DUP8 SWAP4 POP SWAP1 DUP2 ADD SWAP1 PUSH3 0x715 JUMP JUMPDEST DUP6 PUSH0 MSTORE DUP5 PUSH1 0x1F DUP5 PUSH0 KECCAK256 SWAP3 ADD PUSH1 0x5 SHR DUP3 ADD SWAP2 PUSH1 0x1F DUP7 ADD PUSH1 0x5 SHR ADD JUMPDEST DUP3 DUP2 LT PUSH3 0x792 JUMPI POP POP PUSH3 0x6C5 JUMP JUMPDEST PUSH0 DUP2 SSTORE ADD DUP6 SWAP1 PUSH3 0x782 JUMP JUMPDEST PUSH1 0x22 DUP7 PUSH4 0x4E487B71 PUSH1 0xE0 SHL PUSH0 MSTORE MSTORE PUSH1 0x24 PUSH0 REVERT JUMPDEST SWAP1 PUSH1 0x7F AND SWAP1 PUSH3 0x6B2 JUMP INVALID PUSH1 0x80 DUP1 PUSH1 0x40 MSTORE PUSH1 0x4 CALLDATASIZE LT ISZERO PUSH2 0x12 JUMPI PUSH0 DUP1 REVERT JUMPDEST PUSH0 CALLDATALOAD PUSH1 0xE0 SHR SWAP1 DUP2 PUSH4 0x1FFC9A7 EQ PUSH2 0x1254 JUMPI POP DUP1 PUSH4 0x1709A61B EQ PUSH2 0x122C JUMPI DUP1 PUSH4 0x1BE16D68 EQ PUSH2 0x1027 JUMPI DUP1 PUSH4 0x248A9CA3 EQ PUSH2 0xFFB JUMPI DUP1 PUSH4 0x28BFF9DB EQ PUSH2 0xE7C JUMPI DUP1 PUSH4 0x2F2FF15D EQ PUSH2 0xDD7 JUMPI DUP1 PUSH4 0x36568ABE EQ PUSH2 0xD45 JUMPI DUP1 PUSH4 0x389ED267 EQ PUSH2 0xD0B JUMPI DUP1 PUSH4 0x3F4BA83A EQ PUSH2 0xC78 JUMPI DUP1 PUSH4 0x437B8C3D EQ PUSH2 0xC3E JUMPI DUP1 PUSH4 0x503690D1 EQ PUSH2 0x9D4 JUMPI DUP1 PUSH4 0x5C975ABB EQ PUSH2 0x9B2 JUMPI DUP1 PUSH4 0x812A66BF EQ PUSH2 0x693 JUMPI DUP1 PUSH4 0x8456CB59 EQ PUSH2 0x63B JUMPI DUP1 PUSH4 0x84B0196E EQ PUSH2 0x522 JUMPI DUP1 PUSH4 0x8A0D3A6D EQ PUSH2 0x4E8 JUMPI DUP1 PUSH4 0x91D14854 EQ PUSH2 0x4A0 JUMPI DUP1 PUSH4 0x9ADF5BFB EQ PUSH2 0x447 JUMPI DUP1 PUSH4 0xA217FDDF EQ PUSH2 0x42D JUMPI DUP1 PUSH4 0xA4A60394 EQ PUSH2 0x3CD JUMPI DUP1 PUSH4 0xCD53B5ED EQ PUSH2 0x19F JUMPI DUP1 PUSH4 0xD547741F EQ PUSH2 0x161 JUMPI PUSH4 0xF7C618C1 EQ PUSH2 0x119 JUMPI PUSH0 DUP1 REVERT JUMPDEST CALLVALUE PUSH2 0x15D JUMPI PUSH0 CALLDATASIZE PUSH1 0x3 NOT ADD SLT PUSH2 0x15D JUMPI PUSH1 0x40 MLOAD PUSH32 0x0 PUSH1 0x1 PUSH1 0x1 PUSH1 0xA0 SHL SUB AND DUP2 MSTORE PUSH1 0x20 SWAP1 RETURN JUMPDEST PUSH0 DUP1 REVERT JUMPDEST CALLVALUE PUSH2 0x15D JUMPI PUSH1 0x40 CALLDATASIZE PUSH1 0x3 NOT ADD SLT PUSH2 0x15D JUMPI PUSH2 0x19D PUSH1 0x4 CALLDATALOAD PUSH2 0x180 PUSH2 0x12D0 JUMP JUMPDEST SWAP1 DUP1 PUSH0 MSTORE PUSH0 PUSH1 0x20 MSTORE PUSH2 0x198 PUSH1 0x1 PUSH1 0x40 PUSH0 KECCAK256 ADD SLOAD PUSH2 0x1548 JUMP JUMPDEST PUSH2 0x16A7 JUMP JUMPDEST STOP JUMPDEST CALLVALUE PUSH2 0x15D JUMPI PUSH1 0xA0 CALLDATASIZE PUSH1 0x3 NOT ADD SLT PUSH2 0x15D JUMPI PUSH2 0x1B8 PUSH2 0x12A7 JUMP JUMPDEST PUSH1 0x44 CALLDATALOAD PUSH1 0x1 PUSH1 0x1 PUSH1 0xA0 SHL SUB DUP2 AND SWAP2 PUSH1 0x24 CALLDATALOAD SWAP2 SWAP1 DUP4 DUP3 SUB PUSH2 0x15D JUMPI PUSH1 0x1 PUSH1 0x1 PUSH1 0x40 SHL SUB SWAP2 PUSH1 0x64 CALLDATALOAD PUSH1 0x84 CALLDATALOAD DUP5 DUP2 GT PUSH2 0x15D JUMPI PUSH2 0x1F6 SWAP1 CALLDATASIZE SWAP1 PUSH1 0x4 ADD PUSH2 0x12E6 JUMP JUMPDEST SWAP1 PUSH2 0x1FF PUSH2 0x1A58 JUMP JUMPDEST PUSH2 0x207 PUSH2 0x1DF6 JUMP JUMPDEST PUSH4 0xFFFFFFFF DUP6 AND SWAP6 DUP7 PUSH0 MSTORE PUSH1 0x6 PUSH1 0x20 MSTORE PUSH1 0x40 PUSH0 KECCAK256 SWAP3 PUSH1 0x40 MLOAD SWAP2 PUSH2 0x229 DUP4 PUSH2 0x1650 JUMP JUMPDEST DUP5 SLOAD SWAP1 DUP2 DUP5 MSTORE PUSH1 0x1 DUP7 ADD SLOAD PUSH1 0x20 DUP6 ADD MSTORE PUSH1 0x3 PUSH1 0x2 DUP8 ADD SLOAD SWAP7 PUSH1 0x40 DUP7 ADD SWAP8 DUP9 MSTORE ADD SLOAD AND PUSH1 0x60 DUP5 ADD MSTORE ISZERO PUSH2 0x3BB JUMPI PUSH2 0x287 DUP10 DUP9 PUSH4 0xFFFFFFFF AND PUSH0 MSTORE PUSH1 0x7 PUSH1 0x20 MSTORE PUSH1 0x40 PUSH0 KECCAK256 DUP2 PUSH1 0x8 SHR PUSH0 MSTORE PUSH1 0x20 MSTORE PUSH1 0x1 PUSH1 0xFF PUSH1 0x40 PUSH0 KECCAK256 SLOAD SWAP3 AND SHL DUP1 SWAP2 AND EQ SWAP1 JUMP JUMPDEST PUSH2 0x3A9 JUMPI PUSH2 0x2E3 PUSH2 0x2E8 SWAP4 DUP11 PUSH1 0x40 MLOAD PUSH2 0x2D6 DUP2 PUSH2 0x2C8 DUP12 DUP14 PUSH1 0x20 DUP5 ADD SWAP7 DUP8 SWAP2 PUSH1 0x54 SWAP4 SWAP2 DUP4 MSTORE PUSH1 0x1 PUSH1 0x1 PUSH1 0x60 SHL SUB NOT SWAP1 PUSH1 0x60 SHL AND PUSH1 0x20 DUP4 ADD MSTORE PUSH1 0x34 DUP3 ADD MSTORE ADD SWAP1 JUMP JUMPDEST SUB PUSH1 0x1F NOT DUP2 ADD DUP4 MSTORE DUP3 PUSH2 0x1686 JUMP JUMPDEST MLOAD SWAP1 KECCAK256 SWAP4 MLOAD SWAP3 CALLDATASIZE SWAP2 PUSH2 0x1DA0 JUMP JUMPDEST PUSH2 0x202E JUMP JUMPDEST ISZERO PUSH2 0x397 JUMPI PUSH4 0xFFFFFFFF SWAP1 SWAP4 AND PUSH0 SWAP1 DUP2 MSTORE PUSH1 0x7 PUSH1 0x20 SWAP1 DUP2 MSTORE PUSH1 0x40 DUP1 DUP4 KECCAK256 PUSH1 0x8 DUP10 SWAP1 SHR DUP5 MSTORE DUP3 MSTORE SWAP1 SWAP2 KECCAK256 DUP1 SLOAD PUSH1 0x1 PUSH1 0xFF DUP10 AND SHL OR SWAP1 SSTORE PUSH32 0xD1B5B8C9D100BFC3B16695D68F4E525EFDE91DF5A3391FDE51101547D6726E4A SWAP4 SWAP1 SWAP3 PUSH2 0x389 SWAP2 DUP4 SWAP2 SWAP1 PUSH2 0x354 SWAP1 DUP4 SWAP1 MLOAD PUSH2 0x171A JUMP JUMPDEST DUP8 PUSH0 MSTORE PUSH1 0x6 DUP7 MSTORE PUSH1 0x2 PUSH1 0x40 PUSH0 KECCAK256 ADD SSTORE PUSH32 0x0 PUSH2 0x1E4A JUMP JUMPDEST PUSH1 0x40 MLOAD SWAP1 DUP2 MSTORE LOG4 PUSH1 0x1 PUSH1 0x2 SSTORE STOP JUMPDEST PUSH1 0x40 MLOAD PUSH4 0x9BDE339 PUSH1 0xE0 SHL DUP2 MSTORE PUSH1 0x4 SWAP1 REVERT JUMPDEST PUSH1 0x40 MLOAD PUSH4 0xC8D9EAB PUSH1 0xE3 SHL DUP2 MSTORE PUSH1 0x4 SWAP1 REVERT JUMPDEST PUSH1 0x40 MLOAD PUSH4 0x9294A907 PUSH1 0xE0 SHL DUP2 MSTORE PUSH1 0x4 SWAP1 REVERT JUMPDEST CALLVALUE PUSH2 0x15D JUMPI PUSH1 0x20 CALLDATASIZE PUSH1 0x3 NOT ADD SLT PUSH2 0x15D JUMPI PUSH4 0xFFFFFFFF PUSH2 0x3EB PUSH2 0x12A7 JUMP JUMPDEST AND PUSH0 MSTORE PUSH1 0x6 PUSH1 0x20 MSTORE PUSH1 0x80 PUSH1 0x40 PUSH0 KECCAK256 DUP1 SLOAD SWAP1 PUSH1 0x1 DUP2 ADD SLOAD SWAP1 PUSH1 0x1 PUSH1 0x1 PUSH1 0x40 SHL SUB PUSH1 0x3 PUSH1 0x2 DUP4 ADD SLOAD SWAP3 ADD SLOAD AND SWAP2 PUSH1 0x40 MLOAD SWAP4 DUP5 MSTORE PUSH1 0x20 DUP5 ADD MSTORE PUSH1 0x40 DUP4 ADD MSTORE PUSH1 0x60 DUP3 ADD MSTORE RETURN JUMPDEST CALLVALUE PUSH2 0x15D JUMPI PUSH0 CALLDATASIZE PUSH1 0x3 NOT ADD SLT PUSH2 0x15D JUMPI PUSH1 0x20 PUSH1 0x40 MLOAD PUSH0 DUP2 MSTORE RETURN JUMPDEST CALLVALUE PUSH2 0x15D JUMPI PUSH1 0x40 CALLDATASIZE PUSH1 0x3 NOT ADD SLT PUSH2 0x15D JUMPI PUSH1 0x20 PUSH2 0x496 PUSH2 0x465 PUSH2 0x12A7 JUMP JUMPDEST PUSH1 0x24 CALLDATALOAD SWAP1 PUSH4 0xFFFFFFFF AND PUSH0 MSTORE PUSH1 0x7 PUSH1 0x20 MSTORE PUSH1 0x40 PUSH0 KECCAK256 DUP2 PUSH1 0x8 SHR PUSH0 MSTORE PUSH1 0x20 MSTORE PUSH1 0x1 PUSH1 0xFF PUSH1 0x40 PUSH0 KECCAK256 SLOAD SWAP3 AND SHL DUP1 SWAP2 AND EQ SWAP1 JUMP JUMPDEST PUSH1 0x40 MLOAD SWAP1 ISZERO ISZERO DUP2 MSTORE RETURN JUMPDEST CALLVALUE PUSH2 0x15D JUMPI PUSH1 0x40 CALLDATASIZE PUSH1 0x3 NOT ADD SLT PUSH2 0x15D JUMPI PUSH2 0x4B9 PUSH2 0x12D0 JUMP JUMPDEST PUSH1 0x4 CALLDATALOAD PUSH0 MSTORE PUSH0 PUSH1 0x20 MSTORE PUSH1 0x40 PUSH0 KECCAK256 SWAP1 PUSH1 0x1 DUP1 PUSH1 0xA0 SHL SUB AND PUSH0 MSTORE PUSH1 0x20 MSTORE PUSH1 0x20 PUSH1 0xFF PUSH1 0x40 PUSH0 KECCAK256 SLOAD AND PUSH1 0x40 MLOAD SWAP1 ISZERO ISZERO DUP2 MSTORE RETURN JUMPDEST CALLVALUE PUSH2 0x15D JUMPI PUSH0 CALLDATASIZE PUSH1 0x3 NOT ADD SLT PUSH2 0x15D JUMPI PUSH1 0x20 PUSH1 0x40 MLOAD PUSH32 0x7A3EFF9269E854ADE0D22416748B19EF0F72EA2AA2C412736B530699D09A1AA2 DUP2 MSTORE RETURN JUMPDEST CALLVALUE PUSH2 0x15D JUMPI PUSH0 CALLDATASIZE PUSH1 0x3 NOT ADD SLT PUSH2 0x15D JUMPI PUSH2 0x55B PUSH32 0x0 PUSH2 0x185E JUMP JUMPDEST PUSH2 0x584 PUSH32 0x0 PUSH2 0x1985 JUMP JUMPDEST PUSH1 0x40 MLOAD PUSH1 0x20 DUP1 DUP3 ADD SWAP3 DUP3 DUP5 LT PUSH1 0x1 PUSH1 0x1 PUSH1 0x40 SHL SUB DUP6 GT OR PUSH2 0x627 JUMPI SWAP2 DUP2 PUSH2 0x5DC DUP6 SWAP5 PUSH2 0x5CE SWAP8 SWAP7 PUSH1 0x40 MSTORE PUSH0 DUP5 MSTORE PUSH1 0x40 MLOAD SWAP8 DUP9 SWAP8 PUSH1 0xF PUSH1 0xF8 SHL DUP10 MSTORE PUSH1 0xE0 DUP6 DUP11 ADD MSTORE PUSH1 0xE0 DUP10 ADD SWAP1 PUSH2 0x1337 JUMP JUMPDEST SWAP1 DUP8 DUP3 SUB PUSH1 0x40 DUP10 ADD MSTORE PUSH2 0x1337 JUMP JUMPDEST SWAP2 CHAINID PUSH1 0x60 DUP8 ADD MSTORE ADDRESS PUSH1 0x80 DUP8 ADD MSTORE PUSH0 PUSH1 0xA0 DUP8 ADD MSTORE DUP6 DUP4 SUB PUSH1 0xC0 DUP8 ADD MSTORE MLOAD SWAP2 DUP3 DUP2 MSTORE ADD SWAP3 SWAP2 PUSH0 JUMPDEST DUP3 DUP2 LT PUSH2 0x610 JUMPI POP POP POP POP SUB SWAP1 RETURN JUMPDEST DUP4 MLOAD DUP6 MSTORE DUP7 SWAP6 POP SWAP4 DUP2 ADD SWAP4 SWAP3 DUP2 ADD SWAP3 PUSH1 0x1 ADD PUSH2 0x601 JUMP JUMPDEST PUSH4 0x4E487B71 PUSH1 0xE0 SHL PUSH0 MSTORE PUSH1 0x41 PUSH1 0x4 MSTORE PUSH1 0x24 PUSH0 REVERT JUMPDEST CALLVALUE PUSH2 0x15D JUMPI PUSH0 CALLDATASIZE PUSH1 0x3 NOT ADD SLT PUSH2 0x15D JUMPI PUSH2 0x653 PUSH2 0x135C JUMP JUMPDEST PUSH2 0x65B PUSH2 0x1A58 JUMP JUMPDEST PUSH1 0x1 PUSH1 0xFF NOT DUP2 SLOAD AND OR PUSH1 0x1 SSTORE PUSH32 0x62E78CEA01BEE320CD4E420270B5EA74000D11B0C9F74754EBDBFC544B05A258 PUSH1 0x20 PUSH1 0x40 MLOAD CALLER DUP2 MSTORE LOG1 STOP JUMPDEST CALLVALUE PUSH2 0x15D JUMPI PUSH1 0xA0 CALLDATASIZE PUSH1 0x3 NOT ADD SLT PUSH2 0x15D JUMPI PUSH2 0x6AC PUSH2 0x12A7 JUMP JUMPDEST PUSH1 0x24 CALLDATALOAD PUSH1 0x1 PUSH1 0x1 PUSH1 0x40 SHL SUB DUP2 GT PUSH2 0x15D JUMPI PUSH2 0x6CB SWAP1 CALLDATASIZE SWAP1 PUSH1 0x4 ADD PUSH2 0x12E6 JUMP JUMPDEST SWAP1 SWAP2 PUSH1 0x44 CALLDATALOAD PUSH1 0x1 PUSH1 0x1 PUSH1 0x40 SHL SUB DUP2 GT PUSH2 0x15D JUMPI PUSH2 0x6EC SWAP1 CALLDATASIZE SWAP1 PUSH1 0x4 ADD PUSH2 0x12E6 JUMP JUMPDEST SWAP4 SWAP1 PUSH1 0x64 CALLDATALOAD PUSH1 0x1 PUSH1 0x1 PUSH1 0x40 SHL SUB DUP2 GT PUSH2 0x15D JUMPI PUSH2 0x70D SWAP1 CALLDATASIZE SWAP1 PUSH1 0x4 ADD PUSH2 0x12E6 JUMP JUMPDEST PUSH1 0x84 SWAP7 SWAP2 SWAP7 CALLDATALOAD PUSH1 0x1 PUSH1 0x1 PUSH1 0x40 SHL SUB DUP2 GT PUSH2 0x15D JUMPI PUSH2 0x72F SWAP1 CALLDATASIZE SWAP1 PUSH1 0x4 ADD PUSH2 0x12E6 JUMP JUMPDEST SWAP1 SWAP2 PUSH2 0x739 PUSH2 0x1A58 JUMP JUMPDEST PUSH2 0x741 PUSH2 0x1DF6 JUMP JUMPDEST DUP8 ISZERO PUSH2 0x9A0 JUMPI DUP4 DUP9 SUB PUSH2 0x9A0 JUMPI DUP1 DUP9 SUB PUSH2 0x9A0 JUMPI DUP2 DUP9 SUB PUSH2 0x9A0 JUMPI PUSH4 0xFFFFFFFF DUP8 AND PUSH0 MSTORE PUSH1 0x6 PUSH1 0x20 MSTORE PUSH1 0x40 PUSH0 KECCAK256 SWAP4 PUSH1 0x40 MLOAD SWAP5 PUSH2 0x77C DUP7 PUSH2 0x1650 JUMP JUMPDEST PUSH1 0x1 PUSH1 0x1 PUSH1 0x40 SHL SUB PUSH1 0x3 DUP3 SLOAD SWAP3 DUP4 DUP10 MSTORE PUSH1 0x1 DUP2 ADD SLOAD PUSH1 0x20 DUP11 ADD MSTORE PUSH1 0x2 DUP2 ADD SLOAD PUSH1 0x40 DUP11 ADD MSTORE ADD SLOAD AND PUSH1 0x60 DUP8 ADD MSTORE ISZERO PUSH2 0x3BB JUMPI PUSH1 0x40 DUP6 ADD MLOAD SWAP9 PUSH0 JUMPDEST DUP2 DUP2 LT PUSH2 0x7DC JUMPI DUP11 PUSH4 0xFFFFFFFF DUP12 AND PUSH0 MSTORE PUSH1 0x6 PUSH1 0x20 MSTORE PUSH1 0x2 PUSH1 0x40 PUSH0 KECCAK256 ADD SSTORE PUSH1 0x1 PUSH1 0x2 SSTORE PUSH0 DUP1 RETURN JUMPDEST PUSH2 0x7E7 DUP2 DUP4 DUP12 PUSH2 0x2091 JUMP JUMPDEST CALLDATALOAD SWAP11 PUSH2 0x7F4 DUP3 DUP6 DUP12 PUSH2 0x2091 JUMP JUMPDEST CALLDATALOAD SWAP12 PUSH1 0x1 PUSH1 0x1 PUSH1 0xA0 SHL SUB DUP14 AND DUP14 SUB PUSH2 0x15D JUMPI DUP12 SWAP2 PUSH2 0x847 DUP16 PUSH2 0x818 DUP7 DUP11 DUP7 SWAP4 PUSH2 0x2091 JUMP JUMPDEST CALLDATALOAD SWAP5 PUSH4 0xFFFFFFFF AND PUSH0 MSTORE PUSH1 0x7 PUSH1 0x20 MSTORE PUSH1 0x40 PUSH0 KECCAK256 DUP2 PUSH1 0x8 SHR PUSH0 MSTORE PUSH1 0x20 MSTORE PUSH1 0x1 PUSH1 0xFF PUSH1 0x40 PUSH0 KECCAK256 SLOAD SWAP3 AND SHL DUP1 SWAP2 AND EQ SWAP1 JUMP JUMPDEST PUSH2 0x3A9 JUMPI DUP14 PUSH1 0x40 MLOAD PUSH2 0x881 DUP2 PUSH2 0x2C8 DUP8 PUSH1 0x20 DUP4 ADD SWAP6 DUP9 DUP8 SWAP2 PUSH1 0x54 SWAP4 SWAP2 DUP4 MSTORE PUSH1 0x1 PUSH1 0x1 PUSH1 0x60 SHL SUB NOT SWAP1 PUSH1 0x60 SHL AND PUSH1 0x20 DUP4 ADD MSTORE PUSH1 0x34 DUP3 ADD MSTORE ADD SWAP1 JUMP JUMPDEST MLOAD SWAP1 KECCAK256 DUP9 DUP6 LT ISZERO PUSH2 0x98C JUMPI PUSH1 0x5 SWAP1 DUP6 DUP3 SHL DUP12 ADD CALLDATALOAD PUSH1 0x1E NOT DUP13 CALLDATASIZE SUB ADD DUP2 SLT ISZERO PUSH2 0x15D JUMPI DUP12 ADD DUP1 CALLDATALOAD SWAP1 PUSH1 0x1 PUSH1 0x1 PUSH1 0x40 SHL SUB DUP3 GT PUSH2 0x15D JUMPI PUSH1 0x20 DUP3 SWAP2 ADD SWAP4 SHL CALLDATASIZE SUB DUP4 SGT PUSH2 0x15D JUMPI PUSH2 0x2E3 PUSH2 0x8D6 SWAP4 DUP15 MLOAD SWAP3 CALLDATASIZE SWAP2 PUSH2 0x1DA0 JUMP JUMPDEST ISZERO PUSH2 0x397 JUMPI PUSH4 0xFFFFFFFF DUP14 AND PUSH0 SWAP1 DUP2 MSTORE PUSH1 0x7 PUSH1 0x20 SWAP1 DUP2 MSTORE PUSH1 0x40 DUP1 DUP4 KECCAK256 PUSH1 0x8 DUP7 SWAP1 SHR DUP5 MSTORE SWAP1 SWAP2 MSTORE SWAP1 KECCAK256 DUP1 SLOAD PUSH1 0x1 PUSH1 0xFF DUP6 AND SHL OR SWAP1 SSTORE DUP3 PUSH2 0x914 SWAP2 PUSH2 0x171A JUMP JUMPDEST SWAP13 PUSH2 0x940 DUP4 DUP3 PUSH32 0x0 PUSH2 0x1E4A JUMP JUMPDEST PUSH1 0x40 MLOAD SWAP3 DUP4 MSTORE PUSH1 0x1 PUSH1 0x1 PUSH1 0xA0 SHL SUB AND SWAP2 PUSH4 0xFFFFFFFF DUP14 AND SWAP1 PUSH32 0xD1B5B8C9D100BFC3B16695D68F4E525EFDE91DF5A3391FDE51101547D6726E4A SWAP1 PUSH1 0x20 SWAP1 LOG4 PUSH2 0x987 SWAP1 PUSH2 0x2083 JUMP JUMPDEST PUSH2 0x7B5 JUMP JUMPDEST PUSH4 0x4E487B71 PUSH1 0xE0 SHL PUSH0 MSTORE PUSH1 0x32 PUSH1 0x4 MSTORE PUSH1 0x24 PUSH0 REVERT JUMPDEST PUSH1 0x40 MLOAD PUSH4 0x19AF637 PUSH1 0xE0 SHL DUP2 MSTORE PUSH1 0x4 SWAP1 REVERT JUMPDEST CALLVALUE PUSH2 0x15D JUMPI PUSH0 CALLDATASIZE PUSH1 0x3 NOT ADD SLT PUSH2 0x15D JUMPI PUSH1 0x20 PUSH1 0xFF PUSH1 0x1 SLOAD AND PUSH1 0x40 MLOAD SWAP1 ISZERO ISZERO DUP2 MSTORE RETURN JUMPDEST CALLVALUE PUSH2 0x15D JUMPI PUSH1 0x60 CALLDATASIZE PUSH1 0x3 NOT ADD SLT PUSH2 0x15D JUMPI PUSH2 0x9ED PUSH2 0x12BA JUMP JUMPDEST PUSH2 0x9F5 PUSH2 0x12D0 JUMP JUMPDEST CALLER PUSH0 SWAP1 DUP2 MSTORE PUSH32 0xC769B88EB89D6BA53F3EC0F7D1AED0C24EF3BA3FA415737E66DA36E4751B5490 PUSH1 0x20 SWAP1 DUP2 MSTORE PUSH1 0x40 SWAP1 SWAP2 KECCAK256 SLOAD SWAP1 SWAP3 SWAP2 SWAP1 PUSH32 0x7A3EFF9269E854ADE0D22416748B19EF0F72EA2AA2C412736B530699D09A1AA2 SWAP1 PUSH1 0xFF AND ISZERO PUSH2 0xAB1 JUMPI POP PUSH2 0xA5D PUSH2 0x1DF6 JUMP JUMPDEST PUSH1 0x1 PUSH1 0x1 PUSH1 0xA0 SHL SUB DUP2 DUP2 AND ISZERO PUSH2 0xA83 JUMPI PUSH2 0xA7C SWAP4 POP PUSH1 0x44 CALLDATALOAD SWAP3 AND PUSH2 0x1E4A JUMP JUMPDEST PUSH1 0x1 PUSH1 0x2 SSTORE STOP JUMPDEST PUSH1 0x40 MLOAD PUSH3 0x461BCD PUSH1 0xE5 SHL DUP2 MSTORE PUSH1 0x4 DUP2 ADD DUP6 SWAP1 MSTORE PUSH1 0x6 PUSH1 0x24 DUP3 ADD MSTORE PUSH6 0x6261645F746F PUSH1 0xD0 SHL PUSH1 0x44 DUP3 ADD MSTORE PUSH1 0x64 SWAP1 REVERT JUMPDEST DUP4 PUSH2 0xABB CALLER PUSH2 0x1753 JUMP JUMPDEST SWAP2 PUSH1 0x40 MLOAD PUSH2 0xAC8 DUP2 PUSH2 0x1650 JUMP JUMPDEST PUSH1 0x42 DUP2 MSTORE DUP3 DUP2 ADD SWAP2 PUSH1 0x60 CALLDATASIZE DUP5 CALLDATACOPY DUP2 MLOAD ISZERO PUSH2 0x98C JUMPI PUSH1 0x30 DUP4 MSTORE8 DUP2 MLOAD PUSH1 0x1 SWAP1 DUP2 LT ISZERO PUSH2 0x98C JUMPI PUSH1 0x78 PUSH1 0x21 DUP5 ADD MSTORE8 PUSH1 0x41 SWAP1 JUMPDEST DUP1 DUP3 GT PUSH2 0xBE7 JUMPI POP POP PUSH2 0xBA4 JUMPI PUSH2 0xB70 SWAP4 PUSH2 0xB7F SWAP3 PUSH1 0x48 SWAP3 PUSH1 0x40 MLOAD SWAP7 DUP8 SWAP4 PUSH23 0x20B1B1B2B9B9A1B7B73A3937B61D1030B1B1B7BAB73A1 PUSH1 0x4D SHL DUP9 DUP7 ADD MSTORE PUSH2 0xB47 DUP2 MLOAD DUP1 SWAP3 DUP11 PUSH1 0x37 DUP10 ADD SWAP2 ADD PUSH2 0x1316 JUMP JUMPDEST DUP5 ADD SWAP2 PUSH17 0x1034B99036B4B9B9B4B733903937B6329 PUSH1 0x7D SHL PUSH1 0x37 DUP5 ADD MSTORE MLOAD DUP1 SWAP4 DUP7 DUP5 ADD SWAP1 PUSH2 0x1316 JUMP JUMPDEST ADD SUB PUSH1 0x28 DUP2 ADD DUP6 MSTORE ADD DUP4 PUSH2 0x1686 JUMP JUMPDEST PUSH2 0xBA0 PUSH1 0x40 MLOAD SWAP3 DUP4 SWAP3 PUSH3 0x461BCD PUSH1 0xE5 SHL DUP5 MSTORE PUSH1 0x4 DUP5 ADD MSTORE PUSH1 0x24 DUP4 ADD SWAP1 PUSH2 0x1337 JUMP JUMPDEST SUB SWAP1 REVERT JUMPDEST PUSH1 0x64 DUP4 PUSH1 0x40 MLOAD SWAP1 PUSH3 0x461BCD PUSH1 0xE5 SHL DUP3 MSTORE DUP1 PUSH1 0x4 DUP4 ADD MSTORE PUSH1 0x24 DUP3 ADD MSTORE PUSH32 0x537472696E67733A20686578206C656E67746820696E73756666696369656E74 PUSH1 0x44 DUP3 ADD MSTORE REVERT JUMPDEST SWAP1 SWAP2 PUSH1 0xF DUP2 AND PUSH1 0x10 DUP2 LT ISZERO PUSH2 0x98C JUMPI PUSH16 0x181899199A1A9B1B9C1CB0B131B232B3 PUSH1 0x81 SHL SWAP1 BYTE PUSH2 0xC16 DUP5 DUP7 PUSH2 0x1742 JUMP JUMPDEST MSTORE8 PUSH1 0x4 SHR SWAP2 DUP1 ISZERO PUSH2 0xC2A JUMPI PUSH0 NOT ADD SWAP1 PUSH2 0xAF7 JUMP JUMPDEST PUSH4 0x4E487B71 PUSH1 0xE0 SHL PUSH0 MSTORE PUSH1 0x11 PUSH1 0x4 MSTORE PUSH1 0x24 PUSH0 REVERT JUMPDEST CALLVALUE PUSH2 0x15D JUMPI PUSH0 CALLDATASIZE PUSH1 0x3 NOT ADD SLT PUSH2 0x15D JUMPI PUSH1 0x20 PUSH1 0x40 MLOAD PUSH32 0x8A4778FEAA2FC65EBC9DDD026461F05B6522E206B955CA87F94C0EEBFA8BCB2C DUP2 MSTORE RETURN JUMPDEST CALLVALUE PUSH2 0x15D JUMPI PUSH0 CALLDATASIZE PUSH1 0x3 NOT ADD SLT PUSH2 0x15D JUMPI PUSH2 0xC90 PUSH2 0x135C JUMP JUMPDEST PUSH1 0x1 SLOAD PUSH1 0xFF DUP2 AND ISZERO PUSH2 0xCCF JUMPI PUSH1 0xFF NOT AND PUSH1 0x1 SSTORE PUSH32 0x5DB9EE0A495BF2E6FF9C91A7834C1BA4FDD244A5E8AA4E537BD38AEAE4B073AA PUSH1 0x20 PUSH1 0x40 MLOAD CALLER DUP2 MSTORE LOG1 STOP JUMPDEST PUSH1 0x40 MLOAD PUSH3 0x461BCD PUSH1 0xE5 SHL DUP2 MSTORE PUSH1 0x20 PUSH1 0x4 DUP3 ADD MSTORE PUSH1 0x14 PUSH1 0x24 DUP3 ADD MSTORE PUSH20 0x14185D5CD8589B194E881B9BDD081C185D5CD959 PUSH1 0x62 SHL PUSH1 0x44 DUP3 ADD MSTORE PUSH1 0x64 SWAP1 REVERT JUMPDEST CALLVALUE PUSH2 0x15D JUMPI PUSH0 CALLDATASIZE PUSH1 0x3 NOT ADD SLT PUSH2 0x15D JUMPI PUSH1 0x20 PUSH1 0x40 MLOAD PUSH32 0x139C2898040EF16910DC9F44DC697DF79363DA767D8BC92F2E310312B816E46D DUP2 MSTORE RETURN JUMPDEST CALLVALUE PUSH2 0x15D JUMPI PUSH1 0x40 CALLDATASIZE PUSH1 0x3 NOT ADD SLT PUSH2 0x15D JUMPI PUSH2 0xD5E PUSH2 0x12D0 JUMP JUMPDEST CALLER PUSH1 0x1 PUSH1 0x1 PUSH1 0xA0 SHL SUB DUP3 AND SUB PUSH2 0xD7A JUMPI PUSH2 0x19D SWAP1 PUSH1 0x4 CALLDATALOAD PUSH2 0x16A7 JUMP JUMPDEST PUSH1 0x40 MLOAD PUSH3 0x461BCD PUSH1 0xE5 SHL DUP2 MSTORE PUSH1 0x20 PUSH1 0x4 DUP3 ADD MSTORE PUSH1 0x2F PUSH1 0x24 DUP3 ADD MSTORE PUSH32 0x416363657373436F6E74726F6C3A2063616E206F6E6C792072656E6F756E6365 PUSH1 0x44 DUP3 ADD MSTORE PUSH15 0x103937B632B9903337B91039B2B633 PUSH1 0x89 SHL PUSH1 0x64 DUP3 ADD MSTORE PUSH1 0x84 SWAP1 REVERT JUMPDEST CALLVALUE PUSH2 0x15D JUMPI PUSH1 0x40 CALLDATASIZE PUSH1 0x3 NOT ADD SLT PUSH2 0x15D JUMPI PUSH1 0x4 CALLDATALOAD PUSH2 0xDF3 PUSH2 0x12D0 JUMP JUMPDEST DUP2 PUSH0 MSTORE PUSH0 PUSH1 0x20 MSTORE PUSH2 0xE0A PUSH1 0x1 PUSH1 0x40 PUSH0 KECCAK256 ADD SLOAD PUSH2 0x1548 JUMP JUMPDEST DUP2 PUSH0 MSTORE PUSH0 PUSH1 0x20 MSTORE PUSH1 0x40 PUSH0 KECCAK256 SWAP1 PUSH1 0x1 DUP1 PUSH1 0xA0 SHL SUB AND SWAP1 DUP2 PUSH0 MSTORE PUSH1 0x20 MSTORE PUSH1 0xFF PUSH1 0x40 PUSH0 KECCAK256 SLOAD AND ISZERO PUSH2 0xE34 JUMPI STOP JUMPDEST DUP2 PUSH0 MSTORE PUSH0 PUSH1 0x20 MSTORE PUSH1 0x40 PUSH0 KECCAK256 DUP2 PUSH0 MSTORE PUSH1 0x20 MSTORE PUSH1 0x40 PUSH0 KECCAK256 PUSH1 0x1 PUSH1 0xFF NOT DUP3 SLOAD AND OR SWAP1 SSTORE CALLER SWAP2 PUSH32 0x2F8788117E7EFF1D82E926EC794901D17C78024A50270940304540A733656F0D PUSH0 DUP1 LOG4 STOP JUMPDEST CALLVALUE PUSH2 0x15D JUMPI PUSH1 0x20 DUP1 PUSH1 0x3 NOT CALLDATASIZE ADD SLT PUSH2 0x15D JUMPI PUSH2 0xE96 PUSH2 0x12BA JUMP JUMPDEST SWAP1 PUSH32 0x8A4778FEAA2FC65EBC9DDD026461F05B6522E206B955CA87F94C0EEBFA8BCB2C SWAP1 DUP2 PUSH0 MSTORE PUSH0 DUP2 MSTORE PUSH1 0x40 PUSH0 KECCAK256 CALLER PUSH0 MSTORE DUP2 MSTORE PUSH1 0xFF PUSH1 0x40 PUSH0 KECCAK256 SLOAD AND ISZERO PUSH2 0xF23 JUMPI PUSH1 0x1 PUSH1 0x1 PUSH1 0xA0 SHL SUB DUP1 DUP5 AND SWAP1 DUP2 ISZERO PUSH2 0x9A0 JUMPI PUSH1 0x5 SLOAD DUP3 PUSH1 0x1 PUSH1 0x1 PUSH1 0x60 SHL SUB PUSH1 0xA0 SHL DUP3 AND OR PUSH1 0x5 SSTORE AND PUSH32 0x53484EB5C3028CC71FDA017D41E647DEA2740218D0F723D84CF7E98476459A8E PUSH0 DUP1 LOG3 STOP JUMPDEST PUSH2 0xF2C CALLER PUSH2 0x1753 JUMP JUMPDEST SWAP2 PUSH1 0x40 MLOAD PUSH2 0xF39 DUP2 PUSH2 0x1650 JUMP JUMPDEST PUSH1 0x42 DUP2 MSTORE DUP3 DUP2 ADD SWAP2 PUSH1 0x60 CALLDATASIZE DUP5 CALLDATACOPY DUP2 MLOAD ISZERO PUSH2 0x98C JUMPI PUSH1 0x30 DUP4 MSTORE8 DUP2 MLOAD PUSH1 0x1 SWAP1 DUP2 LT ISZERO PUSH2 0x98C JUMPI PUSH1 0x78 PUSH1 0x21 DUP5 ADD MSTORE8 PUSH1 0x41 SWAP1 JUMPDEST DUP1 DUP3 GT PUSH2 0xFB8 JUMPI POP POP PUSH2 0xBA4 JUMPI PUSH2 0xB70 SWAP4 PUSH2 0xB7F SWAP3 PUSH1 0x48 SWAP3 PUSH1 0x40 MLOAD SWAP7 DUP8 SWAP4 PUSH23 0x20B1B1B2B9B9A1B7B73A3937B61D1030B1B1B7BAB73A1 PUSH1 0x4D SHL DUP9 DUP7 ADD MSTORE PUSH2 0xB47 DUP2 MLOAD DUP1 SWAP3 DUP11 PUSH1 0x37 DUP10 ADD SWAP2 ADD PUSH2 0x1316 JUMP JUMPDEST SWAP1 SWAP2 PUSH1 0xF DUP2 AND PUSH1 0x10 DUP2 LT ISZERO PUSH2 0x98C JUMPI PUSH16 0x181899199A1A9B1B9C1CB0B131B232B3 PUSH1 0x81 SHL SWAP1 BYTE PUSH2 0xFE7 DUP5 DUP7 PUSH2 0x1742 JUMP JUMPDEST MSTORE8 PUSH1 0x4 SHR SWAP2 DUP1 ISZERO PUSH2 0xC2A JUMPI PUSH0 NOT ADD SWAP1 PUSH2 0xF68 JUMP JUMPDEST CALLVALUE PUSH2 0x15D JUMPI PUSH1 0x20 CALLDATASIZE PUSH1 0x3 NOT ADD SLT PUSH2 0x15D JUMPI PUSH1 0x4 CALLDATALOAD PUSH0 MSTORE PUSH0 PUSH1 0x20 MSTORE PUSH1 0x20 PUSH1 0x1 PUSH1 0x40 PUSH0 KECCAK256 ADD SLOAD PUSH1 0x40 MLOAD SWAP1 DUP2 MSTORE RETURN JUMPDEST CALLVALUE PUSH2 0x15D JUMPI PUSH1 0x80 CALLDATASIZE PUSH1 0x3 NOT ADD SLT PUSH2 0x15D JUMPI PUSH2 0x1040 PUSH2 0x12A7 JUMP JUMPDEST PUSH1 0x24 CALLDATALOAD PUSH1 0x44 CALLDATALOAD SWAP2 PUSH1 0x64 CALLDATALOAD SWAP1 PUSH1 0x1 PUSH1 0x1 PUSH1 0x40 SHL SUB SWAP1 DUP2 DUP4 GT PUSH2 0x15D JUMPI CALLDATASIZE PUSH1 0x23 DUP5 ADD SLT ISZERO PUSH2 0x15D JUMPI DUP3 PUSH1 0x4 ADD CALLDATALOAD SWAP1 DUP3 DUP3 GT PUSH2 0x15D JUMPI CALLDATASIZE PUSH1 0x24 DUP4 DUP7 ADD ADD GT PUSH2 0x15D JUMPI PUSH4 0xFFFFFFFF SWAP1 PUSH2 0x108D PUSH2 0x1A58 JUMP JUMPDEST AND SWAP3 DUP4 ISZERO DUP1 ISZERO PUSH2 0x1224 JUMPI JUMPDEST PUSH2 0x9A0 JUMPI DUP4 PUSH0 MSTORE PUSH1 0x20 SWAP2 PUSH1 0x6 DUP4 MSTORE PUSH1 0x40 PUSH0 KECCAK256 SLOAD PUSH2 0x1212 JUMPI PUSH1 0x40 MLOAD SWAP2 DUP4 DUP4 ADD SWAP2 PUSH32 0xBA320B6E1CC6E4404727CAD34304D72872C420ECBC50554923CB062724F18C39 DUP4 MSTORE DUP7 PUSH1 0x40 DUP6 ADD MSTORE DUP8 PUSH1 0x60 DUP6 ADD MSTORE DUP9 PUSH1 0x80 DUP6 ADD MSTORE PUSH1 0x80 DUP5 MSTORE PUSH1 0xA0 DUP5 ADD SWAP3 DUP5 DUP5 LT DUP8 DUP6 GT OR PUSH2 0x627 JUMPI DUP6 PUSH1 0x42 PUSH0 SWAP3 PUSH2 0x1167 SWAP8 PUSH2 0x115F SWAP8 PUSH1 0x40 MSTORE MLOAD SWAP1 KECCAK256 PUSH2 0x111B PUSH2 0x1C76 JUMP JUMPDEST SWAP1 PUSH1 0x40 MLOAD SWAP2 PUSH2 0x1901 PUSH1 0xF0 SHL DUP4 MSTORE PUSH1 0x2 DUP4 ADD MSTORE PUSH1 0x22 DUP3 ADD MSTORE KECCAK256 SWAP3 DUP1 PUSH1 0x24 PUSH2 0x1140 DUP3 PUSH2 0x1727 JUMP JUMPDEST SWAP7 PUSH2 0x114E PUSH1 0x40 MLOAD SWAP9 DUP10 PUSH2 0x1686 JUMP JUMPDEST DUP3 DUP9 MSTORE ADD DUP4 DUP8 ADD CALLDATACOPY DUP5 ADD ADD MSTORE PUSH2 0x1BB4 JUMP JUMPDEST SWAP2 SWAP1 SWAP2 PUSH2 0x1A9C JUMP JUMPDEST PUSH1 0x5 SLOAD PUSH1 0x1 PUSH1 0x1 PUSH1 0xA0 SHL SUB SWAP1 DUP2 AND SWAP2 AND SUB PUSH2 0x1200 JUMPI PUSH1 0x40 MLOAD PUSH32 0x3E739407BB6240CC61CFCBE24FD5F49E9CA93BBEAEB031A2528D315650CBD96C SWAP3 PUSH2 0x11AA DUP3 PUSH2 0x1650 JUMP JUMPDEST DUP6 DUP3 MSTORE PUSH1 0x3 DUP4 DUP4 ADD SWAP3 DUP9 DUP5 MSTORE PUSH1 0x40 DUP2 ADD PUSH0 DUP2 MSTORE PUSH1 0x60 DUP3 ADD SWAP5 DUP5 TIMESTAMP AND DUP7 MSTORE DUP9 PUSH0 MSTORE PUSH1 0x6 DUP8 MSTORE PUSH1 0x40 PUSH0 KECCAK256 SWAP3 MLOAD DUP4 SSTORE MLOAD PUSH1 0x1 DUP4 ADD SSTORE MLOAD PUSH1 0x2 DUP3 ADD SSTORE ADD SWAP2 MLOAD AND PUSH1 0x1 PUSH1 0x1 PUSH1 0x40 SHL SUB NOT DUP3 SLOAD AND OR SWAP1 SSTORE PUSH1 0x40 MLOAD SWAP5 DUP6 MSTORE CALLER SWAP5 LOG4 STOP JUMPDEST PUSH1 0x40 MLOAD PUSH4 0x5CD5D233 PUSH1 0xE0 SHL DUP2 MSTORE PUSH1 0x4 SWAP1 REVERT JUMPDEST PUSH1 0x40 MLOAD PUSH4 0x2DD26D2D PUSH1 0xE1 SHL DUP2 MSTORE PUSH1 0x4 SWAP1 REVERT JUMPDEST POP DUP5 ISZERO PUSH2 0x1098 JUMP JUMPDEST CALLVALUE PUSH2 0x15D JUMPI PUSH0 CALLDATASIZE PUSH1 0x3 NOT ADD SLT PUSH2 0x15D JUMPI PUSH1 0x5 SLOAD PUSH1 0x40 MLOAD PUSH1 0x1 PUSH1 0x1 PUSH1 0xA0 SHL SUB SWAP1 SWAP2 AND DUP2 MSTORE PUSH1 0x20 SWAP1 RETURN JUMPDEST CALLVALUE PUSH2 0x15D JUMPI PUSH1 0x20 CALLDATASIZE PUSH1 0x3 NOT ADD SLT PUSH2 0x15D JUMPI PUSH1 0x4 CALLDATALOAD SWAP1 PUSH4 0xFFFFFFFF PUSH1 0xE0 SHL DUP3 AND DUP1 SWAP3 SUB PUSH2 0x15D JUMPI PUSH1 0x20 SWAP2 PUSH4 0x7965DB0B PUSH1 0xE0 SHL DUP2 EQ SWAP1 DUP2 ISZERO PUSH2 0x1296 JUMPI JUMPDEST POP ISZERO ISZERO DUP2 MSTORE RETURN JUMPDEST PUSH4 0x1FFC9A7 PUSH1 0xE0 SHL EQ SWAP1 POP DUP4 PUSH2 0x128F JUMP JUMPDEST PUSH1 0x4 CALLDATALOAD SWAP1 PUSH4 0xFFFFFFFF DUP3 AND DUP3 SUB PUSH2 0x15D JUMPI JUMP JUMPDEST PUSH1 0x4 CALLDATALOAD SWAP1 PUSH1 0x1 PUSH1 0x1 PUSH1 0xA0 SHL SUB DUP3 AND DUP3 SUB PUSH2 0x15D JUMPI JUMP JUMPDEST PUSH1 0x24 CALLDATALOAD SWAP1 PUSH1 0x1 PUSH1 0x1 PUSH1 0xA0 SHL SUB DUP3 AND DUP3 SUB PUSH2 0x15D JUMPI JUMP JUMPDEST SWAP2 DUP2 PUSH1 0x1F DUP5 ADD SLT ISZERO PUSH2 0x15D JUMPI DUP3 CALLDATALOAD SWAP2 PUSH1 0x1 PUSH1 0x1 PUSH1 0x40 SHL SUB DUP4 GT PUSH2 0x15D JUMPI PUSH1 0x20 DUP1 DUP6 ADD SWAP5 DUP5 PUSH1 0x5 SHL ADD ADD GT PUSH2 0x15D JUMPI JUMP JUMPDEST PUSH0 JUMPDEST DUP4 DUP2 LT PUSH2 0x1327 JUMPI POP POP PUSH0 SWAP2 ADD MSTORE JUMP JUMPDEST DUP2 DUP2 ADD MLOAD DUP4 DUP3 ADD MSTORE PUSH1 0x20 ADD PUSH2 0x1318 JUMP JUMPDEST SWAP1 PUSH1 0x20 SWAP2 PUSH2 0x1350 DUP2 MLOAD DUP1 SWAP3 DUP2 DUP6 MSTORE DUP6 DUP1 DUP7 ADD SWAP2 ADD PUSH2 0x1316 JUMP JUMPDEST PUSH1 0x1F ADD PUSH1 0x1F NOT AND ADD ADD SWAP1 JUMP JUMPDEST CALLER PUSH0 SWAP1 DUP2 MSTORE PUSH32 0x2A1C876995CD4A57E905C1E774DBBF9C042071DD6E15EBA11379D9C34D645F27 PUSH1 0x20 SWAP1 DUP2 MSTORE PUSH1 0x40 DUP1 DUP4 KECCAK256 SLOAD SWAP1 SWAP3 PUSH32 0x139C2898040EF16910DC9F44DC697DF79363DA767D8BC92F2E310312B816E46D SWAP2 PUSH1 0xFF AND ISZERO PUSH2 0x13BF JUMPI POP POP POP POP JUMP JUMPDEST PUSH2 0x13C8 CALLER PUSH2 0x1753 JUMP JUMPDEST SWAP2 DUP5 MLOAD SWAP1 PUSH2 0x13D5 DUP3 PUSH2 0x1650 JUMP JUMPDEST PUSH1 0x42 DUP3 MSTORE DUP5 DUP3 ADD SWAP3 PUSH1 0x60 CALLDATASIZE DUP6 CALLDATACOPY DUP3 MLOAD ISZERO PUSH2 0x1534 JUMPI PUSH1 0x30 DUP5 MSTORE8 DUP3 MLOAD SWAP1 PUSH1 0x1 SWAP2 DUP3 LT ISZERO PUSH2 0x1534 JUMPI SWAP1 PUSH1 0x78 PUSH1 0x21 DUP6 ADD MSTORE8 PUSH1 0x41 SWAP2 JUMPDEST DUP2 DUP4 GT PUSH2 0x14C7 JUMPI POP POP POP PUSH2 0x1485 JUMPI PUSH1 0x48 PUSH2 0xBA0 SWAP4 DUP7 SWAP4 PUSH2 0x1469 SWAP4 PUSH2 0x145A SWAP9 MLOAD SWAP9 DUP10 SWAP4 PUSH23 0x20B1B1B2B9B9A1B7B73A3937B61D1030B1B1B7BAB73A1 PUSH1 0x4D SHL DUP11 DUP7 ADD MSTORE PUSH2 0xB47 DUP2 MLOAD DUP1 SWAP3 DUP13 PUSH1 0x37 DUP10 ADD SWAP2 ADD PUSH2 0x1316 JUMP JUMPDEST ADD SUB PUSH1 0x28 DUP2 ADD DUP8 MSTORE ADD DUP6 PUSH2 0x1686 JUMP JUMPDEST MLOAD SWAP3 DUP4 SWAP3 PUSH3 0x461BCD PUSH1 0xE5 SHL DUP5 MSTORE PUSH1 0x4 DUP5 ADD MSTORE PUSH1 0x24 DUP4 ADD SWAP1 PUSH2 0x1337 JUMP JUMPDEST PUSH1 0x64 DUP5 DUP7 MLOAD SWAP1 PUSH3 0x461BCD PUSH1 0xE5 SHL DUP3 MSTORE DUP1 PUSH1 0x4 DUP4 ADD MSTORE PUSH1 0x24 DUP3 ADD MSTORE PUSH32 0x537472696E67733A20686578206C656E67746820696E73756666696369656E74 PUSH1 0x44 DUP3 ADD MSTORE REVERT JUMPDEST SWAP1 SWAP2 SWAP3 PUSH1 0xF DUP2 AND PUSH1 0x10 DUP2 LT ISZERO PUSH2 0x1520 JUMPI PUSH16 0x181899199A1A9B1B9C1CB0B131B232B3 PUSH1 0x81 SHL SWAP1 BYTE PUSH2 0x14F7 DUP6 DUP8 PUSH2 0x1742 JUMP JUMPDEST MSTORE8 PUSH1 0x4 SHR SWAP3 DUP1 ISZERO PUSH2 0x150C JUMPI PUSH0 NOT ADD SWAP2 SWAP1 PUSH2 0x1406 JUMP JUMPDEST PUSH4 0x4E487B71 PUSH1 0xE0 SHL DUP3 MSTORE PUSH1 0x11 PUSH1 0x4 MSTORE PUSH1 0x24 DUP3 REVERT JUMPDEST PUSH4 0x4E487B71 PUSH1 0xE0 SHL DUP4 MSTORE PUSH1 0x32 PUSH1 0x4 MSTORE PUSH1 0x24 DUP4 REVERT JUMPDEST PUSH4 0x4E487B71 PUSH1 0xE0 SHL DUP2 MSTORE PUSH1 0x32 PUSH1 0x4 MSTORE PUSH1 0x24 SWAP1 REVERT JUMPDEST PUSH0 SWAP1 DUP1 DUP3 MSTORE PUSH1 0x20 SWAP1 DUP3 DUP3 MSTORE PUSH1 0x40 SWAP3 DUP4 DUP2 KECCAK256 CALLER DUP3 MSTORE DUP4 MSTORE PUSH1 0xFF DUP5 DUP3 KECCAK256 SLOAD AND ISZERO PUSH2 0x1570 JUMPI POP POP POP POP JUMP JUMPDEST PUSH2 0x1579 CALLER PUSH2 0x1753 JUMP JUMPDEST SWAP2 DUP5 MLOAD SWAP1 PUSH2 0x1586 DUP3 PUSH2 0x1650 JUMP JUMPDEST PUSH1 0x42 DUP3 MSTORE DUP5 DUP3 ADD SWAP3 PUSH1 0x60 CALLDATASIZE DUP6 CALLDATACOPY DUP3 MLOAD ISZERO PUSH2 0x1534 JUMPI PUSH1 0x30 DUP5 MSTORE8 DUP3 MLOAD SWAP1 PUSH1 0x1 SWAP2 DUP3 LT ISZERO PUSH2 0x1534 JUMPI SWAP1 PUSH1 0x78 PUSH1 0x21 DUP6 ADD MSTORE8 PUSH1 0x41 SWAP2 JUMPDEST DUP2 DUP4 GT PUSH2 0x160B JUMPI POP POP POP PUSH2 0x1485 JUMPI PUSH1 0x48 PUSH2 0xBA0 SWAP4 DUP7 SWAP4 PUSH2 0x1469 SWAP4 PUSH2 0x145A SWAP9 MLOAD SWAP9 DUP10 SWAP4 PUSH23 0x20B1B1B2B9B9A1B7B73A3937B61D1030B1B1B7BAB73A1 PUSH1 0x4D SHL DUP11 DUP7 ADD MSTORE PUSH2 0xB47 DUP2 MLOAD DUP1 SWAP3 DUP13 PUSH1 0x37 DUP10 ADD SWAP2 ADD PUSH2 0x1316 JUMP JUMPDEST SWAP1 SWAP2 SWAP3 PUSH1 0xF DUP2 AND PUSH1 0x10 DUP2 LT ISZERO PUSH2 0x1520 JUMPI PUSH16 0x181899199A1A9B1B9C1CB0B131B232B3 PUSH1 0x81 SHL SWAP1 BYTE PUSH2 0x163B DUP6 DUP8 PUSH2 0x1742 JUMP JUMPDEST MSTORE8 PUSH1 0x4 SHR SWAP3 DUP1 ISZERO PUSH2 0x150C JUMPI PUSH0 NOT ADD SWAP2 SWAP1 PUSH2 0x15B7 JUMP JUMPDEST PUSH1 0x80 DUP2 ADD SWAP1 DUP2 LT PUSH1 0x1 PUSH1 0x1 PUSH1 0x40 SHL SUB DUP3 GT OR PUSH2 0x627 JUMPI PUSH1 0x40 MSTORE JUMP JUMPDEST PUSH1 0x40 DUP2 ADD SWAP1 DUP2 LT PUSH1 0x1 PUSH1 0x1 PUSH1 0x40 SHL SUB DUP3 GT OR PUSH2 0x627 JUMPI PUSH1 0x40 MSTORE JUMP JUMPDEST SWAP1 PUSH1 0x1F DUP1 NOT SWAP2 ADD AND DUP2 ADD SWAP1 DUP2 LT PUSH1 0x1 PUSH1 0x1 PUSH1 0x40 SHL SUB DUP3 GT OR PUSH2 0x627 JUMPI PUSH1 0x40 MSTORE JUMP JUMPDEST SWAP1 PUSH0 SWAP2 DUP1 DUP4 MSTORE DUP3 PUSH1 0x20 MSTORE PUSH1 0x40 DUP4 KECCAK256 SWAP2 PUSH1 0x1 DUP1 PUSH1 0xA0 SHL SUB AND SWAP2 DUP3 DUP5 MSTORE PUSH1 0x20 MSTORE PUSH1 0xFF PUSH1 0x40 DUP5 KECCAK256 SLOAD AND PUSH2 0x16D6 JUMPI POP POP POP JUMP JUMPDEST DUP1 DUP4 MSTORE DUP3 PUSH1 0x20 MSTORE PUSH1 0x40 DUP4 KECCAK256 DUP3 DUP5 MSTORE PUSH1 0x20 MSTORE PUSH1 0x40 DUP4 KECCAK256 PUSH1 0xFF NOT DUP2 SLOAD AND SWAP1 SSTORE PUSH32 0xF6391F5C32D9C69D2A47EA670B442974B53935D1EDC7FD64EB21E047A839171B CALLER SWAP4 DUP1 LOG4 JUMP JUMPDEST SWAP2 SWAP1 DUP3 ADD DUP1 SWAP3 GT PUSH2 0xC2A JUMPI JUMP JUMPDEST PUSH1 0x1 PUSH1 0x1 PUSH1 0x40 SHL SUB DUP2 GT PUSH2 0x627 JUMPI PUSH1 0x1F ADD PUSH1 0x1F NOT AND PUSH1 0x20 ADD SWAP1 JUMP JUMPDEST SWAP1 DUP2 MLOAD DUP2 LT ISZERO PUSH2 0x98C JUMPI ADD PUSH1 0x20 ADD SWAP1 JUMP JUMPDEST PUSH1 0x40 MLOAD SWAP1 PUSH1 0x60 DUP3 ADD DUP3 DUP2 LT PUSH1 0x1 PUSH1 0x1 PUSH1 0x40 SHL SUB DUP3 GT OR PUSH2 0x627 JUMPI PUSH1 0x40 MSTORE PUSH1 0x2A DUP3 MSTORE PUSH1 0x20 DUP3 ADD PUSH1 0x40 CALLDATASIZE DUP3 CALLDATACOPY DUP3 MLOAD ISZERO PUSH2 0x98C JUMPI PUSH1 0x30 SWAP1 MSTORE8 DUP2 MLOAD PUSH1 0x1 SWAP1 DUP2 LT ISZERO PUSH2 0x98C JUMPI PUSH1 0x78 PUSH1 0x21 DUP5 ADD MSTORE8 PUSH1 0x29 SWAP1 JUMPDEST DUP1 DUP3 GT PUSH2 0x17F3 JUMPI POP POP PUSH2 0x17AF JUMPI SWAP1 JUMP JUMPDEST PUSH1 0x64 PUSH1 0x40 MLOAD PUSH3 0x461BCD PUSH1 0xE5 SHL DUP2 MSTORE PUSH1 0x20 PUSH1 0x4 DUP3 ADD MSTORE PUSH1 0x20 PUSH1 0x24 DUP3 ADD MSTORE PUSH32 0x537472696E67733A20686578206C656E67746820696E73756666696369656E74 PUSH1 0x44 DUP3 ADD MSTORE REVERT JUMPDEST SWAP1 SWAP2 PUSH1 0xF DUP2 AND PUSH1 0x10 DUP2 LT ISZERO PUSH2 0x184A JUMPI PUSH16 0x181899199A1A9B1B9C1CB0B131B232B3 PUSH1 0x81 SHL SWAP1 BYTE PUSH2 0x1822 DUP5 DUP7 PUSH2 0x1742 JUMP JUMPDEST MSTORE8 PUSH1 0x4 SHR SWAP2 DUP1 ISZERO PUSH2 0x1836 JUMPI PUSH0 NOT ADD SWAP1 PUSH2 0x179F JUMP JUMPDEST PUSH1 0x24 PUSH0 PUSH4 0x4E487B71 PUSH1 0xE0 SHL DUP2 MSTORE PUSH1 0x11 PUSH1 0x4 MSTORE REVERT JUMPDEST PUSH1 0x24 PUSH0 PUSH4 0x4E487B71 PUSH1 0xE0 SHL DUP2 MSTORE PUSH1 0x32 PUSH1 0x4 MSTORE REVERT JUMPDEST PUSH1 0xFF DUP2 EQ PUSH2 0x189C JUMPI PUSH1 0xFF DUP2 AND SWAP1 PUSH1 0x1F DUP3 GT PUSH2 0x188A JUMPI PUSH1 0x40 MLOAD SWAP2 PUSH2 0x1880 DUP4 PUSH2 0x166B JUMP JUMPDEST DUP3 MSTORE PUSH1 0x20 DUP3 ADD MSTORE SWAP1 JUMP JUMPDEST PUSH1 0x40 MLOAD PUSH4 0x2CD44AC3 PUSH1 0xE2 SHL DUP2 MSTORE PUSH1 0x4 SWAP1 REVERT JUMPDEST POP PUSH1 0x40 MLOAD PUSH0 PUSH1 0x3 SLOAD SWAP1 PUSH1 0x1 DUP3 DUP2 SHR SWAP1 DUP1 DUP5 AND SWAP4 DUP5 ISZERO PUSH2 0x197B JUMPI JUMPDEST PUSH1 0x20 SWAP5 DUP6 DUP5 LT DUP2 EQ PUSH2 0x1967 JUMPI DUP4 DUP8 MSTORE DUP7 SWAP5 SWAP4 SWAP3 SWAP2 DUP2 ISZERO PUSH2 0x1947 JUMPI POP PUSH1 0x1 EQ PUSH2 0x18EA JUMPI JUMPDEST POP POP PUSH2 0x18E7 SWAP3 POP SUB DUP3 PUSH2 0x1686 JUMP JUMPDEST SWAP1 JUMP JUMPDEST SWAP1 SWAP4 SWAP2 POP PUSH1 0x3 PUSH0 MSTORE PUSH32 0xC2575A0E9E593C00F959F8C92F12DB2869C3395A3B0502D05E2516446F71F85B SWAP4 PUSH0 SWAP2 JUMPDEST DUP2 DUP4 LT PUSH2 0x192F JUMPI POP POP PUSH2 0x18E7 SWAP4 POP DUP3 ADD ADD PUSH0 DUP1 PUSH2 0x18D9 JUMP JUMPDEST DUP6 SLOAD DUP8 DUP5 ADD DUP6 ADD MSTORE SWAP5 DUP6 ADD SWAP5 DUP7 SWAP5 POP SWAP2 DUP4 ADD SWAP2 PUSH2 0x1917 JUMP JUMPDEST SWAP2 POP POP PUSH2 0x18E7 SWAP5 SWAP3 POP PUSH1 0xFF NOT AND DUP3 DUP5 ADD MSTORE ISZERO ISZERO PUSH1 0x5 SHL DUP3 ADD ADD PUSH0 DUP1 PUSH2 0x18D9 JUMP JUMPDEST PUSH4 0x4E487B71 PUSH1 0xE0 SHL DUP6 MSTORE PUSH1 0x22 PUSH1 0x4 MSTORE PUSH1 0x24 DUP6 REVERT JUMPDEST SWAP2 PUSH1 0x7F AND SWAP2 PUSH2 0x18B6 JUMP JUMPDEST PUSH1 0xFF DUP2 EQ PUSH2 0x19A7 JUMPI PUSH1 0xFF DUP2 AND SWAP1 PUSH1 0x1F DUP3 GT PUSH2 0x188A JUMPI PUSH1 0x40 MLOAD SWAP2 PUSH2 0x1880 DUP4 PUSH2 0x166B JUMP JUMPDEST POP PUSH1 0x40 MLOAD PUSH0 PUSH1 0x4 SLOAD SWAP1 PUSH1 0x1 DUP3 DUP2 SHR SWAP1 DUP1 DUP5 AND SWAP4 DUP5 ISZERO PUSH2 0x1A4E JUMPI JUMPDEST PUSH1 0x20 SWAP5 DUP6 DUP5 LT DUP2 EQ PUSH2 0x1967 JUMPI DUP4 DUP8 MSTORE DUP7 SWAP5 SWAP4 SWAP3 SWAP2 DUP2 ISZERO PUSH2 0x1947 JUMPI POP PUSH1 0x1 EQ PUSH2 0x19F1 JUMPI POP POP PUSH2 0x18E7 SWAP3 POP SUB DUP3 PUSH2 0x1686 JUMP JUMPDEST SWAP1 SWAP4 SWAP2 POP PUSH1 0x4 PUSH0 MSTORE PUSH32 0x8A35ACFBC15FF81A39AE7D344FD709F28E8600B4AA8C65C6B64BFE7FE36BD19B SWAP4 PUSH0 SWAP2 JUMPDEST DUP2 DUP4 LT PUSH2 0x1A36 JUMPI POP POP PUSH2 0x18E7 SWAP4 POP DUP3 ADD ADD PUSH0 DUP1 PUSH2 0x18D9 JUMP JUMPDEST DUP6 SLOAD DUP8 DUP5 ADD DUP6 ADD MSTORE SWAP5 DUP6 ADD SWAP5 DUP7 SWAP5 POP SWAP2 DUP4 ADD SWAP2 PUSH2 0x1A1E JUMP JUMPDEST SWAP2 PUSH1 0x7F AND SWAP2 PUSH2 0x19C1 JUMP JUMPDEST PUSH1 0xFF PUSH1 0x1 SLOAD AND PUSH2 0x1A64 JUMPI JUMP JUMPDEST PUSH1 0x40 MLOAD PUSH3 0x461BCD PUSH1 0xE5 SHL DUP2 MSTORE PUSH1 0x20 PUSH1 0x4 DUP3 ADD MSTORE PUSH1 0x10 PUSH1 0x24 DUP3 ADD MSTORE PUSH16 0x14185D5CD8589B194E881C185D5CD959 PUSH1 0x82 SHL PUSH1 0x44 DUP3 ADD MSTORE PUSH1 0x64 SWAP1 REVERT JUMPDEST PUSH1 0x5 DUP2 LT ISZERO PUSH2 0x1BA0 JUMPI DUP1 PUSH2 0x1AAD JUMPI POP JUMP JUMPDEST PUSH1 0x1 DUP2 SUB PUSH2 0x1AFA JUMPI PUSH1 0x40 MLOAD PUSH3 0x461BCD PUSH1 0xE5 SHL DUP2 MSTORE PUSH1 0x20 PUSH1 0x4 DUP3 ADD MSTORE PUSH1 0x18 PUSH1 0x24 DUP3 ADD MSTORE PUSH32 0x45434453413A20696E76616C6964207369676E61747572650000000000000000 PUSH1 0x44 DUP3 ADD MSTORE PUSH1 0x64 SWAP1 REVERT JUMPDEST PUSH1 0x2 DUP2 SUB PUSH2 0x1B47 JUMPI PUSH1 0x40 MLOAD PUSH3 0x461BCD PUSH1 0xE5 SHL DUP2 MSTORE PUSH1 0x20 PUSH1 0x4 DUP3 ADD MSTORE PUSH1 0x1F PUSH1 0x24 DUP3 ADD MSTORE PUSH32 0x45434453413A20696E76616C6964207369676E6174757265206C656E67746800 PUSH1 0x44 DUP3 ADD MSTORE PUSH1 0x64 SWAP1 REVERT JUMPDEST PUSH1 0x3 EQ PUSH2 0x1B50 JUMPI JUMP JUMPDEST PUSH1 0x40 MLOAD PUSH3 0x461BCD PUSH1 0xE5 SHL DUP2 MSTORE PUSH1 0x20 PUSH1 0x4 DUP3 ADD MSTORE PUSH1 0x22 PUSH1 0x24 DUP3 ADD MSTORE PUSH32 0x45434453413A20696E76616C6964207369676E6174757265202773272076616C PUSH1 0x44 DUP3 ADD MSTORE PUSH2 0x7565 PUSH1 0xF0 SHL PUSH1 0x64 DUP3 ADD MSTORE PUSH1 0x84 SWAP1 REVERT JUMPDEST PUSH4 0x4E487B71 PUSH1 0xE0 SHL PUSH0 MSTORE PUSH1 0x21 PUSH1 0x4 MSTORE PUSH1 0x24 PUSH0 REVERT JUMPDEST SWAP1 PUSH1 0x41 DUP2 MLOAD EQ PUSH0 EQ PUSH2 0x1BE0 JUMPI PUSH2 0x1BDC SWAP2 PUSH1 0x20 DUP3 ADD MLOAD SWAP1 PUSH1 0x60 PUSH1 0x40 DUP5 ADD MLOAD SWAP4 ADD MLOAD PUSH0 BYTE SWAP1 PUSH2 0x1BE9 JUMP JUMPDEST SWAP1 SWAP2 JUMP JUMPDEST POP POP PUSH0 SWAP1 PUSH1 0x2 SWAP1 JUMP JUMPDEST SWAP3 SWAP2 SWAP1 PUSH32 0x7FFFFFFFFFFFFFFFFFFFFFFFFFFFFFFF5D576E7357A4501DDFE92F46681B20A0 DUP4 GT PUSH2 0x1C6B JUMPI SWAP2 PUSH1 0x80 SWAP5 SWAP4 SWAP2 PUSH1 0xFF PUSH1 0x20 SWAP5 PUSH1 0x40 MLOAD SWAP5 DUP6 MSTORE AND DUP5 DUP5 ADD MSTORE PUSH1 0x40 DUP4 ADD MSTORE PUSH1 0x60 DUP3 ADD MSTORE PUSH0 SWAP4 DUP5 SWAP2 DUP3 DUP1 MSTORE PUSH1 0x1 GAS STATICCALL ISZERO PUSH2 0x1C5E JUMPI DUP2 MLOAD PUSH1 0x1 PUSH1 0x1 PUSH1 0xA0 SHL SUB DUP2 AND ISZERO PUSH2 0x1C58 JUMPI SWAP2 SWAP1 JUMP JUMPDEST POP PUSH1 0x1 SWAP1 JUMP JUMPDEST POP PUSH1 0x40 MLOAD SWAP1 RETURNDATASIZE SWAP1 DUP3 RETURNDATACOPY RETURNDATASIZE SWAP1 REVERT JUMPDEST POP POP POP POP PUSH0 SWAP1 PUSH1 0x3 SWAP1 JUMP JUMPDEST ADDRESS PUSH32 0x0 PUSH1 0x1 PUSH1 0x1 PUSH1 0xA0 SHL SUB AND EQ DUP1 PUSH2 0x1D77 JUMPI JUMPDEST ISZERO PUSH2 0x1CD1 JUMPI PUSH32 0x0 SWAP1 JUMP JUMPDEST PUSH1 0x40 MLOAD PUSH1 0x20 DUP2 ADD SWAP1 PUSH32 0x8B73C3C69BB8FE3D512ECC4CF759CC79239F7B179B0FFACAA9A75D522B39400F DUP3 MSTORE PUSH32 0x0 PUSH1 0x40 DUP3 ADD MSTORE PUSH32 0x0 PUSH1 0x60 DUP3 ADD MSTORE CHAINID PUSH1 0x80 DUP3 ADD MSTORE ADDRESS PUSH1 0xA0 DUP3 ADD MSTORE PUSH1 0xA0 DUP2 MSTORE PUSH1 0xC0 DUP2 ADD DUP2 DUP2 LT PUSH1 0x1 PUSH1 0x1 PUSH1 0x40 SHL SUB DUP3 GT OR PUSH2 0x627 JUMPI PUSH1 0x40 MSTORE MLOAD SWAP1 KECCAK256 SWAP1 JUMP JUMPDEST POP PUSH32 0x0 CHAINID EQ PUSH2 0x1CA8 JUMP JUMPDEST SWAP1 SWAP3 SWAP2 PUSH1 0x1 PUSH1 0x1 PUSH1 0x40 SHL SUB DUP5 GT PUSH2 0x627 JUMPI DUP4 PUSH1 0x5 SHL PUSH1 0x40 MLOAD SWAP3 PUSH1 0x20 DUP1 SWAP5 PUSH2 0x1DC9 DUP3 DUP6 ADD DUP3 PUSH2 0x1686 JUMP JUMPDEST DUP1 SWAP8 DUP2 MSTORE ADD SWAP2 DUP2 ADD SWAP3 DUP4 GT PUSH2 0x15D JUMPI SWAP1 JUMPDEST DUP3 DUP3 LT PUSH2 0x1DE7 JUMPI POP POP POP POP JUMP JUMPDEST DUP2 CALLDATALOAD DUP2 MSTORE SWAP1 DUP4 ADD SWAP1 DUP4 ADD PUSH2 0x1DDA JUMP JUMPDEST PUSH1 0x2 DUP1 SLOAD EQ PUSH2 0x1E05 JUMPI PUSH1 0x2 DUP1 SSTORE JUMP JUMPDEST PUSH1 0x40 MLOAD PUSH3 0x461BCD PUSH1 0xE5 SHL DUP2 MSTORE PUSH1 0x20 PUSH1 0x4 DUP3 ADD MSTORE PUSH1 0x1F PUSH1 0x24 DUP3 ADD MSTORE PUSH32 0x5265656E7472616E637947756172643A207265656E7472616E742063616C6C00 PUSH1 0x44 DUP3 ADD MSTORE PUSH1 0x64 SWAP1 REVERT JUMPDEST PUSH1 0x40 MLOAD PUSH4 0xA9059CBB PUSH1 0xE0 SHL PUSH1 0x20 DUP1 DUP4 ADD SWAP2 DUP3 MSTORE PUSH1 0x1 PUSH1 0x1 PUSH1 0xA0 SHL SUB SWAP5 DUP6 AND PUSH1 0x24 DUP5 ADD MSTORE PUSH1 0x44 DUP1 DUP5 ADD SWAP7 SWAP1 SWAP7 MSTORE SWAP5 DUP3 MSTORE SWAP3 PUSH2 0x1EF4 SWAP3 PUSH2 0x1E87 DUP4 PUSH2 0x1650 JUMP JUMPDEST AND PUSH1 0x40 MLOAD SWAP2 PUSH2 0x1E95 DUP4 PUSH2 0x166B JUMP JUMPDEST DUP6 DUP4 MSTORE PUSH32 0x5361666545524332303A206C6F772D6C6576656C2063616C6C206661696C6564 DUP7 DUP5 ADD MSTORE PUSH0 DUP1 SWAP6 DUP2 SWAP3 MLOAD SWAP1 DUP3 DUP6 GAS CALL RETURNDATASIZE ISZERO PUSH2 0x1F91 JUMPI RETURNDATASIZE SWAP2 PUSH2 0x1ED9 DUP4 PUSH2 0x1727 JUMP JUMPDEST SWAP3 PUSH2 0x1EE7 PUSH1 0x40 MLOAD SWAP5 DUP6 PUSH2 0x1686 JUMP JUMPDEST DUP4 MSTORE RETURNDATASIZE DUP7 DUP9 DUP6 ADD RETURNDATACOPY PUSH2 0x1F95 JUMP JUMPDEST DUP1 MLOAD SWAP2 DUP3 ISZERO SWAP2 DUP5 DUP4 ISZERO PUSH2 0x1F66 JUMPI JUMPDEST POP POP POP SWAP1 POP ISZERO PUSH2 0x1F0F JUMPI POP JUMP JUMPDEST PUSH1 0x84 SWAP1 PUSH1 0x40 MLOAD SWAP1 PUSH3 0x461BCD PUSH1 0xE5 SHL DUP3 MSTORE PUSH1 0x4 DUP3 ADD MSTORE PUSH1 0x2A PUSH1 0x24 DUP3 ADD MSTORE PUSH32 0x5361666545524332303A204552433230206F7065726174696F6E20646964206E PUSH1 0x44 DUP3 ADD MSTORE PUSH10 0x1BDD081CDD58D8D95959 PUSH1 0xB2 SHL PUSH1 0x64 DUP3 ADD MSTORE REVERT JUMPDEST SWAP2 SWAP4 DUP2 DUP1 SWAP5 POP ADD SUB SLT PUSH2 0x1F8D JUMPI DUP3 ADD MLOAD SWAP1 DUP2 ISZERO ISZERO DUP3 SUB PUSH2 0x1F8A JUMPI POP DUP1 PUSH0 DUP1 DUP5 PUSH2 0x1F02 JUMP JUMPDEST DUP1 REVERT JUMPDEST POP DUP1 REVERT JUMPDEST PUSH1 0x60 SWAP2 JUMPDEST SWAP2 SWAP3 SWAP1 ISZERO PUSH2 0x1FF7 JUMPI POP DUP2 MLOAD ISZERO PUSH2 0x1FA9 JUMPI POP SWAP1 JUMP JUMPDEST EXTCODESIZE ISZERO PUSH2 0x1FB2 JUMPI SWAP1 JUMP JUMPDEST PUSH1 0x40 MLOAD PUSH3 0x461BCD PUSH1 0xE5 SHL DUP2 MSTORE PUSH1 0x20 PUSH1 0x4 DUP3 ADD MSTORE PUSH1 0x1D PUSH1 0x24 DUP3 ADD MSTORE PUSH32 0x416464726573733A2063616C6C20746F206E6F6E2D636F6E7472616374000000 PUSH1 0x44 DUP3 ADD MSTORE PUSH1 0x64 SWAP1 REVERT JUMPDEST DUP3 MLOAD SWAP1 SWAP2 POP ISZERO PUSH2 0x200A JUMPI POP DUP1 MLOAD SWAP1 PUSH1 0x20 ADD REVERT JUMPDEST PUSH1 0x40 MLOAD PUSH3 0x461BCD PUSH1 0xE5 SHL DUP2 MSTORE PUSH1 0x20 PUSH1 0x4 DUP3 ADD MSTORE SWAP1 DUP2 SWAP1 PUSH2 0xBA0 SWAP1 PUSH1 0x24 DUP4 ADD SWAP1 PUSH2 0x1337 JUMP JUMPDEST SWAP1 SWAP2 SWAP1 PUSH0 SWAP2 JUMPDEST DUP2 MLOAD DUP4 LT ISZERO PUSH2 0x207C JUMPI PUSH1 0x20 DUP1 DUP5 PUSH1 0x5 SHL DUP5 ADD ADD MLOAD SWAP2 PUSH0 DUP4 DUP3 LT PUSH0 EQ PUSH2 0x206B JUMPI POP PUSH0 MSTORE MSTORE PUSH2 0x2065 PUSH1 0x40 PUSH0 KECCAK256 JUMPDEST SWAP3 PUSH2 0x2083 JUMP JUMPDEST SWAP2 PUSH2 0x2034 JUMP JUMPDEST SWAP1 PUSH1 0x40 SWAP3 PUSH2 0x2065 SWAP5 DUP4 MSTORE MSTORE KECCAK256 PUSH2 0x205F JUMP JUMPDEST SWAP2 POP POP EQ SWAP1 JUMP JUMPDEST PUSH0 NOT DUP2 EQ PUSH2 0xC2A JUMPI PUSH1 0x1 ADD SWAP1 JUMP JUMPDEST SWAP2 SWAP1 DUP2 LT ISZERO PUSH2 0x98C JUMPI PUSH1 0x5 SHL ADD SWAP1 JUMP INVALID LOG2 PUSH5 0x6970667358 0x22 SLT KECCAK256 0x2B 0xFB SWAP14 0xBF PUSH22 0xFE681D84D632C62D6A33C3EF5057626728BEF457DD2B 0xF8 0xB3 0x49 PUSH13 0xBD64736F6C634300081400332F DUP8 DUP9 GT PUSH31 0x7EFF1D82E926EC794901D17C78024A50270940304540A733656F0D00000000 "},"methodIdentifiers":{"DEFAULT_ADMIN_ROLE()":"a217fddf","PARAM_ROLE()":"437b8c3d","PAUSE_ROLE()":"389ed267","SWEEP_ROLE()":"8a0d3a6d","claim(uint32,uint256,address,uint256,bytes32[])":"cd53b5ed","claimMany(uint32,uint256[],address[],uint256[],bytes32[][])":"812a66bf","eip712Domain()":"84b0196e","epochs(uint32)":"a4a60394","getRoleAdmin(bytes32)":"248a9ca3","grantRole(bytes32,address)":"2f2ff15d","hasRole(bytes32,address)":"91d14854","isClaimed(uint32,uint256)":"9adf5bfb","oracleSigner()":"1709a61b","pause()":"8456cb59","paused()":"5c975abb","publishEpoch(uint32,bytes32,uint256,bytes)":"1be16d68","renounceRole(bytes32,address)":"36568abe","revokeRole(bytes32,address)":"d547741f","rewardToken()":"f7c618c1","setOracleSigner(address)":"28bff9db","supportsInterface(bytes4)":"01ffc9a7","sweepERC20(address,address,uint256)":"503690d1","unpause()":"3f4ba83a"}}}}}