{"project/contracts/ArcadeProAvatarV2.sol":{"ArcadeProAvatarV2":{"abi":[{"inputs":[{"internalType":"address","name":"_owner","type":"address"}],"stateMutability":"nonpayable","type":"constructor"},{"anonymous":false,"inputs":[{"indexed":true,"internalType":"address","name":"owner","type":"address"},{"indexed":true,"internalType":"address","name":"spender","type":"address"},{"indexed":true,"internalType":"uint256","name":"id","type":"uint256"}],"name":"Approval","type":"event"},{"anonymous":false,"inputs":[{"indexed":true,"internalType":"address","name":"owner","type":"address"},{"indexed":true,"internalType":"address","name":"operator","type":"address"},{"indexed":false,"internalType":"bool","name":"approved","type":"bool"}],"name":"ApprovalForAll","type":"event"},{"anonymous":false,"inputs":[{"indexed":false,"internalType":"uint64","name":"cutoff","type":"uint64"}],"name":"LifetimeCutoffSet","type":"event"},{"anonymous":false,"inputs":[{"indexed":true,"internalType":"address","name":"previousOwner","type":"address"},{"indexed":true,"internalType":"address","name":"newOwner","type":"address"}],"name":"OwnershipTransferred","type":"event"},{"anonymous":false,"inputs":[{"indexed":true,"internalType":"address","name":"user","type":"address"},{"indexed":true,"internalType":"uint256","name":"tokenId","type":"uint256"},{"indexed":false,"internalType":"uint8","name":"tier","type":"uint8"},{"indexed":false,"internalType":"uint64","name":"expiresAt","type":"uint64"},{"indexed":false,"internalType":"string","name":"nickname","type":"string"}],"name":"ProMinted","type":"event"},{"anonymous":false,"inputs":[{"indexed":true,"internalType":"address","name":"user","type":"address"},{"indexed":true,"internalType":"uint256","name":"tokenId","type":"uint256"},{"indexed":false,"internalType":"uint8","name":"tier","type":"uint8"},{"indexed":false,"internalType":"uint64","name":"expiresAt","type":"uint64"}],"name":"ProRenewed","type":"event"},{"anonymous":false,"inputs":[{"indexed":true,"internalType":"address","name":"router","type":"address"}],"name":"RouterSet","type":"event"},{"anonymous":false,"inputs":[{"indexed":true,"internalType":"address","name":"from","type":"address"},{"indexed":true,"internalType":"address","name":"to","type":"address"},{"indexed":true,"internalType":"uint256","name":"id","type":"uint256"}],"name":"Transfer","type":"event"},{"anonymous":false,"inputs":[{"indexed":false,"internalType":"bool","name":"unlocked","type":"bool"}],"name":"TransfersUnlockedSet","type":"event"},{"inputs":[{"internalType":"address","name":"spender","type":"address"},{"internalType":"uint256","name":"id","type":"uint256"}],"name":"approve","outputs":[],"stateMutability":"nonpayable","type":"function"},{"inputs":[{"internalType":"address","name":"owner_","type":"address"}],"name":"balanceOf","outputs":[{"internalType":"uint256","name":"","type":"uint256"}],"stateMutability":"view","type":"function"},{"inputs":[{"internalType":"uint256","name":"","type":"uint256"}],"name":"dnaHashById","outputs":[{"internalType":"bytes32","name":"","type":"bytes32"}],"stateMutability":"view","type":"function"},{"inputs":[{"internalType":"uint256","name":"","type":"uint256"}],"name":"getApproved","outputs":[{"internalType":"address","name":"","type":"address"}],"stateMutability":"view","type":"function"},{"inputs":[{"internalType":"address","name":"","type":"address"},{"internalType":"address","name":"","type":"address"}],"name":"isApprovedForAll","outputs":[{"internalType":"bool","name":"","type":"bool"}],"stateMutability":"view","type":"function"},{"inputs":[{"internalType":"address","name":"user","type":"address"}],"name":"isProActive","outputs":[{"internalType":"bool","name":"","type":"bool"}],"stateMutability":"view","type":"function"},{"inputs":[],"name":"lifetimeCutoff","outputs":[{"internalType":"uint64","name":"","type":"uint64"}],"stateMutability":"view","type":"function"},{"inputs":[{"internalType":"uint256","name":"","type":"uint256"}],"name":"membershipExpiresAtById","outputs":[{"internalType":"uint64","name":"","type":"uint64"}],"stateMutability":"view","type":"function"},{"inputs":[{"internalType":"uint256","name":"","type":"uint256"}],"name":"membershipTierById","outputs":[{"internalType":"uint8","name":"","type":"uint8"}],"stateMutability":"view","type":"function"},{"inputs":[{"internalType":"address","name":"to","type":"address"},{"internalType":"uint8","name":"tier","type":"uint8"},{"internalType":"string","name":"_tokenURI","type":"string"},{"internalType":"bytes32","name":"dnaHash","type":"bytes32"},{"internalType":"string","name":"nickname","type":"string"}],"name":"mintFromRouter","outputs":[{"internalType":"uint256","name":"tokenId","type":"uint256"}],"stateMutability":"nonpayable","type":"function"},{"inputs":[],"name":"name","outputs":[{"internalType":"string","name":"","type":"string"}],"stateMutability":"view","type":"function"},{"inputs":[],"name":"nextTokenId","outputs":[{"internalType":"uint256","name":"","type":"uint256"}],"stateMutability":"view","type":"function"},{"inputs":[{"internalType":"uint256","name":"","type":"uint256"}],"name":"nicknameById","outputs":[{"internalType":"string","name":"","type":"string"}],"stateMutability":"view","type":"function"},{"inputs":[],"name":"owner","outputs":[{"internalType":"address","name":"","type":"address"}],"stateMutability":"view","type":"function"},{"inputs":[{"internalType":"uint256","name":"id","type":"uint256"}],"name":"ownerOf","outputs":[{"internalType":"address","name":"owner_","type":"address"}],"stateMutability":"view","type":"function"},{"inputs":[],"name":"paymentsRouter","outputs":[{"internalType":"address","name":"","type":"address"}],"stateMutability":"view","type":"function"},{"inputs":[{"internalType":"address","name":"user","type":"address"}],"name":"proStatus","outputs":[{"internalType":"uint256","name":"tokenId","type":"uint256"},{"internalType":"uint8","name":"tier","type":"uint8"},{"internalType":"uint64","name":"expiresAt","type":"uint64"},{"internalType":"bool","name":"active","type":"bool"}],"stateMutability":"view","type":"function"},{"inputs":[{"internalType":"address","name":"user","type":"address"},{"internalType":"uint8","name":"tier","type":"uint8"}],"name":"renewFromRouter","outputs":[{"internalType":"uint64","name":"newExpiresAt","type":"uint64"}],"stateMutability":"nonpayable","type":"function"},{"inputs":[],"name":"renounceOwnership","outputs":[],"stateMutability":"nonpayable","type":"function"},{"inputs":[{"internalType":"address","name":"operator","type":"address"},{"internalType":"bool","name":"approved","type":"bool"}],"name":"setApprovalForAll","outputs":[],"stateMutability":"nonpayable","type":"function"},{"inputs":[{"internalType":"uint64","name":"cutoff","type":"uint64"}],"name":"setLifetimeCutoff","outputs":[],"stateMutability":"nonpayable","type":"function"},{"inputs":[{"internalType":"address","name":"router","type":"address"}],"name":"setPaymentsRouter","outputs":[],"stateMutability":"nonpayable","type":"function"},{"inputs":[{"internalType":"bool","name":"unlocked","type":"bool"}],"name":"setTransfersUnlocked","outputs":[],"stateMutability":"nonpayable","type":"function"},{"inputs":[],"name":"symbol","outputs":[{"internalType":"string","name":"","type":"string"}],"stateMutability":"view","type":"function"},{"inputs":[{"internalType":"address","name":"","type":"address"}],"name":"tokenIdByOwner","outputs":[{"internalType":"uint256","name":"","type":"uint256"}],"stateMutability":"view","type":"function"},{"inputs":[{"internalType":"uint256","name":"id","type":"uint256"}],"name":"tokenURI","outputs":[{"internalType":"string","name":"","type":"string"}],"stateMutability":"view","type":"function"},{"inputs":[{"internalType":"uint256","name":"","type":"uint256"}],"name":"tokenURIById","outputs":[{"internalType":"string","name":"","type":"string"}],"stateMutability":"view","type":"function"},{"inputs":[{"internalType":"address","name":"from","type":"address"},{"internalType":"address","name":"to","type":"address"},{"internalType":"uint256","name":"id","type":"uint256"}],"name":"transferFrom","outputs":[],"stateMutability":"nonpayable","type":"function"},{"inputs":[{"internalType":"address","name":"newOwner","type":"address"}],"name":"transferOwnership","outputs":[],"stateMutability":"nonpayable","type":"function"},{"inputs":[],"name":"transfersUnlocked","outputs":[{"internalType":"bool","name":"","type":"bool"}],"stateMutability":"view","type":"function"}],"evm":{"bytecode":{"linkReferences":{},"object":"6080346200019857601f620019c238819003918201601f19168301916001600160401b038311848410176200019c578084926020946040528339810103126200019857516001600160a01b03811680820362000198576200006033620001eb565b60016200006e8154620001b0565b601f811162000167575b507f4172636164652050524f2041766174617220287632290000000000000000002c8155600254620000aa90620001b0565b601f811162000135575b50600a644150524f4160d81b01600255600755600e8054600160a81b600160e81b03191662d2f7e960af1b179055156200010357620000f390620001eb565b6040516117909081620002328239f35b60405162461bcd60e51b815260206004820152600a6024820152692d22a927afa7aba722a960b11b6044820152606490fd5b5f6002815282601f60208320930160051c8301925b8381106200015b57505050620000b4565b8281550183906200014a565b5f82815282601f60208320930160051c8301925b8381106200018c5750505062000078565b8281550183906200017b565b5f80fd5b634e487b7160e01b5f52604160045260245ffd5b90600182811c92168015620001e0575b6020831014620001cc57565b634e487b7160e01b5f52602260045260245ffd5b91607f1691620001c0565b5f80546001600160a01b039283166001600160a01b03198216811783559216907f8be0079c531659141344cd1fd0a4f28419497f9722a3daafe3b4186f6b6457e09080a356fe6080806040526004361015610012575f80fd5b5f3560e01c90816306fdde031461123a57508063081812fc14611208578063095ea7b3146111475780630c54561c1461111f578063167e007c146110fa57806316a9d9a11461107357806323b872dd14610ecc57806340d2a4f114610ea257806351dc4e4114610e7557806352c32f8e14610e095780635c64fbc6146108da5780636352211e146108aa57806370a082311461083a578063715018a6146107e357806375794a3c146107c6578063795bf1471461079c57806381317479146107695780638da5cb5b14610742578063918f65ba146106dc57806395d89b41146105e5578063a22cb46514610553578063b8ea017014610506578063bd8ff6ba146104ce578063c87b56dd14610482578063d8d07e0314610459578063d9e1a6ff1461042c578063e57d9158146102b7578063e985e9c514610265578063f2fde38b146101a45763f571317114610166575f80fd5b346101a05760203660031901126101a0576004355f52600960205261019c61019060405f20611330565b604051918291826113df565b0390f35b5f80fd5b346101a05760203660031901126101a0576101bd611426565b6101c561148f565b6001600160a01b03908116908115610211575f54826001600160601b0360a01b8216175f55167f8be0079c531659141344cd1fd0a4f28419497f9722a3daafe3b4186f6b6457e05f80a3005b60405162461bcd60e51b815260206004820152602660248201527f4f776e61626c653a206e6577206f776e657220697320746865207a65726f206160448201526564647265737360d01b6064820152608490fd5b346101a05760403660031901126101a05761027e611426565b61028661143c565b9060018060a01b038091165f52600660205260405f2091165f52602052602060ff60405f2054166040519015158152f35b346101a05760403660031901126101a0576102d0611426565b6102d8611452565b600e5490916001600160a01b03916102f3908316331461167d565b169081156103fb57815f526020916008835260405f20549081156103cb577fa01f2116ef0c12e07df13a8e5fb0c52ed26e90e9969a1b2488dff8ae1363c667604060ff85166001811015806103c0575b61034c906116b6565b845f52600d87526103766001600160401b039687845f2054168842168082106103b8575b506116ed565b95855f52600c8852825f208260ff19825416179055600d8852825f20961695866001600160401b031982541617905581519081528587820152a3604051908152f35b90508a610370565b506003811115610343565b60405162461bcd60e51b81526004810185905260086024820152672727afaa27a5a2a760c11b6044820152606490fd5b60405162461bcd60e51b81526020600482015260096024820152682d22a927afaaa9a2a960b91b6044820152606490fd5b346101a05760203660031901126101a057602061044f61044a611426565b6115ea565b6040519015158152f35b346101a0575f3660031901126101a05760206001600160401b03600e5460a81c16604051908152f35b346101a05760203660031901126101a0576004355f818152600360205260409020546104b8906001600160a01b031615156114e6565b5f52600960205261019c61019060405f20611330565b346101a05760203660031901126101a0576001600160a01b036104ef611426565b165f526008602052602060405f2054604051908152f35b346101a05760203660031901126101a057608060ff6001600160401b0361053361052e611426565b61162a565b939294909160405195865216602085015216604083015215156060820152f35b346101a05760403660031901126101a05761056c611426565b6024358015158091036101a05761058a60ff600e5460a01c16611544565b335f52600660205260405f209160018060a01b031691825f5260205260405f2060ff1981541660ff83161790556040519081527f17307eab39ab6107e8899845ad3d59bd9653f200f220920489ca2b5937696c3160203392a3005b346101a0575f3660031901126101a0576040515f600254610605816112f8565b808452906001908181169081156106be5750600114610663575b5050819003601f01601f19168101906001600160401b0382118183101761064f5761019c829182604052826113df565b634e487b7160e01b5f52604160045260245ffd5b60025f9081529192507f405787fa12a823e0f2b7631cc41b3ba8828b3321ca811111fa75cd3aa3bb5ace5b8383106106a557505060209150820101828061061f565b818160209294939454838589010152019101919061068e565b9150506020925060ff191682840152151560051b820101828061061f565b346101a05760203660031901126101a0576106f5611426565b6106fd61148f565b600e80546001600160a01b0319166001600160a01b039290921691821790557fc6b438e6a8a59579ce6a4406cbd203b740e0d47b458aae6596339bcd40c40d155f80a2005b346101a0575f3660031901126101a0575f546040516001600160a01b039091168152602090f35b346101a05760203660031901126101a0576004355f52600d60205260206001600160401b0360405f205416604051908152f35b346101a05760203660031901126101a0576004355f52600a602052602060405f2054604051908152f35b346101a0575f3660031901126101a0576020600754604051908152f35b346101a0575f3660031901126101a0576107fb61148f565b5f80546001600160a01b0319811682556001600160a01b03167f8be0079c531659141344cd1fd0a4f28419497f9722a3daafe3b4186f6b6457e08280a3005b346101a05760203660031901126101a0576001600160a01b0361085b611426565b168015610878575f526004602052602060405f2054604051908152f35b60405162461bcd60e51b815260206004820152600a6024820152692d22a927afa7aba722a960b11b6044820152606490fd5b346101a05760203660031901126101a05760206108c860043561151f565b6040516001600160a01b039091168152f35b346101a05760a03660031901126101a0576108f3611426565b6108fb611452565b6044356001600160401b0381116101a05761091a903690600401611462565b906084356001600160401b0381116101a05761093a903690600401611462565b600e54919590926001600160a01b0392610957908416331461167d565b828216151594610966866115b4565b8383165f52600860205260405f2054610dd057600160ff8816101580610dc2575b610990906116b6565b60188511610d8d57600754955f198714610d795760018701600755610d1b575b8383165f526004602052600160405f2055855f52600360205260405f208484166001600160601b0360a01b825416179055600960205260405f20916001600160401b03821161064f578190610a0584546112f8565b601f8111610cce575b505f90601f8311600114610c68575f92610c5d575b50508160011b915f199060031b1c19161790555b835f52600a60205260643560405f2055600b60205260405f20956001600160401b03841161064f57610a6987546112f8565b96601f8811610c18575b602097505f601f8611600114610b8a579360ff9386608094899a94827f6ab68b1c0b0e460c175ce854fbdea97c1604ae10d463d148af6d4e35d5b597b4995f91610b7f575b508360011b905f198560031b1c19161790555b895f52600c8c5260405f208786168819825416179055610af4856001600160401b0342166116ed565b8a5f52600d8d526001600160401b0360405f20911690816001600160401b03198254161790556040519788968c8787165f7fddf252ad1be2c89b69c2b068fc378daa952ba7f163c4a11628f55a4df523b3ef8180a41686528c86015260606040860152816060860152858501375f8388018501521694601f01601f19168101030190a3604051908152f35b90508201358e610ab8565b815f52885f20905f5b601f1988168110610c0157509386608094899a947f6ab68b1c0b0e460c175ce854fbdea97c1604ae10d463d148af6d4e35d5b597b4989460ff9884601f19811610610be8575b5050600183811b019055610acb565b8301355f19600386901b60f8161c191690558d80610bd9565b90918a600181928588013581550193019101610b93565b805f5260205f20601f860160051c81019860208710610c53575b601f0160051c01975b888110610c485750610a73565b5f8155600101610c3b565b9098508890610c32565b013590508980610a23565b5f85815260208120909450915b601f1984168510610cb6576001945083601f19811610610c9d575b505050811b019055610a37565b01355f19600384901b60f8161c19169055898080610c90565b81810135835560209485019460019093019201610c75565b909150835f5260205f20601f840160051c810160208510610d14575b90849392915b601f830160051c82018110610d06575050610a0e565b5f8155859450600101610cf0565b5080610cea565b8383165f52600860205260405f2054610d43578383165f5260086020528560405f20556109b0565b60405162461bcd60e51b815260206004820152600e60248201526d13d39157d4115497d5d05313115560921b6044820152606490fd5b634e487b7160e01b5f52601160045260245ffd5b60405162461bcd60e51b815260206004820152600d60248201526c4e49434b5f544f4f5f4c4f4e4760981b6044820152606490fd5b50600360ff88161115610987565b60405162461bcd60e51b815260206004820152601160248201527020a62922a0a22cafa420a9afaa27a5a2a760791b6044820152606490fd5b346101a05760203660031901126101a0576004358015158091036101a05760207f5ad6a2e28a542fbae239a8d245afa768672fa20487c8e88bc75916624d497a4291610e5361148f565b600e805460ff60a01b191660a083901b60ff60a01b16179055604051908152a1005b346101a05760203660031901126101a0576004355f52600c602052602060ff60405f205416604051908152f35b346101a05760203660031901126101a0576004355f52600b60205261019c61019060405f20611330565b346101a05760603660031901126101a057610ee5611426565b610eed61143c565b60443591610f0260ff600e5460a01c16611544565b6001600160a01b03918280610f168661151f565b1692169182036110415782169182151590610f30826115b4565b823314908115611029575b508015611004575b610f4c9061157d565b81610ff1575b610fcd575b805f52600460205260405f205f198154019055815f5260405f2060018154019055825f52600360205260405f206001600160601b0360a01b908382825416179055600560205260405f209081541690557fddf252ad1be2c89b69c2b068fc378daa952ba7f163c4a11628f55a4df523b3ef5f80a4005b815f52600860205260405f2054610d4357815f5260086020528260405f2055610f57565b815f5260086020525f6040812055610f52565b50815f52600660205260405f20335f52602052610f4c60ff60405f2054169050610f43565b9050845f52600560205260405f205416331485610f3b565b60405162461bcd60e51b815260206004820152600a60248201526957524f4e475f46524f4d60b01b6044820152606490fd5b346101a05760203660031901126101a0576004356001600160401b038116908181036101a0577f094f1b4e6b329280c967b399748e86c1b3e4bb2fc3ca959e91ad28fc5801dd01916020916110c661148f565b600e805467ffffffffffffffff60a81b191660a89290921b67ffffffffffffffff60a81b16919091179055604051908152a1005b346101a0575f3660031901126101a057602060ff600e5460a01c166040519015158152f35b346101a0575f3660031901126101a057600e546040516001600160a01b039091168152602090f35b346101a05760403660031901126101a057611160611426565b6024359061117560ff600e5460a01c16611544565b6001600160a01b03806111878461151f565b169081331480156111e3575b61119c9061157d565b835f52600560205260405f20921691826001600160601b0360a01b8254161790557f8c5be1e5ebec7d5bd14f71427d1e84f3dd0314c0f7b2291e5b200ac8c7c3b9255f80a4005b50815f52600660205260405f20335f5260205261119c60ff60405f2054169050611193565b346101a05760203660031901126101a0576004355f526005602052602060018060a01b0360405f205416604051908152f35b346101a0575f3660031901126101a0575f6001805490611259826112f8565b808552918181169081156106be575060011461129f575050819003601f01601f19168101906001600160401b0382118183101761064f5761019c829182604052826113df565b5f8181529192507fb10e2d527612073b26eecdfd717e6a320cf44b4afac2b0732d9fcbe2b7fa0cf65b8383106112df57505060209150820101828061061f565b81816020929493945483858901015201910191906112c8565b90600182811c92168015611326575b602083101461131257565b634e487b7160e01b5f52602260045260245ffd5b91607f1691611307565b90604051915f90805490611343826112f8565b9081865260019283811690815f146113be5750600114611384575b505050829003601f01601f191682016001600160401b0381118382101761064f57604052565b9092505f52602091825f2091835f935b8385106113aa57505050508301015f808061135e565b805488860183015293019284908201611394565b92935050506020925060ff191682850152151560051b8301015f808061135e565b602080825282518183018190529093925f5b82811061141257505060409293505f838284010152601f8019910116010190565b8181018601518482016040015285016113f1565b600435906001600160a01b03821682036101a057565b602435906001600160a01b03821682036101a057565b6024359060ff821682036101a057565b9181601f840112156101a0578235916001600160401b0383116101a057602083818601950101116101a057565b5f546001600160a01b031633036114a257565b606460405162461bcd60e51b815260206004820152602060248201527f4f776e61626c653a2063616c6c6572206973206e6f7420746865206f776e65726044820152fd5b156114ed57565b60405162461bcd60e51b815260206004820152600a6024820152691393d517d3525395115160b21b6044820152606490fd5b5f908152600360205260409020546001600160a01b0316906115428215156114e6565b565b1561154b57565b60405162461bcd60e51b815260206004820152600a60248201526914d09517d313d0d2d15160b21b6044820152606490fd5b1561158457565b60405162461bcd60e51b815260206004820152600860248201526709c9ea8be82aaa8960c31b6044820152606490fd5b156115bb57565b60405162461bcd60e51b81526020600482015260076024820152665a45524f5f544f60c81b6044820152606490fd5b6001600160a01b03165f908152600860205260409020548015611625575f52600d6020526001600160401b038060405f205416904216111590565b505f90565b6001600160a01b03165f9081526008602052604081205491821561167757604090838352600c60205260ff828420541692600d6020526001600160401b0392839120541691421682101590565b81908190565b1561168457565b60405162461bcd60e51b815260206004820152600a6024820152692727aa2fa927aaaa22a960b11b6044820152606490fd5b156116bd57565b60405162461bcd60e51b81526020600482015260086024820152672120a22faa24a2a960c11b6044820152606490fd5b9060ff166001811490811561174f575b50611735576001600160401b039081600e5460a81c16808342161061172f575081166301e1338001908111610d795790565b91505090565b62278d006001600160401b0380921601908111610d795790565b60029150145f6116fd56fea2646970667358221220d370198486b622cf4b693b68edc322fa7d68624b60c491f24fed62d9900d1f6364736f6c63430008140033","opcodes":"PUSH1 0x80 CALLVALUE PUSH3 0x198 JUMPI PUSH1 0x1F PUSH3 0x19C2 CODESIZE DUP2 SWAP1 SUB SWAP2 DUP3 ADD PUSH1 0x1F NOT AND DUP4 ADD SWAP2 PUSH1 0x1 PUSH1 0x1 PUSH1 0x40 SHL SUB DUP4 GT DUP5 DUP5 LT OR PUSH3 0x19C JUMPI DUP1 DUP5 SWAP3 PUSH1 0x20 SWAP5 PUSH1 0x40 MSTORE DUP4 CODECOPY DUP2 ADD SUB SLT PUSH3 0x198 JUMPI MLOAD PUSH1 0x1 PUSH1 0x1 PUSH1 0xA0 SHL SUB DUP2 AND DUP1 DUP3 SUB PUSH3 0x198 JUMPI PUSH3 0x60 CALLER PUSH3 0x1EB JUMP JUMPDEST PUSH1 0x1 PUSH3 0x6E DUP2 SLOAD PUSH3 0x1B0 JUMP JUMPDEST PUSH1 0x1F DUP2 GT PUSH3 0x167 JUMPI JUMPDEST POP PUSH32 0x4172636164652050524F2041766174617220287632290000000000000000002C DUP2 SSTORE PUSH1 0x2 SLOAD PUSH3 0xAA SWAP1 PUSH3 0x1B0 JUMP JUMPDEST PUSH1 0x1F DUP2 GT PUSH3 0x135 JUMPI JUMPDEST POP PUSH1 0xA PUSH5 0x4150524F41 PUSH1 0xD8 SHL ADD PUSH1 0x2 SSTORE PUSH1 0x7 SSTORE PUSH1 0xE DUP1 SLOAD PUSH1 0x1 PUSH1 0xA8 SHL PUSH1 0x1 PUSH1 0xE8 SHL SUB NOT AND PUSH3 0xD2F7E9 PUSH1 0xAF SHL OR SWAP1 SSTORE ISZERO PUSH3 0x103 JUMPI PUSH3 0xF3 SWAP1 PUSH3 0x1EB JUMP JUMPDEST PUSH1 0x40 MLOAD PUSH2 0x1790 SWAP1 DUP2 PUSH3 0x232 DUP3 CODECOPY RETURN JUMPDEST PUSH1 0x40 MLOAD PUSH3 0x461BCD PUSH1 0xE5 SHL DUP2 MSTORE PUSH1 0x20 PUSH1 0x4 DUP3 ADD MSTORE PUSH1 0xA PUSH1 0x24 DUP3 ADD MSTORE PUSH10 0x2D22A927AFA7ABA722A9 PUSH1 0xB1 SHL PUSH1 0x44 DUP3 ADD MSTORE PUSH1 0x64 SWAP1 REVERT JUMPDEST PUSH0 PUSH1 0x2 DUP2 MSTORE DUP3 PUSH1 0x1F PUSH1 0x20 DUP4 KECCAK256 SWAP4 ADD PUSH1 0x5 SHR DUP4 ADD SWAP3 JUMPDEST DUP4 DUP2 LT PUSH3 0x15B JUMPI POP POP POP PUSH3 0xB4 JUMP JUMPDEST DUP3 DUP2 SSTORE ADD DUP4 SWAP1 PUSH3 0x14A JUMP JUMPDEST PUSH0 DUP3 DUP2 MSTORE DUP3 PUSH1 0x1F PUSH1 0x20 DUP4 KECCAK256 SWAP4 ADD PUSH1 0x5 SHR DUP4 ADD SWAP3 JUMPDEST DUP4 DUP2 LT PUSH3 0x18C JUMPI POP POP POP PUSH3 0x78 JUMP JUMPDEST DUP3 DUP2 SSTORE ADD DUP4 SWAP1 PUSH3 0x17B JUMP JUMPDEST PUSH0 DUP1 REVERT JUMPDEST PUSH4 0x4E487B71 PUSH1 0xE0 SHL PUSH0 MSTORE PUSH1 0x41 PUSH1 0x4 MSTORE PUSH1 0x24 PUSH0 REVERT JUMPDEST SWAP1 PUSH1 0x1 DUP3 DUP2 SHR SWAP3 AND DUP1 ISZERO PUSH3 0x1E0 JUMPI JUMPDEST PUSH1 0x20 DUP4 LT EQ PUSH3 0x1CC JUMPI JUMP JUMPDEST PUSH4 0x4E487B71 PUSH1 0xE0 SHL PUSH0 MSTORE PUSH1 0x22 PUSH1 0x4 MSTORE PUSH1 0x24 PUSH0 REVERT JUMPDEST SWAP2 PUSH1 0x7F AND SWAP2 PUSH3 0x1C0 JUMP JUMPDEST PUSH0 DUP1 SLOAD PUSH1 0x1 PUSH1 0x1 PUSH1 0xA0 SHL SUB SWAP3 DUP4 AND PUSH1 0x1 PUSH1 0x1 PUSH1 0xA0 SHL SUB NOT DUP3 AND DUP2 OR DUP4 SSTORE SWAP3 AND SWAP1 PUSH32 0x8BE0079C531659141344CD1FD0A4F28419497F9722A3DAAFE3B4186F6B6457E0 SWAP1 DUP1 LOG3 JUMP INVALID PUSH1 0x80 DUP1 PUSH1 0x40 MSTORE PUSH1 0x4 CALLDATASIZE LT ISZERO PUSH2 0x12 JUMPI PUSH0 DUP1 REVERT JUMPDEST PUSH0 CALLDATALOAD PUSH1 0xE0 SHR SWAP1 DUP2 PUSH4 0x6FDDE03 EQ PUSH2 0x123A JUMPI POP DUP1 PUSH4 0x81812FC EQ PUSH2 0x1208 JUMPI DUP1 PUSH4 0x95EA7B3 EQ PUSH2 0x1147 JUMPI DUP1 PUSH4 0xC54561C EQ PUSH2 0x111F JUMPI DUP1 PUSH4 0x167E007C EQ PUSH2 0x10FA JUMPI DUP1 PUSH4 0x16A9D9A1 EQ PUSH2 0x1073 JUMPI DUP1 PUSH4 0x23B872DD EQ PUSH2 0xECC JUMPI DUP1 PUSH4 0x40D2A4F1 EQ PUSH2 0xEA2 JUMPI DUP1 PUSH4 0x51DC4E41 EQ PUSH2 0xE75 JUMPI DUP1 PUSH4 0x52C32F8E EQ PUSH2 0xE09 JUMPI DUP1 PUSH4 0x5C64FBC6 EQ PUSH2 0x8DA JUMPI DUP1 PUSH4 0x6352211E EQ PUSH2 0x8AA JUMPI DUP1 PUSH4 0x70A08231 EQ PUSH2 0x83A JUMPI DUP1 PUSH4 0x715018A6 EQ PUSH2 0x7E3 JUMPI DUP1 PUSH4 0x75794A3C EQ PUSH2 0x7C6 JUMPI DUP1 PUSH4 0x795BF147 EQ PUSH2 0x79C JUMPI DUP1 PUSH4 0x81317479 EQ PUSH2 0x769 JUMPI DUP1 PUSH4 0x8DA5CB5B EQ PUSH2 0x742 JUMPI DUP1 PUSH4 0x918F65BA EQ PUSH2 0x6DC JUMPI DUP1 PUSH4 0x95D89B41 EQ PUSH2 0x5E5 JUMPI DUP1 PUSH4 0xA22CB465 EQ PUSH2 0x553 JUMPI DUP1 PUSH4 0xB8EA0170 EQ PUSH2 0x506 JUMPI DUP1 PUSH4 0xBD8FF6BA EQ PUSH2 0x4CE JUMPI DUP1 PUSH4 0xC87B56DD EQ PUSH2 0x482 JUMPI DUP1 PUSH4 0xD8D07E03 EQ PUSH2 0x459 JUMPI DUP1 PUSH4 0xD9E1A6FF EQ PUSH2 0x42C JUMPI DUP1 PUSH4 0xE57D9158 EQ PUSH2 0x2B7 JUMPI DUP1 PUSH4 0xE985E9C5 EQ PUSH2 0x265 JUMPI DUP1 PUSH4 0xF2FDE38B EQ PUSH2 0x1A4 JUMPI PUSH4 0xF5713171 EQ PUSH2 0x166 JUMPI PUSH0 DUP1 REVERT JUMPDEST CALLVALUE PUSH2 0x1A0 JUMPI PUSH1 0x20 CALLDATASIZE PUSH1 0x3 NOT ADD SLT PUSH2 0x1A0 JUMPI PUSH1 0x4 CALLDATALOAD PUSH0 MSTORE PUSH1 0x9 PUSH1 0x20 MSTORE PUSH2 0x19C PUSH2 0x190 PUSH1 0x40 PUSH0 KECCAK256 PUSH2 0x1330 JUMP JUMPDEST PUSH1 0x40 MLOAD SWAP2 DUP3 SWAP2 DUP3 PUSH2 0x13DF JUMP JUMPDEST SUB SWAP1 RETURN JUMPDEST PUSH0 DUP1 REVERT JUMPDEST CALLVALUE PUSH2 0x1A0 JUMPI PUSH1 0x20 CALLDATASIZE PUSH1 0x3 NOT ADD SLT PUSH2 0x1A0 JUMPI PUSH2 0x1BD PUSH2 0x1426 JUMP JUMPDEST PUSH2 0x1C5 PUSH2 0x148F JUMP JUMPDEST PUSH1 0x1 PUSH1 0x1 PUSH1 0xA0 SHL SUB SWAP1 DUP2 AND SWAP1 DUP2 ISZERO PUSH2 0x211 JUMPI PUSH0 SLOAD DUP3 PUSH1 0x1 PUSH1 0x1 PUSH1 0x60 SHL SUB PUSH1 0xA0 SHL DUP3 AND OR PUSH0 SSTORE AND PUSH32 0x8BE0079C531659141344CD1FD0A4F28419497F9722A3DAAFE3B4186F6B6457E0 PUSH0 DUP1 LOG3 STOP JUMPDEST PUSH1 0x40 MLOAD PUSH3 0x461BCD PUSH1 0xE5 SHL DUP2 MSTORE PUSH1 0x20 PUSH1 0x4 DUP3 ADD MSTORE PUSH1 0x26 PUSH1 0x24 DUP3 ADD MSTORE PUSH32 0x4F776E61626C653A206E6577206F776E657220697320746865207A65726F2061 PUSH1 0x44 DUP3 ADD MSTORE PUSH6 0x646472657373 PUSH1 0xD0 SHL PUSH1 0x64 DUP3 ADD MSTORE PUSH1 0x84 SWAP1 REVERT JUMPDEST CALLVALUE PUSH2 0x1A0 JUMPI PUSH1 0x40 CALLDATASIZE PUSH1 0x3 NOT ADD SLT PUSH2 0x1A0 JUMPI PUSH2 0x27E PUSH2 0x1426 JUMP JUMPDEST PUSH2 0x286 PUSH2 0x143C JUMP JUMPDEST SWAP1 PUSH1 0x1 DUP1 PUSH1 0xA0 SHL SUB DUP1 SWAP2 AND PUSH0 MSTORE PUSH1 0x6 PUSH1 0x20 MSTORE PUSH1 0x40 PUSH0 KECCAK256 SWAP2 AND PUSH0 MSTORE PUSH1 0x20 MSTORE PUSH1 0x20 PUSH1 0xFF PUSH1 0x40 PUSH0 KECCAK256 SLOAD AND PUSH1 0x40 MLOAD SWAP1 ISZERO ISZERO DUP2 MSTORE RETURN JUMPDEST CALLVALUE PUSH2 0x1A0 JUMPI PUSH1 0x40 CALLDATASIZE PUSH1 0x3 NOT ADD SLT PUSH2 0x1A0 JUMPI PUSH2 0x2D0 PUSH2 0x1426 JUMP JUMPDEST PUSH2 0x2D8 PUSH2 0x1452 JUMP JUMPDEST PUSH1 0xE SLOAD SWAP1 SWAP2 PUSH1 0x1 PUSH1 0x1 PUSH1 0xA0 SHL SUB SWAP2 PUSH2 0x2F3 SWAP1 DUP4 AND CALLER EQ PUSH2 0x167D JUMP JUMPDEST AND SWAP1 DUP2 ISZERO PUSH2 0x3FB JUMPI DUP2 PUSH0 MSTORE PUSH1 0x20 SWAP2 PUSH1 0x8 DUP4 MSTORE PUSH1 0x40 PUSH0 KECCAK256 SLOAD SWAP1 DUP2 ISZERO PUSH2 0x3CB JUMPI PUSH32 0xA01F2116EF0C12E07DF13A8E5FB0C52ED26E90E9969A1B2488DFF8AE1363C667 PUSH1 0x40 PUSH1 0xFF DUP6 AND PUSH1 0x1 DUP2 LT ISZERO DUP1 PUSH2 0x3C0 JUMPI JUMPDEST PUSH2 0x34C SWAP1 PUSH2 0x16B6 JUMP JUMPDEST DUP5 PUSH0 MSTORE PUSH1 0xD DUP8 MSTORE PUSH2 0x376 PUSH1 0x1 PUSH1 0x1 PUSH1 0x40 SHL SUB SWAP7 DUP8 DUP5 PUSH0 KECCAK256 SLOAD AND DUP9 TIMESTAMP AND DUP1 DUP3 LT PUSH2 0x3B8 JUMPI JUMPDEST POP PUSH2 0x16ED JUMP JUMPDEST SWAP6 DUP6 PUSH0 MSTORE PUSH1 0xC DUP9 MSTORE DUP3 PUSH0 KECCAK256 DUP3 PUSH1 0xFF NOT DUP3 SLOAD AND OR SWAP1 SSTORE PUSH1 0xD DUP9 MSTORE DUP3 PUSH0 KECCAK256 SWAP7 AND SWAP6 DUP7 PUSH1 0x1 PUSH1 0x1 PUSH1 0x40 SHL SUB NOT DUP3 SLOAD AND OR SWAP1 SSTORE DUP2 MLOAD SWAP1 DUP2 MSTORE DUP6 DUP8 DUP3 ADD MSTORE LOG3 PUSH1 0x40 MLOAD SWAP1 DUP2 MSTORE RETURN JUMPDEST SWAP1 POP DUP11 PUSH2 0x370 JUMP JUMPDEST POP PUSH1 0x3 DUP2 GT ISZERO PUSH2 0x343 JUMP JUMPDEST PUSH1 0x40 MLOAD PUSH3 0x461BCD PUSH1 0xE5 SHL DUP2 MSTORE PUSH1 0x4 DUP2 ADD DUP6 SWAP1 MSTORE PUSH1 0x8 PUSH1 0x24 DUP3 ADD MSTORE PUSH8 0x2727AFAA27A5A2A7 PUSH1 0xC1 SHL PUSH1 0x44 DUP3 ADD MSTORE PUSH1 0x64 SWAP1 REVERT JUMPDEST PUSH1 0x40 MLOAD PUSH3 0x461BCD PUSH1 0xE5 SHL DUP2 MSTORE PUSH1 0x20 PUSH1 0x4 DUP3 ADD MSTORE PUSH1 0x9 PUSH1 0x24 DUP3 ADD MSTORE PUSH9 0x2D22A927AFAAA9A2A9 PUSH1 0xB9 SHL PUSH1 0x44 DUP3 ADD MSTORE PUSH1 0x64 SWAP1 REVERT JUMPDEST CALLVALUE PUSH2 0x1A0 JUMPI PUSH1 0x20 CALLDATASIZE PUSH1 0x3 NOT ADD SLT PUSH2 0x1A0 JUMPI PUSH1 0x20 PUSH2 0x44F PUSH2 0x44A PUSH2 0x1426 JUMP JUMPDEST PUSH2 0x15EA JUMP JUMPDEST PUSH1 0x40 MLOAD SWAP1 ISZERO ISZERO DUP2 MSTORE RETURN JUMPDEST CALLVALUE PUSH2 0x1A0 JUMPI PUSH0 CALLDATASIZE PUSH1 0x3 NOT ADD SLT PUSH2 0x1A0 JUMPI PUSH1 0x20 PUSH1 0x1 PUSH1 0x1 PUSH1 0x40 SHL SUB PUSH1 0xE SLOAD PUSH1 0xA8 SHR AND PUSH1 0x40 MLOAD SWAP1 DUP2 MSTORE RETURN JUMPDEST CALLVALUE PUSH2 0x1A0 JUMPI PUSH1 0x20 CALLDATASIZE PUSH1 0x3 NOT ADD SLT PUSH2 0x1A0 JUMPI PUSH1 0x4 CALLDATALOAD PUSH0 DUP2 DUP2 MSTORE PUSH1 0x3 PUSH1 0x20 MSTORE PUSH1 0x40 SWAP1 KECCAK256 SLOAD PUSH2 0x4B8 SWAP1 PUSH1 0x1 PUSH1 0x1 PUSH1 0xA0 SHL SUB AND ISZERO ISZERO PUSH2 0x14E6 JUMP JUMPDEST PUSH0 MSTORE PUSH1 0x9 PUSH1 0x20 MSTORE PUSH2 0x19C PUSH2 0x190 PUSH1 0x40 PUSH0 KECCAK256 PUSH2 0x1330 JUMP JUMPDEST CALLVALUE PUSH2 0x1A0 JUMPI PUSH1 0x20 CALLDATASIZE PUSH1 0x3 NOT ADD SLT PUSH2 0x1A0 JUMPI PUSH1 0x1 PUSH1 0x1 PUSH1 0xA0 SHL SUB PUSH2 0x4EF PUSH2 0x1426 JUMP JUMPDEST AND PUSH0 MSTORE PUSH1 0x8 PUSH1 0x20 MSTORE PUSH1 0x20 PUSH1 0x40 PUSH0 KECCAK256 SLOAD PUSH1 0x40 MLOAD SWAP1 DUP2 MSTORE RETURN JUMPDEST CALLVALUE PUSH2 0x1A0 JUMPI PUSH1 0x20 CALLDATASIZE PUSH1 0x3 NOT ADD SLT PUSH2 0x1A0 JUMPI PUSH1 0x80 PUSH1 0xFF PUSH1 0x1 PUSH1 0x1 PUSH1 0x40 SHL SUB PUSH2 0x533 PUSH2 0x52E PUSH2 0x1426 JUMP JUMPDEST PUSH2 0x162A JUMP JUMPDEST SWAP4 SWAP3 SWAP5 SWAP1 SWAP2 PUSH1 0x40 MLOAD SWAP6 DUP7 MSTORE AND PUSH1 0x20 DUP6 ADD MSTORE AND PUSH1 0x40 DUP4 ADD MSTORE ISZERO ISZERO PUSH1 0x60 DUP3 ADD MSTORE RETURN JUMPDEST CALLVALUE PUSH2 0x1A0 JUMPI PUSH1 0x40 CALLDATASIZE PUSH1 0x3 NOT ADD SLT PUSH2 0x1A0 JUMPI PUSH2 0x56C PUSH2 0x1426 JUMP JUMPDEST PUSH1 0x24 CALLDATALOAD DUP1 ISZERO ISZERO DUP1 SWAP2 SUB PUSH2 0x1A0 JUMPI PUSH2 0x58A PUSH1 0xFF PUSH1 0xE SLOAD PUSH1 0xA0 SHR AND PUSH2 0x1544 JUMP JUMPDEST CALLER PUSH0 MSTORE PUSH1 0x6 PUSH1 0x20 MSTORE PUSH1 0x40 PUSH0 KECCAK256 SWAP2 PUSH1 0x1 DUP1 PUSH1 0xA0 SHL SUB AND SWAP2 DUP3 PUSH0 MSTORE PUSH1 0x20 MSTORE PUSH1 0x40 PUSH0 KECCAK256 PUSH1 0xFF NOT DUP2 SLOAD AND PUSH1 0xFF DUP4 AND OR SWAP1 SSTORE PUSH1 0x40 MLOAD SWAP1 DUP2 MSTORE PUSH32 0x17307EAB39AB6107E8899845AD3D59BD9653F200F220920489CA2B5937696C31 PUSH1 0x20 CALLER SWAP3 LOG3 STOP JUMPDEST CALLVALUE PUSH2 0x1A0 JUMPI PUSH0 CALLDATASIZE PUSH1 0x3 NOT ADD SLT PUSH2 0x1A0 JUMPI PUSH1 0x40 MLOAD PUSH0 PUSH1 0x2 SLOAD PUSH2 0x605 DUP2 PUSH2 0x12F8 JUMP JUMPDEST DUP1 DUP5 MSTORE SWAP1 PUSH1 0x1 SWAP1 DUP2 DUP2 AND SWAP1 DUP2 ISZERO PUSH2 0x6BE JUMPI POP PUSH1 0x1 EQ PUSH2 0x663 JUMPI JUMPDEST POP POP DUP2 SWAP1 SUB PUSH1 0x1F ADD PUSH1 0x1F NOT AND DUP2 ADD SWAP1 PUSH1 0x1 PUSH1 0x1 PUSH1 0x40 SHL SUB DUP3 GT DUP2 DUP4 LT OR PUSH2 0x64F JUMPI PUSH2 0x19C DUP3 SWAP2 DUP3 PUSH1 0x40 MSTORE DUP3 PUSH2 0x13DF JUMP JUMPDEST PUSH4 0x4E487B71 PUSH1 0xE0 SHL PUSH0 MSTORE PUSH1 0x41 PUSH1 0x4 MSTORE PUSH1 0x24 PUSH0 REVERT JUMPDEST PUSH1 0x2 PUSH0 SWAP1 DUP2 MSTORE SWAP2 SWAP3 POP PUSH32 0x405787FA12A823E0F2B7631CC41B3BA8828B3321CA811111FA75CD3AA3BB5ACE JUMPDEST DUP4 DUP4 LT PUSH2 0x6A5 JUMPI POP POP PUSH1 0x20 SWAP2 POP DUP3 ADD ADD DUP3 DUP1 PUSH2 0x61F JUMP JUMPDEST DUP2 DUP2 PUSH1 0x20 SWAP3 SWAP5 SWAP4 SWAP5 SLOAD DUP4 DUP6 DUP10 ADD ADD MSTORE ADD SWAP2 ADD SWAP2 SWAP1 PUSH2 0x68E JUMP JUMPDEST SWAP2 POP POP PUSH1 0x20 SWAP3 POP PUSH1 0xFF NOT AND DUP3 DUP5 ADD MSTORE ISZERO ISZERO PUSH1 0x5 SHL DUP3 ADD ADD DUP3 DUP1 PUSH2 0x61F JUMP JUMPDEST CALLVALUE PUSH2 0x1A0 JUMPI PUSH1 0x20 CALLDATASIZE PUSH1 0x3 NOT ADD SLT PUSH2 0x1A0 JUMPI PUSH2 0x6F5 PUSH2 0x1426 JUMP JUMPDEST PUSH2 0x6FD PUSH2 0x148F JUMP JUMPDEST PUSH1 0xE DUP1 SLOAD PUSH1 0x1 PUSH1 0x1 PUSH1 0xA0 SHL SUB NOT AND PUSH1 0x1 PUSH1 0x1 PUSH1 0xA0 SHL SUB SWAP3 SWAP1 SWAP3 AND SWAP2 DUP3 OR SWAP1 SSTORE PUSH32 0xC6B438E6A8A59579CE6A4406CBD203B740E0D47B458AAE6596339BCD40C40D15 PUSH0 DUP1 LOG2 STOP JUMPDEST CALLVALUE PUSH2 0x1A0 JUMPI PUSH0 CALLDATASIZE PUSH1 0x3 NOT ADD SLT PUSH2 0x1A0 JUMPI PUSH0 SLOAD PUSH1 0x40 MLOAD PUSH1 0x1 PUSH1 0x1 PUSH1 0xA0 SHL SUB SWAP1 SWAP2 AND DUP2 MSTORE PUSH1 0x20 SWAP1 RETURN JUMPDEST CALLVALUE PUSH2 0x1A0 JUMPI PUSH1 0x20 CALLDATASIZE PUSH1 0x3 NOT ADD SLT PUSH2 0x1A0 JUMPI PUSH1 0x4 CALLDATALOAD PUSH0 MSTORE PUSH1 0xD PUSH1 0x20 MSTORE PUSH1 0x20 PUSH1 0x1 PUSH1 0x1 PUSH1 0x40 SHL SUB PUSH1 0x40 PUSH0 KECCAK256 SLOAD AND PUSH1 0x40 MLOAD SWAP1 DUP2 MSTORE RETURN JUMPDEST CALLVALUE PUSH2 0x1A0 JUMPI PUSH1 0x20 CALLDATASIZE PUSH1 0x3 NOT ADD SLT PUSH2 0x1A0 JUMPI PUSH1 0x4 CALLDATALOAD PUSH0 MSTORE PUSH1 0xA PUSH1 0x20 MSTORE PUSH1 0x20 PUSH1 0x40 PUSH0 KECCAK256 SLOAD PUSH1 0x40 MLOAD SWAP1 DUP2 MSTORE RETURN JUMPDEST CALLVALUE PUSH2 0x1A0 JUMPI PUSH0 CALLDATASIZE PUSH1 0x3 NOT ADD SLT PUSH2 0x1A0 JUMPI PUSH1 0x20 PUSH1 0x7 SLOAD PUSH1 0x40 MLOAD SWAP1 DUP2 MSTORE RETURN JUMPDEST CALLVALUE PUSH2 0x1A0 JUMPI PUSH0 CALLDATASIZE PUSH1 0x3 NOT ADD SLT PUSH2 0x1A0 JUMPI PUSH2 0x7FB PUSH2 0x148F JUMP JUMPDEST PUSH0 DUP1 SLOAD PUSH1 0x1 PUSH1 0x1 PUSH1 0xA0 SHL SUB NOT DUP2 AND DUP3 SSTORE PUSH1 0x1 PUSH1 0x1 PUSH1 0xA0 SHL SUB AND PUSH32 0x8BE0079C531659141344CD1FD0A4F28419497F9722A3DAAFE3B4186F6B6457E0 DUP3 DUP1 LOG3 STOP JUMPDEST CALLVALUE PUSH2 0x1A0 JUMPI PUSH1 0x20 CALLDATASIZE PUSH1 0x3 NOT ADD SLT PUSH2 0x1A0 JUMPI PUSH1 0x1 PUSH1 0x1 PUSH1 0xA0 SHL SUB PUSH2 0x85B PUSH2 0x1426 JUMP JUMPDEST AND DUP1 ISZERO PUSH2 0x878 JUMPI PUSH0 MSTORE PUSH1 0x4 PUSH1 0x20 MSTORE PUSH1 0x20 PUSH1 0x40 PUSH0 KECCAK256 SLOAD PUSH1 0x40 MLOAD SWAP1 DUP2 MSTORE RETURN JUMPDEST PUSH1 0x40 MLOAD PUSH3 0x461BCD PUSH1 0xE5 SHL DUP2 MSTORE PUSH1 0x20 PUSH1 0x4 DUP3 ADD MSTORE PUSH1 0xA PUSH1 0x24 DUP3 ADD MSTORE PUSH10 0x2D22A927AFA7ABA722A9 PUSH1 0xB1 SHL PUSH1 0x44 DUP3 ADD MSTORE PUSH1 0x64 SWAP1 REVERT JUMPDEST CALLVALUE PUSH2 0x1A0 JUMPI PUSH1 0x20 CALLDATASIZE PUSH1 0x3 NOT ADD SLT PUSH2 0x1A0 JUMPI PUSH1 0x20 PUSH2 0x8C8 PUSH1 0x4 CALLDATALOAD PUSH2 0x151F JUMP JUMPDEST PUSH1 0x40 MLOAD PUSH1 0x1 PUSH1 0x1 PUSH1 0xA0 SHL SUB SWAP1 SWAP2 AND DUP2 MSTORE RETURN JUMPDEST CALLVALUE PUSH2 0x1A0 JUMPI PUSH1 0xA0 CALLDATASIZE PUSH1 0x3 NOT ADD SLT PUSH2 0x1A0 JUMPI PUSH2 0x8F3 PUSH2 0x1426 JUMP JUMPDEST PUSH2 0x8FB PUSH2 0x1452 JUMP JUMPDEST PUSH1 0x44 CALLDATALOAD PUSH1 0x1 PUSH1 0x1 PUSH1 0x40 SHL SUB DUP2 GT PUSH2 0x1A0 JUMPI PUSH2 0x91A SWAP1 CALLDATASIZE SWAP1 PUSH1 0x4 ADD PUSH2 0x1462 JUMP JUMPDEST SWAP1 PUSH1 0x84 CALLDATALOAD PUSH1 0x1 PUSH1 0x1 PUSH1 0x40 SHL SUB DUP2 GT PUSH2 0x1A0 JUMPI PUSH2 0x93A SWAP1 CALLDATASIZE SWAP1 PUSH1 0x4 ADD PUSH2 0x1462 JUMP JUMPDEST PUSH1 0xE SLOAD SWAP2 SWAP6 SWAP1 SWAP3 PUSH1 0x1 PUSH1 0x1 PUSH1 0xA0 SHL SUB SWAP3 PUSH2 0x957 SWAP1 DUP5 AND CALLER EQ PUSH2 0x167D JUMP JUMPDEST DUP3 DUP3 AND ISZERO ISZERO SWAP5 PUSH2 0x966 DUP7 PUSH2 0x15B4 JUMP JUMPDEST DUP4 DUP4 AND PUSH0 MSTORE PUSH1 0x8 PUSH1 0x20 MSTORE PUSH1 0x40 PUSH0 KECCAK256 SLOAD PUSH2 0xDD0 JUMPI PUSH1 0x1 PUSH1 0xFF DUP9 AND LT ISZERO DUP1 PUSH2 0xDC2 JUMPI JUMPDEST PUSH2 0x990 SWAP1 PUSH2 0x16B6 JUMP JUMPDEST PUSH1 0x18 DUP6 GT PUSH2 0xD8D JUMPI PUSH1 0x7 SLOAD SWAP6 PUSH0 NOT DUP8 EQ PUSH2 0xD79 JUMPI PUSH1 0x1 DUP8 ADD PUSH1 0x7 SSTORE PUSH2 0xD1B JUMPI JUMPDEST DUP4 DUP4 AND PUSH0 MSTORE PUSH1 0x4 PUSH1 0x20 MSTORE PUSH1 0x1 PUSH1 0x40 PUSH0 KECCAK256 SSTORE DUP6 PUSH0 MSTORE PUSH1 0x3 PUSH1 0x20 MSTORE PUSH1 0x40 PUSH0 KECCAK256 DUP5 DUP5 AND PUSH1 0x1 PUSH1 0x1 PUSH1 0x60 SHL SUB PUSH1 0xA0 SHL DUP3 SLOAD AND OR SWAP1 SSTORE PUSH1 0x9 PUSH1 0x20 MSTORE PUSH1 0x40 PUSH0 KECCAK256 SWAP2 PUSH1 0x1 PUSH1 0x1 PUSH1 0x40 SHL SUB DUP3 GT PUSH2 0x64F JUMPI DUP2 SWAP1 PUSH2 0xA05 DUP5 SLOAD PUSH2 0x12F8 JUMP JUMPDEST PUSH1 0x1F DUP2 GT PUSH2 0xCCE JUMPI JUMPDEST POP PUSH0 SWAP1 PUSH1 0x1F DUP4 GT PUSH1 0x1 EQ PUSH2 0xC68 JUMPI PUSH0 SWAP3 PUSH2 0xC5D JUMPI JUMPDEST POP POP DUP2 PUSH1 0x1 SHL SWAP2 PUSH0 NOT SWAP1 PUSH1 0x3 SHL SHR NOT AND OR SWAP1 SSTORE JUMPDEST DUP4 PUSH0 MSTORE PUSH1 0xA PUSH1 0x20 MSTORE PUSH1 0x64 CALLDATALOAD PUSH1 0x40 PUSH0 KECCAK256 SSTORE PUSH1 0xB PUSH1 0x20 MSTORE PUSH1 0x40 PUSH0 KECCAK256 SWAP6 PUSH1 0x1 PUSH1 0x1 PUSH1 0x40 SHL SUB DUP5 GT PUSH2 0x64F JUMPI PUSH2 0xA69 DUP8 SLOAD PUSH2 0x12F8 JUMP JUMPDEST SWAP7 PUSH1 0x1F DUP9 GT PUSH2 0xC18 JUMPI JUMPDEST PUSH1 0x20 SWAP8 POP PUSH0 PUSH1 0x1F DUP7 GT PUSH1 0x1 EQ PUSH2 0xB8A JUMPI SWAP4 PUSH1 0xFF SWAP4 DUP7 PUSH1 0x80 SWAP5 DUP10 SWAP11 SWAP5 DUP3 PUSH32 0x6AB68B1C0B0E460C175CE854FBDEA97C1604AE10D463D148AF6D4E35D5B597B4 SWAP10 PUSH0 SWAP2 PUSH2 0xB7F JUMPI JUMPDEST POP DUP4 PUSH1 0x1 SHL SWAP1 PUSH0 NOT DUP6 PUSH1 0x3 SHL SHR NOT AND OR SWAP1 SSTORE JUMPDEST DUP10 PUSH0 MSTORE PUSH1 0xC DUP13 MSTORE PUSH1 0x40 PUSH0 KECCAK256 DUP8 DUP7 AND DUP9 NOT DUP3 SLOAD AND OR SWAP1 SSTORE PUSH2 0xAF4 DUP6 PUSH1 0x1 PUSH1 0x1 PUSH1 0x40 SHL SUB TIMESTAMP AND PUSH2 0x16ED JUMP JUMPDEST DUP11 PUSH0 MSTORE PUSH1 0xD DUP14 MSTORE PUSH1 0x1 PUSH1 0x1 PUSH1 0x40 SHL SUB PUSH1 0x40 PUSH0 KECCAK256 SWAP2 AND SWAP1 DUP2 PUSH1 0x1 PUSH1 0x1 PUSH1 0x40 SHL SUB NOT DUP3 SLOAD AND OR SWAP1 SSTORE PUSH1 0x40 MLOAD SWAP8 DUP9 SWAP7 DUP13 DUP8 DUP8 AND PUSH0 PUSH32 0xDDF252AD1BE2C89B69C2B068FC378DAA952BA7F163C4A11628F55A4DF523B3EF DUP2 DUP1 LOG4 AND DUP7 MSTORE DUP13 DUP7 ADD MSTORE PUSH1 0x60 PUSH1 0x40 DUP7 ADD MSTORE DUP2 PUSH1 0x60 DUP7 ADD MSTORE DUP6 DUP6 ADD CALLDATACOPY PUSH0 DUP4 DUP9 ADD DUP6 ADD MSTORE AND SWAP5 PUSH1 0x1F ADD PUSH1 0x1F NOT AND DUP2 ADD SUB ADD SWAP1 LOG3 PUSH1 0x40 MLOAD SWAP1 DUP2 MSTORE RETURN JUMPDEST SWAP1 POP DUP3 ADD CALLDATALOAD DUP15 PUSH2 0xAB8 JUMP JUMPDEST DUP2 PUSH0 MSTORE DUP9 PUSH0 KECCAK256 SWAP1 PUSH0 JUMPDEST PUSH1 0x1F NOT DUP9 AND DUP2 LT PUSH2 0xC01 JUMPI POP SWAP4 DUP7 PUSH1 0x80 SWAP5 DUP10 SWAP11 SWAP5 PUSH32 0x6AB68B1C0B0E460C175CE854FBDEA97C1604AE10D463D148AF6D4E35D5B597B4 SWAP9 SWAP5 PUSH1 0xFF SWAP9 DUP5 PUSH1 0x1F NOT DUP2 AND LT PUSH2 0xBE8 JUMPI JUMPDEST POP POP PUSH1 0x1 DUP4 DUP2 SHL ADD SWAP1 SSTORE PUSH2 0xACB JUMP JUMPDEST DUP4 ADD CALLDATALOAD PUSH0 NOT PUSH1 0x3 DUP7 SWAP1 SHL PUSH1 0xF8 AND SHR NOT AND SWAP1 SSTORE DUP14 DUP1 PUSH2 0xBD9 JUMP JUMPDEST SWAP1 SWAP2 DUP11 PUSH1 0x1 DUP2 SWAP3 DUP6 DUP9 ADD CALLDATALOAD DUP2 SSTORE ADD SWAP4 ADD SWAP2 ADD PUSH2 0xB93 JUMP JUMPDEST DUP1 PUSH0 MSTORE PUSH1 0x20 PUSH0 KECCAK256 PUSH1 0x1F DUP7 ADD PUSH1 0x5 SHR DUP2 ADD SWAP9 PUSH1 0x20 DUP8 LT PUSH2 0xC53 JUMPI JUMPDEST PUSH1 0x1F ADD PUSH1 0x5 SHR ADD SWAP8 JUMPDEST DUP9 DUP2 LT PUSH2 0xC48 JUMPI POP PUSH2 0xA73 JUMP JUMPDEST PUSH0 DUP2 SSTORE PUSH1 0x1 ADD PUSH2 0xC3B JUMP JUMPDEST SWAP1 SWAP9 POP DUP9 SWAP1 PUSH2 0xC32 JUMP JUMPDEST ADD CALLDATALOAD SWAP1 POP DUP10 DUP1 PUSH2 0xA23 JUMP JUMPDEST PUSH0 DUP6 DUP2 MSTORE PUSH1 0x20 DUP2 KECCAK256 SWAP1 SWAP5 POP SWAP2 JUMPDEST PUSH1 0x1F NOT DUP5 AND DUP6 LT PUSH2 0xCB6 JUMPI PUSH1 0x1 SWAP5 POP DUP4 PUSH1 0x1F NOT DUP2 AND LT PUSH2 0xC9D JUMPI JUMPDEST POP POP POP DUP2 SHL ADD SWAP1 SSTORE PUSH2 0xA37 JUMP JUMPDEST ADD CALLDATALOAD PUSH0 NOT PUSH1 0x3 DUP5 SWAP1 SHL PUSH1 0xF8 AND SHR NOT AND SWAP1 SSTORE DUP10 DUP1 DUP1 PUSH2 0xC90 JUMP JUMPDEST DUP2 DUP2 ADD CALLDATALOAD DUP4 SSTORE PUSH1 0x20 SWAP5 DUP6 ADD SWAP5 PUSH1 0x1 SWAP1 SWAP4 ADD SWAP3 ADD PUSH2 0xC75 JUMP JUMPDEST SWAP1 SWAP2 POP DUP4 PUSH0 MSTORE PUSH1 0x20 PUSH0 KECCAK256 PUSH1 0x1F DUP5 ADD PUSH1 0x5 SHR DUP2 ADD PUSH1 0x20 DUP6 LT PUSH2 0xD14 JUMPI JUMPDEST SWAP1 DUP5 SWAP4 SWAP3 SWAP2 JUMPDEST PUSH1 0x1F DUP4 ADD PUSH1 0x5 SHR DUP3 ADD DUP2 LT PUSH2 0xD06 JUMPI POP POP PUSH2 0xA0E JUMP JUMPDEST PUSH0 DUP2 SSTORE DUP6 SWAP5 POP PUSH1 0x1 ADD PUSH2 0xCF0 JUMP JUMPDEST POP DUP1 PUSH2 0xCEA JUMP JUMPDEST DUP4 DUP4 AND PUSH0 MSTORE PUSH1 0x8 PUSH1 0x20 MSTORE PUSH1 0x40 PUSH0 KECCAK256 SLOAD PUSH2 0xD43 JUMPI DUP4 DUP4 AND PUSH0 MSTORE PUSH1 0x8 PUSH1 0x20 MSTORE DUP6 PUSH1 0x40 PUSH0 KECCAK256 SSTORE PUSH2 0x9B0 JUMP JUMPDEST PUSH1 0x40 MLOAD PUSH3 0x461BCD PUSH1 0xE5 SHL DUP2 MSTORE PUSH1 0x20 PUSH1 0x4 DUP3 ADD MSTORE PUSH1 0xE PUSH1 0x24 DUP3 ADD MSTORE PUSH14 0x13D39157D4115497D5D053131155 PUSH1 0x92 SHL PUSH1 0x44 DUP3 ADD MSTORE PUSH1 0x64 SWAP1 REVERT JUMPDEST PUSH4 0x4E487B71 PUSH1 0xE0 SHL PUSH0 MSTORE PUSH1 0x11 PUSH1 0x4 MSTORE PUSH1 0x24 PUSH0 REVERT JUMPDEST PUSH1 0x40 MLOAD PUSH3 0x461BCD PUSH1 0xE5 SHL DUP2 MSTORE PUSH1 0x20 PUSH1 0x4 DUP3 ADD MSTORE PUSH1 0xD PUSH1 0x24 DUP3 ADD MSTORE PUSH13 0x4E49434B5F544F4F5F4C4F4E47 PUSH1 0x98 SHL PUSH1 0x44 DUP3 ADD MSTORE PUSH1 0x64 SWAP1 REVERT JUMPDEST POP PUSH1 0x3 PUSH1 0xFF DUP9 AND GT ISZERO PUSH2 0x987 JUMP JUMPDEST PUSH1 0x40 MLOAD PUSH3 0x461BCD PUSH1 0xE5 SHL DUP2 MSTORE PUSH1 0x20 PUSH1 0x4 DUP3 ADD MSTORE PUSH1 0x11 PUSH1 0x24 DUP3 ADD MSTORE PUSH17 0x20A62922A0A22CAFA420A9AFAA27A5A2A7 PUSH1 0x79 SHL PUSH1 0x44 DUP3 ADD MSTORE PUSH1 0x64 SWAP1 REVERT JUMPDEST CALLVALUE PUSH2 0x1A0 JUMPI PUSH1 0x20 CALLDATASIZE PUSH1 0x3 NOT ADD SLT PUSH2 0x1A0 JUMPI PUSH1 0x4 CALLDATALOAD DUP1 ISZERO ISZERO DUP1 SWAP2 SUB PUSH2 0x1A0 JUMPI PUSH1 0x20 PUSH32 0x5AD6A2E28A542FBAE239A8D245AFA768672FA20487C8E88BC75916624D497A42 SWAP2 PUSH2 0xE53 PUSH2 0x148F JUMP JUMPDEST PUSH1 0xE DUP1 SLOAD PUSH1 0xFF PUSH1 0xA0 SHL NOT AND PUSH1 0xA0 DUP4 SWAP1 SHL PUSH1 0xFF PUSH1 0xA0 SHL AND OR SWAP1 SSTORE PUSH1 0x40 MLOAD SWAP1 DUP2 MSTORE LOG1 STOP JUMPDEST CALLVALUE PUSH2 0x1A0 JUMPI PUSH1 0x20 CALLDATASIZE PUSH1 0x3 NOT ADD SLT PUSH2 0x1A0 JUMPI PUSH1 0x4 CALLDATALOAD PUSH0 MSTORE PUSH1 0xC PUSH1 0x20 MSTORE PUSH1 0x20 PUSH1 0xFF PUSH1 0x40 PUSH0 KECCAK256 SLOAD AND PUSH1 0x40 MLOAD SWAP1 DUP2 MSTORE RETURN JUMPDEST CALLVALUE PUSH2 0x1A0 JUMPI PUSH1 0x20 CALLDATASIZE PUSH1 0x3 NOT ADD SLT PUSH2 0x1A0 JUMPI PUSH1 0x4 CALLDATALOAD PUSH0 MSTORE PUSH1 0xB PUSH1 0x20 MSTORE PUSH2 0x19C PUSH2 0x190 PUSH1 0x40 PUSH0 KECCAK256 PUSH2 0x1330 JUMP JUMPDEST CALLVALUE PUSH2 0x1A0 JUMPI PUSH1 0x60 CALLDATASIZE PUSH1 0x3 NOT ADD SLT PUSH2 0x1A0 JUMPI PUSH2 0xEE5 PUSH2 0x1426 JUMP JUMPDEST PUSH2 0xEED PUSH2 0x143C JUMP JUMPDEST PUSH1 0x44 CALLDATALOAD SWAP2 PUSH2 0xF02 PUSH1 0xFF PUSH1 0xE SLOAD PUSH1 0xA0 SHR AND PUSH2 0x1544 JUMP JUMPDEST PUSH1 0x1 PUSH1 0x1 PUSH1 0xA0 SHL SUB SWAP2 DUP3 DUP1 PUSH2 0xF16 DUP7 PUSH2 0x151F JUMP JUMPDEST AND SWAP3 AND SWAP2 DUP3 SUB PUSH2 0x1041 JUMPI DUP3 AND SWAP2 DUP3 ISZERO ISZERO SWAP1 PUSH2 0xF30 DUP3 PUSH2 0x15B4 JUMP JUMPDEST DUP3 CALLER EQ SWAP1 DUP2 ISZERO PUSH2 0x1029 JUMPI JUMPDEST POP DUP1 ISZERO PUSH2 0x1004 JUMPI JUMPDEST PUSH2 0xF4C SWAP1 PUSH2 0x157D JUMP JUMPDEST DUP2 PUSH2 0xFF1 JUMPI JUMPDEST PUSH2 0xFCD JUMPI JUMPDEST DUP1 PUSH0 MSTORE PUSH1 0x4 PUSH1 0x20 MSTORE PUSH1 0x40 PUSH0 KECCAK256 PUSH0 NOT DUP2 SLOAD ADD SWAP1 SSTORE DUP2 PUSH0 MSTORE PUSH1 0x40 PUSH0 KECCAK256 PUSH1 0x1 DUP2 SLOAD ADD SWAP1 SSTORE DUP3 PUSH0 MSTORE PUSH1 0x3 PUSH1 0x20 MSTORE PUSH1 0x40 PUSH0 KECCAK256 PUSH1 0x1 PUSH1 0x1 PUSH1 0x60 SHL SUB PUSH1 0xA0 SHL SWAP1 DUP4 DUP3 DUP3 SLOAD AND OR SWAP1 SSTORE PUSH1 0x5 PUSH1 0x20 MSTORE PUSH1 0x40 PUSH0 KECCAK256 SWAP1 DUP2 SLOAD AND SWAP1 SSTORE PUSH32 0xDDF252AD1BE2C89B69C2B068FC378DAA952BA7F163C4A11628F55A4DF523B3EF PUSH0 DUP1 LOG4 STOP JUMPDEST DUP2 PUSH0 MSTORE PUSH1 0x8 PUSH1 0x20 MSTORE PUSH1 0x40 PUSH0 KECCAK256 SLOAD PUSH2 0xD43 JUMPI DUP2 PUSH0 MSTORE PUSH1 0x8 PUSH1 0x20 MSTORE DUP3 PUSH1 0x40 PUSH0 KECCAK256 SSTORE PUSH2 0xF57 JUMP JUMPDEST DUP2 PUSH0 MSTORE PUSH1 0x8 PUSH1 0x20 MSTORE PUSH0 PUSH1 0x40 DUP2 KECCAK256 SSTORE PUSH2 0xF52 JUMP JUMPDEST POP DUP2 PUSH0 MSTORE PUSH1 0x6 PUSH1 0x20 MSTORE PUSH1 0x40 PUSH0 KECCAK256 CALLER PUSH0 MSTORE PUSH1 0x20 MSTORE PUSH2 0xF4C PUSH1 0xFF PUSH1 0x40 PUSH0 KECCAK256 SLOAD AND SWAP1 POP PUSH2 0xF43 JUMP JUMPDEST SWAP1 POP DUP5 PUSH0 MSTORE PUSH1 0x5 PUSH1 0x20 MSTORE PUSH1 0x40 PUSH0 KECCAK256 SLOAD AND CALLER EQ DUP6 PUSH2 0xF3B JUMP JUMPDEST PUSH1 0x40 MLOAD PUSH3 0x461BCD PUSH1 0xE5 SHL DUP2 MSTORE PUSH1 0x20 PUSH1 0x4 DUP3 ADD MSTORE PUSH1 0xA PUSH1 0x24 DUP3 ADD MSTORE PUSH10 0x57524F4E475F46524F4D PUSH1 0xB0 SHL PUSH1 0x44 DUP3 ADD MSTORE PUSH1 0x64 SWAP1 REVERT JUMPDEST CALLVALUE PUSH2 0x1A0 JUMPI PUSH1 0x20 CALLDATASIZE PUSH1 0x3 NOT ADD SLT PUSH2 0x1A0 JUMPI PUSH1 0x4 CALLDATALOAD PUSH1 0x1 PUSH1 0x1 PUSH1 0x40 SHL SUB DUP2 AND SWAP1 DUP2 DUP2 SUB PUSH2 0x1A0 JUMPI PUSH32 0x94F1B4E6B329280C967B399748E86C1B3E4BB2FC3CA959E91AD28FC5801DD01 SWAP2 PUSH1 0x20 SWAP2 PUSH2 0x10C6 PUSH2 0x148F JUMP JUMPDEST PUSH1 0xE DUP1 SLOAD PUSH8 0xFFFFFFFFFFFFFFFF PUSH1 0xA8 SHL NOT AND PUSH1 0xA8 SWAP3 SWAP1 SWAP3 SHL PUSH8 0xFFFFFFFFFFFFFFFF PUSH1 0xA8 SHL AND SWAP2 SWAP1 SWAP2 OR SWAP1 SSTORE PUSH1 0x40 MLOAD SWAP1 DUP2 MSTORE LOG1 STOP JUMPDEST CALLVALUE PUSH2 0x1A0 JUMPI PUSH0 CALLDATASIZE PUSH1 0x3 NOT ADD SLT PUSH2 0x1A0 JUMPI PUSH1 0x20 PUSH1 0xFF PUSH1 0xE SLOAD PUSH1 0xA0 SHR AND PUSH1 0x40 MLOAD SWAP1 ISZERO ISZERO DUP2 MSTORE RETURN JUMPDEST CALLVALUE PUSH2 0x1A0 JUMPI PUSH0 CALLDATASIZE PUSH1 0x3 NOT ADD SLT PUSH2 0x1A0 JUMPI PUSH1 0xE SLOAD PUSH1 0x40 MLOAD PUSH1 0x1 PUSH1 0x1 PUSH1 0xA0 SHL SUB SWAP1 SWAP2 AND DUP2 MSTORE PUSH1 0x20 SWAP1 RETURN JUMPDEST CALLVALUE PUSH2 0x1A0 JUMPI PUSH1 0x40 CALLDATASIZE PUSH1 0x3 NOT ADD SLT PUSH2 0x1A0 JUMPI PUSH2 0x1160 PUSH2 0x1426 JUMP JUMPDEST PUSH1 0x24 CALLDATALOAD SWAP1 PUSH2 0x1175 PUSH1 0xFF PUSH1 0xE SLOAD PUSH1 0xA0 SHR AND PUSH2 0x1544 JUMP JUMPDEST PUSH1 0x1 PUSH1 0x1 PUSH1 0xA0 SHL SUB DUP1 PUSH2 0x1187 DUP5 PUSH2 0x151F JUMP JUMPDEST AND SWAP1 DUP2 CALLER EQ DUP1 ISZERO PUSH2 0x11E3 JUMPI JUMPDEST PUSH2 0x119C SWAP1 PUSH2 0x157D JUMP JUMPDEST DUP4 PUSH0 MSTORE PUSH1 0x5 PUSH1 0x20 MSTORE PUSH1 0x40 PUSH0 KECCAK256 SWAP3 AND SWAP2 DUP3 PUSH1 0x1 PUSH1 0x1 PUSH1 0x60 SHL SUB PUSH1 0xA0 SHL DUP3 SLOAD AND OR SWAP1 SSTORE PUSH32 0x8C5BE1E5EBEC7D5BD14F71427D1E84F3DD0314C0F7B2291E5B200AC8C7C3B925 PUSH0 DUP1 LOG4 STOP JUMPDEST POP DUP2 PUSH0 MSTORE PUSH1 0x6 PUSH1 0x20 MSTORE PUSH1 0x40 PUSH0 KECCAK256 CALLER PUSH0 MSTORE PUSH1 0x20 MSTORE PUSH2 0x119C PUSH1 0xFF PUSH1 0x40 PUSH0 KECCAK256 SLOAD AND SWAP1 POP PUSH2 0x1193 JUMP JUMPDEST CALLVALUE PUSH2 0x1A0 JUMPI PUSH1 0x20 CALLDATASIZE PUSH1 0x3 NOT ADD SLT PUSH2 0x1A0 JUMPI PUSH1 0x4 CALLDATALOAD PUSH0 MSTORE PUSH1 0x5 PUSH1 0x20 MSTORE PUSH1 0x20 PUSH1 0x1 DUP1 PUSH1 0xA0 SHL SUB PUSH1 0x40 PUSH0 KECCAK256 SLOAD AND PUSH1 0x40 MLOAD SWAP1 DUP2 MSTORE RETURN JUMPDEST CALLVALUE PUSH2 0x1A0 JUMPI PUSH0 CALLDATASIZE PUSH1 0x3 NOT ADD SLT PUSH2 0x1A0 JUMPI PUSH0 PUSH1 0x1 DUP1 SLOAD SWAP1 PUSH2 0x1259 DUP3 PUSH2 0x12F8 JUMP JUMPDEST DUP1 DUP6 MSTORE SWAP2 DUP2 DUP2 AND SWAP1 DUP2 ISZERO PUSH2 0x6BE JUMPI POP PUSH1 0x1 EQ PUSH2 0x129F JUMPI POP POP DUP2 SWAP1 SUB PUSH1 0x1F ADD PUSH1 0x1F NOT AND DUP2 ADD SWAP1 PUSH1 0x1 PUSH1 0x1 PUSH1 0x40 SHL SUB DUP3 GT DUP2 DUP4 LT OR PUSH2 0x64F JUMPI PUSH2 0x19C DUP3 SWAP2 DUP3 PUSH1 0x40 MSTORE DUP3 PUSH2 0x13DF JUMP JUMPDEST PUSH0 DUP2 DUP2 MSTORE SWAP2 SWAP3 POP PUSH32 0xB10E2D527612073B26EECDFD717E6A320CF44B4AFAC2B0732D9FCBE2B7FA0CF6 JUMPDEST DUP4 DUP4 LT PUSH2 0x12DF JUMPI POP POP PUSH1 0x20 SWAP2 POP DUP3 ADD ADD DUP3 DUP1 PUSH2 0x61F JUMP JUMPDEST DUP2 DUP2 PUSH1 0x20 SWAP3 SWAP5 SWAP4 SWAP5 SLOAD DUP4 DUP6 DUP10 ADD ADD MSTORE ADD SWAP2 ADD SWAP2 SWAP1 PUSH2 0x12C8 JUMP JUMPDEST SWAP1 PUSH1 0x1 DUP3 DUP2 SHR SWAP3 AND DUP1 ISZERO PUSH2 0x1326 JUMPI JUMPDEST PUSH1 0x20 DUP4 LT EQ PUSH2 0x1312 JUMPI JUMP JUMPDEST PUSH4 0x4E487B71 PUSH1 0xE0 SHL PUSH0 MSTORE PUSH1 0x22 PUSH1 0x4 MSTORE PUSH1 0x24 PUSH0 REVERT JUMPDEST SWAP2 PUSH1 0x7F AND SWAP2 PUSH2 0x1307 JUMP JUMPDEST SWAP1 PUSH1 0x40 MLOAD SWAP2 PUSH0 SWAP1 DUP1 SLOAD SWAP1 PUSH2 0x1343 DUP3 PUSH2 0x12F8 JUMP JUMPDEST SWAP1 DUP2 DUP7 MSTORE PUSH1 0x1 SWAP3 DUP4 DUP2 AND SWAP1 DUP2 PUSH0 EQ PUSH2 0x13BE JUMPI POP PUSH1 0x1 EQ PUSH2 0x1384 JUMPI JUMPDEST POP POP POP DUP3 SWAP1 SUB PUSH1 0x1F ADD PUSH1 0x1F NOT AND DUP3 ADD PUSH1 0x1 PUSH1 0x1 PUSH1 0x40 SHL SUB DUP2 GT DUP4 DUP3 LT OR PUSH2 0x64F JUMPI PUSH1 0x40 MSTORE JUMP JUMPDEST SWAP1 SWAP3 POP PUSH0 MSTORE PUSH1 0x20 SWAP2 DUP3 PUSH0 KECCAK256 SWAP2 DUP4 PUSH0 SWAP4 JUMPDEST DUP4 DUP6 LT PUSH2 0x13AA JUMPI POP POP POP POP DUP4 ADD ADD PUSH0 DUP1 DUP1 PUSH2 0x135E JUMP JUMPDEST DUP1 SLOAD DUP9 DUP7 ADD DUP4 ADD MSTORE SWAP4 ADD SWAP3 DUP5 SWAP1 DUP3 ADD PUSH2 0x1394 JUMP JUMPDEST SWAP3 SWAP4 POP POP POP PUSH1 0x20 SWAP3 POP PUSH1 0xFF NOT AND DUP3 DUP6 ADD MSTORE ISZERO ISZERO PUSH1 0x5 SHL DUP4 ADD ADD PUSH0 DUP1 DUP1 PUSH2 0x135E JUMP JUMPDEST PUSH1 0x20 DUP1 DUP3 MSTORE DUP3 MLOAD DUP2 DUP4 ADD DUP2 SWAP1 MSTORE SWAP1 SWAP4 SWAP3 PUSH0 JUMPDEST DUP3 DUP2 LT PUSH2 0x1412 JUMPI POP POP PUSH1 0x40 SWAP3 SWAP4 POP PUSH0 DUP4 DUP3 DUP5 ADD ADD MSTORE PUSH1 0x1F DUP1 NOT SWAP2 ADD AND ADD ADD SWAP1 JUMP JUMPDEST DUP2 DUP2 ADD DUP7 ADD MLOAD DUP5 DUP3 ADD PUSH1 0x40 ADD MSTORE DUP6 ADD PUSH2 0x13F1 JUMP JUMPDEST PUSH1 0x4 CALLDATALOAD SWAP1 PUSH1 0x1 PUSH1 0x1 PUSH1 0xA0 SHL SUB DUP3 AND DUP3 SUB PUSH2 0x1A0 JUMPI JUMP JUMPDEST PUSH1 0x24 CALLDATALOAD SWAP1 PUSH1 0x1 PUSH1 0x1 PUSH1 0xA0 SHL SUB DUP3 AND DUP3 SUB PUSH2 0x1A0 JUMPI JUMP JUMPDEST PUSH1 0x24 CALLDATALOAD SWAP1 PUSH1 0xFF DUP3 AND DUP3 SUB PUSH2 0x1A0 JUMPI JUMP JUMPDEST SWAP2 DUP2 PUSH1 0x1F DUP5 ADD SLT ISZERO PUSH2 0x1A0 JUMPI DUP3 CALLDATALOAD SWAP2 PUSH1 0x1 PUSH1 0x1 PUSH1 0x40 SHL SUB DUP4 GT PUSH2 0x1A0 JUMPI PUSH1 0x20 DUP4 DUP2 DUP7 ADD SWAP6 ADD ADD GT PUSH2 0x1A0 JUMPI JUMP JUMPDEST PUSH0 SLOAD PUSH1 0x1 PUSH1 0x1 PUSH1 0xA0 SHL SUB AND CALLER SUB PUSH2 0x14A2 JUMPI JUMP JUMPDEST PUSH1 0x64 PUSH1 0x40 MLOAD PUSH3 0x461BCD PUSH1 0xE5 SHL DUP2 MSTORE PUSH1 0x20 PUSH1 0x4 DUP3 ADD MSTORE PUSH1 0x20 PUSH1 0x24 DUP3 ADD MSTORE PUSH32 0x4F776E61626C653A2063616C6C6572206973206E6F7420746865206F776E6572 PUSH1 0x44 DUP3 ADD MSTORE REVERT JUMPDEST ISZERO PUSH2 0x14ED JUMPI JUMP JUMPDEST PUSH1 0x40 MLOAD PUSH3 0x461BCD PUSH1 0xE5 SHL DUP2 MSTORE PUSH1 0x20 PUSH1 0x4 DUP3 ADD MSTORE PUSH1 0xA PUSH1 0x24 DUP3 ADD MSTORE PUSH10 0x1393D517D35253951151 PUSH1 0xB2 SHL PUSH1 0x44 DUP3 ADD MSTORE PUSH1 0x64 SWAP1 REVERT JUMPDEST PUSH0 SWAP1 DUP2 MSTORE PUSH1 0x3 PUSH1 0x20 MSTORE PUSH1 0x40 SWAP1 KECCAK256 SLOAD PUSH1 0x1 PUSH1 0x1 PUSH1 0xA0 SHL SUB AND SWAP1 PUSH2 0x1542 DUP3 ISZERO ISZERO PUSH2 0x14E6 JUMP JUMPDEST JUMP JUMPDEST ISZERO PUSH2 0x154B JUMPI JUMP JUMPDEST PUSH1 0x40 MLOAD PUSH3 0x461BCD PUSH1 0xE5 SHL DUP2 MSTORE PUSH1 0x20 PUSH1 0x4 DUP3 ADD MSTORE PUSH1 0xA PUSH1 0x24 DUP3 ADD MSTORE PUSH10 0x14D09517D313D0D2D151 PUSH1 0xB2 SHL PUSH1 0x44 DUP3 ADD MSTORE PUSH1 0x64 SWAP1 REVERT JUMPDEST ISZERO PUSH2 0x1584 JUMPI JUMP JUMPDEST PUSH1 0x40 MLOAD PUSH3 0x461BCD PUSH1 0xE5 SHL DUP2 MSTORE PUSH1 0x20 PUSH1 0x4 DUP3 ADD MSTORE PUSH1 0x8 PUSH1 0x24 DUP3 ADD MSTORE PUSH8 0x9C9EA8BE82AAA89 PUSH1 0xC3 SHL PUSH1 0x44 DUP3 ADD MSTORE PUSH1 0x64 SWAP1 REVERT JUMPDEST ISZERO PUSH2 0x15BB JUMPI JUMP JUMPDEST PUSH1 0x40 MLOAD PUSH3 0x461BCD PUSH1 0xE5 SHL DUP2 MSTORE PUSH1 0x20 PUSH1 0x4 DUP3 ADD MSTORE PUSH1 0x7 PUSH1 0x24 DUP3 ADD MSTORE PUSH7 0x5A45524F5F544F PUSH1 0xC8 SHL PUSH1 0x44 DUP3 ADD MSTORE PUSH1 0x64 SWAP1 REVERT JUMPDEST PUSH1 0x1 PUSH1 0x1 PUSH1 0xA0 SHL SUB AND PUSH0 SWAP1 DUP2 MSTORE PUSH1 0x8 PUSH1 0x20 MSTORE PUSH1 0x40 SWAP1 KECCAK256 SLOAD DUP1 ISZERO PUSH2 0x1625 JUMPI PUSH0 MSTORE PUSH1 0xD PUSH1 0x20 MSTORE PUSH1 0x1 PUSH1 0x1 PUSH1 0x40 SHL SUB DUP1 PUSH1 0x40 PUSH0 KECCAK256 SLOAD AND SWAP1 TIMESTAMP AND GT ISZERO SWAP1 JUMP JUMPDEST POP PUSH0 SWAP1 JUMP JUMPDEST PUSH1 0x1 PUSH1 0x1 PUSH1 0xA0 SHL SUB AND PUSH0 SWAP1 DUP2 MSTORE PUSH1 0x8 PUSH1 0x20 MSTORE PUSH1 0x40 DUP2 KECCAK256 SLOAD SWAP2 DUP3 ISZERO PUSH2 0x1677 JUMPI PUSH1 0x40 SWAP1 DUP4 DUP4 MSTORE PUSH1 0xC PUSH1 0x20 MSTORE PUSH1 0xFF DUP3 DUP5 KECCAK256 SLOAD AND SWAP3 PUSH1 0xD PUSH1 0x20 MSTORE PUSH1 0x1 PUSH1 0x1 PUSH1 0x40 SHL SUB SWAP3 DUP4 SWAP2 KECCAK256 SLOAD AND SWAP2 TIMESTAMP AND DUP3 LT ISZERO SWAP1 JUMP JUMPDEST DUP2 SWAP1 DUP2 SWAP1 JUMP JUMPDEST ISZERO PUSH2 0x1684 JUMPI JUMP JUMPDEST PUSH1 0x40 MLOAD PUSH3 0x461BCD PUSH1 0xE5 SHL DUP2 MSTORE PUSH1 0x20 PUSH1 0x4 DUP3 ADD MSTORE PUSH1 0xA PUSH1 0x24 DUP3 ADD MSTORE PUSH10 0x2727AA2FA927AAAA22A9 PUSH1 0xB1 SHL PUSH1 0x44 DUP3 ADD MSTORE PUSH1 0x64 SWAP1 REVERT JUMPDEST ISZERO PUSH2 0x16BD JUMPI JUMP JUMPDEST PUSH1 0x40 MLOAD PUSH3 0x461BCD PUSH1 0xE5 SHL DUP2 MSTORE PUSH1 0x20 PUSH1 0x4 DUP3 ADD MSTORE PUSH1 0x8 PUSH1 0x24 DUP3 ADD MSTORE PUSH8 0x2120A22FAA24A2A9 PUSH1 0xC1 SHL PUSH1 0x44 DUP3 ADD MSTORE PUSH1 0x64 SWAP1 REVERT JUMPDEST SWAP1 PUSH1 0xFF AND PUSH1 0x1 DUP2 EQ SWAP1 DUP2 ISZERO PUSH2 0x174F JUMPI JUMPDEST POP PUSH2 0x1735 JUMPI PUSH1 0x1 PUSH1 0x1 PUSH1 0x40 SHL SUB SWAP1 DUP2 PUSH1 0xE SLOAD PUSH1 0xA8 SHR AND DUP1 DUP4 TIMESTAMP AND LT PUSH2 0x172F JUMPI POP DUP2 AND PUSH4 0x1E13380 ADD SWAP1 DUP2 GT PUSH2 0xD79 JUMPI SWAP1 JUMP JUMPDEST SWAP2 POP POP SWAP1 JUMP JUMPDEST PUSH3 0x278D00 PUSH1 0x1 PUSH1 0x1 PUSH1 0x40 SHL SUB DUP1 SWAP3 AND ADD SWAP1 DUP2 GT PUSH2 0xD79 JUMPI SWAP1 JUMP JUMPDEST PUSH1 0x2 SWAP2 POP EQ PUSH0 PUSH2 0x16FD JUMP INVALID LOG2 PUSH5 0x6970667358 0x22 SLT KECCAK256 0xD3 PUSH17 0x198486B622CF4B693B68EDC322FA7D6862 0x4B PUSH1 0xC4 SWAP2 CALLCODE 0x4F 0xED PUSH3 0xD9900D 0x1F PUSH4 0x64736F6C PUSH4 0x43000814 STOP CALLER "},"methodIdentifiers":{"approve(address,uint256)":"095ea7b3","balanceOf(address)":"70a08231","dnaHashById(uint256)":"795bf147","getApproved(uint256)":"081812fc","isApprovedForAll(address,address)":"e985e9c5","isProActive(address)":"d9e1a6ff","lifetimeCutoff()":"d8d07e03","membershipExpiresAtById(uint256)":"81317479","membershipTierById(uint256)":"51dc4e41","mintFromRouter(address,uint8,string,bytes32,string)":"5c64fbc6","name()":"06fdde03","nextTokenId()":"75794a3c","nicknameById(uint256)":"40d2a4f1","owner()":"8da5cb5b","ownerOf(uint256)":"6352211e","paymentsRouter()":"0c54561c","proStatus(address)":"b8ea0170","renewFromRouter(address,uint8)":"e57d9158","renounceOwnership()":"715018a6","setApprovalForAll(address,bool)":"a22cb465","setLifetimeCutoff(uint64)":"16a9d9a1","setPaymentsRouter(address)":"918f65ba","setTransfersUnlocked(bool)":"52c32f8e","symbol()":"95d89b41","tokenIdByOwner(address)":"bd8ff6ba","tokenURI(uint256)":"c87b56dd","tokenURIById(uint256)":"f5713171","transferFrom(address,address,uint256)":"23b872dd","transferOwnership(address)":"f2fde38b","transfersUnlocked()":"167e007c"}}}}}