{"project/contracts/ArcadePaymentsRouterV2.sol":{"ArcadePaymentsRouterV2":{"abi":[{"inputs":[{"internalType":"address","name":"_owner","type":"address"},{"internalType":"address","name":"_mUSD","type":"address"},{"internalType":"address","name":"_treasuryVault","type":"address"},{"internalType":"address","name":"_opsWallet","type":"address"},{"internalType":"address","name":"_dailyPot","type":"address"},{"internalType":"address","name":"_weeklyPot","type":"address"},{"internalType":"address","name":"_quoteSigner","type":"address"}],"stateMutability":"nonpayable","type":"constructor"},{"inputs":[],"name":"InvalidShortString","type":"error"},{"inputs":[{"internalType":"string","name":"str","type":"string"}],"name":"StringTooLong","type":"error"},{"anonymous":false,"inputs":[{"indexed":true,"internalType":"bytes32","name":"quoteId","type":"bytes32"},{"indexed":true,"internalType":"address","name":"buyer","type":"address"},{"indexed":false,"internalType":"uint256","name":"credits","type":"uint256"},{"indexed":false,"internalType":"uint256","name":"usdCents","type":"uint256"},{"indexed":false,"internalType":"bytes32","name":"ref","type":"bytes32"}],"name":"CreditsPurchased","type":"event"},{"anonymous":false,"inputs":[{"indexed":true,"internalType":"address","name":"token","type":"address"},{"indexed":false,"internalType":"bool","name":"enabled","type":"bool"}],"name":"DirectOpsTokenSet","type":"event"},{"anonymous":false,"inputs":[],"name":"EIP712DomainChanged","type":"event"},{"anonymous":false,"inputs":[{"indexed":true,"internalType":"uint8","name":"kind","type":"uint8"},{"indexed":false,"internalType":"uint16","name":"opsBps","type":"uint16"},{"indexed":false,"internalType":"uint16","name":"dailyBps","type":"uint16"},{"indexed":false,"internalType":"uint16","name":"weeklyBps","type":"uint16"},{"indexed":false,"internalType":"uint16","name":"treasuryBps","type":"uint16"}],"name":"KindSplitsSet","type":"event"},{"anonymous":false,"inputs":[{"indexed":true,"internalType":"address","name":"previousOwner","type":"address"},{"indexed":true,"internalType":"address","name":"newOwner","type":"address"}],"name":"OwnershipTransferred","type":"event"},{"anonymous":false,"inputs":[{"indexed":false,"internalType":"bool","name":"paused","type":"bool"}],"name":"PausedSet","type":"event"},{"anonymous":false,"inputs":[{"indexed":true,"internalType":"bytes32","name":"quoteId","type":"bytes32"},{"indexed":true,"internalType":"address","name":"buyer","type":"address"},{"indexed":true,"internalType":"bytes32","name":"sku","type":"bytes32"},{"indexed":false,"internalType":"uint8","name":"kind","type":"uint8"},{"indexed":false,"internalType":"address","name":"payToken","type":"address"},{"indexed":false,"internalType":"uint256","name":"amountIn","type":"uint256"},{"indexed":false,"internalType":"uint256","name":"usdCents","type":"uint256"},{"indexed":false,"internalType":"uint256","name":"credits","type":"uint256"},{"indexed":false,"internalType":"uint8","name":"tier","type":"uint8"},{"indexed":false,"internalType":"uint256","name":"opsAmount","type":"uint256"},{"indexed":false,"internalType":"uint256","name":"dailyPotAmount","type":"uint256"},{"indexed":false,"internalType":"uint256","name":"weeklyPotAmount","type":"uint256"},{"indexed":false,"internalType":"uint256","name":"treasuryAmount","type":"uint256"},{"indexed":false,"internalType":"uint256","name":"opsRouted","type":"uint256"},{"indexed":false,"internalType":"uint256","name":"treasuryRouted","type":"uint256"},{"indexed":false,"internalType":"bool","name":"directPotFunding","type":"bool"},{"indexed":false,"internalType":"bytes32","name":"ref","type":"bytes32"}],"name":"PaymentExecuted","type":"event"},{"anonymous":false,"inputs":[{"indexed":true,"internalType":"address","name":"proAvatar","type":"address"}],"name":"ProAvatarSet","type":"event"},{"anonymous":false,"inputs":[{"indexed":true,"internalType":"bytes32","name":"quoteId","type":"bytes32"},{"indexed":true,"internalType":"address","name":"buyer","type":"address"},{"indexed":false,"internalType":"uint256","name":"tokenId","type":"uint256"},{"indexed":false,"internalType":"uint8","name":"tier","type":"uint8"}],"name":"ProMinted","type":"event"},{"anonymous":false,"inputs":[{"indexed":true,"internalType":"bytes32","name":"quoteId","type":"bytes32"},{"indexed":true,"internalType":"address","name":"buyer","type":"address"},{"indexed":false,"internalType":"uint8","name":"tier","type":"uint8"},{"indexed":false,"internalType":"uint64","name":"newExpiresAt","type":"uint64"}],"name":"ProRenewed","type":"event"},{"anonymous":false,"inputs":[{"indexed":true,"internalType":"address","name":"signer","type":"address"}],"name":"QuoteSignerSet","type":"event"},{"anonymous":false,"inputs":[{"indexed":true,"internalType":"address","name":"opsWallet","type":"address"},{"indexed":true,"internalType":"address","name":"dailyPot","type":"address"},{"indexed":true,"internalType":"address","name":"weeklyPot","type":"address"}],"name":"RecipientsSet","type":"event"},{"anonymous":false,"inputs":[{"indexed":true,"internalType":"bytes32","name":"sku","type":"bytes32"},{"indexed":false,"internalType":"uint8","name":"kind","type":"uint8"}],"name":"SkuKindSet","type":"event"},{"anonymous":false,"inputs":[{"indexed":true,"internalType":"address","name":"token","type":"address"},{"indexed":false,"internalType":"bool","name":"allowed","type":"bool"}],"name":"TokenAllowed","type":"event"},{"anonymous":false,"inputs":[{"indexed":true,"internalType":"address","name":"vault","type":"address"}],"name":"TreasuryVaultSet","type":"event"},{"inputs":[],"name":"EIP712_NAME","outputs":[{"internalType":"string","name":"","type":"string"}],"stateMutability":"view","type":"function"},{"inputs":[],"name":"EIP712_VERSION","outputs":[{"internalType":"string","name":"","type":"string"}],"stateMutability":"view","type":"function"},{"inputs":[],"name":"KIND_CREDITS","outputs":[{"internalType":"uint8","name":"","type":"uint8"}],"stateMutability":"view","type":"function"},{"inputs":[],"name":"KIND_GENERIC","outputs":[{"internalType":"uint8","name":"","type":"uint8"}],"stateMutability":"view","type":"function"},{"inputs":[],"name":"KIND_NONE","outputs":[{"internalType":"uint8","name":"","type":"uint8"}],"stateMutability":"view","type":"function"},{"inputs":[],"name":"KIND_PRO_MINT","outputs":[{"internalType":"uint8","name":"","type":"uint8"}],"stateMutability":"view","type":"function"},{"inputs":[],"name":"KIND_PRO_RENEW","outputs":[{"internalType":"uint8","name":"","type":"uint8"}],"stateMutability":"view","type":"function"},{"inputs":[],"name":"dailyPot","outputs":[{"internalType":"address","name":"","type":"address"}],"stateMutability":"view","type":"function"},{"inputs":[{"internalType":"address","name":"","type":"address"}],"name":"directOpsToken","outputs":[{"internalType":"bool","name":"","type":"bool"}],"stateMutability":"view","type":"function"},{"inputs":[],"name":"eip712Domain","outputs":[{"internalType":"bytes1","name":"fields","type":"bytes1"},{"internalType":"string","name":"name","type":"string"},{"internalType":"string","name":"version","type":"string"},{"internalType":"uint256","name":"chainId","type":"uint256"},{"internalType":"address","name":"verifyingContract","type":"address"},{"internalType":"bytes32","name":"salt","type":"bytes32"},{"internalType":"uint256[]","name":"extensions","type":"uint256[]"}],"stateMutability":"view","type":"function"},{"inputs":[],"name":"getTokenList","outputs":[{"internalType":"address[]","name":"","type":"address[]"}],"stateMutability":"view","type":"function"},{"inputs":[{"internalType":"uint8","name":"","type":"uint8"}],"name":"kindSplits","outputs":[{"internalType":"uint16","name":"opsBps","type":"uint16"},{"internalType":"uint16","name":"dailyBps","type":"uint16"},{"internalType":"uint16","name":"weeklyBps","type":"uint16"},{"internalType":"uint16","name":"treasuryBps","type":"uint16"}],"stateMutability":"view","type":"function"},{"inputs":[],"name":"mUSD","outputs":[{"internalType":"address","name":"","type":"address"}],"stateMutability":"view","type":"function"},{"inputs":[{"components":[{"internalType":"address","name":"buyer","type":"address"},{"internalType":"bytes32","name":"sku","type":"bytes32"},{"internalType":"uint8","name":"kind","type":"uint8"},{"internalType":"address","name":"payToken","type":"address"},{"internalType":"uint256","name":"amountIn","type":"uint256"},{"internalType":"uint256","name":"usdCents","type":"uint256"},{"internalType":"uint256","name":"credits","type":"uint256"},{"internalType":"uint8","name":"tier","type":"uint8"},{"internalType":"uint64","name":"expiresAt","type":"uint64"},{"internalType":"uint256","name":"nonce","type":"uint256"},{"internalType":"bytes32","name":"ref","type":"bytes32"},{"internalType":"bytes32","name":"dataHash","type":"bytes32"}],"internalType":"struct ArcadePaymentsRouterV2.Quote","name":"q","type":"tuple"},{"internalType":"bytes","name":"sig","type":"bytes"},{"internalType":"string","name":"tokenURI","type":"string"},{"internalType":"bytes32","name":"dnaHash","type":"bytes32"},{"internalType":"string","name":"nickname","type":"string"}],"name":"mintProAvatar","outputs":[{"internalType":"bytes32","name":"quoteId","type":"bytes32"},{"internalType":"uint256","name":"tokenId","type":"uint256"}],"stateMutability":"payable","type":"function"},{"inputs":[],"name":"opsWallet","outputs":[{"internalType":"address","name":"","type":"address"}],"stateMutability":"view","type":"function"},{"inputs":[],"name":"owner","outputs":[{"internalType":"address","name":"","type":"address"}],"stateMutability":"view","type":"function"},{"inputs":[],"name":"paused","outputs":[{"internalType":"bool","name":"","type":"bool"}],"stateMutability":"view","type":"function"},{"inputs":[{"components":[{"internalType":"address","name":"buyer","type":"address"},{"internalType":"bytes32","name":"sku","type":"bytes32"},{"internalType":"uint8","name":"kind","type":"uint8"},{"internalType":"address","name":"payToken","type":"address"},{"internalType":"uint256","name":"amountIn","type":"uint256"},{"internalType":"uint256","name":"usdCents","type":"uint256"},{"internalType":"uint256","name":"credits","type":"uint256"},{"internalType":"uint8","name":"tier","type":"uint8"},{"internalType":"uint64","name":"expiresAt","type":"uint64"},{"internalType":"uint256","name":"nonce","type":"uint256"},{"internalType":"bytes32","name":"ref","type":"bytes32"},{"internalType":"bytes32","name":"dataHash","type":"bytes32"}],"internalType":"struct ArcadePaymentsRouterV2.Quote","name":"q","type":"tuple"},{"internalType":"bytes","name":"sig","type":"bytes"}],"name":"payOnly","outputs":[{"internalType":"bytes32","name":"quoteId","type":"bytes32"}],"stateMutability":"payable","type":"function"},{"inputs":[],"name":"proAvatar","outputs":[{"internalType":"contract IArcadeProAvatarV2","name":"","type":"address"}],"stateMutability":"view","type":"function"},{"inputs":[{"components":[{"internalType":"address","name":"buyer","type":"address"},{"internalType":"bytes32","name":"sku","type":"bytes32"},{"internalType":"uint8","name":"kind","type":"uint8"},{"internalType":"address","name":"payToken","type":"address"},{"internalType":"uint256","name":"amountIn","type":"uint256"},{"internalType":"uint256","name":"usdCents","type":"uint256"},{"internalType":"uint256","name":"credits","type":"uint256"},{"internalType":"uint8","name":"tier","type":"uint8"},{"internalType":"uint64","name":"expiresAt","type":"uint64"},{"internalType":"uint256","name":"nonce","type":"uint256"},{"internalType":"bytes32","name":"ref","type":"bytes32"},{"internalType":"bytes32","name":"dataHash","type":"bytes32"}],"internalType":"struct ArcadePaymentsRouterV2.Quote","name":"q","type":"tuple"},{"internalType":"bytes","name":"sig","type":"bytes"},{"internalType":"bytes","name":"data","type":"bytes"}],"name":"processPayment","outputs":[{"internalType":"bytes32","name":"quoteId","type":"bytes32"},{"internalType":"bytes","name":"result","type":"bytes"}],"stateMutability":"payable","type":"function"},{"inputs":[{"components":[{"internalType":"address","name":"buyer","type":"address"},{"internalType":"bytes32","name":"sku","type":"bytes32"},{"internalType":"uint8","name":"kind","type":"uint8"},{"internalType":"address","name":"payToken","type":"address"},{"internalType":"uint256","name":"amountIn","type":"uint256"},{"internalType":"uint256","name":"usdCents","type":"uint256"},{"internalType":"uint256","name":"credits","type":"uint256"},{"internalType":"uint8","name":"tier","type":"uint8"},{"internalType":"uint64","name":"expiresAt","type":"uint64"},{"internalType":"uint256","name":"nonce","type":"uint256"},{"internalType":"bytes32","name":"ref","type":"bytes32"},{"internalType":"bytes32","name":"dataHash","type":"bytes32"}],"internalType":"struct ArcadePaymentsRouterV2.Quote","name":"q","type":"tuple"},{"internalType":"bytes","name":"sig","type":"bytes"}],"name":"purchaseCredits","outputs":[{"internalType":"bytes32","name":"quoteId","type":"bytes32"}],"stateMutability":"payable","type":"function"},{"inputs":[{"components":[{"internalType":"address","name":"buyer","type":"address"},{"internalType":"bytes32","name":"sku","type":"bytes32"},{"internalType":"uint8","name":"kind","type":"uint8"},{"internalType":"address","name":"payToken","type":"address"},{"internalType":"uint256","name":"amountIn","type":"uint256"},{"internalType":"uint256","name":"usdCents","type":"uint256"},{"internalType":"uint256","name":"credits","type":"uint256"},{"internalType":"uint8","name":"tier","type":"uint8"},{"internalType":"uint64","name":"expiresAt","type":"uint64"},{"internalType":"uint256","name":"nonce","type":"uint256"},{"internalType":"bytes32","name":"ref","type":"bytes32"},{"internalType":"bytes32","name":"dataHash","type":"bytes32"}],"internalType":"struct ArcadePaymentsRouterV2.Quote","name":"q","type":"tuple"}],"name":"quoteDigest","outputs":[{"internalType":"bytes32","name":"","type":"bytes32"}],"stateMutability":"view","type":"function"},{"inputs":[],"name":"quoteSigner","outputs":[{"internalType":"address","name":"","type":"address"}],"stateMutability":"view","type":"function"},{"inputs":[{"components":[{"internalType":"address","name":"buyer","type":"address"},{"internalType":"bytes32","name":"sku","type":"bytes32"},{"internalType":"uint8","name":"kind","type":"uint8"},{"internalType":"address","name":"payToken","type":"address"},{"internalType":"uint256","name":"amountIn","type":"uint256"},{"internalType":"uint256","name":"usdCents","type":"uint256"},{"internalType":"uint256","name":"credits","type":"uint256"},{"internalType":"uint8","name":"tier","type":"uint8"},{"internalType":"uint64","name":"expiresAt","type":"uint64"},{"internalType":"uint256","name":"nonce","type":"uint256"},{"internalType":"bytes32","name":"ref","type":"bytes32"},{"internalType":"bytes32","name":"dataHash","type":"bytes32"}],"internalType":"struct ArcadePaymentsRouterV2.Quote","name":"q","type":"tuple"},{"internalType":"bytes","name":"sig","type":"bytes"}],"name":"renewPro","outputs":[{"internalType":"bytes32","name":"quoteId","type":"bytes32"},{"internalType":"uint64","name":"newExpiresAt","type":"uint64"}],"stateMutability":"payable","type":"function"},{"inputs":[],"name":"renounceOwnership","outputs":[],"stateMutability":"nonpayable","type":"function"},{"inputs":[{"internalType":"address","name":"token","type":"address"},{"internalType":"address","name":"to","type":"address"},{"internalType":"uint256","name":"amount","type":"uint256"}],"name":"rescueERC20","outputs":[],"stateMutability":"nonpayable","type":"function"},{"inputs":[{"internalType":"address","name":"to","type":"address"},{"internalType":"uint256","name":"amount","type":"uint256"}],"name":"rescueETH","outputs":[],"stateMutability":"nonpayable","type":"function"},{"inputs":[{"internalType":"address","name":"token","type":"address"},{"internalType":"bool","name":"enabled","type":"bool"}],"name":"setDirectOpsToken","outputs":[],"stateMutability":"nonpayable","type":"function"},{"inputs":[{"internalType":"uint8","name":"kind","type":"uint8"},{"components":[{"internalType":"uint16","name":"opsBps","type":"uint16"},{"internalType":"uint16","name":"dailyBps","type":"uint16"},{"internalType":"uint16","name":"weeklyBps","type":"uint16"},{"internalType":"uint16","name":"treasuryBps","type":"uint16"}],"internalType":"struct ArcadePaymentsRouterV2.SplitBps","name":"splits","type":"tuple"}],"name":"setKindSplits","outputs":[],"stateMutability":"nonpayable","type":"function"},{"inputs":[{"internalType":"bool","name":"_paused","type":"bool"}],"name":"setPaused","outputs":[],"stateMutability":"nonpayable","type":"function"},{"inputs":[{"internalType":"address","name":"_proAvatar","type":"address"}],"name":"setProAvatar","outputs":[],"stateMutability":"nonpayable","type":"function"},{"inputs":[{"internalType":"address","name":"signer","type":"address"}],"name":"setQuoteSigner","outputs":[],"stateMutability":"nonpayable","type":"function"},{"inputs":[{"internalType":"address","name":"_opsWallet","type":"address"},{"internalType":"address","name":"_dailyPot","type":"address"},{"internalType":"address","name":"_weeklyPot","type":"address"}],"name":"setRecipients","outputs":[],"stateMutability":"nonpayable","type":"function"},{"inputs":[{"internalType":"bytes32","name":"sku","type":"bytes32"},{"internalType":"uint8","name":"kind","type":"uint8"}],"name":"setSkuKind","outputs":[],"stateMutability":"nonpayable","type":"function"},{"inputs":[{"internalType":"address","name":"token","type":"address"},{"internalType":"bool","name":"allowed","type":"bool"}],"name":"setTokenAllowed","outputs":[],"stateMutability":"nonpayable","type":"function"},{"inputs":[{"internalType":"address","name":"vault","type":"address"}],"name":"setTreasuryVault","outputs":[],"stateMutability":"nonpayable","type":"function"},{"inputs":[{"internalType":"bytes32","name":"","type":"bytes32"}],"name":"skuKind","outputs":[{"internalType":"uint8","name":"","type":"uint8"}],"stateMutability":"view","type":"function"},{"inputs":[{"internalType":"address","name":"","type":"address"}],"name":"tokenAllowed","outputs":[{"internalType":"bool","name":"","type":"bool"}],"stateMutability":"view","type":"function"},{"inputs":[],"name":"tokenListCount","outputs":[{"internalType":"uint256","name":"","type":"uint256"}],"stateMutability":"view","type":"function"},{"inputs":[{"internalType":"address","name":"newOwner","type":"address"}],"name":"transferOwnership","outputs":[],"stateMutability":"nonpayable","type":"function"},{"inputs":[],"name":"treasuryVault","outputs":[{"internalType":"address","name":"","type":"address"}],"stateMutability":"view","type":"function"},{"inputs":[{"internalType":"bytes32","name":"","type":"bytes32"}],"name":"usedQuote","outputs":[{"internalType":"bool","name":"","type":"bool"}],"stateMutability":"view","type":"function"},{"inputs":[],"name":"weeklyPot","outputs":[{"internalType":"address","name":"","type":"address"}],"stateMutability":"view","type":"function"},{"stateMutability":"payable","type":"receive"}],"evm":{"bytecode":{"linkReferences":{},"object":"61018034620007aa57601f620044c638819003918201601f19168301916001600160401b03831184841017620006375780849260e094604052833981010312620007aa576200004e81620007e6565b6200005c60208301620007e6565b916200006b60408201620007e6565b916200007a60608301620007e6565b916200008960808201620007e6565b90620000a660c06200009e60a08401620007e6565b9201620007e6565b91604051620000b581620007ca565b601d81527f47727565736f6d65417263616465205061796d656e7473526f75746572000000602082015260405190620000ee82620007ca565b60038252620c8b8d60ea1b60208301526200010933620007fb565b60018055620001188162000841565b61012052620001278262000a10565b6101405260208151910120908160e052602081519101209081610100524660a0526040519160208301917f8b73c3c69bb8fe3d512ecc4cf759cc79239f7b179b0ffacaa9a75d522b39400f8352604084015260608301524660808301523060a083015260a0825260c082019082821060018060401b0383111762000637576040829052825190206080523060c0526001600160a01b039186831615620007795750508088169687156200074857811695861562000713578116918215620006e3578116928315620006b15781169384156200067e57169384156200064b576200021090620007fb565b61016096875260018060a01b031994856004541617600455846005541617600555836006541617600655826007541617600755816008541617600855815f52600a60205260405f2060ff1990600182825416179055600c60205260405f209081549060ff821615620005dc575b85857f9a8e30a8658b96ab3f034ce4bac6806278b4aee5880ccdd1ac35e4ed5bb31d23602060405160018152a260015f80516020620044a68339815191526080604051620002cb81620007ae565b6102bc8152611b8f60208201526104dd60408201526103e86060820152835f52600f60205261ffff60405f208180845116938183549360208301519060606040850151940151958867ffff0000000000008860301b16918d8060401b0319161763ffff00008460101b161765ffff000000008660201b1617179055604051968752166020860152166040840152166060820152a260025f80516020620044a683398151915260806040516200038081620007ae565b6109c481525f6020820152611388604082015261ffff606082016109c48152855f52600f6020528160405f2091818086511695845494604060208301519201519351958867ffff0000000000008860301b169160018060401b0319161763ffff00008460101b161765ffff000000008660201b1617179055604051968752166020860152166040840152166060820152a260035f80516020620044a683398151915260806040516200043281620007ae565b6109c4815261ffff602082015f8152816040840161138881528160608601916109c48352895f52600f6020528160405f20975116968054955191519351958867ffff0000000000008860301b169160018060401b0319161763ffff00008460101b161765ffff000000008660201b1617179055604051968752166020860152166040840152166060820152a260045f80516020620044a68339815191526080604051620004df81620007ae565b5f815261ffff602082015f815281604084015f81528160608601916127108352895f52600f6020528160405f20975116968054955191519351958867ffff0000000000008860301b169160018060401b0319161763ffff00008460101b161765ffff000000008660201b1617179055604051968752166020860152166040840152166060820152a26040516138eb918262000bbb833960805182611d09015260a05182611dd4015260c05182611cd3015260e05182611d5801526101005182611d7e01526101205182610c2001526101405182610c4901525181818161045001528181612bd101528181612cbd015281816133e6015261347b0152f35b166001179055600b546801000000000000000081101562000637576001810180600b5581101562000623578290600b5f5260205f2001918254161790555f8080806200027d565b634e487b7160e01b5f52603260045260245ffd5b634e487b7160e01b5f52604160045260245ffd5b60405162461bcd60e51b815260206004820152600b60248201526a2d22a927afa9a4a3a722a960a91b6044820152606490fd5b60405162461bcd60e51b815260206004820152600b60248201526a5a45524f5f5745454b4c5960a81b6044820152606490fd5b60405162461bcd60e51b815260206004820152600a6024820152695a45524f5f4441494c5960b01b6044820152606490fd5b60405162461bcd60e51b81526020600482015260086024820152675a45524f5f4f505360c01b6044820152606490fd5b60405162461bcd60e51b815260206004820152600d60248201526c5a45524f5f545245415355525960981b6044820152606490fd5b60405162461bcd60e51b815260206004820152600960248201526816915493d7d35554d160ba1b6044820152606490fd5b62461bcd60e51b8252602060c4820152600a60e4820152692d22a927afa7aba722a960b11b61010490910152606490fd5b5f80fd5b608081019081106001600160401b038211176200063757604052565b604081019081106001600160401b038211176200063757604052565b51906001600160a01b0382168203620007aa57565b5f80546001600160a01b039283166001600160a01b03198216811783559216907f8be0079c531659141344cd1fd0a4f28419497f9722a3daafe3b4186f6b6457e09080a3565b805160209081811015620008db5750601f8251116200087c57808251920151908083106200086e57501790565b825f19910360031b1b161790565b90604051809263305a27a960e01b82528060048301528251908160248401525f935b828510620008c1575050604492505f838284010152601f80199101168101030190fd5b84810182015186860160440152938101938593506200089e565b906001600160401b0382116200063757600254926001938481811c9116801562000a05575b83821014620009f157601f8111620009ba575b5081601f84116001146200095257509282939183925f9462000946575b50501b915f199060031b1c19161760025560ff90565b015192505f8062000930565b919083601f19811660025f52845f20945f905b888383106200099f575050501062000986575b505050811b0160025560ff90565b01515f1960f88460031b161c191690555f808062000978565b85870151885590960195948501948793509081019062000965565b60025f5284601f845f20920160051c820191601f860160051c015b828110620009e557505062000913565b5f8155018590620009d5565b634e487b7160e01b5f52602260045260245ffd5b90607f169062000900565b8051602091908281101562000a9e575090601f82511162000a3f57808251920151908083106200086e57501790565b90604051809263305a27a960e01b82528060048301528251908160248401525f935b82851062000a84575050604492505f838284010152601f80199101168101030190fd5b848101820151868601604401529381019385935062000a61565b6001600160401b03811162000637576003928354926001938481811c9116801562000baf575b83821014620009f157601f811162000b79575b5081601f841160011462000b1457509282939183925f9462000b08575b50501b915f1990841b1c191617905560ff90565b015192505f8062000af4565b919083601f198116875f52845f20945f905b8883831062000b5e575050501062000b46575b505050811b01905560ff90565b01515f1983861b60f8161c191690555f808062000b39565b85870151885590960195948501948793509081019062000b26565b855f5284601f845f20920160051c820191601f860160051c015b82811062000ba357505062000ad7565b5f815501859062000b93565b90607f169062000ac456fe6080604081815260049081361015610021575b505050361561001f575f80fd5b005b5f92833560e01c90816305af0b69146115b257508063099a04e51461152e57806315f69012146113ca57806316c38b3c1461135d5780631b64294014611341578063211402241461128d578063216eca861461127257806323f46ea41461125657806326009fd61461123a578063273cbaa0146111755780633597919f146110dc5780633b2fb7a81461107f578063409fa6b8146110525780635458ac9a1461102757806355219d5a14610fe957806356ce180a14610f4a5780635c975abb14610f2357806366c9f1b914610ee957806368db925a14610ec0578063715018a614610e6657806377e94dfd14610e0057806379c7c56a14610d7457806381c824b214610cfd57806384b0196e14610c0857806387011c2b14610bca57806387fd30a014610b6257806389655b4214610a4b5780638da5cb5b14610a23578063989f86da14610872578063a43ad7e714610853578063ac3206461461082a578063af8b1c6f14610802578063b2118a8d146107a5578063c37bd9291461077c578063d5f80c34146106de578063d7dc6cec1461063a578063d95b970c1461061f578063e64b7654146104c6578063eccec5a81461047f578063f09a1d001461043b578063f2fde38b14610378578063f413bdb31461034b5763fcd0251b0361001257346103475760603660031901126103475761021b6115d7565b916102246115f1565b6001600160a01b036044358181169592939290869003610343578190610248611792565b1692831561031557169283156102e55784156102b4575050826bffffffffffffffffffffffff60a01b828160055416176005558381600654161760065560075416176007557f105cdedcc9cfa76aff253476b3d4bd3a3e89ab641fbd5b9312cc66645f51602e8480a480f35b906020606492519162461bcd60e51b8352820152600b60248201526a5a45524f5f5745454b4c5960a81b6044820152fd5b906020606492519162461bcd60e51b8352820152600a6024820152695a45524f5f4441494c5960b01b6044820152fd5b845162461bcd60e51b815260208185015260086024820152675a45524f5f4f505360c01b6044820152606490fd5b8680fd5b8280fd5b83823461037457816003193601126103745760085490516001600160a01b039091168152602090f35b5080fd5b509034610347576020366003190112610347576103936115d7565b9061039c611792565b6001600160a01b039182169283156103e957505082546001600160a01b0319811683178455167f8be0079c531659141344cd1fd0a4f28419497f9722a3daafe3b4186f6b6457e08380a380f35b906020608492519162461bcd60e51b8352820152602660248201527f4f776e61626c653a206e6577206f776e657220697320746865207a65726f206160448201526564647265737360d01b6064820152fd5b838234610374578160031936011261037457517f00000000000000000000000000000000000000000000000000000000000000006001600160a01b03168152602090f35b83823461037457816003193601126103745780516104c2916104a0826116c9565b60038252620c8b8d60ea1b60208301525191829160208352602083019061175d565b0390f35b509190366003190161020081126103475761018013610374576001600160401b03906101843582811161061b576105009036908301611616565b916101a435848111610617576105199036908301611616565b90946101e435908111610343576105339036908401611616565b909261053d611e9b565b61054f60ff60095460a01c1615611e30565b60443560ff8116809103610613576002036105e15750916105b5916105a96105ba9796959461058d8b5198899460606020870152608086019161283c565b906101c4358c850152601f19948585840301606086015261283c565b03908101855284611700565b611fc5565b90916020828051810103126105de5750602001516001805582519182526020820152f35b80fd5b60649060208a519162461bcd60e51b8352820152600c60248201526b1393d517d41493d7d352539560a21b6044820152fd5b8880fd5b8580fd5b8380fd5b50346103475782600319360112610347576020925051908152f35b50919036600319016101c081126103475761018013610374576001600160401b03906101843582811161061b576106749036908301611616565b9290936101a4359182116105de5750916106bc61069b6104c295936106c295369101611616565b6106a3611e9b565b6106b560ff60095460a01c1615611e30565b3691611e65565b91611fc5565b600180939293558351938493845280602085015283019061175d565b509034610347576020366003190112610347576106f96115d7565b610701611792565b6001600160a01b0316918215610749575080546001600160a01b031916821790557f7b23bd31f405e09a43804fe266d4b6c17f4f4369ff5f43f71452c76aa43620ac8280a280f35b906020606492519162461bcd60e51b8352820152600d60248201526c5a45524f5f545245415355525960981b6044820152fd5b83823461037457816003193601126103745760065490516001600160a01b039091168152602090f35b83346105de5760603660031901126105de576107ff6107c26115d7565b6107ca6115f1565b6107d2611792565b6001600160a01b03918216916107f6906107ed8415156119e3565b82161515611a53565b60443591611a89565b80f35b5090346103475782600319360112610347575490516001600160a01b03909116815260209150f35b83823461037457816003193601126103745760095490516001600160a01b039091168152602090f35b838234610374578160031936011261037457602090600b549051908152f35b509190346103745760a03660031901126103745761088e611782565b6080366023190112610347576108a2611792565b83516108ad8161167f565b61ffff916024358381168103610617578252604435918383168303610617576020810192835260643590848216820361034357878101918252608435928584168403610a1f576060820193845260ff1695610909871515611a1c565b61271061093761092d610923898651168a8a511690611c89565b8987511690611c89565b8887511690611c89565b036109f25750906109ec92918580899a897fa5349f7ff96accbf1510e2cc2bd75907e97e32415198b54fa5f688b5da5688659a9b52600f60205281818d20945116938054985195519651988567ffff0000000000008b60301b16916001600160401b0319161763ffff00008860101b161765ffff000000008960201b1617179055519788971694169216908592949360609291608085019661ffff809481809416885216602087015216604085015216910152565b0390a280f35b60649060208a519162461bcd60e51b835282015260076024820152664250535f53554d60c81b6044820152fd5b8780fd5b838234610374578160031936011261037457905490516001600160a01b039091168152602090f35b5082346105de576101809283600319360112610374576001600160a01b039035818116949192908590036105de576044359260ff8416809403610374576064359081168091036103745760e4359060ff82168092036103475761010435926001600160401b0384168094036105de5750916020969391610b5b9593875194898601967fd43704eb6210794490eb2adc9634321be3df45b0929415daef01ecea793a35ba8852898701526024356060870152608086015260a085015260843560c085015260a43560e085015260c4356101008501526101208401526101408301526101243561016083015261014435908201526101a061016435818301528152610b53816116e4565b519020611caa565b9051908152f35b83346105de5760203660031901126105de57610b7c6115d7565b610b84611792565b600980546001600160a01b0319166001600160a01b039290921691821790557fa02be962e2caefdd444626c60855b2d05461d66ff5d91fb56b8aac301a4be3cc8280a280f35b8382346103745760203660031901126103745760209160ff9082906001600160a01b03610bf56115d7565b168152600d855220541690519015158152f35b83823461037457816003193601126103745790610c447f00000000000000000000000000000000000000000000000000000000000000006117e9565b610c6d7f0000000000000000000000000000000000000000000000000000000000000000611910565b91835191610c7a836116ae565b818352610caf8551958695600f60f81b8752610ca260209460e0868a015260e089019061175d565b918783039088015261175d565b904660608601523060808601528260a086015284820360c08601528080855193848152019401925b828110610ce657505050500390f35b835185528695509381019392810192600101610cd7565b50903461034757816003193601126103475735906024359060ff821680920361061b577fb53a59f5ed9f58a889229f0a6434819e6e16f2c98d36d7c7b0eb792536ae10e291602091610d4d611792565b610d58821515611a1c565b848652600e8352808620805460ff19168317905551908152a280f35b8382346103745780600319360112610374577fdfa690c4f4fc6e6bee7503b7febbd23da2bd92e9ad88fc1085f675074ce612846020610db16115d7565b610db9611607565b90610dc2611792565b6001600160a01b031693610dd78515156119e3565b848652600d8352610df6828288209060ff801983541691151516179055565b519015158152a280f35b83823461037457602036600319011261037457806104c29260ff610e22611782565b168152600f602090815291902054915161ffff8084168252601084901c8116828401529183901c8216604082015260309290921c1660608201529081906080820190565b83346105de57806003193601126105de57610e7f611792565b80546001600160a01b03198116825581906001600160a01b03167f8be0079c531659141344cd1fd0a4f28419497f9722a3daafe3b4186f6b6457e08280a380f35b83823461037457816003193601126103745760055490516001600160a01b039091168152602090f35b602082610f18610ef836611643565b91610f01611e9b565b610f1360ff60095460a01c1615611e30565b613036565b906001805551908152f35b83823461037457816003193601126103745760209060ff60095460a01c1690519015158152f35b50903461034757602036600319011261034757610f656115d7565b610f6d611792565b6001600160a01b0316918215610fb8575050600880546001600160a01b031916821790557fe87f0292b441bb77438700774b1ad754d9bd9fc20ef752de029919bffc121d068280a280f35b906020606492519162461bcd60e51b8352820152600b60248201526a2d22a927afa9a4a3a722a960a91b6044820152fd5b8382346103745760203660031901126103745760209160ff9082906001600160a01b036110146115d7565b168152600a855220541690519015158152f35b509034610347576020366003190112610347578160209360ff92358152600e85522054169051908152f35b509034610347576020366003190112610347578160209360ff923581526010855220541690519015158152f35b83823461037457816003193601126103745780516104c2916110a0826116c9565b601d82527f47727565736f6d65417263616465205061796d656e7473526f7574657200000060208301525191829160208352602083019061175d565b5091906110e836611643565b926110f4929192611e9b565b61110660ff60095460a01c1615611e30565b600160ff611115888501611e0e565b16036111445760208661113887878787855193611131856116ae565b84526123e8565b50906001805551908152f35b606490602087519162461bcd60e51b8352820152600b60248201526a4e4f545f4352454449545360a81b6044820152fd5b5082346105de57806003193601126105de57908051918290600b549182855260208095018093600b84527f0175b7a638427703f0dbe7bb9bbf987a2551717b34e79f33b5b1008d1fa01db990845b81811061121d57505050816111d9910382611700565b83519485948186019282875251809352850193925b8281106111fd57505050500390f35b83516001600160a01b0316855286955093810193928101926001016111ee565b82546001600160a01b0316845292880192600192830192016111c3565b8382346103745781600319360112610374576020905160028152f35b8382346103745781600319360112610374576020905160018152f35b83823461037457816003193601126103745751908152602090f35b50919061129936611643565b926112a5929192611e9b565b6112b760ff60095460a01c1615611e30565b600360ff6112c6888501611e0e565b160361130e5750926001600160401b03926112eb926112fd95875193611131856116ae565b60208082959395518301019101611fa6565b600180558351928352166020820152f35b606490602087519162461bcd60e51b8352820152600d60248201526c4e4f545f50524f5f52454e455760981b6044820152fd5b8382346103745781600319360112610374576020905160038152f35b509034610347576020366003190112610347573590811515809203610347577f40db37ff5c0bdc2c427fbb2078c8f24afea940abac0e3c23bb4ea3bf2da2b212916020916113a9611792565b6009805460ff60a01b191660a084901b60ff60a01b1617905551908152a180f35b50346103475780600319360112610347576113e36115d7565b906113ec611607565b916113f5611792565b6001600160a01b03169261140a8415156119e3565b838552600a6020528261142b818488209060ff801983541691151516179055565b611460575b507f9a8e30a8658b96ab3f034ce4bac6806278b4aee5880ccdd1ac35e4ed5bb31d2391602091519015158152a280f35b600c602052818520805460ff81161561147b575b5050611430565b60ff19166001179055600b54906801000000000000000082101561151b576001820180600b558210156115085750600b85527f0175b7a638427703f0dbe7bb9bbf987a2551717b34e79f33b5b1008d1fa01db90180546001600160a01b031916841790558160207f9a8e30a8658b96ab3f034ce4bac6806278b4aee5880ccdd1ac35e4ed5bb31d23611474565b634e487b7160e01b865260329052602485fd5b634e487b7160e01b865260419052602485fd5b50346103475780600319360112610347578280808061154b6115d7565b611553611792565b6001600160a01b0316611567811515611a53565b602435905af1611575611bbd565b501561157f578280f35b906020606492519162461bcd60e51b8352820152600d60248201526c11551217d4d1539117d1905253609a1b6044820152fd5b8490346103745781600319360112610374576007546001600160a01b03168152602090f35b600435906001600160a01b03821682036115ed57565b5f80fd5b602435906001600160a01b03821682036115ed57565b6024359081151582036115ed57565b9181601f840112156115ed578235916001600160401b0383116115ed57602083818601950101116115ed57565b9060031982016101a081126115ed57610180136115ed5760049161018435906001600160401b0382116115ed5761167b918401611616565b9091565b608081019081106001600160401b0382111761169a57604052565b634e487b7160e01b5f52604160045260245ffd5b602081019081106001600160401b0382111761169a57604052565b604081019081106001600160401b0382111761169a57604052565b6101c081019081106001600160401b0382111761169a57604052565b90601f801991011681019081106001600160401b0382111761169a57604052565b6001600160401b03811161169a57601f01601f191660200190565b5f5b83811061174d5750505f910152565b818101518382015260200161173e565b906020916117768151809281855285808601910161173c565b601f01601f1916010190565b6004359060ff821682036115ed57565b5f546001600160a01b031633036117a557565b606460405162461bcd60e51b815260206004820152602060248201527f4f776e61626c653a2063616c6c6572206973206e6f7420746865206f776e65726044820152fd5b60ff81146118275760ff811690601f8211611815576040519161180b836116c9565b8252602082015290565b604051632cd44ac360e21b8152600490fd5b506040515f60025490600182811c90808416938415611906575b60209485841081146118f257838752869493929181156118d25750600114611875575b505061187292500382611700565b90565b9093915060025f527f405787fa12a823e0f2b7631cc41b3ba8828b3321ca811111fa75cd3aa3bb5ace935f915b8183106118ba57505061187293508201015f80611864565b855487840185015294850194869450918301916118a2565b91505061187294925060ff191682840152151560051b8201015f80611864565b634e487b7160e01b85526022600452602485fd5b91607f1691611841565b60ff81146119325760ff811690601f8211611815576040519161180b836116c9565b506040515f60035490600182811c908084169384156119d9575b60209485841081146118f257838752869493929181156118d2575060011461197c57505061187292500382611700565b9093915060035f527fc2575a0e9e593c00f959f8c92f12db2869c3395a3b0502d05e2516446f71f85b935f915b8183106119c157505061187293508201015f80611864565b855487840185015294850194869450918301916119a9565b91607f169161194c565b156119ea57565b60405162461bcd60e51b815260206004820152600a6024820152692d22a927afaa27a5a2a760b11b6044820152606490fd5b15611a2357565b60405162461bcd60e51b815260206004820152600860248201526710905117d2d2539160c21b6044820152606490fd5b15611a5a57565b60405162461bcd60e51b81526020600482015260076024820152665a45524f5f544f60c81b6044820152606490fd5b60405163a9059cbb60e01b60208201526001600160a01b039092166024830152604480830193909352918152611ac791611ac28261167f565b611ac9565b565b60018060a01b031690611b27604051611ae1816116c9565b6020938482527f5361666545524332303a206c6f772d6c6576656c2063616c6c206661696c6564858301525f808587829751910182855af1611b21611bbd565b91611bec565b805191821591848315611b99575b505050905015611b425750565b6084906040519062461bcd60e51b82526004820152602a60248201527f5361666545524332303a204552433230206f7065726174696f6e20646964206e6044820152691bdd081cdd58d8d9595960b21b6064820152fd5b919381809450010312610374578201519081151582036105de5750805f8084611b35565b3d15611be7573d90611bce82611721565b91611bdc6040519384611700565b82523d5f602084013e565b606090565b91929015611c4e5750815115611c00575090565b3b15611c095790565b60405162461bcd60e51b815260206004820152601d60248201527f416464726573733a2063616c6c20746f206e6f6e2d636f6e74726163740000006044820152606490fd5b825190915015611c615750805190602001fd5b60405162461bcd60e51b815260206004820152908190611c8590602483019061175d565b0390fd5b91908201809211611c9657565b634e487b7160e01b5f52601160045260245ffd5b604290611cb5611cd0565b906040519161190160f01b8352600283015260228201522090565b307f00000000000000000000000000000000000000000000000000000000000000006001600160a01b03161480611dd1575b15611d2b577f000000000000000000000000000000000000000000000000000000000000000090565b60405160208101907f8b73c3c69bb8fe3d512ecc4cf759cc79239f7b179b0ffacaa9a75d522b39400f82527f000000000000000000000000000000000000000000000000000000000000000060408201527f000000000000000000000000000000000000000000000000000000000000000060608201524660808201523060a082015260a0815260c081018181106001600160401b0382111761169a5760405251902090565b507f00000000000000000000000000000000000000000000000000000000000000004614611d02565b356001600160a01b03811681036115ed5790565b3560ff811681036115ed5790565b356001600160401b03811681036115ed5790565b15611e3757565b60405162461bcd60e51b815260206004820152600660248201526514105554d15160d21b6044820152606490fd5b929192611e7182611721565b91611e7f6040519384611700565b8294818452818301116115ed578281602093845f960137010152565b600260015414611eac576002600155565b60405162461bcd60e51b815260206004820152601f60248201527f5265656e7472616e637947756172643a207265656e7472616e742063616c6c006044820152606490fd5b15611ef857565b60405162461bcd60e51b815260206004820152600d60248201526c2727afa82927afa0ab20aa20a960991b6044820152606490fd5b15611f3457565b60405162461bcd60e51b81526020600482015260086024820152672120a22faa24a2a960c11b6044820152606490fd5b81601f820112156115ed578051611f7a81611721565b92611f886040519485611700565b818452602082840101116115ed57611872916020808501910161173c565b908160209103126115ed57516001600160401b03811681036115ed5790565b90929160449081359060ff82168092036115ed576001821461235257600282146121345750600314612012575091611ffd919261287c565b906040519161200b836116ae565b5f83529190565b6009546001600160a01b0392919061202d9084161515611ef1565b60e4359460ff86168096141592836115ed57600187101580612126575b9061205861205d9392611f2d565b61287c565b9260095416916115ed575f916040518092631cafb22b60e31b82523360048301528760248301528160209586945af1801561211b576001600160401b03915f916120ee575b5060405195865216938482820152827f7e970b8a33af86947252ef7eb1f3b2512066bd73d5e37765acffbbdcc20ba59360403393a3604051938185015283526120ea836116c9565b9190565b61210e9150833d8511612114575b6121068183611700565b810190611fa6565b5f6120a2565b503d6120fc565b6040513d5f823e3d90fd5b505f9350600387111561204a565b6009546001600160a01b039491939192506121529085161515611ef1565b60e4359060ff82168092141593846115ed57600183101580612344575b61217890611f2d565b80519460209586830190830199606084898d019c03126115ed578151966001600160401b03978881116115ed578c8a6121b392880101611f64565b94604098898201519d60608301519182116115ed578b6121d592840101611f64565b936101643591821561231257519020036122da57906121f39161287c565b9760095416916115ed575f879461224d6122369c60a0948a519e8f9889978896632e327de360e11b88523360048901528d602489015287015260a486019061175d565b91606485015260031984830301608485015261175d565b03925af19586156122d0575f966122a1575b5081519086825283820152837fb6f2d680f93b47dd22a03584fa4603725965208de6c731c54c462de02dfe9846833393a351938185015283526120ea836116c9565b90958382813d83116122c9575b6122b88183611700565b810103126105de575051945f61225f565b503d6122ae565b82513d5f823e3d90fd5b875162461bcd60e51b8152600481018a9052601260248201527108882a882be9082a690be9a92a69a82a886960731b81880152606490fd5b8a5162461bcd60e51b8152600481018d9052600c60248201526b09c9ebe8882a882be9082a6960a31b818b0152606490fd5b505f9450600383111561216f565b5050929060c4359384156123b757509061236b9161287c565b9160405190815260a4356020820152610144356040820152827fd0e1d9e2305927be0943a2814d4866a75e615975fb0be6b6f5e30a9c2018740960603393a36040519161200b836116ae565b606490694e4f5f4352454449545360b01b6040519162461bcd60e51b835260206004840152600a6024840152820152fd5b6040949360ff90868301906001836123ff84611e0e565b16146127a45760028361241184611e0e565b1614612568575081612424600392611e0e565b16146124425750906124369291613036565b91519161200b836116ae565b94906124845f939460018060a01b039561246187600954161515611ef1565b60e084019360018a61247287611e0e565b1610158061254e575b610f1390611f2d565b93600954169061249381611e0e565b9187845193631cafb22b60e31b85523360048601521660248401528260448160209788945af191821561254457906001600160401b0392915f92612521575b506124dc90611e0e565b9683519716875216948583820152837f7e970b8a33af86947252ef7eb1f3b2512066bd73d5e37765acffbbdcc20ba593833393a351938185015283526120ea836116c9565b6124dc91925061253d90863d8811612114576121068183611700565b91906124d2565b83513d5f823e3d90fd5b50610f1360038b61255e88611e0e565b161115905061247b565b60095494976001600160a01b03969495909492506125899087161515611ef1565b60e085019160018461259a85611e0e565b1610158061278a575b6125ac90611f2d565b8151906020998a976060858a81019581019d8e019d03126115ed578351946001600160401b03958681116115ed578d8b6125e892840101611f64565b95898201519d60608301519182116115ed578b61260792840101611f64565b94610160830135918215612757575190200361271e5788949392879261262c92613036565b98600954169161263b86611e0e565b9088519c8d9586948594632e327de360e11b86523360048701521660248501526044840160a0905260a484016126709161175d565b90606484015260031983820301608484015261268b9161175d565b03915a905f91f1968715612544575f976126ed575b506126aa90611e0e565b908251918783521683820152837fb6f2d680f93b47dd22a03584fa4603725965208de6c731c54c462de02dfe9846833393a351938185015283526120ea836116c9565b90968482813d8311612717575b6127048183611700565b810103126105de575051956126aa6126a0565b503d6126fa565b875162461bcd60e51b8152600481018a9052601260248201527108882a882be9082a690be9a92a69a82a886960731b6044820152606490fd5b8a5162461bcd60e51b8152600481018d9052600c60248201526b09c9ebe8882a882be9082a6960a31b6044820152606490fd5b506125ac60038561279a86611e0e565b16111590506125a3565b505050939160c085013591821561280b57610140916127c39187613036565b94835192835260a08101356020840152013582820152837fd0e1d9e2305927be0943a2814d4866a75e615975fb0be6b6f5e30a9c2018740960603393a3519161200b836116ae565b835162461bcd60e51b815260206004820152600a6024820152694e4f5f4352454449545360b01b6044820152606490fd5b908060209392818452848401375f828201840152601f01601f1916010190565b81810292918115918404141715611c9657565b91908203918211611c9657565b9091906004356001600160a01b03811681036115ed57336001600160a01b038216036130055761010435906001600160401b039485831683036115ed5785421686841610612fd6576024355f52600e60205260ff60405f20541680612f84575b506044359260ff841684036115ed576128f960ff85161515611a1c565b606435926001600160a01b038416841415806115ed576001600160a01b038516612f2b575b6115ed5760e4359760ff891689036115ed576129ec92604051927fd43704eb6210794490eb2adc9634321be3df45b0929415daef01ecea793a35ba602085015260018060a01b03166040840152602435606084015260ff8716608084015260018060a01b03861660a084015260843560c084015260a43560e084015260c43561010084015260ff8a16610120840152166101408201526101243561016082015261014435610180820152610164356101a08201526101a081526129e0816116e4565b60208151910120611caa565b93845f52601060205260ff60405f205416612ef957612a13612a1991612a21933691611e65565b856137f7565b9190916136df565b6008546001600160a01b03908116911603612ec757825f52601060205260405f20600160ff1982541617905561ffff839560ff84165f52600f60205260405f2060405190612a6e8261167f565b548381168252838160101c166020830152838160201c166040830152612ac9612abb612aae6060850193878160301c16855287808260101c169116611c89565b8660408601511690611c89565b612710958693511690611c89565b03612e925782612ae061ffff83511660843561285c565b0492612b0a61ffff604083612afd8360208801511660843561285c565b049401511660843561285c565b04612b2481612b1f84612b1f8860843561286f565b61286f565b5f948594919391856001600160a01b038916612ca657506084353403612c71575f80808060843560018060a01b03600454165af1612b60611bbd565b5015612c3857608435965b6115ed5760ff90816040519a168a5260018060a01b03891660208b015260843560408b015260a43560608b015260c43560808b01521660a089015260c088015260e087015261010086015261012085015261014084015261016083015260018060a01b037f0000000000000000000000000000000000000000000000000000000000000000169060018060a01b031614610180820152610144356101a0820152602435917f1d3d5b92d2ca7b8620ee8e5cfb7dbba20b7e3a3557aad911947d027ac01a084c6101c03393a4565b60405162461bcd60e51b81526020600482015260116024820152701514915054d5549657d1551217d1905253607a1b6044820152606490fd5b60405162461bcd60e51b815260206004820152600d60248201526c4241445f4d53475f56414c554560981b6044820152606490fd5b9095965034612e61575f6001600160a01b038981167f000000000000000000000000000000000000000000000000000000000000000090911614612da05750506001600160a01b0387165f908152600d602052604081205490969060ff1680612d97575b15612d6b5750600554612d2e9082906001600160a01b039081169033908b16613687565b8094612d3c8260843561286f565b80612d48575b96612b6b565b600454612d669082906001600160a01b039081169033908d16613687565b612d42565b600454909590612d8e90608435906001600160a01b039081169033908c16613687565b60843596612b6b565b50811515612d0a565b90969590612dbb60843530336001600160a01b038d16613687565b82612e3b575b83612e1a575b84612df9575b8515612b6b57600454909750612df29086906001600160a01b03908116908b16611a89565b8496612b6b565b600754612e159086906001600160a01b03908116908c16611a89565b612dcd565b600654612e369085906001600160a01b03908116908c16611a89565b612dc7565b600554909650612e5a9083906001600160a01b03908116908b16611a89565b8195612dc1565b60405162461bcd60e51b81526020600482015260096024820152684e4f5f4e415449564560b81b6044820152606490fd5b60405162461bcd60e51b815260206004820152600d60248201526c53504c49545f4d495353494e4760981b6044820152606490fd5b60405162461bcd60e51b815260206004820152600a6024820152692120a22fa9a4a3a722a960b11b6044820152606490fd5b60405162461bcd60e51b815260206004820152600a602482015269145553d51157d554d15160b21b6044820152606490fd5b506001600160a01b0384165f908152600a602052604081205460ff1661291e5760405162461bcd60e51b81526020600482015260116024820152701513d2d15397d393d517d0531313d5d151607a1b6044820152606490fd5b60443560ff81168091036115ed5703612f9d575f6128dc565b60405162461bcd60e51b81526020600482015260116024820152700a696aabe96929c88be9a92a69a82a8869607b1b6044820152606490fd5b60405162461bcd60e51b81526020600482015260076024820152661156141254915160ca1b6044820152606490fd5b60405162461bcd60e51b81526020600482015260096024820152682727aa2fa12aaca2a960b91b6044820152606490fd5b929161304184611dfa565b336001600160a01b03909116036130055761305f6101008501611e1c565b6001600160401b03804216911610612fd65760208401355f52600e60205260ff60405f2054168061366d575b506130a560ff61309d60408701611e0e565b161515611a1c565b6001600160a01b036130b960608601611dfa565b1661360c575b6131bc6130cb85611dfa565b6001600160401b036130df60408801611e0e565b60ff6130ed60608a01611dfa565b6130f960e08b01611e0e565b90826131086101008d01611e1c565b94604051977fd43704eb6210794490eb2adc9634321be3df45b0929415daef01ecea793a35ba60208a015260018060a01b0316604089015260208d0135606089015216608087015260018060a01b031660a086015260808a013560c086015260a08a013560e086015260c08a013561010086015216610120840152166101408201526101208601356101608201526101408601356101808201526101608601356101a08201526101a081526129e0816116e4565b91825f52601060205260ff60405f205416612ef9576131e3612a19916131e9933691611e65565b836137f7565b6008546001600160a01b03908116911603612ec757805f52601060205260405f20600160ff19825416179055809260ff61322560408301611e0e565b165f52600f60205260405f20612710613293604051926132448461167f565b5461ffff61328a61327d828416808852838560101c16908160208a0152848660201c1660408a01528460608a019660301c168652611c89565b8260408801511690611c89565b91511690611c89565b03612e92576127106132ae61ffff835116608085013561285c565b04916127106132df61ffff6040836132d083602089015116608088013561285c565b0495015116608084013561285c565b04916132f783612b1f83612b1f88608088013561286f565b9061330460608401611dfa565b915f90816001600160a01b0361331c60608801611dfa565b1661344e575060808501353403612c71575f808080608089013560018060a01b03600454165af161334b611bbd565b5015612c38576020956080860135935b61336760408801611e0e565b9860ff61337660608a01611dfa565b61338260e08b01611e0e565b90826040519d168d5260018060a01b03168b8d015260808a013560408d015260a08a013560608d015260c08a013560808d01521660a08b015260c08a015260e089015261010088015261012087015261014086015261016085015260018060a01b037f0000000000000000000000000000000000000000000000000000000000000000169060018060a01b0316146101808401526101408101356101a08401520135917f1d3d5b92d2ca7b8620ee8e5cfb7dbba20b7e3a3557aad911947d027ac01a084c6101c03393a4565b919534612e61576020966001600160a01b0361346c60608901611dfa565b16936001600160a01b038781167f00000000000000000000000000000000000000000000000000000000000000009091161461355e57506001600160a01b036134b760608901611dfa565b165f52600d885260ff60405f20541680613555575b1561352c57506005546134eb9089906001600160a01b03163386613687565b87926134fb89608089013561286f565b90818061350b575b50509361335b565b600454613525926001600160a01b03909116903390613687565b5f81613503565b9261354a9060808801359060018060a01b0360045416903390613687565b60808601359361335b565b508815156134cc565b9490936135716080890135303384613687565b896135ea575b816135cd575b826135b0575b8361358f575b5061335b565b6135a8919550839060018060a01b036004541690611a89565b81935f613589565b6007546135c89084906001600160a01b031683611a89565b613583565b6006546135e59083906001600160a01b031683611a89565b61357d565b600554909450613605908a906001600160a01b031686611a89565b8893613577565b6001600160a01b0361362060608601611dfa565b165f52600a60205260ff60405f2054166130bf5760405162461bcd60e51b81526020600482015260116024820152701513d2d15397d393d517d0531313d5d151607a1b6044820152606490fd5b60ff61367b60408701611e0e565b1603612f9d575f61308b565b6040516323b872dd60e01b60208201526001600160a01b03928316602482015292909116604483015260648083019390935291815260a08101918183106001600160401b0384111761169a57611ac792604052611ac9565b60058110156137e357806136f05750565b6001810361373d5760405162461bcd60e51b815260206004820152601860248201527f45434453413a20696e76616c6964207369676e617475726500000000000000006044820152606490fd5b6002810361378a5760405162461bcd60e51b815260206004820152601f60248201527f45434453413a20696e76616c6964207369676e6174757265206c656e677468006044820152606490fd5b60031461379357565b60405162461bcd60e51b815260206004820152602260248201527f45434453413a20696e76616c6964207369676e6174757265202773272076616c604482015261756560f01b6064820152608490fd5b634e487b7160e01b5f52602160045260245ffd5b9060418151145f1461381f5761167b91602082015190606060408401519301515f1a90613828565b50505f90600290565b9291907f7fffffffffffffffffffffffffffffff5d576e7357a4501ddfe92f46681b20a083116138aa5791608094939160ff6020946040519485521684840152604083015260608201525f93849182805260015afa1561389d5781516001600160a01b03811615613897579190565b50600190565b50604051903d90823e3d90fd5b505050505f9060039056fea2646970667358221220cb884ab821cc137d094becea597ba0243e92aaecb3ef86e0cde2928615e071e964736f6c63430008140033a5349f7ff96accbf1510e2cc2bd75907e97e32415198b54fa5f688b5da568865","opcodes":"PUSH2 0x180 CALLVALUE PUSH3 0x7AA JUMPI PUSH1 0x1F PUSH3 0x44C6 CODESIZE DUP2 SWAP1 SUB SWAP2 DUP3 ADD PUSH1 0x1F NOT AND DUP4 ADD SWAP2 PUSH1 0x1 PUSH1 0x1 PUSH1 0x40 SHL SUB DUP4 GT DUP5 DUP5 LT OR PUSH3 0x637 JUMPI DUP1 DUP5 SWAP3 PUSH1 0xE0 SWAP5 PUSH1 0x40 MSTORE DUP4 CODECOPY DUP2 ADD SUB SLT PUSH3 0x7AA JUMPI PUSH3 0x4E DUP2 PUSH3 0x7E6 JUMP JUMPDEST PUSH3 0x5C PUSH1 0x20 DUP4 ADD PUSH3 0x7E6 JUMP JUMPDEST SWAP2 PUSH3 0x6B PUSH1 0x40 DUP3 ADD PUSH3 0x7E6 JUMP JUMPDEST SWAP2 PUSH3 0x7A PUSH1 0x60 DUP4 ADD PUSH3 0x7E6 JUMP JUMPDEST SWAP2 PUSH3 0x89 PUSH1 0x80 DUP3 ADD PUSH3 0x7E6 JUMP JUMPDEST SWAP1 PUSH3 0xA6 PUSH1 0xC0 PUSH3 0x9E PUSH1 0xA0 DUP5 ADD PUSH3 0x7E6 JUMP JUMPDEST SWAP3 ADD PUSH3 0x7E6 JUMP JUMPDEST SWAP2 PUSH1 0x40 MLOAD PUSH3 0xB5 DUP2 PUSH3 0x7CA JUMP JUMPDEST PUSH1 0x1D DUP2 MSTORE PUSH32 0x47727565736F6D65417263616465205061796D656E7473526F75746572000000 PUSH1 0x20 DUP3 ADD MSTORE PUSH1 0x40 MLOAD SWAP1 PUSH3 0xEE DUP3 PUSH3 0x7CA JUMP JUMPDEST PUSH1 0x3 DUP3 MSTORE PUSH3 0xC8B8D PUSH1 0xEA SHL PUSH1 0x20 DUP4 ADD MSTORE PUSH3 0x109 CALLER PUSH3 0x7FB JUMP JUMPDEST PUSH1 0x1 DUP1 SSTORE PUSH3 0x118 DUP2 PUSH3 0x841 JUMP JUMPDEST PUSH2 0x120 MSTORE PUSH3 0x127 DUP3 PUSH3 0xA10 JUMP JUMPDEST PUSH2 0x140 MSTORE PUSH1 0x20 DUP2 MLOAD SWAP2 ADD KECCAK256 SWAP1 DUP2 PUSH1 0xE0 MSTORE PUSH1 0x20 DUP2 MLOAD SWAP2 ADD KECCAK256 SWAP1 DUP2 PUSH2 0x100 MSTORE CHAINID PUSH1 0xA0 MSTORE PUSH1 0x40 MLOAD SWAP2 PUSH1 0x20 DUP4 ADD SWAP2 PUSH32 0x8B73C3C69BB8FE3D512ECC4CF759CC79239F7B179B0FFACAA9A75D522B39400F DUP4 MSTORE PUSH1 0x40 DUP5 ADD MSTORE PUSH1 0x60 DUP4 ADD MSTORE CHAINID PUSH1 0x80 DUP4 ADD MSTORE ADDRESS PUSH1 0xA0 DUP4 ADD MSTORE PUSH1 0xA0 DUP3 MSTORE PUSH1 0xC0 DUP3 ADD SWAP1 DUP3 DUP3 LT PUSH1 0x1 DUP1 PUSH1 0x40 SHL SUB DUP4 GT OR PUSH3 0x637 JUMPI PUSH1 0x40 DUP3 SWAP1 MSTORE DUP3 MLOAD SWAP1 KECCAK256 PUSH1 0x80 MSTORE ADDRESS PUSH1 0xC0 MSTORE PUSH1 0x1 PUSH1 0x1 PUSH1 0xA0 SHL SUB SWAP2 DUP7 DUP4 AND ISZERO PUSH3 0x779 JUMPI POP POP DUP1 DUP9 AND SWAP7 DUP8 ISZERO PUSH3 0x748 JUMPI DUP2 AND SWAP6 DUP7 ISZERO PUSH3 0x713 JUMPI DUP2 AND SWAP2 DUP3 ISZERO PUSH3 0x6E3 JUMPI DUP2 AND SWAP3 DUP4 ISZERO PUSH3 0x6B1 JUMPI DUP2 AND SWAP4 DUP5 ISZERO PUSH3 0x67E JUMPI AND SWAP4 DUP5 ISZERO PUSH3 0x64B JUMPI PUSH3 0x210 SWAP1 PUSH3 0x7FB JUMP JUMPDEST PUSH2 0x160 SWAP7 DUP8 MSTORE PUSH1 0x1 DUP1 PUSH1 0xA0 SHL SUB NOT SWAP5 DUP6 PUSH1 0x4 SLOAD AND OR PUSH1 0x4 SSTORE DUP5 PUSH1 0x5 SLOAD AND OR PUSH1 0x5 SSTORE DUP4 PUSH1 0x6 SLOAD AND OR PUSH1 0x6 SSTORE DUP3 PUSH1 0x7 SLOAD AND OR PUSH1 0x7 SSTORE DUP2 PUSH1 0x8 SLOAD AND OR PUSH1 0x8 SSTORE DUP2 PUSH0 MSTORE PUSH1 0xA PUSH1 0x20 MSTORE PUSH1 0x40 PUSH0 KECCAK256 PUSH1 0xFF NOT SWAP1 PUSH1 0x1 DUP3 DUP3 SLOAD AND OR SWAP1 SSTORE PUSH1 0xC PUSH1 0x20 MSTORE PUSH1 0x40 PUSH0 KECCAK256 SWAP1 DUP2 SLOAD SWAP1 PUSH1 0xFF DUP3 AND ISZERO PUSH3 0x5DC JUMPI JUMPDEST DUP6 DUP6 PUSH32 0x9A8E30A8658B96AB3F034CE4BAC6806278B4AEE5880CCDD1AC35E4ED5BB31D23 PUSH1 0x20 PUSH1 0x40 MLOAD PUSH1 0x1 DUP2 MSTORE LOG2 PUSH1 0x1 PUSH0 DUP1 MLOAD PUSH1 0x20 PUSH3 0x44A6 DUP4 CODECOPY DUP2 MLOAD SWAP2 MSTORE PUSH1 0x80 PUSH1 0x40 MLOAD PUSH3 0x2CB DUP2 PUSH3 0x7AE JUMP JUMPDEST PUSH2 0x2BC DUP2 MSTORE PUSH2 0x1B8F PUSH1 0x20 DUP3 ADD MSTORE PUSH2 0x4DD PUSH1 0x40 DUP3 ADD MSTORE PUSH2 0x3E8 PUSH1 0x60 DUP3 ADD MSTORE DUP4 PUSH0 MSTORE PUSH1 0xF PUSH1 0x20 MSTORE PUSH2 0xFFFF PUSH1 0x40 PUSH0 KECCAK256 DUP2 DUP1 DUP5 MLOAD AND SWAP4 DUP2 DUP4 SLOAD SWAP4 PUSH1 0x20 DUP4 ADD MLOAD SWAP1 PUSH1 0x60 PUSH1 0x40 DUP6 ADD MLOAD SWAP5 ADD MLOAD SWAP6 DUP9 PUSH8 0xFFFF000000000000 DUP9 PUSH1 0x30 SHL AND SWAP2 DUP14 DUP1 PUSH1 0x40 SHL SUB NOT AND OR PUSH4 0xFFFF0000 DUP5 PUSH1 0x10 SHL AND OR PUSH6 0xFFFF00000000 DUP7 PUSH1 0x20 SHL AND OR OR SWAP1 SSTORE PUSH1 0x40 MLOAD SWAP7 DUP8 MSTORE AND PUSH1 0x20 DUP7 ADD MSTORE AND PUSH1 0x40 DUP5 ADD MSTORE AND PUSH1 0x60 DUP3 ADD MSTORE LOG2 PUSH1 0x2 PUSH0 DUP1 MLOAD PUSH1 0x20 PUSH3 0x44A6 DUP4 CODECOPY DUP2 MLOAD SWAP2 MSTORE PUSH1 0x80 PUSH1 0x40 MLOAD PUSH3 0x380 DUP2 PUSH3 0x7AE JUMP JUMPDEST PUSH2 0x9C4 DUP2 MSTORE PUSH0 PUSH1 0x20 DUP3 ADD MSTORE PUSH2 0x1388 PUSH1 0x40 DUP3 ADD MSTORE PUSH2 0xFFFF PUSH1 0x60 DUP3 ADD PUSH2 0x9C4 DUP2 MSTORE DUP6 PUSH0 MSTORE PUSH1 0xF PUSH1 0x20 MSTORE DUP2 PUSH1 0x40 PUSH0 KECCAK256 SWAP2 DUP2 DUP1 DUP7 MLOAD AND SWAP6 DUP5 SLOAD SWAP5 PUSH1 0x40 PUSH1 0x20 DUP4 ADD MLOAD SWAP3 ADD MLOAD SWAP4 MLOAD SWAP6 DUP9 PUSH8 0xFFFF000000000000 DUP9 PUSH1 0x30 SHL AND SWAP2 PUSH1 0x1 DUP1 PUSH1 0x40 SHL SUB NOT AND OR PUSH4 0xFFFF0000 DUP5 PUSH1 0x10 SHL AND OR PUSH6 0xFFFF00000000 DUP7 PUSH1 0x20 SHL AND OR OR SWAP1 SSTORE PUSH1 0x40 MLOAD SWAP7 DUP8 MSTORE AND PUSH1 0x20 DUP7 ADD MSTORE AND PUSH1 0x40 DUP5 ADD MSTORE AND PUSH1 0x60 DUP3 ADD MSTORE LOG2 PUSH1 0x3 PUSH0 DUP1 MLOAD PUSH1 0x20 PUSH3 0x44A6 DUP4 CODECOPY DUP2 MLOAD SWAP2 MSTORE PUSH1 0x80 PUSH1 0x40 MLOAD PUSH3 0x432 DUP2 PUSH3 0x7AE JUMP JUMPDEST PUSH2 0x9C4 DUP2 MSTORE PUSH2 0xFFFF PUSH1 0x20 DUP3 ADD PUSH0 DUP2 MSTORE DUP2 PUSH1 0x40 DUP5 ADD PUSH2 0x1388 DUP2 MSTORE DUP2 PUSH1 0x60 DUP7 ADD SWAP2 PUSH2 0x9C4 DUP4 MSTORE DUP10 PUSH0 MSTORE PUSH1 0xF PUSH1 0x20 MSTORE DUP2 PUSH1 0x40 PUSH0 KECCAK256 SWAP8 MLOAD AND SWAP7 DUP1 SLOAD SWAP6 MLOAD SWAP2 MLOAD SWAP4 MLOAD SWAP6 DUP9 PUSH8 0xFFFF000000000000 DUP9 PUSH1 0x30 SHL AND SWAP2 PUSH1 0x1 DUP1 PUSH1 0x40 SHL SUB NOT AND OR PUSH4 0xFFFF0000 DUP5 PUSH1 0x10 SHL AND OR PUSH6 0xFFFF00000000 DUP7 PUSH1 0x20 SHL AND OR OR SWAP1 SSTORE PUSH1 0x40 MLOAD SWAP7 DUP8 MSTORE AND PUSH1 0x20 DUP7 ADD MSTORE AND PUSH1 0x40 DUP5 ADD MSTORE AND PUSH1 0x60 DUP3 ADD MSTORE LOG2 PUSH1 0x4 PUSH0 DUP1 MLOAD PUSH1 0x20 PUSH3 0x44A6 DUP4 CODECOPY DUP2 MLOAD SWAP2 MSTORE PUSH1 0x80 PUSH1 0x40 MLOAD PUSH3 0x4DF DUP2 PUSH3 0x7AE JUMP JUMPDEST PUSH0 DUP2 MSTORE PUSH2 0xFFFF PUSH1 0x20 DUP3 ADD PUSH0 DUP2 MSTORE DUP2 PUSH1 0x40 DUP5 ADD PUSH0 DUP2 MSTORE DUP2 PUSH1 0x60 DUP7 ADD SWAP2 PUSH2 0x2710 DUP4 MSTORE DUP10 PUSH0 MSTORE PUSH1 0xF PUSH1 0x20 MSTORE DUP2 PUSH1 0x40 PUSH0 KECCAK256 SWAP8 MLOAD AND SWAP7 DUP1 SLOAD SWAP6 MLOAD SWAP2 MLOAD SWAP4 MLOAD SWAP6 DUP9 PUSH8 0xFFFF000000000000 DUP9 PUSH1 0x30 SHL AND SWAP2 PUSH1 0x1 DUP1 PUSH1 0x40 SHL SUB NOT AND OR PUSH4 0xFFFF0000 DUP5 PUSH1 0x10 SHL AND OR PUSH6 0xFFFF00000000 DUP7 PUSH1 0x20 SHL AND OR OR SWAP1 SSTORE PUSH1 0x40 MLOAD SWAP7 DUP8 MSTORE AND PUSH1 0x20 DUP7 ADD MSTORE AND PUSH1 0x40 DUP5 ADD MSTORE AND PUSH1 0x60 DUP3 ADD MSTORE LOG2 PUSH1 0x40 MLOAD PUSH2 0x38EB SWAP2 DUP3 PUSH3 0xBBB DUP4 CODECOPY PUSH1 0x80 MLOAD DUP3 PUSH2 0x1D09 ADD MSTORE PUSH1 0xA0 MLOAD DUP3 PUSH2 0x1DD4 ADD MSTORE PUSH1 0xC0 MLOAD DUP3 PUSH2 0x1CD3 ADD MSTORE PUSH1 0xE0 MLOAD DUP3 PUSH2 0x1D58 ADD MSTORE PUSH2 0x100 MLOAD DUP3 PUSH2 0x1D7E ADD MSTORE PUSH2 0x120 MLOAD DUP3 PUSH2 0xC20 ADD MSTORE PUSH2 0x140 MLOAD DUP3 PUSH2 0xC49 ADD MSTORE MLOAD DUP2 DUP2 DUP2 PUSH2 0x450 ADD MSTORE DUP2 DUP2 PUSH2 0x2BD1 ADD MSTORE DUP2 DUP2 PUSH2 0x2CBD ADD MSTORE DUP2 DUP2 PUSH2 0x33E6 ADD MSTORE PUSH2 0x347B ADD MSTORE RETURN JUMPDEST AND PUSH1 0x1 OR SWAP1 SSTORE PUSH1 0xB SLOAD PUSH9 0x10000000000000000 DUP2 LT ISZERO PUSH3 0x637 JUMPI PUSH1 0x1 DUP2 ADD DUP1 PUSH1 0xB SSTORE DUP2 LT ISZERO PUSH3 0x623 JUMPI DUP3 SWAP1 PUSH1 0xB PUSH0 MSTORE PUSH1 0x20 PUSH0 KECCAK256 ADD SWAP2 DUP3 SLOAD AND OR SWAP1 SSTORE PUSH0 DUP1 DUP1 DUP1 PUSH3 0x27D JUMP JUMPDEST PUSH4 0x4E487B71 PUSH1 0xE0 SHL PUSH0 MSTORE PUSH1 0x32 PUSH1 0x4 MSTORE PUSH1 0x24 PUSH0 REVERT JUMPDEST PUSH4 0x4E487B71 PUSH1 0xE0 SHL PUSH0 MSTORE PUSH1 0x41 PUSH1 0x4 MSTORE PUSH1 0x24 PUSH0 REVERT JUMPDEST PUSH1 0x40 MLOAD PUSH3 0x461BCD PUSH1 0xE5 SHL DUP2 MSTORE PUSH1 0x20 PUSH1 0x4 DUP3 ADD MSTORE PUSH1 0xB PUSH1 0x24 DUP3 ADD MSTORE PUSH11 0x2D22A927AFA9A4A3A722A9 PUSH1 0xA9 SHL PUSH1 0x44 DUP3 ADD MSTORE PUSH1 0x64 SWAP1 REVERT JUMPDEST PUSH1 0x40 MLOAD PUSH3 0x461BCD PUSH1 0xE5 SHL DUP2 MSTORE PUSH1 0x20 PUSH1 0x4 DUP3 ADD MSTORE PUSH1 0xB PUSH1 0x24 DUP3 ADD MSTORE PUSH11 0x5A45524F5F5745454B4C59 PUSH1 0xA8 SHL PUSH1 0x44 DUP3 ADD MSTORE PUSH1 0x64 SWAP1 REVERT JUMPDEST PUSH1 0x40 MLOAD PUSH3 0x461BCD PUSH1 0xE5 SHL DUP2 MSTORE PUSH1 0x20 PUSH1 0x4 DUP3 ADD MSTORE PUSH1 0xA PUSH1 0x24 DUP3 ADD MSTORE PUSH10 0x5A45524F5F4441494C59 PUSH1 0xB0 SHL PUSH1 0x44 DUP3 ADD MSTORE PUSH1 0x64 SWAP1 REVERT JUMPDEST PUSH1 0x40 MLOAD PUSH3 0x461BCD PUSH1 0xE5 SHL DUP2 MSTORE PUSH1 0x20 PUSH1 0x4 DUP3 ADD MSTORE PUSH1 0x8 PUSH1 0x24 DUP3 ADD MSTORE PUSH8 0x5A45524F5F4F5053 PUSH1 0xC0 SHL PUSH1 0x44 DUP3 ADD MSTORE PUSH1 0x64 SWAP1 REVERT JUMPDEST PUSH1 0x40 MLOAD PUSH3 0x461BCD PUSH1 0xE5 SHL DUP2 MSTORE PUSH1 0x20 PUSH1 0x4 DUP3 ADD MSTORE PUSH1 0xD PUSH1 0x24 DUP3 ADD MSTORE PUSH13 0x5A45524F5F5452454153555259 PUSH1 0x98 SHL PUSH1 0x44 DUP3 ADD MSTORE PUSH1 0x64 SWAP1 REVERT JUMPDEST PUSH1 0x40 MLOAD PUSH3 0x461BCD PUSH1 0xE5 SHL DUP2 MSTORE PUSH1 0x20 PUSH1 0x4 DUP3 ADD MSTORE PUSH1 0x9 PUSH1 0x24 DUP3 ADD MSTORE PUSH9 0x16915493D7D35554D1 PUSH1 0xBA SHL PUSH1 0x44 DUP3 ADD MSTORE PUSH1 0x64 SWAP1 REVERT JUMPDEST PUSH3 0x461BCD PUSH1 0xE5 SHL DUP3 MSTORE PUSH1 0x20 PUSH1 0xC4 DUP3 ADD MSTORE PUSH1 0xA PUSH1 0xE4 DUP3 ADD MSTORE PUSH10 0x2D22A927AFA7ABA722A9 PUSH1 0xB1 SHL PUSH2 0x104 SWAP1 SWAP2 ADD MSTORE PUSH1 0x64 SWAP1 REVERT JUMPDEST PUSH0 DUP1 REVERT JUMPDEST PUSH1 0x80 DUP2 ADD SWAP1 DUP2 LT PUSH1 0x1 PUSH1 0x1 PUSH1 0x40 SHL SUB DUP3 GT OR PUSH3 0x637 JUMPI PUSH1 0x40 MSTORE JUMP JUMPDEST PUSH1 0x40 DUP2 ADD SWAP1 DUP2 LT PUSH1 0x1 PUSH1 0x1 PUSH1 0x40 SHL SUB DUP3 GT OR PUSH3 0x637 JUMPI PUSH1 0x40 MSTORE JUMP JUMPDEST MLOAD SWAP1 PUSH1 0x1 PUSH1 0x1 PUSH1 0xA0 SHL SUB DUP3 AND DUP3 SUB PUSH3 0x7AA JUMPI JUMP JUMPDEST PUSH0 DUP1 SLOAD PUSH1 0x1 PUSH1 0x1 PUSH1 0xA0 SHL SUB SWAP3 DUP4 AND PUSH1 0x1 PUSH1 0x1 PUSH1 0xA0 SHL SUB NOT DUP3 AND DUP2 OR DUP4 SSTORE SWAP3 AND SWAP1 PUSH32 0x8BE0079C531659141344CD1FD0A4F28419497F9722A3DAAFE3B4186F6B6457E0 SWAP1 DUP1 LOG3 JUMP JUMPDEST DUP1 MLOAD PUSH1 0x20 SWAP1 DUP2 DUP2 LT ISZERO PUSH3 0x8DB JUMPI POP PUSH1 0x1F DUP3 MLOAD GT PUSH3 0x87C JUMPI DUP1 DUP3 MLOAD SWAP3 ADD MLOAD SWAP1 DUP1 DUP4 LT PUSH3 0x86E JUMPI POP OR SWAP1 JUMP JUMPDEST DUP3 PUSH0 NOT SWAP2 SUB PUSH1 0x3 SHL SHL AND OR SWAP1 JUMP JUMPDEST SWAP1 PUSH1 0x40 MLOAD DUP1 SWAP3 PUSH4 0x305A27A9 PUSH1 0xE0 SHL DUP3 MSTORE DUP1 PUSH1 0x4 DUP4 ADD MSTORE DUP3 MLOAD SWAP1 DUP2 PUSH1 0x24 DUP5 ADD MSTORE PUSH0 SWAP4 JUMPDEST DUP3 DUP6 LT PUSH3 0x8C1 JUMPI POP POP PUSH1 0x44 SWAP3 POP PUSH0 DUP4 DUP3 DUP5 ADD ADD MSTORE PUSH1 0x1F DUP1 NOT SWAP2 ADD AND DUP2 ADD SUB ADD SWAP1 REVERT JUMPDEST DUP5 DUP2 ADD DUP3 ADD MLOAD DUP7 DUP7 ADD PUSH1 0x44 ADD MSTORE SWAP4 DUP2 ADD SWAP4 DUP6 SWAP4 POP PUSH3 0x89E JUMP JUMPDEST SWAP1 PUSH1 0x1 PUSH1 0x1 PUSH1 0x40 SHL SUB DUP3 GT PUSH3 0x637 JUMPI PUSH1 0x2 SLOAD SWAP3 PUSH1 0x1 SWAP4 DUP5 DUP2 DUP2 SHR SWAP2 AND DUP1 ISZERO PUSH3 0xA05 JUMPI JUMPDEST DUP4 DUP3 LT EQ PUSH3 0x9F1 JUMPI PUSH1 0x1F DUP2 GT PUSH3 0x9BA JUMPI JUMPDEST POP DUP2 PUSH1 0x1F DUP5 GT PUSH1 0x1 EQ PUSH3 0x952 JUMPI POP SWAP3 DUP3 SWAP4 SWAP2 DUP4 SWAP3 PUSH0 SWAP5 PUSH3 0x946 JUMPI JUMPDEST POP POP SHL SWAP2 PUSH0 NOT SWAP1 PUSH1 0x3 SHL SHR NOT AND OR PUSH1 0x2 SSTORE PUSH1 0xFF SWAP1 JUMP JUMPDEST ADD MLOAD SWAP3 POP PUSH0 DUP1 PUSH3 0x930 JUMP JUMPDEST SWAP2 SWAP1 DUP4 PUSH1 0x1F NOT DUP2 AND PUSH1 0x2 PUSH0 MSTORE DUP5 PUSH0 KECCAK256 SWAP5 PUSH0 SWAP1 JUMPDEST DUP9 DUP4 DUP4 LT PUSH3 0x99F JUMPI POP POP POP LT PUSH3 0x986 JUMPI JUMPDEST POP POP POP DUP2 SHL ADD PUSH1 0x2 SSTORE PUSH1 0xFF SWAP1 JUMP JUMPDEST ADD MLOAD PUSH0 NOT PUSH1 0xF8 DUP5 PUSH1 0x3 SHL AND SHR NOT AND SWAP1 SSTORE PUSH0 DUP1 DUP1 PUSH3 0x978 JUMP JUMPDEST DUP6 DUP8 ADD MLOAD DUP9 SSTORE SWAP1 SWAP7 ADD SWAP6 SWAP5 DUP6 ADD SWAP5 DUP8 SWAP4 POP SWAP1 DUP2 ADD SWAP1 PUSH3 0x965 JUMP JUMPDEST PUSH1 0x2 PUSH0 MSTORE DUP5 PUSH1 0x1F DUP5 PUSH0 KECCAK256 SWAP3 ADD PUSH1 0x5 SHR DUP3 ADD SWAP2 PUSH1 0x1F DUP7 ADD PUSH1 0x5 SHR ADD JUMPDEST DUP3 DUP2 LT PUSH3 0x9E5 JUMPI POP POP PUSH3 0x913 JUMP JUMPDEST PUSH0 DUP2 SSTORE ADD DUP6 SWAP1 PUSH3 0x9D5 JUMP JUMPDEST PUSH4 0x4E487B71 PUSH1 0xE0 SHL PUSH0 MSTORE PUSH1 0x22 PUSH1 0x4 MSTORE PUSH1 0x24 PUSH0 REVERT JUMPDEST SWAP1 PUSH1 0x7F AND SWAP1 PUSH3 0x900 JUMP JUMPDEST DUP1 MLOAD PUSH1 0x20 SWAP2 SWAP1 DUP3 DUP2 LT ISZERO PUSH3 0xA9E JUMPI POP SWAP1 PUSH1 0x1F DUP3 MLOAD GT PUSH3 0xA3F JUMPI DUP1 DUP3 MLOAD SWAP3 ADD MLOAD SWAP1 DUP1 DUP4 LT PUSH3 0x86E JUMPI POP OR SWAP1 JUMP JUMPDEST SWAP1 PUSH1 0x40 MLOAD DUP1 SWAP3 PUSH4 0x305A27A9 PUSH1 0xE0 SHL DUP3 MSTORE DUP1 PUSH1 0x4 DUP4 ADD MSTORE DUP3 MLOAD SWAP1 DUP2 PUSH1 0x24 DUP5 ADD MSTORE PUSH0 SWAP4 JUMPDEST DUP3 DUP6 LT PUSH3 0xA84 JUMPI POP POP PUSH1 0x44 SWAP3 POP PUSH0 DUP4 DUP3 DUP5 ADD ADD MSTORE PUSH1 0x1F DUP1 NOT SWAP2 ADD AND DUP2 ADD SUB ADD SWAP1 REVERT JUMPDEST DUP5 DUP2 ADD DUP3 ADD MLOAD DUP7 DUP7 ADD PUSH1 0x44 ADD MSTORE SWAP4 DUP2 ADD SWAP4 DUP6 SWAP4 POP PUSH3 0xA61 JUMP JUMPDEST PUSH1 0x1 PUSH1 0x1 PUSH1 0x40 SHL SUB DUP2 GT PUSH3 0x637 JUMPI PUSH1 0x3 SWAP3 DUP4 SLOAD SWAP3 PUSH1 0x1 SWAP4 DUP5 DUP2 DUP2 SHR SWAP2 AND DUP1 ISZERO PUSH3 0xBAF JUMPI JUMPDEST DUP4 DUP3 LT EQ PUSH3 0x9F1 JUMPI PUSH1 0x1F DUP2 GT PUSH3 0xB79 JUMPI JUMPDEST POP DUP2 PUSH1 0x1F DUP5 GT PUSH1 0x1 EQ PUSH3 0xB14 JUMPI POP SWAP3 DUP3 SWAP4 SWAP2 DUP4 SWAP3 PUSH0 SWAP5 PUSH3 0xB08 JUMPI JUMPDEST POP POP SHL SWAP2 PUSH0 NOT SWAP1 DUP5 SHL SHR NOT AND OR SWAP1 SSTORE PUSH1 0xFF SWAP1 JUMP JUMPDEST ADD MLOAD SWAP3 POP PUSH0 DUP1 PUSH3 0xAF4 JUMP JUMPDEST SWAP2 SWAP1 DUP4 PUSH1 0x1F NOT DUP2 AND DUP8 PUSH0 MSTORE DUP5 PUSH0 KECCAK256 SWAP5 PUSH0 SWAP1 JUMPDEST DUP9 DUP4 DUP4 LT PUSH3 0xB5E JUMPI POP POP POP LT PUSH3 0xB46 JUMPI JUMPDEST POP POP POP DUP2 SHL ADD SWAP1 SSTORE PUSH1 0xFF SWAP1 JUMP JUMPDEST ADD MLOAD PUSH0 NOT DUP4 DUP7 SHL PUSH1 0xF8 AND SHR NOT AND SWAP1 SSTORE PUSH0 DUP1 DUP1 PUSH3 0xB39 JUMP JUMPDEST DUP6 DUP8 ADD MLOAD DUP9 SSTORE SWAP1 SWAP7 ADD SWAP6 SWAP5 DUP6 ADD SWAP5 DUP8 SWAP4 POP SWAP1 DUP2 ADD SWAP1 PUSH3 0xB26 JUMP JUMPDEST DUP6 PUSH0 MSTORE DUP5 PUSH1 0x1F DUP5 PUSH0 KECCAK256 SWAP3 ADD PUSH1 0x5 SHR DUP3 ADD SWAP2 PUSH1 0x1F DUP7 ADD PUSH1 0x5 SHR ADD JUMPDEST DUP3 DUP2 LT PUSH3 0xBA3 JUMPI POP POP PUSH3 0xAD7 JUMP JUMPDEST PUSH0 DUP2 SSTORE ADD DUP6 SWAP1 PUSH3 0xB93 JUMP JUMPDEST SWAP1 PUSH1 0x7F AND SWAP1 PUSH3 0xAC4 JUMP INVALID PUSH1 0x80 PUSH1 0x40 DUP2 DUP2 MSTORE PUSH1 0x4 SWAP1 DUP2 CALLDATASIZE LT ISZERO PUSH2 0x21 JUMPI JUMPDEST POP POP POP CALLDATASIZE ISZERO PUSH2 0x1F JUMPI PUSH0 DUP1 REVERT JUMPDEST STOP JUMPDEST PUSH0 SWAP3 DUP4 CALLDATALOAD PUSH1 0xE0 SHR SWAP1 DUP2 PUSH4 0x5AF0B69 EQ PUSH2 0x15B2 JUMPI POP DUP1 PUSH4 0x99A04E5 EQ PUSH2 0x152E JUMPI DUP1 PUSH4 0x15F69012 EQ PUSH2 0x13CA JUMPI DUP1 PUSH4 0x16C38B3C EQ PUSH2 0x135D JUMPI DUP1 PUSH4 0x1B642940 EQ PUSH2 0x1341 JUMPI DUP1 PUSH4 0x21140224 EQ PUSH2 0x128D JUMPI DUP1 PUSH4 0x216ECA86 EQ PUSH2 0x1272 JUMPI DUP1 PUSH4 0x23F46EA4 EQ PUSH2 0x1256 JUMPI DUP1 PUSH4 0x26009FD6 EQ PUSH2 0x123A JUMPI DUP1 PUSH4 0x273CBAA0 EQ PUSH2 0x1175 JUMPI DUP1 PUSH4 0x3597919F EQ PUSH2 0x10DC JUMPI DUP1 PUSH4 0x3B2FB7A8 EQ PUSH2 0x107F JUMPI DUP1 PUSH4 0x409FA6B8 EQ PUSH2 0x1052 JUMPI DUP1 PUSH4 0x5458AC9A EQ PUSH2 0x1027 JUMPI DUP1 PUSH4 0x55219D5A EQ PUSH2 0xFE9 JUMPI DUP1 PUSH4 0x56CE180A EQ PUSH2 0xF4A JUMPI DUP1 PUSH4 0x5C975ABB EQ PUSH2 0xF23 JUMPI DUP1 PUSH4 0x66C9F1B9 EQ PUSH2 0xEE9 JUMPI DUP1 PUSH4 0x68DB925A EQ PUSH2 0xEC0 JUMPI DUP1 PUSH4 0x715018A6 EQ PUSH2 0xE66 JUMPI DUP1 PUSH4 0x77E94DFD EQ PUSH2 0xE00 JUMPI DUP1 PUSH4 0x79C7C56A EQ PUSH2 0xD74 JUMPI DUP1 PUSH4 0x81C824B2 EQ PUSH2 0xCFD JUMPI DUP1 PUSH4 0x84B0196E EQ PUSH2 0xC08 JUMPI DUP1 PUSH4 0x87011C2B EQ PUSH2 0xBCA JUMPI DUP1 PUSH4 0x87FD30A0 EQ PUSH2 0xB62 JUMPI DUP1 PUSH4 0x89655B42 EQ PUSH2 0xA4B JUMPI DUP1 PUSH4 0x8DA5CB5B EQ PUSH2 0xA23 JUMPI DUP1 PUSH4 0x989F86DA EQ PUSH2 0x872 JUMPI DUP1 PUSH4 0xA43AD7E7 EQ PUSH2 0x853 JUMPI DUP1 PUSH4 0xAC320646 EQ PUSH2 0x82A JUMPI DUP1 PUSH4 0xAF8B1C6F EQ PUSH2 0x802 JUMPI DUP1 PUSH4 0xB2118A8D EQ PUSH2 0x7A5 JUMPI DUP1 PUSH4 0xC37BD929 EQ PUSH2 0x77C JUMPI DUP1 PUSH4 0xD5F80C34 EQ PUSH2 0x6DE JUMPI DUP1 PUSH4 0xD7DC6CEC EQ PUSH2 0x63A JUMPI DUP1 PUSH4 0xD95B970C EQ PUSH2 0x61F JUMPI DUP1 PUSH4 0xE64B7654 EQ PUSH2 0x4C6 JUMPI DUP1 PUSH4 0xECCEC5A8 EQ PUSH2 0x47F JUMPI DUP1 PUSH4 0xF09A1D00 EQ PUSH2 0x43B JUMPI DUP1 PUSH4 0xF2FDE38B EQ PUSH2 0x378 JUMPI DUP1 PUSH4 0xF413BDB3 EQ PUSH2 0x34B JUMPI PUSH4 0xFCD0251B SUB PUSH2 0x12 JUMPI CALLVALUE PUSH2 0x347 JUMPI PUSH1 0x60 CALLDATASIZE PUSH1 0x3 NOT ADD SLT PUSH2 0x347 JUMPI PUSH2 0x21B PUSH2 0x15D7 JUMP JUMPDEST SWAP2 PUSH2 0x224 PUSH2 0x15F1 JUMP JUMPDEST PUSH1 0x1 PUSH1 0x1 PUSH1 0xA0 SHL SUB PUSH1 0x44 CALLDATALOAD DUP2 DUP2 AND SWAP6 SWAP3 SWAP4 SWAP3 SWAP1 DUP7 SWAP1 SUB PUSH2 0x343 JUMPI DUP2 SWAP1 PUSH2 0x248 PUSH2 0x1792 JUMP JUMPDEST AND SWAP3 DUP4 ISZERO PUSH2 0x315 JUMPI AND SWAP3 DUP4 ISZERO PUSH2 0x2E5 JUMPI DUP5 ISZERO PUSH2 0x2B4 JUMPI POP POP DUP3 PUSH12 0xFFFFFFFFFFFFFFFFFFFFFFFF PUSH1 0xA0 SHL DUP3 DUP2 PUSH1 0x5 SLOAD AND OR PUSH1 0x5 SSTORE DUP4 DUP2 PUSH1 0x6 SLOAD AND OR PUSH1 0x6 SSTORE PUSH1 0x7 SLOAD AND OR PUSH1 0x7 SSTORE PUSH32 0x105CDEDCC9CFA76AFF253476B3D4BD3A3E89AB641FBD5B9312CC66645F51602E DUP5 DUP1 LOG4 DUP1 RETURN JUMPDEST SWAP1 PUSH1 0x20 PUSH1 0x64 SWAP3 MLOAD SWAP2 PUSH3 0x461BCD PUSH1 0xE5 SHL DUP4 MSTORE DUP3 ADD MSTORE PUSH1 0xB PUSH1 0x24 DUP3 ADD MSTORE PUSH11 0x5A45524F5F5745454B4C59 PUSH1 0xA8 SHL PUSH1 0x44 DUP3 ADD MSTORE REVERT JUMPDEST SWAP1 PUSH1 0x20 PUSH1 0x64 SWAP3 MLOAD SWAP2 PUSH3 0x461BCD PUSH1 0xE5 SHL DUP4 MSTORE DUP3 ADD MSTORE PUSH1 0xA PUSH1 0x24 DUP3 ADD MSTORE PUSH10 0x5A45524F5F4441494C59 PUSH1 0xB0 SHL PUSH1 0x44 DUP3 ADD MSTORE REVERT JUMPDEST DUP5 MLOAD PUSH3 0x461BCD PUSH1 0xE5 SHL DUP2 MSTORE PUSH1 0x20 DUP2 DUP6 ADD MSTORE PUSH1 0x8 PUSH1 0x24 DUP3 ADD MSTORE PUSH8 0x5A45524F5F4F5053 PUSH1 0xC0 SHL PUSH1 0x44 DUP3 ADD MSTORE PUSH1 0x64 SWAP1 REVERT JUMPDEST DUP7 DUP1 REVERT JUMPDEST DUP3 DUP1 REVERT JUMPDEST DUP4 DUP3 CALLVALUE PUSH2 0x374 JUMPI DUP2 PUSH1 0x3 NOT CALLDATASIZE ADD SLT PUSH2 0x374 JUMPI PUSH1 0x8 SLOAD SWAP1 MLOAD PUSH1 0x1 PUSH1 0x1 PUSH1 0xA0 SHL SUB SWAP1 SWAP2 AND DUP2 MSTORE PUSH1 0x20 SWAP1 RETURN JUMPDEST POP DUP1 REVERT JUMPDEST POP SWAP1 CALLVALUE PUSH2 0x347 JUMPI PUSH1 0x20 CALLDATASIZE PUSH1 0x3 NOT ADD SLT PUSH2 0x347 JUMPI PUSH2 0x393 PUSH2 0x15D7 JUMP JUMPDEST SWAP1 PUSH2 0x39C PUSH2 0x1792 JUMP JUMPDEST PUSH1 0x1 PUSH1 0x1 PUSH1 0xA0 SHL SUB SWAP2 DUP3 AND SWAP3 DUP4 ISZERO PUSH2 0x3E9 JUMPI POP POP DUP3 SLOAD PUSH1 0x1 PUSH1 0x1 PUSH1 0xA0 SHL SUB NOT DUP2 AND DUP4 OR DUP5 SSTORE AND PUSH32 0x8BE0079C531659141344CD1FD0A4F28419497F9722A3DAAFE3B4186F6B6457E0 DUP4 DUP1 LOG3 DUP1 RETURN JUMPDEST SWAP1 PUSH1 0x20 PUSH1 0x84 SWAP3 MLOAD SWAP2 PUSH3 0x461BCD PUSH1 0xE5 SHL DUP4 MSTORE DUP3 ADD MSTORE PUSH1 0x26 PUSH1 0x24 DUP3 ADD MSTORE PUSH32 0x4F776E61626C653A206E6577206F776E657220697320746865207A65726F2061 PUSH1 0x44 DUP3 ADD MSTORE PUSH6 0x646472657373 PUSH1 0xD0 SHL PUSH1 0x64 DUP3 ADD MSTORE REVERT JUMPDEST DUP4 DUP3 CALLVALUE PUSH2 0x374 JUMPI DUP2 PUSH1 0x3 NOT CALLDATASIZE ADD SLT PUSH2 0x374 JUMPI MLOAD PUSH32 0x0 PUSH1 0x1 PUSH1 0x1 PUSH1 0xA0 SHL SUB AND DUP2 MSTORE PUSH1 0x20 SWAP1 RETURN JUMPDEST DUP4 DUP3 CALLVALUE PUSH2 0x374 JUMPI DUP2 PUSH1 0x3 NOT CALLDATASIZE ADD SLT PUSH2 0x374 JUMPI DUP1 MLOAD PUSH2 0x4C2 SWAP2 PUSH2 0x4A0 DUP3 PUSH2 0x16C9 JUMP JUMPDEST PUSH1 0x3 DUP3 MSTORE PUSH3 0xC8B8D PUSH1 0xEA SHL PUSH1 0x20 DUP4 ADD MSTORE MLOAD SWAP2 DUP3 SWAP2 PUSH1 0x20 DUP4 MSTORE PUSH1 0x20 DUP4 ADD SWAP1 PUSH2 0x175D JUMP JUMPDEST SUB SWAP1 RETURN JUMPDEST POP SWAP2 SWAP1 CALLDATASIZE PUSH1 0x3 NOT ADD PUSH2 0x200 DUP2 SLT PUSH2 0x347 JUMPI PUSH2 0x180 SGT PUSH2 0x374 JUMPI PUSH1 0x1 PUSH1 0x1 PUSH1 0x40 SHL SUB SWAP1 PUSH2 0x184 CALLDATALOAD DUP3 DUP2 GT PUSH2 0x61B JUMPI PUSH2 0x500 SWAP1 CALLDATASIZE SWAP1 DUP4 ADD PUSH2 0x1616 JUMP JUMPDEST SWAP2 PUSH2 0x1A4 CALLDATALOAD DUP5 DUP2 GT PUSH2 0x617 JUMPI PUSH2 0x519 SWAP1 CALLDATASIZE SWAP1 DUP4 ADD PUSH2 0x1616 JUMP JUMPDEST SWAP1 SWAP5 PUSH2 0x1E4 CALLDATALOAD SWAP1 DUP2 GT PUSH2 0x343 JUMPI PUSH2 0x533 SWAP1 CALLDATASIZE SWAP1 DUP5 ADD PUSH2 0x1616 JUMP JUMPDEST SWAP1 SWAP3 PUSH2 0x53D PUSH2 0x1E9B JUMP JUMPDEST PUSH2 0x54F PUSH1 0xFF PUSH1 0x9 SLOAD PUSH1 0xA0 SHR AND ISZERO PUSH2 0x1E30 JUMP JUMPDEST PUSH1 0x44 CALLDATALOAD PUSH1 0xFF DUP2 AND DUP1 SWAP2 SUB PUSH2 0x613 JUMPI PUSH1 0x2 SUB PUSH2 0x5E1 JUMPI POP SWAP2 PUSH2 0x5B5 SWAP2 PUSH2 0x5A9 PUSH2 0x5BA SWAP8 SWAP7 SWAP6 SWAP5 PUSH2 0x58D DUP12 MLOAD SWAP9 DUP10 SWAP5 PUSH1 0x60 PUSH1 0x20 DUP8 ADD MSTORE PUSH1 0x80 DUP7 ADD SWAP2 PUSH2 0x283C JUMP JUMPDEST SWAP1 PUSH2 0x1C4 CALLDATALOAD DUP13 DUP6 ADD MSTORE PUSH1 0x1F NOT SWAP5 DUP6 DUP6 DUP5 SUB ADD PUSH1 0x60 DUP7 ADD MSTORE PUSH2 0x283C JUMP JUMPDEST SUB SWAP1 DUP2 ADD DUP6 MSTORE DUP5 PUSH2 0x1700 JUMP JUMPDEST PUSH2 0x1FC5 JUMP JUMPDEST SWAP1 SWAP2 PUSH1 0x20 DUP3 DUP1 MLOAD DUP2 ADD SUB SLT PUSH2 0x5DE JUMPI POP PUSH1 0x20 ADD MLOAD PUSH1 0x1 DUP1 SSTORE DUP3 MLOAD SWAP2 DUP3 MSTORE PUSH1 0x20 DUP3 ADD MSTORE RETURN JUMPDEST DUP1 REVERT JUMPDEST PUSH1 0x64 SWAP1 PUSH1 0x20 DUP11 MLOAD SWAP2 PUSH3 0x461BCD PUSH1 0xE5 SHL DUP4 MSTORE DUP3 ADD MSTORE PUSH1 0xC PUSH1 0x24 DUP3 ADD MSTORE PUSH12 0x1393D517D41493D7D3525395 PUSH1 0xA2 SHL PUSH1 0x44 DUP3 ADD MSTORE REVERT JUMPDEST DUP9 DUP1 REVERT JUMPDEST DUP6 DUP1 REVERT JUMPDEST DUP4 DUP1 REVERT JUMPDEST POP CALLVALUE PUSH2 0x347 JUMPI DUP3 PUSH1 0x3 NOT CALLDATASIZE ADD SLT PUSH2 0x347 JUMPI PUSH1 0x20 SWAP3 POP MLOAD SWAP1 DUP2 MSTORE RETURN JUMPDEST POP SWAP2 SWAP1 CALLDATASIZE PUSH1 0x3 NOT ADD PUSH2 0x1C0 DUP2 SLT PUSH2 0x347 JUMPI PUSH2 0x180 SGT PUSH2 0x374 JUMPI PUSH1 0x1 PUSH1 0x1 PUSH1 0x40 SHL SUB SWAP1 PUSH2 0x184 CALLDATALOAD DUP3 DUP2 GT PUSH2 0x61B JUMPI PUSH2 0x674 SWAP1 CALLDATASIZE SWAP1 DUP4 ADD PUSH2 0x1616 JUMP JUMPDEST SWAP3 SWAP1 SWAP4 PUSH2 0x1A4 CALLDATALOAD SWAP2 DUP3 GT PUSH2 0x5DE JUMPI POP SWAP2 PUSH2 0x6BC PUSH2 0x69B PUSH2 0x4C2 SWAP6 SWAP4 PUSH2 0x6C2 SWAP6 CALLDATASIZE SWAP2 ADD PUSH2 0x1616 JUMP JUMPDEST PUSH2 0x6A3 PUSH2 0x1E9B JUMP JUMPDEST PUSH2 0x6B5 PUSH1 0xFF PUSH1 0x9 SLOAD PUSH1 0xA0 SHR AND ISZERO PUSH2 0x1E30 JUMP JUMPDEST CALLDATASIZE SWAP2 PUSH2 0x1E65 JUMP JUMPDEST SWAP2 PUSH2 0x1FC5 JUMP JUMPDEST PUSH1 0x1 DUP1 SWAP4 SWAP3 SWAP4 SSTORE DUP4 MLOAD SWAP4 DUP5 SWAP4 DUP5 MSTORE DUP1 PUSH1 0x20 DUP6 ADD MSTORE DUP4 ADD SWAP1 PUSH2 0x175D JUMP JUMPDEST POP SWAP1 CALLVALUE PUSH2 0x347 JUMPI PUSH1 0x20 CALLDATASIZE PUSH1 0x3 NOT ADD SLT PUSH2 0x347 JUMPI PUSH2 0x6F9 PUSH2 0x15D7 JUMP JUMPDEST PUSH2 0x701 PUSH2 0x1792 JUMP JUMPDEST PUSH1 0x1 PUSH1 0x1 PUSH1 0xA0 SHL SUB AND SWAP2 DUP3 ISZERO PUSH2 0x749 JUMPI POP DUP1 SLOAD PUSH1 0x1 PUSH1 0x1 PUSH1 0xA0 SHL SUB NOT AND DUP3 OR SWAP1 SSTORE PUSH32 0x7B23BD31F405E09A43804FE266D4B6C17F4F4369FF5F43F71452C76AA43620AC DUP3 DUP1 LOG2 DUP1 RETURN JUMPDEST SWAP1 PUSH1 0x20 PUSH1 0x64 SWAP3 MLOAD SWAP2 PUSH3 0x461BCD PUSH1 0xE5 SHL DUP4 MSTORE DUP3 ADD MSTORE PUSH1 0xD PUSH1 0x24 DUP3 ADD MSTORE PUSH13 0x5A45524F5F5452454153555259 PUSH1 0x98 SHL PUSH1 0x44 DUP3 ADD MSTORE REVERT JUMPDEST DUP4 DUP3 CALLVALUE PUSH2 0x374 JUMPI DUP2 PUSH1 0x3 NOT CALLDATASIZE ADD SLT PUSH2 0x374 JUMPI PUSH1 0x6 SLOAD SWAP1 MLOAD PUSH1 0x1 PUSH1 0x1 PUSH1 0xA0 SHL SUB SWAP1 SWAP2 AND DUP2 MSTORE PUSH1 0x20 SWAP1 RETURN JUMPDEST DUP4 CALLVALUE PUSH2 0x5DE JUMPI PUSH1 0x60 CALLDATASIZE PUSH1 0x3 NOT ADD SLT PUSH2 0x5DE JUMPI PUSH2 0x7FF PUSH2 0x7C2 PUSH2 0x15D7 JUMP JUMPDEST PUSH2 0x7CA PUSH2 0x15F1 JUMP JUMPDEST PUSH2 0x7D2 PUSH2 0x1792 JUMP JUMPDEST PUSH1 0x1 PUSH1 0x1 PUSH1 0xA0 SHL SUB SWAP2 DUP3 AND SWAP2 PUSH2 0x7F6 SWAP1 PUSH2 0x7ED DUP5 ISZERO ISZERO PUSH2 0x19E3 JUMP JUMPDEST DUP3 AND ISZERO ISZERO PUSH2 0x1A53 JUMP JUMPDEST PUSH1 0x44 CALLDATALOAD SWAP2 PUSH2 0x1A89 JUMP JUMPDEST DUP1 RETURN JUMPDEST POP SWAP1 CALLVALUE PUSH2 0x347 JUMPI DUP3 PUSH1 0x3 NOT CALLDATASIZE ADD SLT PUSH2 0x347 JUMPI SLOAD SWAP1 MLOAD PUSH1 0x1 PUSH1 0x1 PUSH1 0xA0 SHL SUB SWAP1 SWAP2 AND DUP2 MSTORE PUSH1 0x20 SWAP2 POP RETURN JUMPDEST DUP4 DUP3 CALLVALUE PUSH2 0x374 JUMPI DUP2 PUSH1 0x3 NOT CALLDATASIZE ADD SLT PUSH2 0x374 JUMPI PUSH1 0x9 SLOAD SWAP1 MLOAD PUSH1 0x1 PUSH1 0x1 PUSH1 0xA0 SHL SUB SWAP1 SWAP2 AND DUP2 MSTORE PUSH1 0x20 SWAP1 RETURN JUMPDEST DUP4 DUP3 CALLVALUE PUSH2 0x374 JUMPI DUP2 PUSH1 0x3 NOT CALLDATASIZE ADD SLT PUSH2 0x374 JUMPI PUSH1 0x20 SWAP1 PUSH1 0xB SLOAD SWAP1 MLOAD SWAP1 DUP2 MSTORE RETURN JUMPDEST POP SWAP2 SWAP1 CALLVALUE PUSH2 0x374 JUMPI PUSH1 0xA0 CALLDATASIZE PUSH1 0x3 NOT ADD SLT PUSH2 0x374 JUMPI PUSH2 0x88E PUSH2 0x1782 JUMP JUMPDEST PUSH1 0x80 CALLDATASIZE PUSH1 0x23 NOT ADD SLT PUSH2 0x347 JUMPI PUSH2 0x8A2 PUSH2 0x1792 JUMP JUMPDEST DUP4 MLOAD PUSH2 0x8AD DUP2 PUSH2 0x167F JUMP JUMPDEST PUSH2 0xFFFF SWAP2 PUSH1 0x24 CALLDATALOAD DUP4 DUP2 AND DUP2 SUB PUSH2 0x617 JUMPI DUP3 MSTORE PUSH1 0x44 CALLDATALOAD SWAP2 DUP4 DUP4 AND DUP4 SUB PUSH2 0x617 JUMPI PUSH1 0x20 DUP2 ADD SWAP3 DUP4 MSTORE PUSH1 0x64 CALLDATALOAD SWAP1 DUP5 DUP3 AND DUP3 SUB PUSH2 0x343 JUMPI DUP8 DUP2 ADD SWAP2 DUP3 MSTORE PUSH1 0x84 CALLDATALOAD SWAP3 DUP6 DUP5 AND DUP5 SUB PUSH2 0xA1F JUMPI PUSH1 0x60 DUP3 ADD SWAP4 DUP5 MSTORE PUSH1 0xFF AND SWAP6 PUSH2 0x909 DUP8 ISZERO ISZERO PUSH2 0x1A1C JUMP JUMPDEST PUSH2 0x2710 PUSH2 0x937 PUSH2 0x92D PUSH2 0x923 DUP10 DUP7 MLOAD AND DUP11 DUP11 MLOAD AND SWAP1 PUSH2 0x1C89 JUMP JUMPDEST DUP10 DUP8 MLOAD AND SWAP1 PUSH2 0x1C89 JUMP JUMPDEST DUP9 DUP8 MLOAD AND SWAP1 PUSH2 0x1C89 JUMP JUMPDEST SUB PUSH2 0x9F2 JUMPI POP SWAP1 PUSH2 0x9EC SWAP3 SWAP2 DUP6 DUP1 DUP10 SWAP11 DUP10 PUSH32 0xA5349F7FF96ACCBF1510E2CC2BD75907E97E32415198B54FA5F688B5DA568865 SWAP11 SWAP12 MSTORE PUSH1 0xF PUSH1 0x20 MSTORE DUP2 DUP2 DUP14 KECCAK256 SWAP5 MLOAD AND SWAP4 DUP1 SLOAD SWAP9 MLOAD SWAP6 MLOAD SWAP7 MLOAD SWAP9 DUP6 PUSH8 0xFFFF000000000000 DUP12 PUSH1 0x30 SHL AND SWAP2 PUSH1 0x1 PUSH1 0x1 PUSH1 0x40 SHL SUB NOT AND OR PUSH4 0xFFFF0000 DUP9 PUSH1 0x10 SHL AND OR PUSH6 0xFFFF00000000 DUP10 PUSH1 0x20 SHL AND OR OR SWAP1 SSTORE MLOAD SWAP8 DUP9 SWAP8 AND SWAP5 AND SWAP3 AND SWAP1 DUP6 SWAP3 SWAP5 SWAP4 PUSH1 0x60 SWAP3 SWAP2 PUSH1 0x80 DUP6 ADD SWAP7 PUSH2 0xFFFF DUP1 SWAP5 DUP2 DUP1 SWAP5 AND DUP9 MSTORE AND PUSH1 0x20 DUP8 ADD MSTORE AND PUSH1 0x40 DUP6 ADD MSTORE AND SWAP2 ADD MSTORE JUMP JUMPDEST SUB SWAP1 LOG2 DUP1 RETURN JUMPDEST PUSH1 0x64 SWAP1 PUSH1 0x20 DUP11 MLOAD SWAP2 PUSH3 0x461BCD PUSH1 0xE5 SHL DUP4 MSTORE DUP3 ADD MSTORE PUSH1 0x7 PUSH1 0x24 DUP3 ADD MSTORE PUSH7 0x4250535F53554D PUSH1 0xC8 SHL PUSH1 0x44 DUP3 ADD MSTORE REVERT JUMPDEST DUP8 DUP1 REVERT JUMPDEST DUP4 DUP3 CALLVALUE PUSH2 0x374 JUMPI DUP2 PUSH1 0x3 NOT CALLDATASIZE ADD SLT PUSH2 0x374 JUMPI SWAP1 SLOAD SWAP1 MLOAD PUSH1 0x1 PUSH1 0x1 PUSH1 0xA0 SHL SUB SWAP1 SWAP2 AND DUP2 MSTORE PUSH1 0x20 SWAP1 RETURN JUMPDEST POP DUP3 CALLVALUE PUSH2 0x5DE JUMPI PUSH2 0x180 SWAP3 DUP4 PUSH1 0x3 NOT CALLDATASIZE ADD SLT PUSH2 0x374 JUMPI PUSH1 0x1 PUSH1 0x1 PUSH1 0xA0 SHL SUB SWAP1 CALLDATALOAD DUP2 DUP2 AND SWAP5 SWAP2 SWAP3 SWAP1 DUP6 SWAP1 SUB PUSH2 0x5DE JUMPI PUSH1 0x44 CALLDATALOAD SWAP3 PUSH1 0xFF DUP5 AND DUP1 SWAP5 SUB PUSH2 0x374 JUMPI PUSH1 0x64 CALLDATALOAD SWAP1 DUP2 AND DUP1 SWAP2 SUB PUSH2 0x374 JUMPI PUSH1 0xE4 CALLDATALOAD SWAP1 PUSH1 0xFF DUP3 AND DUP1 SWAP3 SUB PUSH2 0x347 JUMPI PUSH2 0x104 CALLDATALOAD SWAP3 PUSH1 0x1 PUSH1 0x1 PUSH1 0x40 SHL SUB DUP5 AND DUP1 SWAP5 SUB PUSH2 0x5DE JUMPI POP SWAP2 PUSH1 0x20 SWAP7 SWAP4 SWAP2 PUSH2 0xB5B SWAP6 SWAP4 DUP8 MLOAD SWAP5 DUP10 DUP7 ADD SWAP7 PUSH32 0xD43704EB6210794490EB2ADC9634321BE3DF45B0929415DAEF01ECEA793A35BA DUP9 MSTORE DUP10 DUP8 ADD MSTORE PUSH1 0x24 CALLDATALOAD PUSH1 0x60 DUP8 ADD MSTORE PUSH1 0x80 DUP7 ADD MSTORE PUSH1 0xA0 DUP6 ADD MSTORE PUSH1 0x84 CALLDATALOAD PUSH1 0xC0 DUP6 ADD MSTORE PUSH1 0xA4 CALLDATALOAD PUSH1 0xE0 DUP6 ADD MSTORE PUSH1 0xC4 CALLDATALOAD PUSH2 0x100 DUP6 ADD MSTORE PUSH2 0x120 DUP5 ADD MSTORE PUSH2 0x140 DUP4 ADD MSTORE PUSH2 0x124 CALLDATALOAD PUSH2 0x160 DUP4 ADD MSTORE PUSH2 0x144 CALLDATALOAD SWAP1 DUP3 ADD MSTORE PUSH2 0x1A0 PUSH2 0x164 CALLDATALOAD DUP2 DUP4 ADD MSTORE DUP2 MSTORE PUSH2 0xB53 DUP2 PUSH2 0x16E4 JUMP JUMPDEST MLOAD SWAP1 KECCAK256 PUSH2 0x1CAA JUMP JUMPDEST SWAP1 MLOAD SWAP1 DUP2 MSTORE RETURN JUMPDEST DUP4 CALLVALUE PUSH2 0x5DE JUMPI PUSH1 0x20 CALLDATASIZE PUSH1 0x3 NOT ADD SLT PUSH2 0x5DE JUMPI PUSH2 0xB7C PUSH2 0x15D7 JUMP JUMPDEST PUSH2 0xB84 PUSH2 0x1792 JUMP JUMPDEST PUSH1 0x9 DUP1 SLOAD PUSH1 0x1 PUSH1 0x1 PUSH1 0xA0 SHL SUB NOT AND PUSH1 0x1 PUSH1 0x1 PUSH1 0xA0 SHL SUB SWAP3 SWAP1 SWAP3 AND SWAP2 DUP3 OR SWAP1 SSTORE PUSH32 0xA02BE962E2CAEFDD444626C60855B2D05461D66FF5D91FB56B8AAC301A4BE3CC DUP3 DUP1 LOG2 DUP1 RETURN JUMPDEST DUP4 DUP3 CALLVALUE PUSH2 0x374 JUMPI PUSH1 0x20 CALLDATASIZE PUSH1 0x3 NOT ADD SLT PUSH2 0x374 JUMPI PUSH1 0x20 SWAP2 PUSH1 0xFF SWAP1 DUP3 SWAP1 PUSH1 0x1 PUSH1 0x1 PUSH1 0xA0 SHL SUB PUSH2 0xBF5 PUSH2 0x15D7 JUMP JUMPDEST AND DUP2 MSTORE PUSH1 0xD DUP6 MSTORE KECCAK256 SLOAD AND SWAP1 MLOAD SWAP1 ISZERO ISZERO DUP2 MSTORE RETURN JUMPDEST DUP4 DUP3 CALLVALUE PUSH2 0x374 JUMPI DUP2 PUSH1 0x3 NOT CALLDATASIZE ADD SLT PUSH2 0x374 JUMPI SWAP1 PUSH2 0xC44 PUSH32 0x0 PUSH2 0x17E9 JUMP JUMPDEST PUSH2 0xC6D PUSH32 0x0 PUSH2 0x1910 JUMP JUMPDEST SWAP2 DUP4 MLOAD SWAP2 PUSH2 0xC7A DUP4 PUSH2 0x16AE JUMP JUMPDEST DUP2 DUP4 MSTORE PUSH2 0xCAF DUP6 MLOAD SWAP6 DUP7 SWAP6 PUSH1 0xF PUSH1 0xF8 SHL DUP8 MSTORE PUSH2 0xCA2 PUSH1 0x20 SWAP5 PUSH1 0xE0 DUP7 DUP11 ADD MSTORE PUSH1 0xE0 DUP10 ADD SWAP1 PUSH2 0x175D JUMP JUMPDEST SWAP2 DUP8 DUP4 SUB SWAP1 DUP9 ADD MSTORE PUSH2 0x175D JUMP JUMPDEST SWAP1 CHAINID PUSH1 0x60 DUP7 ADD MSTORE ADDRESS PUSH1 0x80 DUP7 ADD MSTORE DUP3 PUSH1 0xA0 DUP7 ADD MSTORE DUP5 DUP3 SUB PUSH1 0xC0 DUP7 ADD MSTORE DUP1 DUP1 DUP6 MLOAD SWAP4 DUP5 DUP2 MSTORE ADD SWAP5 ADD SWAP3 JUMPDEST DUP3 DUP2 LT PUSH2 0xCE6 JUMPI POP POP POP POP SUB SWAP1 RETURN JUMPDEST DUP4 MLOAD DUP6 MSTORE DUP7 SWAP6 POP SWAP4 DUP2 ADD SWAP4 SWAP3 DUP2 ADD SWAP3 PUSH1 0x1 ADD PUSH2 0xCD7 JUMP JUMPDEST POP SWAP1 CALLVALUE PUSH2 0x347 JUMPI DUP2 PUSH1 0x3 NOT CALLDATASIZE ADD SLT PUSH2 0x347 JUMPI CALLDATALOAD SWAP1 PUSH1 0x24 CALLDATALOAD SWAP1 PUSH1 0xFF DUP3 AND DUP1 SWAP3 SUB PUSH2 0x61B JUMPI PUSH32 0xB53A59F5ED9F58A889229F0A6434819E6E16F2C98D36D7C7B0EB792536AE10E2 SWAP2 PUSH1 0x20 SWAP2 PUSH2 0xD4D PUSH2 0x1792 JUMP JUMPDEST PUSH2 0xD58 DUP3 ISZERO ISZERO PUSH2 0x1A1C JUMP JUMPDEST DUP5 DUP7 MSTORE PUSH1 0xE DUP4 MSTORE DUP1 DUP7 KECCAK256 DUP1 SLOAD PUSH1 0xFF NOT AND DUP4 OR SWAP1 SSTORE MLOAD SWAP1 DUP2 MSTORE LOG2 DUP1 RETURN JUMPDEST DUP4 DUP3 CALLVALUE PUSH2 0x374 JUMPI DUP1 PUSH1 0x3 NOT CALLDATASIZE ADD SLT PUSH2 0x374 JUMPI PUSH32 0xDFA690C4F4FC6E6BEE7503B7FEBBD23DA2BD92E9AD88FC1085F675074CE61284 PUSH1 0x20 PUSH2 0xDB1 PUSH2 0x15D7 JUMP JUMPDEST PUSH2 0xDB9 PUSH2 0x1607 JUMP JUMPDEST SWAP1 PUSH2 0xDC2 PUSH2 0x1792 JUMP JUMPDEST PUSH1 0x1 PUSH1 0x1 PUSH1 0xA0 SHL SUB AND SWAP4 PUSH2 0xDD7 DUP6 ISZERO ISZERO PUSH2 0x19E3 JUMP JUMPDEST DUP5 DUP7 MSTORE PUSH1 0xD DUP4 MSTORE PUSH2 0xDF6 DUP3 DUP3 DUP9 KECCAK256 SWAP1 PUSH1 0xFF DUP1 NOT DUP4 SLOAD AND SWAP2 ISZERO ISZERO AND OR SWAP1 SSTORE JUMP JUMPDEST MLOAD SWAP1 ISZERO ISZERO DUP2 MSTORE LOG2 DUP1 RETURN JUMPDEST DUP4 DUP3 CALLVALUE PUSH2 0x374 JUMPI PUSH1 0x20 CALLDATASIZE PUSH1 0x3 NOT ADD SLT PUSH2 0x374 JUMPI DUP1 PUSH2 0x4C2 SWAP3 PUSH1 0xFF PUSH2 0xE22 PUSH2 0x1782 JUMP JUMPDEST AND DUP2 MSTORE PUSH1 0xF PUSH1 0x20 SWAP1 DUP2 MSTORE SWAP2 SWAP1 KECCAK256 SLOAD SWAP2 MLOAD PUSH2 0xFFFF DUP1 DUP5 AND DUP3 MSTORE PUSH1 0x10 DUP5 SWAP1 SHR DUP2 AND DUP3 DUP5 ADD MSTORE SWAP2 DUP4 SWAP1 SHR DUP3 AND PUSH1 0x40 DUP3 ADD MSTORE PUSH1 0x30 SWAP3 SWAP1 SWAP3 SHR AND PUSH1 0x60 DUP3 ADD MSTORE SWAP1 DUP2 SWAP1 PUSH1 0x80 DUP3 ADD SWAP1 JUMP JUMPDEST DUP4 CALLVALUE PUSH2 0x5DE JUMPI DUP1 PUSH1 0x3 NOT CALLDATASIZE ADD SLT PUSH2 0x5DE JUMPI PUSH2 0xE7F PUSH2 0x1792 JUMP JUMPDEST DUP1 SLOAD PUSH1 0x1 PUSH1 0x1 PUSH1 0xA0 SHL SUB NOT DUP2 AND DUP3 SSTORE DUP2 SWAP1 PUSH1 0x1 PUSH1 0x1 PUSH1 0xA0 SHL SUB AND PUSH32 0x8BE0079C531659141344CD1FD0A4F28419497F9722A3DAAFE3B4186F6B6457E0 DUP3 DUP1 LOG3 DUP1 RETURN JUMPDEST DUP4 DUP3 CALLVALUE PUSH2 0x374 JUMPI DUP2 PUSH1 0x3 NOT CALLDATASIZE ADD SLT PUSH2 0x374 JUMPI PUSH1 0x5 SLOAD SWAP1 MLOAD PUSH1 0x1 PUSH1 0x1 PUSH1 0xA0 SHL SUB SWAP1 SWAP2 AND DUP2 MSTORE PUSH1 0x20 SWAP1 RETURN JUMPDEST PUSH1 0x20 DUP3 PUSH2 0xF18 PUSH2 0xEF8 CALLDATASIZE PUSH2 0x1643 JUMP JUMPDEST SWAP2 PUSH2 0xF01 PUSH2 0x1E9B JUMP JUMPDEST PUSH2 0xF13 PUSH1 0xFF PUSH1 0x9 SLOAD PUSH1 0xA0 SHR AND ISZERO PUSH2 0x1E30 JUMP JUMPDEST PUSH2 0x3036 JUMP JUMPDEST SWAP1 PUSH1 0x1 DUP1 SSTORE MLOAD SWAP1 DUP2 MSTORE RETURN JUMPDEST DUP4 DUP3 CALLVALUE PUSH2 0x374 JUMPI DUP2 PUSH1 0x3 NOT CALLDATASIZE ADD SLT PUSH2 0x374 JUMPI PUSH1 0x20 SWAP1 PUSH1 0xFF PUSH1 0x9 SLOAD PUSH1 0xA0 SHR AND SWAP1 MLOAD SWAP1 ISZERO ISZERO DUP2 MSTORE RETURN JUMPDEST POP SWAP1 CALLVALUE PUSH2 0x347 JUMPI PUSH1 0x20 CALLDATASIZE PUSH1 0x3 NOT ADD SLT PUSH2 0x347 JUMPI PUSH2 0xF65 PUSH2 0x15D7 JUMP JUMPDEST PUSH2 0xF6D PUSH2 0x1792 JUMP JUMPDEST PUSH1 0x1 PUSH1 0x1 PUSH1 0xA0 SHL SUB AND SWAP2 DUP3 ISZERO PUSH2 0xFB8 JUMPI POP POP PUSH1 0x8 DUP1 SLOAD PUSH1 0x1 PUSH1 0x1 PUSH1 0xA0 SHL SUB NOT AND DUP3 OR SWAP1 SSTORE PUSH32 0xE87F0292B441BB77438700774B1AD754D9BD9FC20EF752DE029919BFFC121D06 DUP3 DUP1 LOG2 DUP1 RETURN JUMPDEST SWAP1 PUSH1 0x20 PUSH1 0x64 SWAP3 MLOAD SWAP2 PUSH3 0x461BCD PUSH1 0xE5 SHL DUP4 MSTORE DUP3 ADD MSTORE PUSH1 0xB PUSH1 0x24 DUP3 ADD MSTORE PUSH11 0x2D22A927AFA9A4A3A722A9 PUSH1 0xA9 SHL PUSH1 0x44 DUP3 ADD MSTORE REVERT JUMPDEST DUP4 DUP3 CALLVALUE PUSH2 0x374 JUMPI PUSH1 0x20 CALLDATASIZE PUSH1 0x3 NOT ADD SLT PUSH2 0x374 JUMPI PUSH1 0x20 SWAP2 PUSH1 0xFF SWAP1 DUP3 SWAP1 PUSH1 0x1 PUSH1 0x1 PUSH1 0xA0 SHL SUB PUSH2 0x1014 PUSH2 0x15D7 JUMP JUMPDEST AND DUP2 MSTORE PUSH1 0xA DUP6 MSTORE KECCAK256 SLOAD AND SWAP1 MLOAD SWAP1 ISZERO ISZERO DUP2 MSTORE RETURN JUMPDEST POP SWAP1 CALLVALUE PUSH2 0x347 JUMPI PUSH1 0x20 CALLDATASIZE PUSH1 0x3 NOT ADD SLT PUSH2 0x347 JUMPI DUP2 PUSH1 0x20 SWAP4 PUSH1 0xFF SWAP3 CALLDATALOAD DUP2 MSTORE PUSH1 0xE DUP6 MSTORE KECCAK256 SLOAD AND SWAP1 MLOAD SWAP1 DUP2 MSTORE RETURN JUMPDEST POP SWAP1 CALLVALUE PUSH2 0x347 JUMPI PUSH1 0x20 CALLDATASIZE PUSH1 0x3 NOT ADD SLT PUSH2 0x347 JUMPI DUP2 PUSH1 0x20 SWAP4 PUSH1 0xFF SWAP3 CALLDATALOAD DUP2 MSTORE PUSH1 0x10 DUP6 MSTORE KECCAK256 SLOAD AND SWAP1 MLOAD SWAP1 ISZERO ISZERO DUP2 MSTORE RETURN JUMPDEST DUP4 DUP3 CALLVALUE PUSH2 0x374 JUMPI DUP2 PUSH1 0x3 NOT CALLDATASIZE ADD SLT PUSH2 0x374 JUMPI DUP1 MLOAD PUSH2 0x4C2 SWAP2 PUSH2 0x10A0 DUP3 PUSH2 0x16C9 JUMP JUMPDEST PUSH1 0x1D DUP3 MSTORE PUSH32 0x47727565736F6D65417263616465205061796D656E7473526F75746572000000 PUSH1 0x20 DUP4 ADD MSTORE MLOAD SWAP2 DUP3 SWAP2 PUSH1 0x20 DUP4 MSTORE PUSH1 0x20 DUP4 ADD SWAP1 PUSH2 0x175D JUMP JUMPDEST POP SWAP2 SWAP1 PUSH2 0x10E8 CALLDATASIZE PUSH2 0x1643 JUMP JUMPDEST SWAP3 PUSH2 0x10F4 SWAP3 SWAP2 SWAP3 PUSH2 0x1E9B JUMP JUMPDEST PUSH2 0x1106 PUSH1 0xFF PUSH1 0x9 SLOAD PUSH1 0xA0 SHR AND ISZERO PUSH2 0x1E30 JUMP JUMPDEST PUSH1 0x1 PUSH1 0xFF PUSH2 0x1115 DUP9 DUP6 ADD PUSH2 0x1E0E JUMP JUMPDEST AND SUB PUSH2 0x1144 JUMPI PUSH1 0x20 DUP7 PUSH2 0x1138 DUP8 DUP8 DUP8 DUP8 DUP6 MLOAD SWAP4 PUSH2 0x1131 DUP6 PUSH2 0x16AE JUMP JUMPDEST DUP5 MSTORE PUSH2 0x23E8 JUMP JUMPDEST POP SWAP1 PUSH1 0x1 DUP1 SSTORE MLOAD SWAP1 DUP2 MSTORE RETURN JUMPDEST PUSH1 0x64 SWAP1 PUSH1 0x20 DUP8 MLOAD SWAP2 PUSH3 0x461BCD PUSH1 0xE5 SHL DUP4 MSTORE DUP3 ADD MSTORE PUSH1 0xB PUSH1 0x24 DUP3 ADD MSTORE PUSH11 0x4E4F545F43524544495453 PUSH1 0xA8 SHL PUSH1 0x44 DUP3 ADD MSTORE REVERT JUMPDEST POP DUP3 CALLVALUE PUSH2 0x5DE JUMPI DUP1 PUSH1 0x3 NOT CALLDATASIZE ADD SLT PUSH2 0x5DE JUMPI SWAP1 DUP1 MLOAD SWAP2 DUP3 SWAP1 PUSH1 0xB SLOAD SWAP2 DUP3 DUP6 MSTORE PUSH1 0x20 DUP1 SWAP6 ADD DUP1 SWAP4 PUSH1 0xB DUP5 MSTORE PUSH32 0x175B7A638427703F0DBE7BB9BBF987A2551717B34E79F33B5B1008D1FA01DB9 SWAP1 DUP5 JUMPDEST DUP2 DUP2 LT PUSH2 0x121D JUMPI POP POP POP DUP2 PUSH2 0x11D9 SWAP2 SUB DUP3 PUSH2 0x1700 JUMP JUMPDEST DUP4 MLOAD SWAP5 DUP6 SWAP5 DUP2 DUP7 ADD SWAP3 DUP3 DUP8 MSTORE MLOAD DUP1 SWAP4 MSTORE DUP6 ADD SWAP4 SWAP3 JUMPDEST DUP3 DUP2 LT PUSH2 0x11FD JUMPI POP POP POP POP SUB SWAP1 RETURN JUMPDEST DUP4 MLOAD PUSH1 0x1 PUSH1 0x1 PUSH1 0xA0 SHL SUB AND DUP6 MSTORE DUP7 SWAP6 POP SWAP4 DUP2 ADD SWAP4 SWAP3 DUP2 ADD SWAP3 PUSH1 0x1 ADD PUSH2 0x11EE JUMP JUMPDEST DUP3 SLOAD PUSH1 0x1 PUSH1 0x1 PUSH1 0xA0 SHL SUB AND DUP5 MSTORE SWAP3 DUP9 ADD SWAP3 PUSH1 0x1 SWAP3 DUP4 ADD SWAP3 ADD PUSH2 0x11C3 JUMP JUMPDEST DUP4 DUP3 CALLVALUE PUSH2 0x374 JUMPI DUP2 PUSH1 0x3 NOT CALLDATASIZE ADD SLT PUSH2 0x374 JUMPI PUSH1 0x20 SWAP1 MLOAD PUSH1 0x2 DUP2 MSTORE RETURN JUMPDEST DUP4 DUP3 CALLVALUE PUSH2 0x374 JUMPI DUP2 PUSH1 0x3 NOT CALLDATASIZE ADD SLT PUSH2 0x374 JUMPI PUSH1 0x20 SWAP1 MLOAD PUSH1 0x1 DUP2 MSTORE RETURN JUMPDEST DUP4 DUP3 CALLVALUE PUSH2 0x374 JUMPI DUP2 PUSH1 0x3 NOT CALLDATASIZE ADD SLT PUSH2 0x374 JUMPI MLOAD SWAP1 DUP2 MSTORE PUSH1 0x20 SWAP1 RETURN JUMPDEST POP SWAP2 SWAP1 PUSH2 0x1299 CALLDATASIZE PUSH2 0x1643 JUMP JUMPDEST SWAP3 PUSH2 0x12A5 SWAP3 SWAP2 SWAP3 PUSH2 0x1E9B JUMP JUMPDEST PUSH2 0x12B7 PUSH1 0xFF PUSH1 0x9 SLOAD PUSH1 0xA0 SHR AND ISZERO PUSH2 0x1E30 JUMP JUMPDEST PUSH1 0x3 PUSH1 0xFF PUSH2 0x12C6 DUP9 DUP6 ADD PUSH2 0x1E0E JUMP JUMPDEST AND SUB PUSH2 0x130E JUMPI POP SWAP3 PUSH1 0x1 PUSH1 0x1 PUSH1 0x40 SHL SUB SWAP3 PUSH2 0x12EB SWAP3 PUSH2 0x12FD SWAP6 DUP8 MLOAD SWAP4 PUSH2 0x1131 DUP6 PUSH2 0x16AE JUMP JUMPDEST PUSH1 0x20 DUP1 DUP3 SWAP6 SWAP4 SWAP6 MLOAD DUP4 ADD ADD SWAP2 ADD PUSH2 0x1FA6 JUMP JUMPDEST PUSH1 0x1 DUP1 SSTORE DUP4 MLOAD SWAP3 DUP4 MSTORE AND PUSH1 0x20 DUP3 ADD MSTORE RETURN JUMPDEST PUSH1 0x64 SWAP1 PUSH1 0x20 DUP8 MLOAD SWAP2 PUSH3 0x461BCD PUSH1 0xE5 SHL DUP4 MSTORE DUP3 ADD MSTORE PUSH1 0xD PUSH1 0x24 DUP3 ADD MSTORE PUSH13 0x4E4F545F50524F5F52454E4557 PUSH1 0x98 SHL PUSH1 0x44 DUP3 ADD MSTORE REVERT JUMPDEST DUP4 DUP3 CALLVALUE PUSH2 0x374 JUMPI DUP2 PUSH1 0x3 NOT CALLDATASIZE ADD SLT PUSH2 0x374 JUMPI PUSH1 0x20 SWAP1 MLOAD PUSH1 0x3 DUP2 MSTORE RETURN JUMPDEST POP SWAP1 CALLVALUE PUSH2 0x347 JUMPI PUSH1 0x20 CALLDATASIZE PUSH1 0x3 NOT ADD SLT PUSH2 0x347 JUMPI CALLDATALOAD SWAP1 DUP2 ISZERO ISZERO DUP1 SWAP3 SUB PUSH2 0x347 JUMPI PUSH32 0x40DB37FF5C0BDC2C427FBB2078C8F24AFEA940ABAC0E3C23BB4EA3BF2DA2B212 SWAP2 PUSH1 0x20 SWAP2 PUSH2 0x13A9 PUSH2 0x1792 JUMP JUMPDEST PUSH1 0x9 DUP1 SLOAD PUSH1 0xFF PUSH1 0xA0 SHL NOT AND PUSH1 0xA0 DUP5 SWAP1 SHL PUSH1 0xFF PUSH1 0xA0 SHL AND OR SWAP1 SSTORE MLOAD SWAP1 DUP2 MSTORE LOG1 DUP1 RETURN JUMPDEST POP CALLVALUE PUSH2 0x347 JUMPI DUP1 PUSH1 0x3 NOT CALLDATASIZE ADD SLT PUSH2 0x347 JUMPI PUSH2 0x13E3 PUSH2 0x15D7 JUMP JUMPDEST SWAP1 PUSH2 0x13EC PUSH2 0x1607 JUMP JUMPDEST SWAP2 PUSH2 0x13F5 PUSH2 0x1792 JUMP JUMPDEST PUSH1 0x1 PUSH1 0x1 PUSH1 0xA0 SHL SUB AND SWAP3 PUSH2 0x140A DUP5 ISZERO ISZERO PUSH2 0x19E3 JUMP JUMPDEST DUP4 DUP6 MSTORE PUSH1 0xA PUSH1 0x20 MSTORE DUP3 PUSH2 0x142B DUP2 DUP5 DUP9 KECCAK256 SWAP1 PUSH1 0xFF DUP1 NOT DUP4 SLOAD AND SWAP2 ISZERO ISZERO AND OR SWAP1 SSTORE JUMP JUMPDEST PUSH2 0x1460 JUMPI JUMPDEST POP PUSH32 0x9A8E30A8658B96AB3F034CE4BAC6806278B4AEE5880CCDD1AC35E4ED5BB31D23 SWAP2 PUSH1 0x20 SWAP2 MLOAD SWAP1 ISZERO ISZERO DUP2 MSTORE LOG2 DUP1 RETURN JUMPDEST PUSH1 0xC PUSH1 0x20 MSTORE DUP2 DUP6 KECCAK256 DUP1 SLOAD PUSH1 0xFF DUP2 AND ISZERO PUSH2 0x147B JUMPI JUMPDEST POP POP PUSH2 0x1430 JUMP JUMPDEST PUSH1 0xFF NOT AND PUSH1 0x1 OR SWAP1 SSTORE PUSH1 0xB SLOAD SWAP1 PUSH9 0x10000000000000000 DUP3 LT ISZERO PUSH2 0x151B JUMPI PUSH1 0x1 DUP3 ADD DUP1 PUSH1 0xB SSTORE DUP3 LT ISZERO PUSH2 0x1508 JUMPI POP PUSH1 0xB DUP6 MSTORE PUSH32 0x175B7A638427703F0DBE7BB9BBF987A2551717B34E79F33B5B1008D1FA01DB9 ADD DUP1 SLOAD PUSH1 0x1 PUSH1 0x1 PUSH1 0xA0 SHL SUB NOT AND DUP5 OR SWAP1 SSTORE DUP2 PUSH1 0x20 PUSH32 0x9A8E30A8658B96AB3F034CE4BAC6806278B4AEE5880CCDD1AC35E4ED5BB31D23 PUSH2 0x1474 JUMP JUMPDEST PUSH4 0x4E487B71 PUSH1 0xE0 SHL DUP7 MSTORE PUSH1 0x32 SWAP1 MSTORE PUSH1 0x24 DUP6 REVERT JUMPDEST PUSH4 0x4E487B71 PUSH1 0xE0 SHL DUP7 MSTORE PUSH1 0x41 SWAP1 MSTORE PUSH1 0x24 DUP6 REVERT JUMPDEST POP CALLVALUE PUSH2 0x347 JUMPI DUP1 PUSH1 0x3 NOT CALLDATASIZE ADD SLT PUSH2 0x347 JUMPI DUP3 DUP1 DUP1 DUP1 PUSH2 0x154B PUSH2 0x15D7 JUMP JUMPDEST PUSH2 0x1553 PUSH2 0x1792 JUMP JUMPDEST PUSH1 0x1 PUSH1 0x1 PUSH1 0xA0 SHL SUB AND PUSH2 0x1567 DUP2 ISZERO ISZERO PUSH2 0x1A53 JUMP JUMPDEST PUSH1 0x24 CALLDATALOAD SWAP1 GAS CALL PUSH2 0x1575 PUSH2 0x1BBD JUMP JUMPDEST POP ISZERO PUSH2 0x157F JUMPI DUP3 DUP1 RETURN JUMPDEST SWAP1 PUSH1 0x20 PUSH1 0x64 SWAP3 MLOAD SWAP2 PUSH3 0x461BCD PUSH1 0xE5 SHL DUP4 MSTORE DUP3 ADD MSTORE PUSH1 0xD PUSH1 0x24 DUP3 ADD MSTORE PUSH13 0x11551217D4D1539117D1905253 PUSH1 0x9A SHL PUSH1 0x44 DUP3 ADD MSTORE REVERT JUMPDEST DUP5 SWAP1 CALLVALUE PUSH2 0x374 JUMPI DUP2 PUSH1 0x3 NOT CALLDATASIZE ADD SLT PUSH2 0x374 JUMPI PUSH1 0x7 SLOAD PUSH1 0x1 PUSH1 0x1 PUSH1 0xA0 SHL SUB AND DUP2 MSTORE PUSH1 0x20 SWAP1 RETURN JUMPDEST PUSH1 0x4 CALLDATALOAD SWAP1 PUSH1 0x1 PUSH1 0x1 PUSH1 0xA0 SHL SUB DUP3 AND DUP3 SUB PUSH2 0x15ED JUMPI JUMP JUMPDEST PUSH0 DUP1 REVERT JUMPDEST PUSH1 0x24 CALLDATALOAD SWAP1 PUSH1 0x1 PUSH1 0x1 PUSH1 0xA0 SHL SUB DUP3 AND DUP3 SUB PUSH2 0x15ED JUMPI JUMP JUMPDEST PUSH1 0x24 CALLDATALOAD SWAP1 DUP2 ISZERO ISZERO DUP3 SUB PUSH2 0x15ED JUMPI JUMP JUMPDEST SWAP2 DUP2 PUSH1 0x1F DUP5 ADD SLT ISZERO PUSH2 0x15ED JUMPI DUP3 CALLDATALOAD SWAP2 PUSH1 0x1 PUSH1 0x1 PUSH1 0x40 SHL SUB DUP4 GT PUSH2 0x15ED JUMPI PUSH1 0x20 DUP4 DUP2 DUP7 ADD SWAP6 ADD ADD GT PUSH2 0x15ED JUMPI JUMP JUMPDEST SWAP1 PUSH1 0x3 NOT DUP3 ADD PUSH2 0x1A0 DUP2 SLT PUSH2 0x15ED JUMPI PUSH2 0x180 SGT PUSH2 0x15ED JUMPI PUSH1 0x4 SWAP2 PUSH2 0x184 CALLDATALOAD SWAP1 PUSH1 0x1 PUSH1 0x1 PUSH1 0x40 SHL SUB DUP3 GT PUSH2 0x15ED JUMPI PUSH2 0x167B SWAP2 DUP5 ADD PUSH2 0x1616 JUMP JUMPDEST SWAP1 SWAP2 JUMP JUMPDEST PUSH1 0x80 DUP2 ADD SWAP1 DUP2 LT PUSH1 0x1 PUSH1 0x1 PUSH1 0x40 SHL SUB DUP3 GT OR PUSH2 0x169A JUMPI PUSH1 0x40 MSTORE JUMP JUMPDEST PUSH4 0x4E487B71 PUSH1 0xE0 SHL PUSH0 MSTORE PUSH1 0x41 PUSH1 0x4 MSTORE PUSH1 0x24 PUSH0 REVERT JUMPDEST PUSH1 0x20 DUP2 ADD SWAP1 DUP2 LT PUSH1 0x1 PUSH1 0x1 PUSH1 0x40 SHL SUB DUP3 GT OR PUSH2 0x169A JUMPI PUSH1 0x40 MSTORE JUMP JUMPDEST PUSH1 0x40 DUP2 ADD SWAP1 DUP2 LT PUSH1 0x1 PUSH1 0x1 PUSH1 0x40 SHL SUB DUP3 GT OR PUSH2 0x169A JUMPI PUSH1 0x40 MSTORE JUMP JUMPDEST PUSH2 0x1C0 DUP2 ADD SWAP1 DUP2 LT PUSH1 0x1 PUSH1 0x1 PUSH1 0x40 SHL SUB DUP3 GT OR PUSH2 0x169A JUMPI PUSH1 0x40 MSTORE JUMP JUMPDEST SWAP1 PUSH1 0x1F DUP1 NOT SWAP2 ADD AND DUP2 ADD SWAP1 DUP2 LT PUSH1 0x1 PUSH1 0x1 PUSH1 0x40 SHL SUB DUP3 GT OR PUSH2 0x169A JUMPI PUSH1 0x40 MSTORE JUMP JUMPDEST PUSH1 0x1 PUSH1 0x1 PUSH1 0x40 SHL SUB DUP2 GT PUSH2 0x169A JUMPI PUSH1 0x1F ADD PUSH1 0x1F NOT AND PUSH1 0x20 ADD SWAP1 JUMP JUMPDEST PUSH0 JUMPDEST DUP4 DUP2 LT PUSH2 0x174D JUMPI POP POP PUSH0 SWAP2 ADD MSTORE JUMP JUMPDEST DUP2 DUP2 ADD MLOAD DUP4 DUP3 ADD MSTORE PUSH1 0x20 ADD PUSH2 0x173E JUMP JUMPDEST SWAP1 PUSH1 0x20 SWAP2 PUSH2 0x1776 DUP2 MLOAD DUP1 SWAP3 DUP2 DUP6 MSTORE DUP6 DUP1 DUP7 ADD SWAP2 ADD PUSH2 0x173C JUMP JUMPDEST PUSH1 0x1F ADD PUSH1 0x1F NOT AND ADD ADD SWAP1 JUMP JUMPDEST PUSH1 0x4 CALLDATALOAD SWAP1 PUSH1 0xFF DUP3 AND DUP3 SUB PUSH2 0x15ED JUMPI JUMP JUMPDEST PUSH0 SLOAD PUSH1 0x1 PUSH1 0x1 PUSH1 0xA0 SHL SUB AND CALLER SUB PUSH2 0x17A5 JUMPI JUMP JUMPDEST PUSH1 0x64 PUSH1 0x40 MLOAD PUSH3 0x461BCD PUSH1 0xE5 SHL DUP2 MSTORE PUSH1 0x20 PUSH1 0x4 DUP3 ADD MSTORE PUSH1 0x20 PUSH1 0x24 DUP3 ADD MSTORE PUSH32 0x4F776E61626C653A2063616C6C6572206973206E6F7420746865206F776E6572 PUSH1 0x44 DUP3 ADD MSTORE REVERT JUMPDEST PUSH1 0xFF DUP2 EQ PUSH2 0x1827 JUMPI PUSH1 0xFF DUP2 AND SWAP1 PUSH1 0x1F DUP3 GT PUSH2 0x1815 JUMPI PUSH1 0x40 MLOAD SWAP2 PUSH2 0x180B DUP4 PUSH2 0x16C9 JUMP JUMPDEST DUP3 MSTORE PUSH1 0x20 DUP3 ADD MSTORE SWAP1 JUMP JUMPDEST PUSH1 0x40 MLOAD PUSH4 0x2CD44AC3 PUSH1 0xE2 SHL DUP2 MSTORE PUSH1 0x4 SWAP1 REVERT JUMPDEST POP PUSH1 0x40 MLOAD PUSH0 PUSH1 0x2 SLOAD SWAP1 PUSH1 0x1 DUP3 DUP2 SHR SWAP1 DUP1 DUP5 AND SWAP4 DUP5 ISZERO PUSH2 0x1906 JUMPI JUMPDEST PUSH1 0x20 SWAP5 DUP6 DUP5 LT DUP2 EQ PUSH2 0x18F2 JUMPI DUP4 DUP8 MSTORE DUP7 SWAP5 SWAP4 SWAP3 SWAP2 DUP2 ISZERO PUSH2 0x18D2 JUMPI POP PUSH1 0x1 EQ PUSH2 0x1875 JUMPI JUMPDEST POP POP PUSH2 0x1872 SWAP3 POP SUB DUP3 PUSH2 0x1700 JUMP JUMPDEST SWAP1 JUMP JUMPDEST SWAP1 SWAP4 SWAP2 POP PUSH1 0x2 PUSH0 MSTORE PUSH32 0x405787FA12A823E0F2B7631CC41B3BA8828B3321CA811111FA75CD3AA3BB5ACE SWAP4 PUSH0 SWAP2 JUMPDEST DUP2 DUP4 LT PUSH2 0x18BA JUMPI POP POP PUSH2 0x1872 SWAP4 POP DUP3 ADD ADD PUSH0 DUP1 PUSH2 0x1864 JUMP JUMPDEST DUP6 SLOAD DUP8 DUP5 ADD DUP6 ADD MSTORE SWAP5 DUP6 ADD SWAP5 DUP7 SWAP5 POP SWAP2 DUP4 ADD SWAP2 PUSH2 0x18A2 JUMP JUMPDEST SWAP2 POP POP PUSH2 0x1872 SWAP5 SWAP3 POP PUSH1 0xFF NOT AND DUP3 DUP5 ADD MSTORE ISZERO ISZERO PUSH1 0x5 SHL DUP3 ADD ADD PUSH0 DUP1 PUSH2 0x1864 JUMP JUMPDEST PUSH4 0x4E487B71 PUSH1 0xE0 SHL DUP6 MSTORE PUSH1 0x22 PUSH1 0x4 MSTORE PUSH1 0x24 DUP6 REVERT JUMPDEST SWAP2 PUSH1 0x7F AND SWAP2 PUSH2 0x1841 JUMP JUMPDEST PUSH1 0xFF DUP2 EQ PUSH2 0x1932 JUMPI PUSH1 0xFF DUP2 AND SWAP1 PUSH1 0x1F DUP3 GT PUSH2 0x1815 JUMPI PUSH1 0x40 MLOAD SWAP2 PUSH2 0x180B DUP4 PUSH2 0x16C9 JUMP JUMPDEST POP PUSH1 0x40 MLOAD PUSH0 PUSH1 0x3 SLOAD SWAP1 PUSH1 0x1 DUP3 DUP2 SHR SWAP1 DUP1 DUP5 AND SWAP4 DUP5 ISZERO PUSH2 0x19D9 JUMPI JUMPDEST PUSH1 0x20 SWAP5 DUP6 DUP5 LT DUP2 EQ PUSH2 0x18F2 JUMPI DUP4 DUP8 MSTORE DUP7 SWAP5 SWAP4 SWAP3 SWAP2 DUP2 ISZERO PUSH2 0x18D2 JUMPI POP PUSH1 0x1 EQ PUSH2 0x197C JUMPI POP POP PUSH2 0x1872 SWAP3 POP SUB DUP3 PUSH2 0x1700 JUMP JUMPDEST SWAP1 SWAP4 SWAP2 POP PUSH1 0x3 PUSH0 MSTORE PUSH32 0xC2575A0E9E593C00F959F8C92F12DB2869C3395A3B0502D05E2516446F71F85B SWAP4 PUSH0 SWAP2 JUMPDEST DUP2 DUP4 LT PUSH2 0x19C1 JUMPI POP POP PUSH2 0x1872 SWAP4 POP DUP3 ADD ADD PUSH0 DUP1 PUSH2 0x1864 JUMP JUMPDEST DUP6 SLOAD DUP8 DUP5 ADD DUP6 ADD MSTORE SWAP5 DUP6 ADD SWAP5 DUP7 SWAP5 POP SWAP2 DUP4 ADD SWAP2 PUSH2 0x19A9 JUMP JUMPDEST SWAP2 PUSH1 0x7F AND SWAP2 PUSH2 0x194C JUMP JUMPDEST ISZERO PUSH2 0x19EA JUMPI JUMP JUMPDEST PUSH1 0x40 MLOAD PUSH3 0x461BCD PUSH1 0xE5 SHL DUP2 MSTORE PUSH1 0x20 PUSH1 0x4 DUP3 ADD MSTORE PUSH1 0xA PUSH1 0x24 DUP3 ADD MSTORE PUSH10 0x2D22A927AFAA27A5A2A7 PUSH1 0xB1 SHL PUSH1 0x44 DUP3 ADD MSTORE PUSH1 0x64 SWAP1 REVERT JUMPDEST ISZERO PUSH2 0x1A23 JUMPI JUMP JUMPDEST PUSH1 0x40 MLOAD PUSH3 0x461BCD PUSH1 0xE5 SHL DUP2 MSTORE PUSH1 0x20 PUSH1 0x4 DUP3 ADD MSTORE PUSH1 0x8 PUSH1 0x24 DUP3 ADD MSTORE PUSH8 0x10905117D2D25391 PUSH1 0xC2 SHL PUSH1 0x44 DUP3 ADD MSTORE PUSH1 0x64 SWAP1 REVERT JUMPDEST ISZERO PUSH2 0x1A5A JUMPI JUMP JUMPDEST PUSH1 0x40 MLOAD PUSH3 0x461BCD PUSH1 0xE5 SHL DUP2 MSTORE PUSH1 0x20 PUSH1 0x4 DUP3 ADD MSTORE PUSH1 0x7 PUSH1 0x24 DUP3 ADD MSTORE PUSH7 0x5A45524F5F544F PUSH1 0xC8 SHL PUSH1 0x44 DUP3 ADD MSTORE PUSH1 0x64 SWAP1 REVERT JUMPDEST PUSH1 0x40 MLOAD PUSH4 0xA9059CBB PUSH1 0xE0 SHL PUSH1 0x20 DUP3 ADD MSTORE PUSH1 0x1 PUSH1 0x1 PUSH1 0xA0 SHL SUB SWAP1 SWAP3 AND PUSH1 0x24 DUP4 ADD MSTORE PUSH1 0x44 DUP1 DUP4 ADD SWAP4 SWAP1 SWAP4 MSTORE SWAP2 DUP2 MSTORE PUSH2 0x1AC7 SWAP2 PUSH2 0x1AC2 DUP3 PUSH2 0x167F JUMP JUMPDEST PUSH2 0x1AC9 JUMP JUMPDEST JUMP JUMPDEST PUSH1 0x1 DUP1 PUSH1 0xA0 SHL SUB AND SWAP1 PUSH2 0x1B27 PUSH1 0x40 MLOAD PUSH2 0x1AE1 DUP2 PUSH2 0x16C9 JUMP JUMPDEST PUSH1 0x20 SWAP4 DUP5 DUP3 MSTORE PUSH32 0x5361666545524332303A206C6F772D6C6576656C2063616C6C206661696C6564 DUP6 DUP4 ADD MSTORE PUSH0 DUP1 DUP6 DUP8 DUP3 SWAP8 MLOAD SWAP2 ADD DUP3 DUP6 GAS CALL PUSH2 0x1B21 PUSH2 0x1BBD JUMP JUMPDEST SWAP2 PUSH2 0x1BEC JUMP JUMPDEST DUP1 MLOAD SWAP2 DUP3 ISZERO SWAP2 DUP5 DUP4 ISZERO PUSH2 0x1B99 JUMPI JUMPDEST POP POP POP SWAP1 POP ISZERO PUSH2 0x1B42 JUMPI POP JUMP JUMPDEST PUSH1 0x84 SWAP1 PUSH1 0x40 MLOAD SWAP1 PUSH3 0x461BCD PUSH1 0xE5 SHL DUP3 MSTORE PUSH1 0x4 DUP3 ADD MSTORE PUSH1 0x2A PUSH1 0x24 DUP3 ADD MSTORE PUSH32 0x5361666545524332303A204552433230206F7065726174696F6E20646964206E PUSH1 0x44 DUP3 ADD MSTORE PUSH10 0x1BDD081CDD58D8D95959 PUSH1 0xB2 SHL PUSH1 0x64 DUP3 ADD MSTORE REVERT JUMPDEST SWAP2 SWAP4 DUP2 DUP1 SWAP5 POP ADD SUB SLT PUSH2 0x374 JUMPI DUP3 ADD MLOAD SWAP1 DUP2 ISZERO ISZERO DUP3 SUB PUSH2 0x5DE JUMPI POP DUP1 PUSH0 DUP1 DUP5 PUSH2 0x1B35 JUMP JUMPDEST RETURNDATASIZE ISZERO PUSH2 0x1BE7 JUMPI RETURNDATASIZE SWAP1 PUSH2 0x1BCE DUP3 PUSH2 0x1721 JUMP JUMPDEST SWAP2 PUSH2 0x1BDC PUSH1 0x40 MLOAD SWAP4 DUP5 PUSH2 0x1700 JUMP JUMPDEST DUP3 MSTORE RETURNDATASIZE PUSH0 PUSH1 0x20 DUP5 ADD RETURNDATACOPY JUMP JUMPDEST PUSH1 0x60 SWAP1 JUMP JUMPDEST SWAP2 SWAP3 SWAP1 ISZERO PUSH2 0x1C4E JUMPI POP DUP2 MLOAD ISZERO PUSH2 0x1C00 JUMPI POP SWAP1 JUMP JUMPDEST EXTCODESIZE ISZERO PUSH2 0x1C09 JUMPI SWAP1 JUMP JUMPDEST PUSH1 0x40 MLOAD PUSH3 0x461BCD PUSH1 0xE5 SHL DUP2 MSTORE PUSH1 0x20 PUSH1 0x4 DUP3 ADD MSTORE PUSH1 0x1D PUSH1 0x24 DUP3 ADD MSTORE PUSH32 0x416464726573733A2063616C6C20746F206E6F6E2D636F6E7472616374000000 PUSH1 0x44 DUP3 ADD MSTORE PUSH1 0x64 SWAP1 REVERT JUMPDEST DUP3 MLOAD SWAP1 SWAP2 POP ISZERO PUSH2 0x1C61 JUMPI POP DUP1 MLOAD SWAP1 PUSH1 0x20 ADD REVERT JUMPDEST PUSH1 0x40 MLOAD PUSH3 0x461BCD PUSH1 0xE5 SHL DUP2 MSTORE PUSH1 0x20 PUSH1 0x4 DUP3 ADD MSTORE SWAP1 DUP2 SWAP1 PUSH2 0x1C85 SWAP1 PUSH1 0x24 DUP4 ADD SWAP1 PUSH2 0x175D JUMP JUMPDEST SUB SWAP1 REVERT JUMPDEST SWAP2 SWAP1 DUP3 ADD DUP1 SWAP3 GT PUSH2 0x1C96 JUMPI JUMP JUMPDEST PUSH4 0x4E487B71 PUSH1 0xE0 SHL PUSH0 MSTORE PUSH1 0x11 PUSH1 0x4 MSTORE PUSH1 0x24 PUSH0 REVERT JUMPDEST PUSH1 0x42 SWAP1 PUSH2 0x1CB5 PUSH2 0x1CD0 JUMP JUMPDEST SWAP1 PUSH1 0x40 MLOAD SWAP2 PUSH2 0x1901 PUSH1 0xF0 SHL DUP4 MSTORE PUSH1 0x2 DUP4 ADD MSTORE PUSH1 0x22 DUP3 ADD MSTORE KECCAK256 SWAP1 JUMP JUMPDEST ADDRESS PUSH32 0x0 PUSH1 0x1 PUSH1 0x1 PUSH1 0xA0 SHL SUB AND EQ DUP1 PUSH2 0x1DD1 JUMPI JUMPDEST ISZERO PUSH2 0x1D2B JUMPI PUSH32 0x0 SWAP1 JUMP JUMPDEST PUSH1 0x40 MLOAD PUSH1 0x20 DUP2 ADD SWAP1 PUSH32 0x8B73C3C69BB8FE3D512ECC4CF759CC79239F7B179B0FFACAA9A75D522B39400F DUP3 MSTORE PUSH32 0x0 PUSH1 0x40 DUP3 ADD MSTORE PUSH32 0x0 PUSH1 0x60 DUP3 ADD MSTORE CHAINID PUSH1 0x80 DUP3 ADD MSTORE ADDRESS PUSH1 0xA0 DUP3 ADD MSTORE PUSH1 0xA0 DUP2 MSTORE PUSH1 0xC0 DUP2 ADD DUP2 DUP2 LT PUSH1 0x1 PUSH1 0x1 PUSH1 0x40 SHL SUB DUP3 GT OR PUSH2 0x169A JUMPI PUSH1 0x40 MSTORE MLOAD SWAP1 KECCAK256 SWAP1 JUMP JUMPDEST POP PUSH32 0x0 CHAINID EQ PUSH2 0x1D02 JUMP JUMPDEST CALLDATALOAD PUSH1 0x1 PUSH1 0x1 PUSH1 0xA0 SHL SUB DUP2 AND DUP2 SUB PUSH2 0x15ED JUMPI SWAP1 JUMP JUMPDEST CALLDATALOAD PUSH1 0xFF DUP2 AND DUP2 SUB PUSH2 0x15ED JUMPI SWAP1 JUMP JUMPDEST CALLDATALOAD PUSH1 0x1 PUSH1 0x1 PUSH1 0x40 SHL SUB DUP2 AND DUP2 SUB PUSH2 0x15ED JUMPI SWAP1 JUMP JUMPDEST ISZERO PUSH2 0x1E37 JUMPI JUMP JUMPDEST PUSH1 0x40 MLOAD PUSH3 0x461BCD PUSH1 0xE5 SHL DUP2 MSTORE PUSH1 0x20 PUSH1 0x4 DUP3 ADD MSTORE PUSH1 0x6 PUSH1 0x24 DUP3 ADD MSTORE PUSH6 0x14105554D151 PUSH1 0xD2 SHL PUSH1 0x44 DUP3 ADD MSTORE PUSH1 0x64 SWAP1 REVERT JUMPDEST SWAP3 SWAP2 SWAP3 PUSH2 0x1E71 DUP3 PUSH2 0x1721 JUMP JUMPDEST SWAP2 PUSH2 0x1E7F PUSH1 0x40 MLOAD SWAP4 DUP5 PUSH2 0x1700 JUMP JUMPDEST DUP3 SWAP5 DUP2 DUP5 MSTORE DUP2 DUP4 ADD GT PUSH2 0x15ED JUMPI DUP3 DUP2 PUSH1 0x20 SWAP4 DUP5 PUSH0 SWAP7 ADD CALLDATACOPY ADD ADD MSTORE JUMP JUMPDEST PUSH1 0x2 PUSH1 0x1 SLOAD EQ PUSH2 0x1EAC JUMPI PUSH1 0x2 PUSH1 0x1 SSTORE JUMP JUMPDEST PUSH1 0x40 MLOAD PUSH3 0x461BCD PUSH1 0xE5 SHL DUP2 MSTORE PUSH1 0x20 PUSH1 0x4 DUP3 ADD MSTORE PUSH1 0x1F PUSH1 0x24 DUP3 ADD MSTORE PUSH32 0x5265656E7472616E637947756172643A207265656E7472616E742063616C6C00 PUSH1 0x44 DUP3 ADD MSTORE PUSH1 0x64 SWAP1 REVERT JUMPDEST ISZERO PUSH2 0x1EF8 JUMPI JUMP JUMPDEST PUSH1 0x40 MLOAD PUSH3 0x461BCD PUSH1 0xE5 SHL DUP2 MSTORE PUSH1 0x20 PUSH1 0x4 DUP3 ADD MSTORE PUSH1 0xD PUSH1 0x24 DUP3 ADD MSTORE PUSH13 0x2727AFA82927AFA0AB20AA20A9 PUSH1 0x99 SHL PUSH1 0x44 DUP3 ADD MSTORE PUSH1 0x64 SWAP1 REVERT JUMPDEST ISZERO PUSH2 0x1F34 JUMPI JUMP JUMPDEST PUSH1 0x40 MLOAD PUSH3 0x461BCD PUSH1 0xE5 SHL DUP2 MSTORE PUSH1 0x20 PUSH1 0x4 DUP3 ADD MSTORE PUSH1 0x8 PUSH1 0x24 DUP3 ADD MSTORE PUSH8 0x2120A22FAA24A2A9 PUSH1 0xC1 SHL PUSH1 0x44 DUP3 ADD MSTORE PUSH1 0x64 SWAP1 REVERT JUMPDEST DUP2 PUSH1 0x1F DUP3 ADD SLT ISZERO PUSH2 0x15ED JUMPI DUP1 MLOAD PUSH2 0x1F7A DUP2 PUSH2 0x1721 JUMP JUMPDEST SWAP3 PUSH2 0x1F88 PUSH1 0x40 MLOAD SWAP5 DUP6 PUSH2 0x1700 JUMP JUMPDEST DUP2 DUP5 MSTORE PUSH1 0x20 DUP3 DUP5 ADD ADD GT PUSH2 0x15ED JUMPI PUSH2 0x1872 SWAP2 PUSH1 0x20 DUP1 DUP6 ADD SWAP2 ADD PUSH2 0x173C JUMP JUMPDEST SWAP1 DUP2 PUSH1 0x20 SWAP2 SUB SLT PUSH2 0x15ED JUMPI MLOAD PUSH1 0x1 PUSH1 0x1 PUSH1 0x40 SHL SUB DUP2 AND DUP2 SUB PUSH2 0x15ED JUMPI SWAP1 JUMP JUMPDEST SWAP1 SWAP3 SWAP2 PUSH1 0x44 SWAP1 DUP2 CALLDATALOAD SWAP1 PUSH1 0xFF DUP3 AND DUP1 SWAP3 SUB PUSH2 0x15ED JUMPI PUSH1 0x1 DUP3 EQ PUSH2 0x2352 JUMPI PUSH1 0x2 DUP3 EQ PUSH2 0x2134 JUMPI POP PUSH1 0x3 EQ PUSH2 0x2012 JUMPI POP SWAP2 PUSH2 0x1FFD SWAP2 SWAP3 PUSH2 0x287C JUMP JUMPDEST SWAP1 PUSH1 0x40 MLOAD SWAP2 PUSH2 0x200B DUP4 PUSH2 0x16AE JUMP JUMPDEST PUSH0 DUP4 MSTORE SWAP2 SWAP1 JUMP JUMPDEST PUSH1 0x9 SLOAD PUSH1 0x1 PUSH1 0x1 PUSH1 0xA0 SHL SUB SWAP3 SWAP2 SWAP1 PUSH2 0x202D SWAP1 DUP5 AND ISZERO ISZERO PUSH2 0x1EF1 JUMP JUMPDEST PUSH1 0xE4 CALLDATALOAD SWAP5 PUSH1 0xFF DUP7 AND DUP1 SWAP7 EQ ISZERO SWAP3 DUP4 PUSH2 0x15ED JUMPI PUSH1 0x1 DUP8 LT ISZERO DUP1 PUSH2 0x2126 JUMPI JUMPDEST SWAP1 PUSH2 0x2058 PUSH2 0x205D SWAP4 SWAP3 PUSH2 0x1F2D JUMP JUMPDEST PUSH2 0x287C JUMP JUMPDEST SWAP3 PUSH1 0x9 SLOAD AND SWAP2 PUSH2 0x15ED JUMPI PUSH0 SWAP2 PUSH1 0x40 MLOAD DUP1 SWAP3 PUSH4 0x1CAFB22B PUSH1 0xE3 SHL DUP3 MSTORE CALLER PUSH1 0x4 DUP4 ADD MSTORE DUP8 PUSH1 0x24 DUP4 ADD MSTORE DUP2 PUSH1 0x20 SWAP6 DUP7 SWAP5 GAS CALL DUP1 ISZERO PUSH2 0x211B JUMPI PUSH1 0x1 PUSH1 0x1 PUSH1 0x40 SHL SUB SWAP2 PUSH0 SWAP2 PUSH2 0x20EE JUMPI JUMPDEST POP PUSH1 0x40 MLOAD SWAP6 DUP7 MSTORE AND SWAP4 DUP5 DUP3 DUP3 ADD MSTORE DUP3 PUSH32 0x7E970B8A33AF86947252EF7EB1F3B2512066BD73D5E37765ACFFBBDCC20BA593 PUSH1 0x40 CALLER SWAP4 LOG3 PUSH1 0x40 MLOAD SWAP4 DUP2 DUP6 ADD MSTORE DUP4 MSTORE PUSH2 0x20EA DUP4 PUSH2 0x16C9 JUMP JUMPDEST SWAP2 SWAP1 JUMP JUMPDEST PUSH2 0x210E SWAP2 POP DUP4 RETURNDATASIZE DUP6 GT PUSH2 0x2114 JUMPI JUMPDEST PUSH2 0x2106 DUP2 DUP4 PUSH2 0x1700 JUMP JUMPDEST DUP2 ADD SWAP1 PUSH2 0x1FA6 JUMP JUMPDEST PUSH0 PUSH2 0x20A2 JUMP JUMPDEST POP RETURNDATASIZE PUSH2 0x20FC JUMP JUMPDEST PUSH1 0x40 MLOAD RETURNDATASIZE PUSH0 DUP3 RETURNDATACOPY RETURNDATASIZE SWAP1 REVERT JUMPDEST POP PUSH0 SWAP4 POP PUSH1 0x3 DUP8 GT ISZERO PUSH2 0x204A JUMP JUMPDEST PUSH1 0x9 SLOAD PUSH1 0x1 PUSH1 0x1 PUSH1 0xA0 SHL SUB SWAP5 SWAP2 SWAP4 SWAP2 SWAP3 POP PUSH2 0x2152 SWAP1 DUP6 AND ISZERO ISZERO PUSH2 0x1EF1 JUMP JUMPDEST PUSH1 0xE4 CALLDATALOAD SWAP1 PUSH1 0xFF DUP3 AND DUP1 SWAP3 EQ ISZERO SWAP4 DUP5 PUSH2 0x15ED JUMPI PUSH1 0x1 DUP4 LT ISZERO DUP1 PUSH2 0x2344 JUMPI JUMPDEST PUSH2 0x2178 SWAP1 PUSH2 0x1F2D JUMP JUMPDEST DUP1 MLOAD SWAP5 PUSH1 0x20 SWAP6 DUP7 DUP4 ADD SWAP1 DUP4 ADD SWAP10 PUSH1 0x60 DUP5 DUP10 DUP14 ADD SWAP13 SUB SLT PUSH2 0x15ED JUMPI DUP2 MLOAD SWAP7 PUSH1 0x1 PUSH1 0x1 PUSH1 0x40 SHL SUB SWAP8 DUP9 DUP2 GT PUSH2 0x15ED JUMPI DUP13 DUP11 PUSH2 0x21B3 SWAP3 DUP9 ADD ADD PUSH2 0x1F64 JUMP JUMPDEST SWAP5 PUSH1 0x40 SWAP9 DUP10 DUP3 ADD MLOAD SWAP14 PUSH1 0x60 DUP4 ADD MLOAD SWAP2 DUP3 GT PUSH2 0x15ED JUMPI DUP12 PUSH2 0x21D5 SWAP3 DUP5 ADD ADD PUSH2 0x1F64 JUMP JUMPDEST SWAP4 PUSH2 0x164 CALLDATALOAD SWAP2 DUP3 ISZERO PUSH2 0x2312 JUMPI MLOAD SWAP1 KECCAK256 SUB PUSH2 0x22DA JUMPI SWAP1 PUSH2 0x21F3 SWAP2 PUSH2 0x287C JUMP JUMPDEST SWAP8 PUSH1 0x9 SLOAD AND SWAP2 PUSH2 0x15ED JUMPI PUSH0 DUP8 SWAP5 PUSH2 0x224D PUSH2 0x2236 SWAP13 PUSH1 0xA0 SWAP5 DUP11 MLOAD SWAP15 DUP16 SWAP9 DUP10 SWAP8 DUP9 SWAP7 PUSH4 0x2E327DE3 PUSH1 0xE1 SHL DUP9 MSTORE CALLER PUSH1 0x4 DUP10 ADD MSTORE DUP14 PUSH1 0x24 DUP10 ADD MSTORE DUP8 ADD MSTORE PUSH1 0xA4 DUP7 ADD SWAP1 PUSH2 0x175D JUMP JUMPDEST SWAP2 PUSH1 0x64 DUP6 ADD MSTORE PUSH1 0x3 NOT DUP5 DUP4 SUB ADD PUSH1 0x84 DUP6 ADD MSTORE PUSH2 0x175D JUMP JUMPDEST SUB SWAP3 GAS CALL SWAP6 DUP7 ISZERO PUSH2 0x22D0 JUMPI PUSH0 SWAP7 PUSH2 0x22A1 JUMPI JUMPDEST POP DUP2 MLOAD SWAP1 DUP7 DUP3 MSTORE DUP4 DUP3 ADD MSTORE DUP4 PUSH32 0xB6F2D680F93B47DD22A03584FA4603725965208DE6C731C54C462DE02DFE9846 DUP4 CALLER SWAP4 LOG3 MLOAD SWAP4 DUP2 DUP6 ADD MSTORE DUP4 MSTORE PUSH2 0x20EA DUP4 PUSH2 0x16C9 JUMP JUMPDEST SWAP1 SWAP6 DUP4 DUP3 DUP2 RETURNDATASIZE DUP4 GT PUSH2 0x22C9 JUMPI JUMPDEST PUSH2 0x22B8 DUP2 DUP4 PUSH2 0x1700 JUMP JUMPDEST DUP2 ADD SUB SLT PUSH2 0x5DE JUMPI POP MLOAD SWAP5 PUSH0 PUSH2 0x225F JUMP JUMPDEST POP RETURNDATASIZE PUSH2 0x22AE JUMP JUMPDEST DUP3 MLOAD RETURNDATASIZE PUSH0 DUP3 RETURNDATACOPY RETURNDATASIZE SWAP1 REVERT JUMPDEST DUP8 MLOAD PUSH3 0x461BCD PUSH1 0xE5 SHL DUP2 MSTORE PUSH1 0x4 DUP2 ADD DUP11 SWAP1 MSTORE PUSH1 0x12 PUSH1 0x24 DUP3 ADD MSTORE PUSH18 0x8882A882BE9082A690BE9A92A69A82A8869 PUSH1 0x73 SHL DUP2 DUP9 ADD MSTORE PUSH1 0x64 SWAP1 REVERT JUMPDEST DUP11 MLOAD PUSH3 0x461BCD PUSH1 0xE5 SHL DUP2 MSTORE PUSH1 0x4 DUP2 ADD DUP14 SWAP1 MSTORE PUSH1 0xC PUSH1 0x24 DUP3 ADD MSTORE PUSH12 0x9C9EBE8882A882BE9082A69 PUSH1 0xA3 SHL DUP2 DUP12 ADD MSTORE PUSH1 0x64 SWAP1 REVERT JUMPDEST POP PUSH0 SWAP5 POP PUSH1 0x3 DUP4 GT ISZERO PUSH2 0x216F JUMP JUMPDEST POP POP SWAP3 SWAP1 PUSH1 0xC4 CALLDATALOAD SWAP4 DUP5 ISZERO PUSH2 0x23B7 JUMPI POP SWAP1 PUSH2 0x236B SWAP2 PUSH2 0x287C JUMP JUMPDEST SWAP2 PUSH1 0x40 MLOAD SWAP1 DUP2 MSTORE PUSH1 0xA4 CALLDATALOAD PUSH1 0x20 DUP3 ADD MSTORE PUSH2 0x144 CALLDATALOAD PUSH1 0x40 DUP3 ADD MSTORE DUP3 PUSH32 0xD0E1D9E2305927BE0943A2814D4866A75E615975FB0BE6B6F5E30A9C20187409 PUSH1 0x60 CALLER SWAP4 LOG3 PUSH1 0x40 MLOAD SWAP2 PUSH2 0x200B DUP4 PUSH2 0x16AE JUMP JUMPDEST PUSH1 0x64 SWAP1 PUSH10 0x4E4F5F43524544495453 PUSH1 0xB0 SHL PUSH1 0x40 MLOAD SWAP2 PUSH3 0x461BCD PUSH1 0xE5 SHL DUP4 MSTORE PUSH1 0x20 PUSH1 0x4 DUP5 ADD MSTORE PUSH1 0xA PUSH1 0x24 DUP5 ADD MSTORE DUP3 ADD MSTORE REVERT JUMPDEST PUSH1 0x40 SWAP5 SWAP4 PUSH1 0xFF SWAP1 DUP7 DUP4 ADD SWAP1 PUSH1 0x1 DUP4 PUSH2 0x23FF DUP5 PUSH2 0x1E0E JUMP JUMPDEST AND EQ PUSH2 0x27A4 JUMPI PUSH1 0x2 DUP4 PUSH2 0x2411 DUP5 PUSH2 0x1E0E JUMP JUMPDEST AND EQ PUSH2 0x2568 JUMPI POP DUP2 PUSH2 0x2424 PUSH1 0x3 SWAP3 PUSH2 0x1E0E JUMP JUMPDEST AND EQ PUSH2 0x2442 JUMPI POP SWAP1 PUSH2 0x2436 SWAP3 SWAP2 PUSH2 0x3036 JUMP JUMPDEST SWAP2 MLOAD SWAP2 PUSH2 0x200B DUP4 PUSH2 0x16AE JUMP JUMPDEST SWAP5 SWAP1 PUSH2 0x2484 PUSH0 SWAP4 SWAP5 PUSH1 0x1 DUP1 PUSH1 0xA0 SHL SUB SWAP6 PUSH2 0x2461 DUP8 PUSH1 0x9 SLOAD AND ISZERO ISZERO PUSH2 0x1EF1 JUMP JUMPDEST PUSH1 0xE0 DUP5 ADD SWAP4 PUSH1 0x1 DUP11 PUSH2 0x2472 DUP8 PUSH2 0x1E0E JUMP JUMPDEST AND LT ISZERO DUP1 PUSH2 0x254E JUMPI JUMPDEST PUSH2 0xF13 SWAP1 PUSH2 0x1F2D JUMP JUMPDEST SWAP4 PUSH1 0x9 SLOAD AND SWAP1 PUSH2 0x2493 DUP2 PUSH2 0x1E0E JUMP JUMPDEST SWAP2 DUP8 DUP5 MLOAD SWAP4 PUSH4 0x1CAFB22B PUSH1 0xE3 SHL DUP6 MSTORE CALLER PUSH1 0x4 DUP7 ADD MSTORE AND PUSH1 0x24 DUP5 ADD MSTORE DUP3 PUSH1 0x44 DUP2 PUSH1 0x20 SWAP8 DUP9 SWAP5 GAS CALL SWAP2 DUP3 ISZERO PUSH2 0x2544 JUMPI SWAP1 PUSH1 0x1 PUSH1 0x1 PUSH1 0x40 SHL SUB SWAP3 SWAP2 PUSH0 SWAP3 PUSH2 0x2521 JUMPI JUMPDEST POP PUSH2 0x24DC SWAP1 PUSH2 0x1E0E JUMP JUMPDEST SWAP7 DUP4 MLOAD SWAP8 AND DUP8 MSTORE AND SWAP5 DUP6 DUP4 DUP3 ADD MSTORE DUP4 PUSH32 0x7E970B8A33AF86947252EF7EB1F3B2512066BD73D5E37765ACFFBBDCC20BA593 DUP4 CALLER SWAP4 LOG3 MLOAD SWAP4 DUP2 DUP6 ADD MSTORE DUP4 MSTORE PUSH2 0x20EA DUP4 PUSH2 0x16C9 JUMP JUMPDEST PUSH2 0x24DC SWAP2 SWAP3 POP PUSH2 0x253D SWAP1 DUP7 RETURNDATASIZE DUP9 GT PUSH2 0x2114 JUMPI PUSH2 0x2106 DUP2 DUP4 PUSH2 0x1700 JUMP JUMPDEST SWAP2 SWAP1 PUSH2 0x24D2 JUMP JUMPDEST DUP4 MLOAD RETURNDATASIZE PUSH0 DUP3 RETURNDATACOPY RETURNDATASIZE SWAP1 REVERT JUMPDEST POP PUSH2 0xF13 PUSH1 0x3 DUP12 PUSH2 0x255E DUP9 PUSH2 0x1E0E JUMP JUMPDEST AND GT ISZERO SWAP1 POP PUSH2 0x247B JUMP JUMPDEST PUSH1 0x9 SLOAD SWAP5 SWAP8 PUSH1 0x1 PUSH1 0x1 PUSH1 0xA0 SHL SUB SWAP7 SWAP5 SWAP6 SWAP1 SWAP5 SWAP3 POP PUSH2 0x2589 SWAP1 DUP8 AND ISZERO ISZERO PUSH2 0x1EF1 JUMP JUMPDEST PUSH1 0xE0 DUP6 ADD SWAP2 PUSH1 0x1 DUP5 PUSH2 0x259A DUP6 PUSH2 0x1E0E JUMP JUMPDEST AND LT ISZERO DUP1 PUSH2 0x278A JUMPI JUMPDEST PUSH2 0x25AC SWAP1 PUSH2 0x1F2D JUMP JUMPDEST DUP2 MLOAD SWAP1 PUSH1 0x20 SWAP10 DUP11 SWAP8 PUSH1 0x60 DUP6 DUP11 DUP2 ADD SWAP6 DUP2 ADD SWAP14 DUP15 ADD SWAP14 SUB SLT PUSH2 0x15ED JUMPI DUP4 MLOAD SWAP5 PUSH1 0x1 PUSH1 0x1 PUSH1 0x40 SHL SUB SWAP6 DUP7 DUP2 GT PUSH2 0x15ED JUMPI DUP14 DUP12 PUSH2 0x25E8 SWAP3 DUP5 ADD ADD PUSH2 0x1F64 JUMP JUMPDEST SWAP6 DUP10 DUP3 ADD MLOAD SWAP14 PUSH1 0x60 DUP4 ADD MLOAD SWAP2 DUP3 GT PUSH2 0x15ED JUMPI DUP12 PUSH2 0x2607 SWAP3 DUP5 ADD ADD PUSH2 0x1F64 JUMP JUMPDEST SWAP5 PUSH2 0x160 DUP4 ADD CALLDATALOAD SWAP2 DUP3 ISZERO PUSH2 0x2757 JUMPI MLOAD SWAP1 KECCAK256 SUB PUSH2 0x271E JUMPI DUP9 SWAP5 SWAP4 SWAP3 DUP8 SWAP3 PUSH2 0x262C SWAP3 PUSH2 0x3036 JUMP JUMPDEST SWAP9 PUSH1 0x9 SLOAD AND SWAP2 PUSH2 0x263B DUP7 PUSH2 0x1E0E JUMP JUMPDEST SWAP1 DUP9 MLOAD SWAP13 DUP14 SWAP6 DUP7 SWAP5 DUP6 SWAP5 PUSH4 0x2E327DE3 PUSH1 0xE1 SHL DUP7 MSTORE CALLER PUSH1 0x4 DUP8 ADD MSTORE AND PUSH1 0x24 DUP6 ADD MSTORE PUSH1 0x44 DUP5 ADD PUSH1 0xA0 SWAP1 MSTORE PUSH1 0xA4 DUP5 ADD PUSH2 0x2670 SWAP2 PUSH2 0x175D JUMP JUMPDEST SWAP1 PUSH1 0x64 DUP5 ADD MSTORE PUSH1 0x3 NOT DUP4 DUP3 SUB ADD PUSH1 0x84 DUP5 ADD MSTORE PUSH2 0x268B SWAP2 PUSH2 0x175D JUMP JUMPDEST SUB SWAP2 GAS SWAP1 PUSH0 SWAP2 CALL SWAP7 DUP8 ISZERO PUSH2 0x2544 JUMPI PUSH0 SWAP8 PUSH2 0x26ED JUMPI JUMPDEST POP PUSH2 0x26AA SWAP1 PUSH2 0x1E0E JUMP JUMPDEST SWAP1 DUP3 MLOAD SWAP2 DUP8 DUP4 MSTORE AND DUP4 DUP3 ADD MSTORE DUP4 PUSH32 0xB6F2D680F93B47DD22A03584FA4603725965208DE6C731C54C462DE02DFE9846 DUP4 CALLER SWAP4 LOG3 MLOAD SWAP4 DUP2 DUP6 ADD MSTORE DUP4 MSTORE PUSH2 0x20EA DUP4 PUSH2 0x16C9 JUMP JUMPDEST SWAP1 SWAP7 DUP5 DUP3 DUP2 RETURNDATASIZE DUP4 GT PUSH2 0x2717 JUMPI JUMPDEST PUSH2 0x2704 DUP2 DUP4 PUSH2 0x1700 JUMP JUMPDEST DUP2 ADD SUB SLT PUSH2 0x5DE JUMPI POP MLOAD SWAP6 PUSH2 0x26AA PUSH2 0x26A0 JUMP JUMPDEST POP RETURNDATASIZE PUSH2 0x26FA JUMP JUMPDEST DUP8 MLOAD PUSH3 0x461BCD PUSH1 0xE5 SHL DUP2 MSTORE PUSH1 0x4 DUP2 ADD DUP11 SWAP1 MSTORE PUSH1 0x12 PUSH1 0x24 DUP3 ADD MSTORE PUSH18 0x8882A882BE9082A690BE9A92A69A82A8869 PUSH1 0x73 SHL PUSH1 0x44 DUP3 ADD MSTORE PUSH1 0x64 SWAP1 REVERT JUMPDEST DUP11 MLOAD PUSH3 0x461BCD PUSH1 0xE5 SHL DUP2 MSTORE PUSH1 0x4 DUP2 ADD DUP14 SWAP1 MSTORE PUSH1 0xC PUSH1 0x24 DUP3 ADD MSTORE PUSH12 0x9C9EBE8882A882BE9082A69 PUSH1 0xA3 SHL PUSH1 0x44 DUP3 ADD MSTORE PUSH1 0x64 SWAP1 REVERT JUMPDEST POP PUSH2 0x25AC PUSH1 0x3 DUP6 PUSH2 0x279A DUP7 PUSH2 0x1E0E JUMP JUMPDEST AND GT ISZERO SWAP1 POP PUSH2 0x25A3 JUMP JUMPDEST POP POP POP SWAP4 SWAP2 PUSH1 0xC0 DUP6 ADD CALLDATALOAD SWAP2 DUP3 ISZERO PUSH2 0x280B JUMPI PUSH2 0x140 SWAP2 PUSH2 0x27C3 SWAP2 DUP8 PUSH2 0x3036 JUMP JUMPDEST SWAP5 DUP4 MLOAD SWAP3 DUP4 MSTORE PUSH1 0xA0 DUP2 ADD CALLDATALOAD PUSH1 0x20 DUP5 ADD MSTORE ADD CALLDATALOAD DUP3 DUP3 ADD MSTORE DUP4 PUSH32 0xD0E1D9E2305927BE0943A2814D4866A75E615975FB0BE6B6F5E30A9C20187409 PUSH1 0x60 CALLER SWAP4 LOG3 MLOAD SWAP2 PUSH2 0x200B DUP4 PUSH2 0x16AE JUMP JUMPDEST DUP4 MLOAD PUSH3 0x461BCD PUSH1 0xE5 SHL DUP2 MSTORE PUSH1 0x20 PUSH1 0x4 DUP3 ADD MSTORE PUSH1 0xA PUSH1 0x24 DUP3 ADD MSTORE PUSH10 0x4E4F5F43524544495453 PUSH1 0xB0 SHL PUSH1 0x44 DUP3 ADD MSTORE PUSH1 0x64 SWAP1 REVERT JUMPDEST SWAP1 DUP1 PUSH1 0x20 SWAP4 SWAP3 DUP2 DUP5 MSTORE DUP5 DUP5 ADD CALLDATACOPY PUSH0 DUP3 DUP3 ADD DUP5 ADD MSTORE PUSH1 0x1F ADD PUSH1 0x1F NOT AND ADD ADD SWAP1 JUMP JUMPDEST DUP2 DUP2 MUL SWAP3 SWAP2 DUP2 ISZERO SWAP2 DUP5 DIV EQ OR ISZERO PUSH2 0x1C96 JUMPI JUMP JUMPDEST SWAP2 SWAP1 DUP3 SUB SWAP2 DUP3 GT PUSH2 0x1C96 JUMPI JUMP JUMPDEST SWAP1 SWAP2 SWAP1 PUSH1 0x4 CALLDATALOAD PUSH1 0x1 PUSH1 0x1 PUSH1 0xA0 SHL SUB DUP2 AND DUP2 SUB PUSH2 0x15ED JUMPI CALLER PUSH1 0x1 PUSH1 0x1 PUSH1 0xA0 SHL SUB DUP3 AND SUB PUSH2 0x3005 JUMPI PUSH2 0x104 CALLDATALOAD SWAP1 PUSH1 0x1 PUSH1 0x1 PUSH1 0x40 SHL SUB SWAP5 DUP6 DUP4 AND DUP4 SUB PUSH2 0x15ED JUMPI DUP6 TIMESTAMP AND DUP7 DUP5 AND LT PUSH2 0x2FD6 JUMPI PUSH1 0x24 CALLDATALOAD PUSH0 MSTORE PUSH1 0xE PUSH1 0x20 MSTORE PUSH1 0xFF PUSH1 0x40 PUSH0 KECCAK256 SLOAD AND DUP1 PUSH2 0x2F84 JUMPI JUMPDEST POP PUSH1 0x44 CALLDATALOAD SWAP3 PUSH1 0xFF DUP5 AND DUP5 SUB PUSH2 0x15ED JUMPI PUSH2 0x28F9 PUSH1 0xFF DUP6 AND ISZERO ISZERO PUSH2 0x1A1C JUMP JUMPDEST PUSH1 0x64 CALLDATALOAD SWAP3 PUSH1 0x1 PUSH1 0x1 PUSH1 0xA0 SHL SUB DUP5 AND DUP5 EQ ISZERO DUP1 PUSH2 0x15ED JUMPI PUSH1 0x1 PUSH1 0x1 PUSH1 0xA0 SHL SUB DUP6 AND PUSH2 0x2F2B JUMPI JUMPDEST PUSH2 0x15ED JUMPI PUSH1 0xE4 CALLDATALOAD SWAP8 PUSH1 0xFF DUP10 AND DUP10 SUB PUSH2 0x15ED JUMPI PUSH2 0x29EC SWAP3 PUSH1 0x40 MLOAD SWAP3 PUSH32 0xD43704EB6210794490EB2ADC9634321BE3DF45B0929415DAEF01ECEA793A35BA PUSH1 0x20 DUP6 ADD MSTORE PUSH1 0x1 DUP1 PUSH1 0xA0 SHL SUB AND PUSH1 0x40 DUP5 ADD MSTORE PUSH1 0x24 CALLDATALOAD PUSH1 0x60 DUP5 ADD MSTORE PUSH1 0xFF DUP8 AND PUSH1 0x80 DUP5 ADD MSTORE PUSH1 0x1 DUP1 PUSH1 0xA0 SHL SUB DUP7 AND PUSH1 0xA0 DUP5 ADD MSTORE PUSH1 0x84 CALLDATALOAD PUSH1 0xC0 DUP5 ADD MSTORE PUSH1 0xA4 CALLDATALOAD PUSH1 0xE0 DUP5 ADD MSTORE PUSH1 0xC4 CALLDATALOAD PUSH2 0x100 DUP5 ADD MSTORE PUSH1 0xFF DUP11 AND PUSH2 0x120 DUP5 ADD MSTORE AND PUSH2 0x140 DUP3 ADD MSTORE PUSH2 0x124 CALLDATALOAD PUSH2 0x160 DUP3 ADD MSTORE PUSH2 0x144 CALLDATALOAD PUSH2 0x180 DUP3 ADD MSTORE PUSH2 0x164 CALLDATALOAD PUSH2 0x1A0 DUP3 ADD MSTORE PUSH2 0x1A0 DUP2 MSTORE PUSH2 0x29E0 DUP2 PUSH2 0x16E4 JUMP JUMPDEST PUSH1 0x20 DUP2 MLOAD SWAP2 ADD KECCAK256 PUSH2 0x1CAA JUMP JUMPDEST SWAP4 DUP5 PUSH0 MSTORE PUSH1 0x10 PUSH1 0x20 MSTORE PUSH1 0xFF PUSH1 0x40 PUSH0 KECCAK256 SLOAD AND PUSH2 0x2EF9 JUMPI PUSH2 0x2A13 PUSH2 0x2A19 SWAP2 PUSH2 0x2A21 SWAP4 CALLDATASIZE SWAP2 PUSH2 0x1E65 JUMP JUMPDEST DUP6 PUSH2 0x37F7 JUMP JUMPDEST SWAP2 SWAP1 SWAP2 PUSH2 0x36DF JUMP JUMPDEST PUSH1 0x8 SLOAD PUSH1 0x1 PUSH1 0x1 PUSH1 0xA0 SHL SUB SWAP1 DUP2 AND SWAP2 AND SUB PUSH2 0x2EC7 JUMPI DUP3 PUSH0 MSTORE PUSH1 0x10 PUSH1 0x20 MSTORE PUSH1 0x40 PUSH0 KECCAK256 PUSH1 0x1 PUSH1 0xFF NOT DUP3 SLOAD AND OR SWAP1 SSTORE PUSH2 0xFFFF DUP4 SWAP6 PUSH1 0xFF DUP5 AND PUSH0 MSTORE PUSH1 0xF PUSH1 0x20 MSTORE PUSH1 0x40 PUSH0 KECCAK256 PUSH1 0x40 MLOAD SWAP1 PUSH2 0x2A6E DUP3 PUSH2 0x167F JUMP JUMPDEST SLOAD DUP4 DUP2 AND DUP3 MSTORE DUP4 DUP2 PUSH1 0x10 SHR AND PUSH1 0x20 DUP4 ADD MSTORE DUP4 DUP2 PUSH1 0x20 SHR AND PUSH1 0x40 DUP4 ADD MSTORE PUSH2 0x2AC9 PUSH2 0x2ABB PUSH2 0x2AAE PUSH1 0x60 DUP6 ADD SWAP4 DUP8 DUP2 PUSH1 0x30 SHR AND DUP6 MSTORE DUP8 DUP1 DUP3 PUSH1 0x10 SHR AND SWAP2 AND PUSH2 0x1C89 JUMP JUMPDEST DUP7 PUSH1 0x40 DUP7 ADD MLOAD AND SWAP1 PUSH2 0x1C89 JUMP JUMPDEST PUSH2 0x2710 SWAP6 DUP7 SWAP4 MLOAD AND SWAP1 PUSH2 0x1C89 JUMP JUMPDEST SUB PUSH2 0x2E92 JUMPI DUP3 PUSH2 0x2AE0 PUSH2 0xFFFF DUP4 MLOAD AND PUSH1 0x84 CALLDATALOAD PUSH2 0x285C JUMP JUMPDEST DIV SWAP3 PUSH2 0x2B0A PUSH2 0xFFFF PUSH1 0x40 DUP4 PUSH2 0x2AFD DUP4 PUSH1 0x20 DUP9 ADD MLOAD AND PUSH1 0x84 CALLDATALOAD PUSH2 0x285C JUMP JUMPDEST DIV SWAP5 ADD MLOAD AND PUSH1 0x84 CALLDATALOAD PUSH2 0x285C JUMP JUMPDEST DIV PUSH2 0x2B24 DUP2 PUSH2 0x2B1F DUP5 PUSH2 0x2B1F DUP9 PUSH1 0x84 CALLDATALOAD PUSH2 0x286F JUMP JUMPDEST PUSH2 0x286F JUMP JUMPDEST PUSH0 SWAP5 DUP6 SWAP5 SWAP2 SWAP4 SWAP2 DUP6 PUSH1 0x1 PUSH1 0x1 PUSH1 0xA0 SHL SUB DUP10 AND PUSH2 0x2CA6 JUMPI POP PUSH1 0x84 CALLDATALOAD CALLVALUE SUB PUSH2 0x2C71 JUMPI PUSH0 DUP1 DUP1 DUP1 PUSH1 0x84 CALLDATALOAD PUSH1 0x1 DUP1 PUSH1 0xA0 SHL SUB PUSH1 0x4 SLOAD AND GAS CALL PUSH2 0x2B60 PUSH2 0x1BBD JUMP JUMPDEST POP ISZERO PUSH2 0x2C38 JUMPI PUSH1 0x84 CALLDATALOAD SWAP7 JUMPDEST PUSH2 0x15ED JUMPI PUSH1 0xFF SWAP1 DUP2 PUSH1 0x40 MLOAD SWAP11 AND DUP11 MSTORE PUSH1 0x1 DUP1 PUSH1 0xA0 SHL SUB DUP10 AND PUSH1 0x20 DUP12 ADD MSTORE PUSH1 0x84 CALLDATALOAD PUSH1 0x40 DUP12 ADD MSTORE PUSH1 0xA4 CALLDATALOAD PUSH1 0x60 DUP12 ADD MSTORE PUSH1 0xC4 CALLDATALOAD PUSH1 0x80 DUP12 ADD MSTORE AND PUSH1 0xA0 DUP10 ADD MSTORE PUSH1 0xC0 DUP9 ADD MSTORE PUSH1 0xE0 DUP8 ADD MSTORE PUSH2 0x100 DUP7 ADD MSTORE PUSH2 0x120 DUP6 ADD MSTORE PUSH2 0x140 DUP5 ADD MSTORE PUSH2 0x160 DUP4 ADD MSTORE PUSH1 0x1 DUP1 PUSH1 0xA0 SHL SUB PUSH32 0x0 AND SWAP1 PUSH1 0x1 DUP1 PUSH1 0xA0 SHL SUB AND EQ PUSH2 0x180 DUP3 ADD MSTORE PUSH2 0x144 CALLDATALOAD PUSH2 0x1A0 DUP3 ADD MSTORE PUSH1 0x24 CALLDATALOAD SWAP2 PUSH32 0x1D3D5B92D2CA7B8620EE8E5CFB7DBBA20B7E3A3557AAD911947D027AC01A084C PUSH2 0x1C0 CALLER SWAP4 LOG4 JUMP JUMPDEST PUSH1 0x40 MLOAD PUSH3 0x461BCD PUSH1 0xE5 SHL DUP2 MSTORE PUSH1 0x20 PUSH1 0x4 DUP3 ADD MSTORE PUSH1 0x11 PUSH1 0x24 DUP3 ADD MSTORE PUSH17 0x1514915054D5549657D1551217D1905253 PUSH1 0x7A SHL PUSH1 0x44 DUP3 ADD MSTORE PUSH1 0x64 SWAP1 REVERT JUMPDEST PUSH1 0x40 MLOAD PUSH3 0x461BCD PUSH1 0xE5 SHL DUP2 MSTORE PUSH1 0x20 PUSH1 0x4 DUP3 ADD MSTORE PUSH1 0xD PUSH1 0x24 DUP3 ADD MSTORE PUSH13 0x4241445F4D53475F56414C5545 PUSH1 0x98 SHL PUSH1 0x44 DUP3 ADD MSTORE PUSH1 0x64 SWAP1 REVERT JUMPDEST SWAP1 SWAP6 SWAP7 POP CALLVALUE PUSH2 0x2E61 JUMPI PUSH0 PUSH1 0x1 PUSH1 0x1 PUSH1 0xA0 SHL SUB DUP10 DUP2 AND PUSH32 0x0 SWAP1 SWAP2 AND EQ PUSH2 0x2DA0 JUMPI POP POP PUSH1 0x1 PUSH1 0x1 PUSH1 0xA0 SHL SUB DUP8 AND PUSH0 SWAP1 DUP2 MSTORE PUSH1 0xD PUSH1 0x20 MSTORE PUSH1 0x40 DUP2 KECCAK256 SLOAD SWAP1 SWAP7 SWAP1 PUSH1 0xFF AND DUP1 PUSH2 0x2D97 JUMPI JUMPDEST ISZERO PUSH2 0x2D6B JUMPI POP PUSH1 0x5 SLOAD PUSH2 0x2D2E SWAP1 DUP3 SWAP1 PUSH1 0x1 PUSH1 0x1 PUSH1 0xA0 SHL SUB SWAP1 DUP2 AND SWAP1 CALLER SWAP1 DUP12 AND PUSH2 0x3687 JUMP JUMPDEST DUP1 SWAP5 PUSH2 0x2D3C DUP3 PUSH1 0x84 CALLDATALOAD PUSH2 0x286F JUMP JUMPDEST DUP1 PUSH2 0x2D48 JUMPI JUMPDEST SWAP7 PUSH2 0x2B6B JUMP JUMPDEST PUSH1 0x4 SLOAD PUSH2 0x2D66 SWAP1 DUP3 SWAP1 PUSH1 0x1 PUSH1 0x1 PUSH1 0xA0 SHL SUB SWAP1 DUP2 AND SWAP1 CALLER SWAP1 DUP14 AND PUSH2 0x3687 JUMP JUMPDEST PUSH2 0x2D42 JUMP JUMPDEST PUSH1 0x4 SLOAD SWAP1 SWAP6 SWAP1 PUSH2 0x2D8E SWAP1 PUSH1 0x84 CALLDATALOAD SWAP1 PUSH1 0x1 PUSH1 0x1 PUSH1 0xA0 SHL SUB SWAP1 DUP2 AND SWAP1 CALLER SWAP1 DUP13 AND PUSH2 0x3687 JUMP JUMPDEST PUSH1 0x84 CALLDATALOAD SWAP7 PUSH2 0x2B6B JUMP JUMPDEST POP DUP2 ISZERO ISZERO PUSH2 0x2D0A JUMP JUMPDEST SWAP1 SWAP7 SWAP6 SWAP1 PUSH2 0x2DBB PUSH1 0x84 CALLDATALOAD ADDRESS CALLER PUSH1 0x1 PUSH1 0x1 PUSH1 0xA0 SHL SUB DUP14 AND PUSH2 0x3687 JUMP JUMPDEST DUP3 PUSH2 0x2E3B JUMPI JUMPDEST DUP4 PUSH2 0x2E1A JUMPI JUMPDEST DUP5 PUSH2 0x2DF9 JUMPI JUMPDEST DUP6 ISZERO PUSH2 0x2B6B JUMPI PUSH1 0x4 SLOAD SWAP1 SWAP8 POP PUSH2 0x2DF2 SWAP1 DUP7 SWAP1 PUSH1 0x1 PUSH1 0x1 PUSH1 0xA0 SHL SUB SWAP1 DUP2 AND SWAP1 DUP12 AND PUSH2 0x1A89 JUMP JUMPDEST DUP5 SWAP7 PUSH2 0x2B6B JUMP JUMPDEST PUSH1 0x7 SLOAD PUSH2 0x2E15 SWAP1 DUP7 SWAP1 PUSH1 0x1 PUSH1 0x1 PUSH1 0xA0 SHL SUB SWAP1 DUP2 AND SWAP1 DUP13 AND PUSH2 0x1A89 JUMP JUMPDEST PUSH2 0x2DCD JUMP JUMPDEST PUSH1 0x6 SLOAD PUSH2 0x2E36 SWAP1 DUP6 SWAP1 PUSH1 0x1 PUSH1 0x1 PUSH1 0xA0 SHL SUB SWAP1 DUP2 AND SWAP1 DUP13 AND PUSH2 0x1A89 JUMP JUMPDEST PUSH2 0x2DC7 JUMP JUMPDEST PUSH1 0x5 SLOAD SWAP1 SWAP7 POP PUSH2 0x2E5A SWAP1 DUP4 SWAP1 PUSH1 0x1 PUSH1 0x1 PUSH1 0xA0 SHL SUB SWAP1 DUP2 AND SWAP1 DUP12 AND PUSH2 0x1A89 JUMP JUMPDEST DUP2 SWAP6 PUSH2 0x2DC1 JUMP JUMPDEST PUSH1 0x40 MLOAD PUSH3 0x461BCD PUSH1 0xE5 SHL DUP2 MSTORE PUSH1 0x20 PUSH1 0x4 DUP3 ADD MSTORE PUSH1 0x9 PUSH1 0x24 DUP3 ADD MSTORE PUSH9 0x4E4F5F4E4154495645 PUSH1 0xB8 SHL PUSH1 0x44 DUP3 ADD MSTORE PUSH1 0x64 SWAP1 REVERT JUMPDEST PUSH1 0x40 MLOAD PUSH3 0x461BCD PUSH1 0xE5 SHL DUP2 MSTORE PUSH1 0x20 PUSH1 0x4 DUP3 ADD MSTORE PUSH1 0xD PUSH1 0x24 DUP3 ADD MSTORE PUSH13 0x53504C49545F4D495353494E47 PUSH1 0x98 SHL PUSH1 0x44 DUP3 ADD MSTORE PUSH1 0x64 SWAP1 REVERT JUMPDEST PUSH1 0x40 MLOAD PUSH3 0x461BCD PUSH1 0xE5 SHL DUP2 MSTORE PUSH1 0x20 PUSH1 0x4 DUP3 ADD MSTORE PUSH1 0xA PUSH1 0x24 DUP3 ADD MSTORE PUSH10 0x2120A22FA9A4A3A722A9 PUSH1 0xB1 SHL PUSH1 0x44 DUP3 ADD MSTORE PUSH1 0x64 SWAP1 REVERT JUMPDEST PUSH1 0x40 MLOAD PUSH3 0x461BCD PUSH1 0xE5 SHL DUP2 MSTORE PUSH1 0x20 PUSH1 0x4 DUP3 ADD MSTORE PUSH1 0xA PUSH1 0x24 DUP3 ADD MSTORE PUSH10 0x145553D51157D554D151 PUSH1 0xB2 SHL PUSH1 0x44 DUP3 ADD MSTORE PUSH1 0x64 SWAP1 REVERT JUMPDEST POP PUSH1 0x1 PUSH1 0x1 PUSH1 0xA0 SHL SUB DUP5 AND PUSH0 SWAP1 DUP2 MSTORE PUSH1 0xA PUSH1 0x20 MSTORE PUSH1 0x40 DUP2 KECCAK256 SLOAD PUSH1 0xFF AND PUSH2 0x291E JUMPI PUSH1 0x40 MLOAD PUSH3 0x461BCD PUSH1 0xE5 SHL DUP2 MSTORE PUSH1 0x20 PUSH1 0x4 DUP3 ADD MSTORE PUSH1 0x11 PUSH1 0x24 DUP3 ADD MSTORE PUSH17 0x1513D2D15397D393D517D0531313D5D151 PUSH1 0x7A SHL PUSH1 0x44 DUP3 ADD MSTORE PUSH1 0x64 SWAP1 REVERT JUMPDEST PUSH1 0x44 CALLDATALOAD PUSH1 0xFF DUP2 AND DUP1 SWAP2 SUB PUSH2 0x15ED JUMPI SUB PUSH2 0x2F9D JUMPI PUSH0 PUSH2 0x28DC JUMP JUMPDEST PUSH1 0x40 MLOAD PUSH3 0x461BCD PUSH1 0xE5 SHL DUP2 MSTORE PUSH1 0x20 PUSH1 0x4 DUP3 ADD MSTORE PUSH1 0x11 PUSH1 0x24 DUP3 ADD MSTORE PUSH17 0xA696AABE96929C88BE9A92A69A82A8869 PUSH1 0x7B SHL PUSH1 0x44 DUP3 ADD MSTORE PUSH1 0x64 SWAP1 REVERT JUMPDEST PUSH1 0x40 MLOAD PUSH3 0x461BCD PUSH1 0xE5 SHL DUP2 MSTORE PUSH1 0x20 PUSH1 0x4 DUP3 ADD MSTORE PUSH1 0x7 PUSH1 0x24 DUP3 ADD MSTORE PUSH7 0x11561412549151 PUSH1 0xCA SHL PUSH1 0x44 DUP3 ADD MSTORE PUSH1 0x64 SWAP1 REVERT JUMPDEST PUSH1 0x40 MLOAD PUSH3 0x461BCD PUSH1 0xE5 SHL DUP2 MSTORE PUSH1 0x20 PUSH1 0x4 DUP3 ADD MSTORE PUSH1 0x9 PUSH1 0x24 DUP3 ADD MSTORE PUSH9 0x2727AA2FA12AACA2A9 PUSH1 0xB9 SHL PUSH1 0x44 DUP3 ADD MSTORE PUSH1 0x64 SWAP1 REVERT JUMPDEST SWAP3 SWAP2 PUSH2 0x3041 DUP5 PUSH2 0x1DFA JUMP JUMPDEST CALLER PUSH1 0x1 PUSH1 0x1 PUSH1 0xA0 SHL SUB SWAP1 SWAP2 AND SUB PUSH2 0x3005 JUMPI PUSH2 0x305F PUSH2 0x100 DUP6 ADD PUSH2 0x1E1C JUMP JUMPDEST PUSH1 0x1 PUSH1 0x1 PUSH1 0x40 SHL SUB DUP1 TIMESTAMP AND SWAP2 AND LT PUSH2 0x2FD6 JUMPI PUSH1 0x20 DUP5 ADD CALLDATALOAD PUSH0 MSTORE PUSH1 0xE PUSH1 0x20 MSTORE PUSH1 0xFF PUSH1 0x40 PUSH0 KECCAK256 SLOAD AND DUP1 PUSH2 0x366D JUMPI JUMPDEST POP PUSH2 0x30A5 PUSH1 0xFF PUSH2 0x309D PUSH1 0x40 DUP8 ADD PUSH2 0x1E0E JUMP JUMPDEST AND ISZERO ISZERO PUSH2 0x1A1C JUMP JUMPDEST PUSH1 0x1 PUSH1 0x1 PUSH1 0xA0 SHL SUB PUSH2 0x30B9 PUSH1 0x60 DUP7 ADD PUSH2 0x1DFA JUMP JUMPDEST AND PUSH2 0x360C JUMPI JUMPDEST PUSH2 0x31BC PUSH2 0x30CB DUP6 PUSH2 0x1DFA JUMP JUMPDEST PUSH1 0x1 PUSH1 0x1 PUSH1 0x40 SHL SUB PUSH2 0x30DF PUSH1 0x40 DUP9 ADD PUSH2 0x1E0E JUMP JUMPDEST PUSH1 0xFF PUSH2 0x30ED PUSH1 0x60 DUP11 ADD PUSH2 0x1DFA JUMP JUMPDEST PUSH2 0x30F9 PUSH1 0xE0 DUP12 ADD PUSH2 0x1E0E JUMP JUMPDEST SWAP1 DUP3 PUSH2 0x3108 PUSH2 0x100 DUP14 ADD PUSH2 0x1E1C JUMP JUMPDEST SWAP5 PUSH1 0x40 MLOAD SWAP8 PUSH32 0xD43704EB6210794490EB2ADC9634321BE3DF45B0929415DAEF01ECEA793A35BA PUSH1 0x20 DUP11 ADD MSTORE PUSH1 0x1 DUP1 PUSH1 0xA0 SHL SUB AND PUSH1 0x40 DUP10 ADD MSTORE PUSH1 0x20 DUP14 ADD CALLDATALOAD PUSH1 0x60 DUP10 ADD MSTORE AND PUSH1 0x80 DUP8 ADD MSTORE PUSH1 0x1 DUP1 PUSH1 0xA0 SHL SUB AND PUSH1 0xA0 DUP7 ADD MSTORE PUSH1 0x80 DUP11 ADD CALLDATALOAD PUSH1 0xC0 DUP7 ADD MSTORE PUSH1 0xA0 DUP11 ADD CALLDATALOAD PUSH1 0xE0 DUP7 ADD MSTORE PUSH1 0xC0 DUP11 ADD CALLDATALOAD PUSH2 0x100 DUP7 ADD MSTORE AND PUSH2 0x120 DUP5 ADD MSTORE AND PUSH2 0x140 DUP3 ADD MSTORE PUSH2 0x120 DUP7 ADD CALLDATALOAD PUSH2 0x160 DUP3 ADD MSTORE PUSH2 0x140 DUP7 ADD CALLDATALOAD PUSH2 0x180 DUP3 ADD MSTORE PUSH2 0x160 DUP7 ADD CALLDATALOAD PUSH2 0x1A0 DUP3 ADD MSTORE PUSH2 0x1A0 DUP2 MSTORE PUSH2 0x29E0 DUP2 PUSH2 0x16E4 JUMP JUMPDEST SWAP2 DUP3 PUSH0 MSTORE PUSH1 0x10 PUSH1 0x20 MSTORE PUSH1 0xFF PUSH1 0x40 PUSH0 KECCAK256 SLOAD AND PUSH2 0x2EF9 JUMPI PUSH2 0x31E3 PUSH2 0x2A19 SWAP2 PUSH2 0x31E9 SWAP4 CALLDATASIZE SWAP2 PUSH2 0x1E65 JUMP JUMPDEST DUP4 PUSH2 0x37F7 JUMP JUMPDEST PUSH1 0x8 SLOAD PUSH1 0x1 PUSH1 0x1 PUSH1 0xA0 SHL SUB SWAP1 DUP2 AND SWAP2 AND SUB PUSH2 0x2EC7 JUMPI DUP1 PUSH0 MSTORE PUSH1 0x10 PUSH1 0x20 MSTORE PUSH1 0x40 PUSH0 KECCAK256 PUSH1 0x1 PUSH1 0xFF NOT DUP3 SLOAD AND OR SWAP1 SSTORE DUP1 SWAP3 PUSH1 0xFF PUSH2 0x3225 PUSH1 0x40 DUP4 ADD PUSH2 0x1E0E JUMP JUMPDEST AND PUSH0 MSTORE PUSH1 0xF PUSH1 0x20 MSTORE PUSH1 0x40 PUSH0 KECCAK256 PUSH2 0x2710 PUSH2 0x3293 PUSH1 0x40 MLOAD SWAP3 PUSH2 0x3244 DUP5 PUSH2 0x167F JUMP JUMPDEST SLOAD PUSH2 0xFFFF PUSH2 0x328A PUSH2 0x327D DUP3 DUP5 AND DUP1 DUP9 MSTORE DUP4 DUP6 PUSH1 0x10 SHR AND SWAP1 DUP2 PUSH1 0x20 DUP11 ADD MSTORE DUP5 DUP7 PUSH1 0x20 SHR AND PUSH1 0x40 DUP11 ADD MSTORE DUP5 PUSH1 0x60 DUP11 ADD SWAP7 PUSH1 0x30 SHR AND DUP7 MSTORE PUSH2 0x1C89 JUMP JUMPDEST DUP3 PUSH1 0x40 DUP9 ADD MLOAD AND SWAP1 PUSH2 0x1C89 JUMP JUMPDEST SWAP2 MLOAD AND SWAP1 PUSH2 0x1C89 JUMP JUMPDEST SUB PUSH2 0x2E92 JUMPI PUSH2 0x2710 PUSH2 0x32AE PUSH2 0xFFFF DUP4 MLOAD AND PUSH1 0x80 DUP6 ADD CALLDATALOAD PUSH2 0x285C JUMP JUMPDEST DIV SWAP2 PUSH2 0x2710 PUSH2 0x32DF PUSH2 0xFFFF PUSH1 0x40 DUP4 PUSH2 0x32D0 DUP4 PUSH1 0x20 DUP10 ADD MLOAD AND PUSH1 0x80 DUP9 ADD CALLDATALOAD PUSH2 0x285C JUMP JUMPDEST DIV SWAP6 ADD MLOAD AND PUSH1 0x80 DUP5 ADD CALLDATALOAD PUSH2 0x285C JUMP JUMPDEST DIV SWAP2 PUSH2 0x32F7 DUP4 PUSH2 0x2B1F DUP4 PUSH2 0x2B1F DUP9 PUSH1 0x80 DUP9 ADD CALLDATALOAD PUSH2 0x286F JUMP JUMPDEST SWAP1 PUSH2 0x3304 PUSH1 0x60 DUP5 ADD PUSH2 0x1DFA JUMP JUMPDEST SWAP2 PUSH0 SWAP1 DUP2 PUSH1 0x1 PUSH1 0x1 PUSH1 0xA0 SHL SUB PUSH2 0x331C PUSH1 0x60 DUP9 ADD PUSH2 0x1DFA JUMP JUMPDEST AND PUSH2 0x344E JUMPI POP PUSH1 0x80 DUP6 ADD CALLDATALOAD CALLVALUE SUB PUSH2 0x2C71 JUMPI PUSH0 DUP1 DUP1 DUP1 PUSH1 0x80 DUP10 ADD CALLDATALOAD PUSH1 0x1 DUP1 PUSH1 0xA0 SHL SUB PUSH1 0x4 SLOAD AND GAS CALL PUSH2 0x334B PUSH2 0x1BBD JUMP JUMPDEST POP ISZERO PUSH2 0x2C38 JUMPI PUSH1 0x20 SWAP6 PUSH1 0x80 DUP7 ADD CALLDATALOAD SWAP4 JUMPDEST PUSH2 0x3367 PUSH1 0x40 DUP9 ADD PUSH2 0x1E0E JUMP JUMPDEST SWAP9 PUSH1 0xFF PUSH2 0x3376 PUSH1 0x60 DUP11 ADD PUSH2 0x1DFA JUMP JUMPDEST PUSH2 0x3382 PUSH1 0xE0 DUP12 ADD PUSH2 0x1E0E JUMP JUMPDEST SWAP1 DUP3 PUSH1 0x40 MLOAD SWAP14 AND DUP14 MSTORE PUSH1 0x1 DUP1 PUSH1 0xA0 SHL SUB AND DUP12 DUP14 ADD MSTORE PUSH1 0x80 DUP11 ADD CALLDATALOAD PUSH1 0x40 DUP14 ADD MSTORE PUSH1 0xA0 DUP11 ADD CALLDATALOAD PUSH1 0x60 DUP14 ADD MSTORE PUSH1 0xC0 DUP11 ADD CALLDATALOAD PUSH1 0x80 DUP14 ADD MSTORE AND PUSH1 0xA0 DUP12 ADD MSTORE PUSH1 0xC0 DUP11 ADD MSTORE PUSH1 0xE0 DUP10 ADD MSTORE PUSH2 0x100 DUP9 ADD MSTORE PUSH2 0x120 DUP8 ADD MSTORE PUSH2 0x140 DUP7 ADD MSTORE PUSH2 0x160 DUP6 ADD MSTORE PUSH1 0x1 DUP1 PUSH1 0xA0 SHL SUB PUSH32 0x0 AND SWAP1 PUSH1 0x1 DUP1 PUSH1 0xA0 SHL SUB AND EQ PUSH2 0x180 DUP5 ADD MSTORE PUSH2 0x140 DUP2 ADD CALLDATALOAD PUSH2 0x1A0 DUP5 ADD MSTORE ADD CALLDATALOAD SWAP2 PUSH32 0x1D3D5B92D2CA7B8620EE8E5CFB7DBBA20B7E3A3557AAD911947D027AC01A084C PUSH2 0x1C0 CALLER SWAP4 LOG4 JUMP JUMPDEST SWAP2 SWAP6 CALLVALUE PUSH2 0x2E61 JUMPI PUSH1 0x20 SWAP7 PUSH1 0x1 PUSH1 0x1 PUSH1 0xA0 SHL SUB PUSH2 0x346C PUSH1 0x60 DUP10 ADD PUSH2 0x1DFA JUMP JUMPDEST AND SWAP4 PUSH1 0x1 PUSH1 0x1 PUSH1 0xA0 SHL SUB DUP8 DUP2 AND PUSH32 0x0 SWAP1 SWAP2 AND EQ PUSH2 0x355E JUMPI POP PUSH1 0x1 PUSH1 0x1 PUSH1 0xA0 SHL SUB PUSH2 0x34B7 PUSH1 0x60 DUP10 ADD PUSH2 0x1DFA JUMP JUMPDEST AND PUSH0 MSTORE PUSH1 0xD DUP9 MSTORE PUSH1 0xFF PUSH1 0x40 PUSH0 KECCAK256 SLOAD AND DUP1 PUSH2 0x3555 JUMPI JUMPDEST ISZERO PUSH2 0x352C JUMPI POP PUSH1 0x5 SLOAD PUSH2 0x34EB SWAP1 DUP10 SWAP1 PUSH1 0x1 PUSH1 0x1 PUSH1 0xA0 SHL SUB AND CALLER DUP7 PUSH2 0x3687 JUMP JUMPDEST DUP8 SWAP3 PUSH2 0x34FB DUP10 PUSH1 0x80 DUP10 ADD CALLDATALOAD PUSH2 0x286F JUMP JUMPDEST SWAP1 DUP2 DUP1 PUSH2 0x350B JUMPI JUMPDEST POP POP SWAP4 PUSH2 0x335B JUMP JUMPDEST PUSH1 0x4 SLOAD PUSH2 0x3525 SWAP3 PUSH1 0x1 PUSH1 0x1 PUSH1 0xA0 SHL SUB SWAP1 SWAP2 AND SWAP1 CALLER SWAP1 PUSH2 0x3687 JUMP JUMPDEST PUSH0 DUP2 PUSH2 0x3503 JUMP JUMPDEST SWAP3 PUSH2 0x354A SWAP1 PUSH1 0x80 DUP9 ADD CALLDATALOAD SWAP1 PUSH1 0x1 DUP1 PUSH1 0xA0 SHL SUB PUSH1 0x4 SLOAD AND SWAP1 CALLER SWAP1 PUSH2 0x3687 JUMP JUMPDEST PUSH1 0x80 DUP7 ADD CALLDATALOAD SWAP4 PUSH2 0x335B JUMP JUMPDEST POP DUP9 ISZERO ISZERO PUSH2 0x34CC JUMP JUMPDEST SWAP5 SWAP1 SWAP4 PUSH2 0x3571 PUSH1 0x80 DUP10 ADD CALLDATALOAD ADDRESS CALLER DUP5 PUSH2 0x3687 JUMP JUMPDEST DUP10 PUSH2 0x35EA JUMPI JUMPDEST DUP2 PUSH2 0x35CD JUMPI JUMPDEST DUP3 PUSH2 0x35B0 JUMPI JUMPDEST DUP4 PUSH2 0x358F JUMPI JUMPDEST POP PUSH2 0x335B JUMP JUMPDEST PUSH2 0x35A8 SWAP2 SWAP6 POP DUP4 SWAP1 PUSH1 0x1 DUP1 PUSH1 0xA0 SHL SUB PUSH1 0x4 SLOAD AND SWAP1 PUSH2 0x1A89 JUMP JUMPDEST DUP2 SWAP4 PUSH0 PUSH2 0x3589 JUMP JUMPDEST PUSH1 0x7 SLOAD PUSH2 0x35C8 SWAP1 DUP5 SWAP1 PUSH1 0x1 PUSH1 0x1 PUSH1 0xA0 SHL SUB AND DUP4 PUSH2 0x1A89 JUMP JUMPDEST PUSH2 0x3583 JUMP JUMPDEST PUSH1 0x6 SLOAD PUSH2 0x35E5 SWAP1 DUP4 SWAP1 PUSH1 0x1 PUSH1 0x1 PUSH1 0xA0 SHL SUB AND DUP4 PUSH2 0x1A89 JUMP JUMPDEST PUSH2 0x357D JUMP JUMPDEST PUSH1 0x5 SLOAD SWAP1 SWAP5 POP PUSH2 0x3605 SWAP1 DUP11 SWAP1 PUSH1 0x1 PUSH1 0x1 PUSH1 0xA0 SHL SUB AND DUP7 PUSH2 0x1A89 JUMP JUMPDEST DUP9 SWAP4 PUSH2 0x3577 JUMP JUMPDEST PUSH1 0x1 PUSH1 0x1 PUSH1 0xA0 SHL SUB PUSH2 0x3620 PUSH1 0x60 DUP7 ADD PUSH2 0x1DFA JUMP JUMPDEST AND PUSH0 MSTORE PUSH1 0xA PUSH1 0x20 MSTORE PUSH1 0xFF PUSH1 0x40 PUSH0 KECCAK256 SLOAD AND PUSH2 0x30BF JUMPI PUSH1 0x40 MLOAD PUSH3 0x461BCD PUSH1 0xE5 SHL DUP2 MSTORE PUSH1 0x20 PUSH1 0x4 DUP3 ADD MSTORE PUSH1 0x11 PUSH1 0x24 DUP3 ADD MSTORE PUSH17 0x1513D2D15397D393D517D0531313D5D151 PUSH1 0x7A SHL PUSH1 0x44 DUP3 ADD MSTORE PUSH1 0x64 SWAP1 REVERT JUMPDEST PUSH1 0xFF PUSH2 0x367B PUSH1 0x40 DUP8 ADD PUSH2 0x1E0E JUMP JUMPDEST AND SUB PUSH2 0x2F9D JUMPI PUSH0 PUSH2 0x308B JUMP JUMPDEST PUSH1 0x40 MLOAD PUSH4 0x23B872DD PUSH1 0xE0 SHL PUSH1 0x20 DUP3 ADD MSTORE PUSH1 0x1 PUSH1 0x1 PUSH1 0xA0 SHL SUB SWAP3 DUP4 AND PUSH1 0x24 DUP3 ADD MSTORE SWAP3 SWAP1 SWAP2 AND PUSH1 0x44 DUP4 ADD MSTORE PUSH1 0x64 DUP1 DUP4 ADD SWAP4 SWAP1 SWAP4 MSTORE SWAP2 DUP2 MSTORE PUSH1 0xA0 DUP2 ADD SWAP2 DUP2 DUP4 LT PUSH1 0x1 PUSH1 0x1 PUSH1 0x40 SHL SUB DUP5 GT OR PUSH2 0x169A JUMPI PUSH2 0x1AC7 SWAP3 PUSH1 0x40 MSTORE PUSH2 0x1AC9 JUMP JUMPDEST PUSH1 0x5 DUP2 LT ISZERO PUSH2 0x37E3 JUMPI DUP1 PUSH2 0x36F0 JUMPI POP JUMP JUMPDEST PUSH1 0x1 DUP2 SUB PUSH2 0x373D JUMPI PUSH1 0x40 MLOAD PUSH3 0x461BCD PUSH1 0xE5 SHL DUP2 MSTORE PUSH1 0x20 PUSH1 0x4 DUP3 ADD MSTORE PUSH1 0x18 PUSH1 0x24 DUP3 ADD MSTORE PUSH32 0x45434453413A20696E76616C6964207369676E61747572650000000000000000 PUSH1 0x44 DUP3 ADD MSTORE PUSH1 0x64 SWAP1 REVERT JUMPDEST PUSH1 0x2 DUP2 SUB PUSH2 0x378A JUMPI PUSH1 0x40 MLOAD PUSH3 0x461BCD PUSH1 0xE5 SHL DUP2 MSTORE PUSH1 0x20 PUSH1 0x4 DUP3 ADD MSTORE PUSH1 0x1F PUSH1 0x24 DUP3 ADD MSTORE PUSH32 0x45434453413A20696E76616C6964207369676E6174757265206C656E67746800 PUSH1 0x44 DUP3 ADD MSTORE PUSH1 0x64 SWAP1 REVERT JUMPDEST PUSH1 0x3 EQ PUSH2 0x3793 JUMPI JUMP JUMPDEST PUSH1 0x40 MLOAD PUSH3 0x461BCD PUSH1 0xE5 SHL DUP2 MSTORE PUSH1 0x20 PUSH1 0x4 DUP3 ADD MSTORE PUSH1 0x22 PUSH1 0x24 DUP3 ADD MSTORE PUSH32 0x45434453413A20696E76616C6964207369676E6174757265202773272076616C PUSH1 0x44 DUP3 ADD MSTORE PUSH2 0x7565 PUSH1 0xF0 SHL PUSH1 0x64 DUP3 ADD MSTORE PUSH1 0x84 SWAP1 REVERT JUMPDEST PUSH4 0x4E487B71 PUSH1 0xE0 SHL PUSH0 MSTORE PUSH1 0x21 PUSH1 0x4 MSTORE PUSH1 0x24 PUSH0 REVERT JUMPDEST SWAP1 PUSH1 0x41 DUP2 MLOAD EQ PUSH0 EQ PUSH2 0x381F JUMPI PUSH2 0x167B SWAP2 PUSH1 0x20 DUP3 ADD MLOAD SWAP1 PUSH1 0x60 PUSH1 0x40 DUP5 ADD MLOAD SWAP4 ADD MLOAD PUSH0 BYTE SWAP1 PUSH2 0x3828 JUMP JUMPDEST POP POP PUSH0 SWAP1 PUSH1 0x2 SWAP1 JUMP JUMPDEST SWAP3 SWAP2 SWAP1 PUSH32 0x7FFFFFFFFFFFFFFFFFFFFFFFFFFFFFFF5D576E7357A4501DDFE92F46681B20A0 DUP4 GT PUSH2 0x38AA JUMPI SWAP2 PUSH1 0x80 SWAP5 SWAP4 SWAP2 PUSH1 0xFF PUSH1 0x20 SWAP5 PUSH1 0x40 MLOAD SWAP5 DUP6 MSTORE AND DUP5 DUP5 ADD MSTORE PUSH1 0x40 DUP4 ADD MSTORE PUSH1 0x60 DUP3 ADD MSTORE PUSH0 SWAP4 DUP5 SWAP2 DUP3 DUP1 MSTORE PUSH1 0x1 GAS STATICCALL ISZERO PUSH2 0x389D JUMPI DUP2 MLOAD PUSH1 0x1 PUSH1 0x1 PUSH1 0xA0 SHL SUB DUP2 AND ISZERO PUSH2 0x3897 JUMPI SWAP2 SWAP1 JUMP JUMPDEST POP PUSH1 0x1 SWAP1 JUMP JUMPDEST POP PUSH1 0x40 MLOAD SWAP1 RETURNDATASIZE SWAP1 DUP3 RETURNDATACOPY RETURNDATASIZE SWAP1 REVERT JUMPDEST POP POP POP POP PUSH0 SWAP1 PUSH1 0x3 SWAP1 JUMP INVALID LOG2 PUSH5 0x6970667358 0x22 SLT KECCAK256 0xCB DUP9 0x4A 0xB8 0x21 0xCC SGT PUSH30 0x94BECEA597BA0243E92AAECB3EF86E0CDE2928615E071E964736F6C6343 STOP ADDMOD EQ STOP CALLER 0xA5 CALLVALUE SWAP16 PUSH32 0xF96ACCBF1510E2CC2BD75907E97E32415198B54FA5F688B5DA56886500000000 "},"methodIdentifiers":{"EIP712_NAME()":"3b2fb7a8","EIP712_VERSION()":"eccec5a8","KIND_CREDITS()":"23f46ea4","KIND_GENERIC()":"d95b970c","KIND_NONE()":"216eca86","KIND_PRO_MINT()":"26009fd6","KIND_PRO_RENEW()":"1b642940","dailyPot()":"c37bd929","directOpsToken(address)":"87011c2b","eip712Domain()":"84b0196e","getTokenList()":"273cbaa0","kindSplits(uint8)":"77e94dfd","mUSD()":"f09a1d00","mintProAvatar((address,bytes32,uint8,address,uint256,uint256,uint256,uint8,uint64,uint256,bytes32,bytes32),bytes,string,bytes32,string)":"e64b7654","opsWallet()":"68db925a","owner()":"8da5cb5b","paused()":"5c975abb","payOnly((address,bytes32,uint8,address,uint256,uint256,uint256,uint8,uint64,uint256,bytes32,bytes32),bytes)":"66c9f1b9","proAvatar()":"ac320646","processPayment((address,bytes32,uint8,address,uint256,uint256,uint256,uint8,uint64,uint256,bytes32,bytes32),bytes,bytes)":"d7dc6cec","purchaseCredits((address,bytes32,uint8,address,uint256,uint256,uint256,uint8,uint64,uint256,bytes32,bytes32),bytes)":"3597919f","quoteDigest((address,bytes32,uint8,address,uint256,uint256,uint256,uint8,uint64,uint256,bytes32,bytes32))":"89655b42","quoteSigner()":"f413bdb3","renewPro((address,bytes32,uint8,address,uint256,uint256,uint256,uint8,uint64,uint256,bytes32,bytes32),bytes)":"21140224","renounceOwnership()":"715018a6","rescueERC20(address,address,uint256)":"b2118a8d","rescueETH(address,uint256)":"099a04e5","setDirectOpsToken(address,bool)":"79c7c56a","setKindSplits(uint8,(uint16,uint16,uint16,uint16))":"989f86da","setPaused(bool)":"16c38b3c","setProAvatar(address)":"87fd30a0","setQuoteSigner(address)":"56ce180a","setRecipients(address,address,address)":"fcd0251b","setSkuKind(bytes32,uint8)":"81c824b2","setTokenAllowed(address,bool)":"15f69012","setTreasuryVault(address)":"d5f80c34","skuKind(bytes32)":"5458ac9a","tokenAllowed(address)":"55219d5a","tokenListCount()":"a43ad7e7","transferOwnership(address)":"f2fde38b","treasuryVault()":"af8b1c6f","usedQuote(bytes32)":"409fa6b8","weeklyPot()":"05af0b69"}}}}}