{
  "_format": "hh3-artifact-1",
  "contractName": "ArcadeEpochVault",
  "sourceName": "contracts/ArcadeEpochVault.sol",
  "abi": [
    {
      "inputs": [
        {
          "internalType": "address",
          "name": "admin",
          "type": "address"
        },
        {
          "internalType": "address",
          "name": "rewardToken_",
          "type": "address"
        },
        {
          "internalType": "address",
          "name": "oracleSigner_",
          "type": "address"
        }
      ],
      "stateMutability": "nonpayable",
      "type": "constructor"
    },
    {
      "inputs": [],
      "name": "AlreadyClaimed",
      "type": "error"
    },
    {
      "inputs": [],
      "name": "BadParams",
      "type": "error"
    },
    {
      "inputs": [],
      "name": "BadSignature",
      "type": "error"
    },
    {
      "inputs": [],
      "name": "EpochAlreadyPublished",
      "type": "error"
    },
    {
      "inputs": [],
      "name": "EpochNotPublished",
      "type": "error"
    },
    {
      "inputs": [],
      "name": "InvalidProof",
      "type": "error"
    },
    {
      "inputs": [],
      "name": "InvalidShortString",
      "type": "error"
    },
    {
      "inputs": [
        {
          "internalType": "string",
          "name": "str",
          "type": "string"
        }
      ],
      "name": "StringTooLong",
      "type": "error"
    },
    {
      "anonymous": false,
      "inputs": [
        {
          "indexed": true,
          "internalType": "uint32",
          "name": "ymd",
          "type": "uint32"
        },
        {
          "indexed": true,
          "internalType": "uint256",
          "name": "index",
          "type": "uint256"
        },
        {
          "indexed": true,
          "internalType": "address",
          "name": "account",
          "type": "address"
        },
        {
          "indexed": false,
          "internalType": "uint256",
          "name": "amount",
          "type": "uint256"
        }
      ],
      "name": "Claimed",
      "type": "event"
    },
    {
      "anonymous": false,
      "inputs": [],
      "name": "EIP712DomainChanged",
      "type": "event"
    },
    {
      "anonymous": false,
      "inputs": [
        {
          "indexed": true,
          "internalType": "uint32",
          "name": "ymd",
          "type": "uint32"
        },
        {
          "indexed": true,
          "internalType": "bytes32",
          "name": "root",
          "type": "bytes32"
        },
        {
          "indexed": false,
          "internalType": "uint256",
          "name": "totalAmount",
          "type": "uint256"
        },
        {
          "indexed": true,
          "internalType": "address",
          "name": "publisher",
          "type": "address"
        }
      ],
      "name": "EpochPublished",
      "type": "event"
    },
    {
      "anonymous": false,
      "inputs": [
        {
          "indexed": true,
          "internalType": "address",
          "name": "oldSigner",
          "type": "address"
        },
        {
          "indexed": true,
          "internalType": "address",
          "name": "newSigner",
          "type": "address"
        }
      ],
      "name": "OracleSignerUpdated",
      "type": "event"
    },
    {
      "anonymous": false,
      "inputs": [
        {
          "indexed": false,
          "internalType": "address",
          "name": "account",
          "type": "address"
        }
      ],
      "name": "Paused",
      "type": "event"
    },
    {
      "anonymous": false,
      "inputs": [
        {
          "indexed": true,
          "internalType": "bytes32",
          "name": "role",
          "type": "bytes32"
        },
        {
          "indexed": true,
          "internalType": "bytes32",
          "name": "previousAdminRole",
          "type": "bytes32"
        },
        {
          "indexed": true,
          "internalType": "bytes32",
          "name": "newAdminRole",
          "type": "bytes32"
        }
      ],
      "name": "RoleAdminChanged",
      "type": "event"
    },
    {
      "anonymous": false,
      "inputs": [
        {
          "indexed": true,
          "internalType": "bytes32",
          "name": "role",
          "type": "bytes32"
        },
        {
          "indexed": true,
          "internalType": "address",
          "name": "account",
          "type": "address"
        },
        {
          "indexed": true,
          "internalType": "address",
          "name": "sender",
          "type": "address"
        }
      ],
      "name": "RoleGranted",
      "type": "event"
    },
    {
      "anonymous": false,
      "inputs": [
        {
          "indexed": true,
          "internalType": "bytes32",
          "name": "role",
          "type": "bytes32"
        },
        {
          "indexed": true,
          "internalType": "address",
          "name": "account",
          "type": "address"
        },
        {
          "indexed": true,
          "internalType": "address",
          "name": "sender",
          "type": "address"
        }
      ],
      "name": "RoleRevoked",
      "type": "event"
    },
    {
      "anonymous": false,
      "inputs": [
        {
          "indexed": false,
          "internalType": "address",
          "name": "account",
          "type": "address"
        }
      ],
      "name": "Unpaused",
      "type": "event"
    },
    {
      "inputs": [],
      "name": "DEFAULT_ADMIN_ROLE",
      "outputs": [
        {
          "internalType": "bytes32",
          "name": "",
          "type": "bytes32"
        }
      ],
      "stateMutability": "view",
      "type": "function"
    },
    {
      "inputs": [],
      "name": "PARAM_ROLE",
      "outputs": [
        {
          "internalType": "bytes32",
          "name": "",
          "type": "bytes32"
        }
      ],
      "stateMutability": "view",
      "type": "function"
    },
    {
      "inputs": [],
      "name": "PAUSE_ROLE",
      "outputs": [
        {
          "internalType": "bytes32",
          "name": "",
          "type": "bytes32"
        }
      ],
      "stateMutability": "view",
      "type": "function"
    },
    {
      "inputs": [],
      "name": "SWEEP_ROLE",
      "outputs": [
        {
          "internalType": "bytes32",
          "name": "",
          "type": "bytes32"
        }
      ],
      "stateMutability": "view",
      "type": "function"
    },
    {
      "inputs": [
        {
          "internalType": "uint32",
          "name": "ymd",
          "type": "uint32"
        },
        {
          "internalType": "uint256",
          "name": "index",
          "type": "uint256"
        },
        {
          "internalType": "address",
          "name": "account",
          "type": "address"
        },
        {
          "internalType": "uint256",
          "name": "amount",
          "type": "uint256"
        },
        {
          "internalType": "bytes32[]",
          "name": "merkleProof",
          "type": "bytes32[]"
        }
      ],
      "name": "claim",
      "outputs": [],
      "stateMutability": "nonpayable",
      "type": "function"
    },
    {
      "inputs": [
        {
          "internalType": "uint32",
          "name": "ymd",
          "type": "uint32"
        },
        {
          "internalType": "uint256[]",
          "name": "indices",
          "type": "uint256[]"
        },
        {
          "internalType": "address[]",
          "name": "accounts",
          "type": "address[]"
        },
        {
          "internalType": "uint256[]",
          "name": "amounts",
          "type": "uint256[]"
        },
        {
          "internalType": "bytes32[][]",
          "name": "merkleProofs",
          "type": "bytes32[][]"
        }
      ],
      "name": "claimMany",
      "outputs": [],
      "stateMutability": "nonpayable",
      "type": "function"
    },
    {
      "inputs": [],
      "name": "eip712Domain",
      "outputs": [
        {
          "internalType": "bytes1",
          "name": "fields",
          "type": "bytes1"
        },
        {
          "internalType": "string",
          "name": "name",
          "type": "string"
        },
        {
          "internalType": "string",
          "name": "version",
          "type": "string"
        },
        {
          "internalType": "uint256",
          "name": "chainId",
          "type": "uint256"
        },
        {
          "internalType": "address",
          "name": "verifyingContract",
          "type": "address"
        },
        {
          "internalType": "bytes32",
          "name": "salt",
          "type": "bytes32"
        },
        {
          "internalType": "uint256[]",
          "name": "extensions",
          "type": "uint256[]"
        }
      ],
      "stateMutability": "view",
      "type": "function"
    },
    {
      "inputs": [
        {
          "internalType": "uint32",
          "name": "",
          "type": "uint32"
        }
      ],
      "name": "epochs",
      "outputs": [
        {
          "internalType": "bytes32",
          "name": "root",
          "type": "bytes32"
        },
        {
          "internalType": "uint256",
          "name": "totalAmount",
          "type": "uint256"
        },
        {
          "internalType": "uint256",
          "name": "totalClaimed",
          "type": "uint256"
        },
        {
          "internalType": "uint64",
          "name": "publishedAt",
          "type": "uint64"
        }
      ],
      "stateMutability": "view",
      "type": "function"
    },
    {
      "inputs": [
        {
          "internalType": "bytes32",
          "name": "role",
          "type": "bytes32"
        }
      ],
      "name": "getRoleAdmin",
      "outputs": [
        {
          "internalType": "bytes32",
          "name": "",
          "type": "bytes32"
        }
      ],
      "stateMutability": "view",
      "type": "function"
    },
    {
      "inputs": [
        {
          "internalType": "bytes32",
          "name": "role",
          "type": "bytes32"
        },
        {
          "internalType": "address",
          "name": "account",
          "type": "address"
        }
      ],
      "name": "grantRole",
      "outputs": [],
      "stateMutability": "nonpayable",
      "type": "function"
    },
    {
      "inputs": [
        {
          "internalType": "bytes32",
          "name": "role",
          "type": "bytes32"
        },
        {
          "internalType": "address",
          "name": "account",
          "type": "address"
        }
      ],
      "name": "hasRole",
      "outputs": [
        {
          "internalType": "bool",
          "name": "",
          "type": "bool"
        }
      ],
      "stateMutability": "view",
      "type": "function"
    },
    {
      "inputs": [
        {
          "internalType": "uint32",
          "name": "ymd",
          "type": "uint32"
        },
        {
          "internalType": "uint256",
          "name": "index",
          "type": "uint256"
        }
      ],
      "name": "isClaimed",
      "outputs": [
        {
          "internalType": "bool",
          "name": "",
          "type": "bool"
        }
      ],
      "stateMutability": "view",
      "type": "function"
    },
    {
      "inputs": [],
      "name": "oracleSigner",
      "outputs": [
        {
          "internalType": "address",
          "name": "",
          "type": "address"
        }
      ],
      "stateMutability": "view",
      "type": "function"
    },
    {
      "inputs": [],
      "name": "pause",
      "outputs": [],
      "stateMutability": "nonpayable",
      "type": "function"
    },
    {
      "inputs": [],
      "name": "paused",
      "outputs": [
        {
          "internalType": "bool",
          "name": "",
          "type": "bool"
        }
      ],
      "stateMutability": "view",
      "type": "function"
    },
    {
      "inputs": [
        {
          "internalType": "uint32",
          "name": "ymd",
          "type": "uint32"
        },
        {
          "internalType": "bytes32",
          "name": "root",
          "type": "bytes32"
        },
        {
          "internalType": "uint256",
          "name": "totalAmount",
          "type": "uint256"
        },
        {
          "internalType": "bytes",
          "name": "oracleSig",
          "type": "bytes"
        }
      ],
      "name": "publishEpoch",
      "outputs": [],
      "stateMutability": "nonpayable",
      "type": "function"
    },
    {
      "inputs": [
        {
          "internalType": "bytes32",
          "name": "role",
          "type": "bytes32"
        },
        {
          "internalType": "address",
          "name": "account",
          "type": "address"
        }
      ],
      "name": "renounceRole",
      "outputs": [],
      "stateMutability": "nonpayable",
      "type": "function"
    },
    {
      "inputs": [
        {
          "internalType": "bytes32",
          "name": "role",
          "type": "bytes32"
        },
        {
          "internalType": "address",
          "name": "account",
          "type": "address"
        }
      ],
      "name": "revokeRole",
      "outputs": [],
      "stateMutability": "nonpayable",
      "type": "function"
    },
    {
      "inputs": [],
      "name": "rewardToken",
      "outputs": [
        {
          "internalType": "contract IERC20",
          "name": "",
          "type": "address"
        }
      ],
      "stateMutability": "view",
      "type": "function"
    },
    {
      "inputs": [
        {
          "internalType": "address",
          "name": "newSigner",
          "type": "address"
        }
      ],
      "name": "setOracleSigner",
      "outputs": [],
      "stateMutability": "nonpayable",
      "type": "function"
    },
    {
      "inputs": [
        {
          "internalType": "bytes4",
          "name": "interfaceId",
          "type": "bytes4"
        }
      ],
      "name": "supportsInterface",
      "outputs": [
        {
          "internalType": "bool",
          "name": "",
          "type": "bool"
        }
      ],
      "stateMutability": "view",
      "type": "function"
    },
    {
      "inputs": [
        {
          "internalType": "address",
          "name": "token",
          "type": "address"
        },
        {
          "internalType": "address",
          "name": "to",
          "type": "address"
        },
        {
          "internalType": "uint256",
          "name": "amount",
          "type": "uint256"
        }
      ],
      "name": "sweepERC20",
      "outputs": [],
      "stateMutability": "nonpayable",
      "type": "function"
    },
    {
      "inputs": [],
      "name": "unpause",
      "outputs": [],
      "stateMutability": "nonpayable",
      "type": "function"
    }
  ],
  "bytecode": "0x61018034620003fd57601f620028b438819003918201601f1916830192916001600160401b039182851184861017620003e9578160609285926040978852833981010312620003fd5762000053826200041d565b6020936200007081620000688787016200041d565b95016200041d565b938294825193620000818562000401565b60188552878501967f47727565736f6d6541726361646545706f63685661756c74000000000000000088528451988998620000bc8a62000401565b600193848b52828b01603160f81b815260ff199283875416875586600255620000f6620000e98c62000432565b9d6101209e8f52620005fe565b9a6101409b8c525190209c8d60e0525190209b8c6101009d8e524660a052895190858201927f8b73c3c69bb8fe3d512ecc4cf759cc79239f7b179b0ffacaa9a75d522b39400f84528b83015260608201524660808201523060a082015260a0815260c081019b818d10908d1117620003e9578b8a525190206080523060c0526001600160a01b03968791821615620003e0575b169889158015620003d5575b620003c657505f9384805284835286888620941693848652835260ff88862054161562000392575b7f8a4778feaa2fc65ebc9ddd026461f05b6522e206b955ca87f94c0eebfa8bcb2c808652858452888620858752845260ff8987205416156200035d575b507f139c2898040ef16910dc9f44dc697df79363da767d8bc92f2e310312b816e46d808652858452888620858752845260ff89872054161562000328575b507f7a3eff9269e854ade0d22416748b19ef0f72ea2aa2c412736b530699d09a1aa292838652858152888620858752815260ff898720541615620002f1575b5050505050506101609485521660018060a01b0319600554161760055551926120d79485620007bd863960805185611caf015260a05185611d7a015260c05185611c79015260e05185611cfe01525184611d24015251836105370152518261056001525181818161012e01528181610365015261091c0152f35b8386528581528886209085875252878520918254161790555f8051602062002894833981519152339380a45f808080808062000277565b808652858452888620858752845288862082848254161790558433915f80516020620028948339815191528880a45f62000238565b808652858452888620858752845288862082848254161790558433915f80516020620028948339815191528880a45f620001fa565b848052848352878520848652835287852081838254161790553384865f80516020620028948339815191528180a4620001bd565b63019af63760e01b8152600490fd5b508686161562000195565b33945062000189565b634e487b7160e01b5f52604160045260245ffd5b5f80fd5b604081019081106001600160401b03821117620003e957604052565b51906001600160a01b0382168203620003fd57565b80516020919082811015620004ce575090601f8251116200046f57808251920151908083106200046157501790565b825f19910360031b1b161790565b90604051809263305a27a960e01b82528060048301528251908160248401525f935b828510620004b4575050604492505f838284010152601f80199101168101030190fd5b848101820151868601604401529381019385935062000491565b6001600160401b038111620003e9576003928354926001938481811c91168015620005f3575b83821014620005df57601f8111620005a9575b5081601f84116001146200054457509282939183925f9462000538575b50501b915f1990841b1c191617905560ff90565b015192505f8062000524565b919083601f198116875f52845f20945f905b888383106200058e575050501062000576575b505050811b01905560ff90565b01515f1983861b60f8161c191690555f808062000569565b85870151885590960195948501948793509081019062000556565b855f5284601f845f20920160051c820191601f860160051c015b828110620005d357505062000507565b5f8155018590620005c3565b634e487b7160e01b5f52602260045260245ffd5b90607f1690620004f4565b805160209190828110156200068c575090601f8251116200062d57808251920151908083106200046157501790565b90604051809263305a27a960e01b82528060048301528251908160248401525f935b82851062000672575050604492505f838284010152601f80199101168101030190fd5b84810182015186860160440152938101938593506200064f565b6001600160401b038111620003e9576004928354926001938481811c91168015620007b1575b838210146200079e57601f811162000768575b5081601f84116001146200070357509282939183925f94620006f7575b50501b915f199060031b1c191617905560ff90565b015192505f80620006e2565b919083601f198116875f52845f20945f905b888383106200074d57505050106200073457505050811b01905560ff90565b01515f1960f88460031b161c191690555f808062000569565b85870151885590960195948501948793509081019062000715565b855f5284601f845f20920160051c820191601f860160051c015b82811062000792575050620006c5565b5f815501859062000782565b602286634e487b7160e01b5f525260245ffd5b90607f1690620006b256fe6080806040526004361015610012575f80fd5b5f3560e01c90816301ffc9a714611254575080631709a61b1461122c5780631be16d6814611027578063248a9ca314610ffb57806328bff9db14610e7c5780632f2ff15d14610dd757806336568abe14610d45578063389ed26714610d0b5780633f4ba83a14610c78578063437b8c3d14610c3e578063503690d1146109d45780635c975abb146109b2578063812a66bf146106935780638456cb591461063b57806384b0196e146105225780638a0d3a6d146104e857806391d14854146104a05780639adf5bfb14610447578063a217fddf1461042d578063a4a60394146103cd578063cd53b5ed1461019f578063d547741f146101615763f7c618c114610119575f80fd5b3461015d575f36600319011261015d576040517f00000000000000000000000000000000000000000000000000000000000000006001600160a01b03168152602090f35b5f80fd5b3461015d57604036600319011261015d5761019d6004356101806112d0565b90805f525f602052610198600160405f200154611548565b6116a7565b005b3461015d5760a036600319011261015d576101b86112a7565b6044356001600160a01b03811691602435919083820361015d576001600160401b039160643560843584811161015d576101f69036906004016112e6565b906101ff611a58565b610207611df6565b63ffffffff851695865f52600660205260405f20926040519161022983611650565b845490818452600186015460208501526003600287015496604086019788520154166060840152156103bb57610287898863ffffffff165f52600760205260405f208160081c5f52602052600160ff60405f205492161b8091161490565b6103a9576102e36102e8938a6040516102d6816102c88b8d602084019687916054939183526001600160601b03199060601b16602083015260348201520190565b03601f198101835282611686565b5190209351923691611da0565b61202e565b156103975763ffffffff9093165f908152600760209081526040808320600889901c845282529091208054600160ff89161b1790557fd1b5b8c9d100bfc3b16695d68f4e525efde91df5a3391fde51101547d6726e4a939092610389918391906103549083905161171a565b875f5260068652600260405f2001557f0000000000000000000000000000000000000000000000000000000000000000611e4a565b604051908152a46001600255005b6040516309bde33960e01b8152600490fd5b604051630c8d9eab60e31b8152600490fd5b604051639294a90760e01b8152600490fd5b3461015d57602036600319011261015d5763ffffffff6103eb6112a7565b165f526006602052608060405f208054906001810154906001600160401b03600360028301549201541691604051938452602084015260408301526060820152f35b3461015d575f36600319011261015d5760206040515f8152f35b3461015d57604036600319011261015d5760206104966104656112a7565b6024359063ffffffff165f52600760205260405f208160081c5f52602052600160ff60405f205492161b8091161490565b6040519015158152f35b3461015d57604036600319011261015d576104b96112d0565b6004355f525f60205260405f209060018060a01b03165f52602052602060ff60405f2054166040519015158152f35b3461015d575f36600319011261015d5760206040517f7a3eff9269e854ade0d22416748b19ef0f72ea2aa2c412736b530699d09a1aa28152f35b3461015d575f36600319011261015d5761055b7f000000000000000000000000000000000000000000000000000000000000000061185e565b6105847f0000000000000000000000000000000000000000000000000000000000000000611985565b6040516020808201928284106001600160401b038511176106275791816105dc85946105ce97966040525f8452604051978897600f60f81b895260e0858a015260e0890190611337565b908782036040890152611337565b914660608701523060808701525f60a087015285830360c087015251918281520192915f5b82811061061057505050500390f35b835185528695509381019392810192600101610601565b634e487b7160e01b5f52604160045260245ffd5b3461015d575f36600319011261015d5761065361135c565b61065b611a58565b600160ff19815416176001557f62e78cea01bee320cd4e420270b5ea74000d11b0c9f74754ebdbfc544b05a2586020604051338152a1005b3461015d5760a036600319011261015d576106ac6112a7565b6024356001600160401b03811161015d576106cb9036906004016112e6565b90916044356001600160401b03811161015d576106ec9036906004016112e6565b93906064356001600160401b03811161015d5761070d9036906004016112e6565b6084969196356001600160401b03811161015d5761072f9036906004016112e6565b9091610739611a58565b610741611df6565b87156109a0578388036109a0578088036109a0578188036109a05763ffffffff87165f52600660205260405f20936040519461077c86611650565b6001600160401b036003825492838952600181015460208a0152600281015460408a01520154166060870152156103bb576040850151985f5b8181106107dc578a63ffffffff8b165f526006602052600260405f20015560016002555f80f35b6107e781838b612091565b359a6107f482858b612091565b359b6001600160a01b038d168d0361015d578b916108478f610818868a8693612091565b359463ffffffff165f52600760205260405f208160081c5f52602052600160ff60405f205492161b8091161490565b6103a9578d604051610881816102c88760208301958887916054939183526001600160601b03199060601b16602083015260348201520190565b5190208885101561098c5760059085821b8b0135601e198c36030181121561015d578b018035906001600160401b03821161015d576020829101931b3603831361015d576102e36108d6938e51923691611da0565b156103975763ffffffff8d165f908152600760209081526040808320600886901c845290915290208054600160ff85161b179055826109149161171a565b9c61094083827f0000000000000000000000000000000000000000000000000000000000000000611e4a565b6040519283526001600160a01b03169163ffffffff8d16907fd1b5b8c9d100bfc3b16695d68f4e525efde91df5a3391fde51101547d6726e4a90602090a461098790612083565b6107b5565b634e487b7160e01b5f52603260045260245ffd5b60405163019af63760e01b8152600490fd5b3461015d575f36600319011261015d57602060ff600154166040519015158152f35b3461015d57606036600319011261015d576109ed6112ba565b6109f56112d0565b335f9081527fc769b88eb89d6ba53f3ec0f7d1aed0c24ef3ba3fa415737e66da36e4751b54906020908152604090912054909291907f7a3eff9269e854ade0d22416748b19ef0f72ea2aa2c412736b530699d09a1aa29060ff1615610ab15750610a5d611df6565b6001600160a01b0381811615610a8357610a7c93506044359216611e4a565b6001600255005b60405162461bcd60e51b81526004810185905260066024820152656261645f746f60d01b6044820152606490fd5b83610abb33611753565b91604051610ac881611650565b6042815282810191606036843781511561098c5760308353815160019081101561098c57607860218401536041905b808211610be7575050610ba457610b7093610b7f9260489260405196879376020b1b1b2b9b9a1b7b73a3937b61d1030b1b1b7bab73a1604d1b88860152610b47815180928a603789019101611316565b8401917001034b99036b4b9b9b4b733903937b6329607d1b603784015251809386840190611316565b01036028810185520183611686565b610ba060405192839262461bcd60e51b845260048401526024830190611337565b0390fd5b6064836040519062461bcd60e51b825280600483015260248201527f537472696e67733a20686578206c656e67746820696e73756666696369656e746044820152fd5b9091600f8116601081101561098c576f181899199a1a9b1b9c1cb0b131b232b360811b901a610c168486611742565b5360041c918015610c2a575f190190610af7565b634e487b7160e01b5f52601160045260245ffd5b3461015d575f36600319011261015d5760206040517f8a4778feaa2fc65ebc9ddd026461f05b6522e206b955ca87f94c0eebfa8bcb2c8152f35b3461015d575f36600319011261015d57610c9061135c565b60015460ff811615610ccf5760ff19166001557f5db9ee0a495bf2e6ff9c91a7834c1ba4fdd244a5e8aa4e537bd38aeae4b073aa6020604051338152a1005b60405162461bcd60e51b815260206004820152601460248201527314185d5cd8589b194e881b9bdd081c185d5cd95960621b6044820152606490fd5b3461015d575f36600319011261015d5760206040517f139c2898040ef16910dc9f44dc697df79363da767d8bc92f2e310312b816e46d8152f35b3461015d57604036600319011261015d57610d5e6112d0565b336001600160a01b03821603610d7a5761019d906004356116a7565b60405162461bcd60e51b815260206004820152602f60248201527f416363657373436f6e74726f6c3a2063616e206f6e6c792072656e6f756e636560448201526e103937b632b9903337b91039b2b63360891b6064820152608490fd5b3461015d57604036600319011261015d57600435610df36112d0565b815f525f602052610e0a600160405f200154611548565b815f525f60205260405f209060018060a01b031690815f5260205260ff60405f20541615610e3457005b815f525f60205260405f20815f5260205260405f20600160ff1982541617905533917f2f8788117e7eff1d82e926ec794901d17c78024a50270940304540a733656f0d5f80a4005b3461015d5760208060031936011261015d57610e966112ba565b907f8a4778feaa2fc65ebc9ddd026461f05b6522e206b955ca87f94c0eebfa8bcb2c90815f525f815260405f20335f52815260ff60405f20541615610f23576001600160a01b038084169081156109a057600554826001600160601b0360a01b821617600555167f53484eb5c3028cc71fda017d41e647dea2740218d0f723d84cf7e98476459a8e5f80a3005b610f2c33611753565b91604051610f3981611650565b6042815282810191606036843781511561098c5760308353815160019081101561098c57607860218401536041905b808211610fb8575050610ba457610b7093610b7f9260489260405196879376020b1b1b2b9b9a1b7b73a3937b61d1030b1b1b7bab73a1604d1b88860152610b47815180928a603789019101611316565b9091600f8116601081101561098c576f181899199a1a9b1b9c1cb0b131b232b360811b901a610fe78486611742565b5360041c918015610c2a575f190190610f68565b3461015d57602036600319011261015d576004355f525f6020526020600160405f200154604051908152f35b3461015d57608036600319011261015d576110406112a7565b60243560443591606435906001600160401b039081831161015d573660238401121561015d5782600401359082821161015d57366024838601011161015d5763ffffffff9061108d611a58565b169283158015611224575b6109a057835f526020916006835260405f20546112125760405191838301917fba320b6e1cc6e4404727cad34304d72872c420ecbc50554923cb062724f18c3983528660408501528760608501528860808501526080845260a084019284841087851117610627578560425f926111679761115f9760405251902061111b611c76565b906040519161190160f01b835260028301526022820152209280602461114082611727565b9661114e6040519889611686565b828852018387013784010152611bb4565b919091611a9c565b6005546001600160a01b03908116911603611200576040517f3e739407bb6240cc61cfcbe24fd5f49e9ca93bbeaeb031a2528d315650cbd96c926111aa82611650565b858252600383830192888452604081015f815260608201948442168652885f526006875260405f2092518355516001830155516002820155019151166001600160401b03198254161790556040519485523394a4005b604051635cd5d23360e01b8152600490fd5b604051632dd26d2d60e11b8152600490fd5b508415611098565b3461015d575f36600319011261015d576005546040516001600160a01b039091168152602090f35b3461015d57602036600319011261015d576004359063ffffffff60e01b821680920361015d57602091637965db0b60e01b8114908115611296575b5015158152f35b6301ffc9a760e01b1490508361128f565b6004359063ffffffff8216820361015d57565b600435906001600160a01b038216820361015d57565b602435906001600160a01b038216820361015d57565b9181601f8401121561015d578235916001600160401b03831161015d576020808501948460051b01011161015d57565b5f5b8381106113275750505f910152565b8181015183820152602001611318565b9060209161135081518092818552858086019101611316565b601f01601f1916010190565b335f9081527f2a1c876995cd4a57e905c1e774dbbf9c042071dd6e15eba11379d9c34d645f27602090815260408083205490927f139c2898040ef16910dc9f44dc697df79363da767d8bc92f2e310312b816e46d9160ff16156113bf5750505050565b6113c833611753565b918451906113d582611650565b6042825284820192606036853782511561153457603084538251906001918210156115345790607860218501536041915b8183116114c757505050611485576048610ba09386936114699361145a985198899376020b1b1b2b9b9a1b7b73a3937b61d1030b1b1b7bab73a1604d1b8a860152610b47815180928c603789019101611316565b01036028810187520185611686565b5192839262461bcd60e51b845260048401526024830190611337565b60648486519062461bcd60e51b825280600483015260248201527f537472696e67733a20686578206c656e67746820696e73756666696369656e746044820152fd5b909192600f81166010811015611520576f181899199a1a9b1b9c1cb0b131b232b360811b901a6114f78587611742565b5360041c92801561150c575f19019190611406565b634e487b7160e01b82526011600452602482fd5b634e487b7160e01b83526032600452602483fd5b634e487b7160e01b81526032600452602490fd5b5f90808252602090828252604092838120338252835260ff8482205416156115705750505050565b61157933611753565b9184519061158682611650565b6042825284820192606036853782511561153457603084538251906001918210156115345790607860218501536041915b81831161160b57505050611485576048610ba09386936114699361145a985198899376020b1b1b2b9b9a1b7b73a3937b61d1030b1b1b7bab73a1604d1b8a860152610b47815180928c603789019101611316565b909192600f81166010811015611520576f181899199a1a9b1b9c1cb0b131b232b360811b901a61163b8587611742565b5360041c92801561150c575f190191906115b7565b608081019081106001600160401b0382111761062757604052565b604081019081106001600160401b0382111761062757604052565b90601f801991011681019081106001600160401b0382111761062757604052565b905f9180835282602052604083209160018060a01b03169182845260205260ff6040842054166116d657505050565b80835282602052604083208284526020526040832060ff1981541690557ff6391f5c32d9c69d2a47ea670b442974b53935d1edc7fd64eb21e047a839171b339380a4565b91908201809211610c2a57565b6001600160401b03811161062757601f01601f191660200190565b90815181101561098c570160200190565b60405190606082018281106001600160401b0382111761062757604052602a825260208201604036823782511561098c5760309053815160019081101561098c57607860218401536029905b8082116117f35750506117af5790565b606460405162461bcd60e51b815260206004820152602060248201527f537472696e67733a20686578206c656e67746820696e73756666696369656e746044820152fd5b9091600f8116601081101561184a576f181899199a1a9b1b9c1cb0b131b232b360811b901a6118228486611742565b5360041c918015611836575f19019061179f565b60245f634e487b7160e01b81526011600452fd5b60245f634e487b7160e01b81526032600452fd5b60ff811461189c5760ff811690601f821161188a57604051916118808361166b565b8252602082015290565b604051632cd44ac360e21b8152600490fd5b506040515f60035490600182811c9080841693841561197b575b6020948584108114611967578387528694939291811561194757506001146118ea575b50506118e792500382611686565b90565b9093915060035f527fc2575a0e9e593c00f959f8c92f12db2869c3395a3b0502d05e2516446f71f85b935f915b81831061192f5750506118e793508201015f806118d9565b85548784018501529485019486945091830191611917565b9150506118e794925060ff191682840152151560051b8201015f806118d9565b634e487b7160e01b85526022600452602485fd5b91607f16916118b6565b60ff81146119a75760ff811690601f821161188a57604051916118808361166b565b506040515f60045490600182811c90808416938415611a4e575b6020948584108114611967578387528694939291811561194757506001146119f15750506118e792500382611686565b9093915060045f527f8a35acfbc15ff81a39ae7d344fd709f28e8600b4aa8c65c6b64bfe7fe36bd19b935f915b818310611a365750506118e793508201015f806118d9565b85548784018501529485019486945091830191611a1e565b91607f16916119c1565b60ff60015416611a6457565b60405162461bcd60e51b815260206004820152601060248201526f14185d5cd8589b194e881c185d5cd95960821b6044820152606490fd5b6005811015611ba05780611aad5750565b60018103611afa5760405162461bcd60e51b815260206004820152601860248201527f45434453413a20696e76616c6964207369676e617475726500000000000000006044820152606490fd5b60028103611b475760405162461bcd60e51b815260206004820152601f60248201527f45434453413a20696e76616c6964207369676e6174757265206c656e677468006044820152606490fd5b600314611b5057565b60405162461bcd60e51b815260206004820152602260248201527f45434453413a20696e76616c6964207369676e6174757265202773272076616c604482015261756560f01b6064820152608490fd5b634e487b7160e01b5f52602160045260245ffd5b9060418151145f14611be057611bdc91602082015190606060408401519301515f1a90611be9565b9091565b50505f90600290565b9291907f7fffffffffffffffffffffffffffffff5d576e7357a4501ddfe92f46681b20a08311611c6b5791608094939160ff6020946040519485521684840152604083015260608201525f93849182805260015afa15611c5e5781516001600160a01b03811615611c58579190565b50600190565b50604051903d90823e3d90fd5b505050505f90600390565b307f00000000000000000000000000000000000000000000000000000000000000006001600160a01b03161480611d77575b15611cd1577f000000000000000000000000000000000000000000000000000000000000000090565b60405160208101907f8b73c3c69bb8fe3d512ecc4cf759cc79239f7b179b0ffacaa9a75d522b39400f82527f000000000000000000000000000000000000000000000000000000000000000060408201527f000000000000000000000000000000000000000000000000000000000000000060608201524660808201523060a082015260a0815260c081018181106001600160401b038211176106275760405251902090565b507f00000000000000000000000000000000000000000000000000000000000000004614611ca8565b9092916001600160401b038411610627578360051b6040519260208094611dc982850182611686565b809781520191810192831161015d57905b828210611de75750505050565b81358152908301908301611dda565b6002805414611e055760028055565b60405162461bcd60e51b815260206004820152601f60248201527f5265656e7472616e637947756172643a207265656e7472616e742063616c6c006044820152606490fd5b60405163a9059cbb60e01b60208083019182526001600160a01b03948516602484015260448084019690965294825292611ef492611e8783611650565b1660405191611e958361166b565b8583527f5361666545524332303a206c6f772d6c6576656c2063616c6c206661696c6564868401525f80958192519082855af13d15611f91573d91611ed983611727565b92611ee76040519485611686565b83523d868885013e611f95565b805191821591848315611f66575b505050905015611f0f5750565b6084906040519062461bcd60e51b82526004820152602a60248201527f5361666545524332303a204552433230206f7065726174696f6e20646964206e6044820152691bdd081cdd58d8d9595960b21b6064820152fd5b919381809450010312611f8d57820151908115158203611f8a5750805f8084611f02565b80fd5b5080fd5b6060915b91929015611ff75750815115611fa9575090565b3b15611fb25790565b60405162461bcd60e51b815260206004820152601d60248201527f416464726573733a2063616c6c20746f206e6f6e2d636f6e74726163740000006044820152606490fd5b82519091501561200a5750805190602001fd5b60405162461bcd60e51b815260206004820152908190610ba0906024830190611337565b9091905f915b815183101561207c576020808460051b84010151915f8382105f1461206b57505f525261206560405f205b92612083565b91612034565b90604092612065948352522061205f565b9150501490565b5f198114610c2a5760010190565b919081101561098c5760051b019056fea26469706673582212202bfb9dbf75fe681d84d632c62d6a33c3ef5057626728bef457dd2bf8b3496cbd64736f6c634300081400332f8788117e7eff1d82e926ec794901d17c78024a50270940304540a733656f0d",
  "linkReferences": {},
  "deployedLinkReferences": {},
  "immutableReferences": {
    "3099": [
      {
        "length": 32,
        "start": 7343
      }
    ],
    "3101": [
      {
        "length": 32,
        "start": 7546
      }
    ],
    "3103": [
      {
        "length": 32,
        "start": 7289
      }
    ],
    "3105": [
      {
        "length": 32,
        "start": 7422
      }
    ],
    "3107": [
      {
        "length": 32,
        "start": 7460
      }
    ],
    "3110": [
      {
        "length": 32,
        "start": 1335
      }
    ],
    "3113": [
      {
        "length": 32,
        "start": 1376
      }
    ],
    "4861": [
      {
        "length": 32,
        "start": 302
      },
      {
        "length": 32,
        "start": 869
      },
      {
        "length": 32,
        "start": 2332
      }
    ]
  },
  "inputSourceName": "project/contracts/ArcadeEpochVault.sol",
  "buildInfoId": "solc-0_8_20-52a20af19a9f24cef443eedca0d9249a4937011f"
}